{
	"Users/user/Desktop/git/solidity/interface.sol": {
		"interfaceEx": {
			"abi": [
				{
					"inputs": [
						{
							"internalType": "string",
							"name": "_name",
							"type": "string"
						},
						{
							"internalType": "uint256",
							"name": "_price",
							"type": "uint256"
						}
					],
					"name": "addItemInfo",
					"outputs": [],
					"stateMutability": "nonpayable",
					"type": "function"
				},
				{
					"inputs": [
						{
							"internalType": "uint256",
							"name": "_index",
							"type": "uint256"
						}
					],
					"name": "getItemInfo",
					"outputs": [
						{
							"components": [
								{
									"internalType": "string",
									"name": "name",
									"type": "string"
								},
								{
									"internalType": "uint256",
									"name": "price",
									"type": "uint256"
								}
							],
							"internalType": "struct ItemInfo.Item",
							"name": "",
							"type": "tuple"
						}
					],
					"stateMutability": "view",
					"type": "function"
				},
				{
					"inputs": [
						{
							"internalType": "uint256",
							"name": "",
							"type": "uint256"
						}
					],
					"name": "itemList",
					"outputs": [
						{
							"internalType": "string",
							"name": "name",
							"type": "string"
						},
						{
							"internalType": "uint256",
							"name": "price",
							"type": "uint256"
						}
					],
					"stateMutability": "view",
					"type": "function"
				}
			],
			"devdoc": {
				"kind": "dev",
				"methods": {},
				"version": 1
			},
			"evm": {
				"assembly": "    /* \"Users/user/Desktop/git/solidity/interface.sol\":296:602  contract interfaceEx is ItemInfo {... */\n  mstore(0x40, 0x80)\n  callvalue\n  dup1\n  iszero\n  tag_1\n  jumpi\n  0x00\n  dup1\n  revert\ntag_1:\n  pop\n  dataSize(sub_0)\n  dup1\n  dataOffset(sub_0)\n  0x00\n  codecopy\n  0x00\n  return\nstop\n\nsub_0: assembly {\n        /* \"Users/user/Desktop/git/solidity/interface.sol\":296:602  contract interfaceEx is ItemInfo {... */\n      mstore(0x40, 0x80)\n      callvalue\n      dup1\n      iszero\n      tag_1\n      jumpi\n      0x00\n      dup1\n      revert\n    tag_1:\n      pop\n      jumpi(tag_2, lt(calldatasize, 0x04))\n      shr(0xe0, calldataload(0x00))\n      dup1\n      0x3d4d3600\n      eq\n      tag_3\n      jumpi\n      dup1\n      0x7ba41e6f\n      eq\n      tag_4\n      jumpi\n      dup1\n      0xde7fe3e7\n      eq\n      tag_5\n      jumpi\n    tag_2:\n      0x00\n      dup1\n      revert\n        /* \"Users/user/Desktop/git/solidity/interface.sol\":335:357  Item[] public itemList */\n    tag_3:\n      tag_6\n      0x04\n      dup1\n      calldatasize\n      sub\n      dup2\n      add\n      swap1\n      tag_7\n      swap2\n      swap1\n      tag_8\n      jump\t// in\n    tag_7:\n      tag_9\n      jump\t// in\n    tag_6:\n      mload(0x40)\n      tag_10\n      swap3\n      swap2\n      swap1\n      tag_11\n      jump\t// in\n    tag_10:\n      mload(0x40)\n      dup1\n      swap2\n      sub\n      swap1\n      return\n        /* \"Users/user/Desktop/git/solidity/interface.sol\":365:482  function addItemInfo(string memory _name, uint256 _price) external {... */\n    tag_4:\n      tag_12\n      0x04\n      dup1\n      calldatasize\n      sub\n      dup2\n      add\n      swap1\n      tag_13\n      swap2\n      swap1\n      tag_14\n      jump\t// in\n    tag_13:\n      tag_15\n      jump\t// in\n    tag_12:\n      stop\n        /* \"Users/user/Desktop/git/solidity/interface.sol\":488:600  function getItemInfo(uint256 _index) external view returns(Item memory) {... */\n    tag_5:\n      tag_16\n      0x04\n      dup1\n      calldatasize\n      sub\n      dup2\n      add\n      swap1\n      tag_17\n      swap2\n      swap1\n      tag_8\n      jump\t// in\n    tag_17:\n      tag_18\n      jump\t// in\n    tag_16:\n      mload(0x40)\n      tag_19\n      swap2\n      swap1\n      tag_20\n      jump\t// in\n    tag_19:\n      mload(0x40)\n      dup1\n      swap2\n      sub\n      swap1\n      return\n        /* \"Users/user/Desktop/git/solidity/interface.sol\":335:357  Item[] public itemList */\n    tag_9:\n      0x00\n      dup2\n      dup2\n      sload\n      dup2\n      lt\n      tag_21\n      jumpi\n      0x00\n      dup1\n      revert\n    tag_21:\n      swap1\n      0x00\n      mstore\n      keccak256(0x00, 0x20)\n      swap1\n      0x02\n      mul\n      add\n      0x00\n      swap2\n      pop\n      swap1\n      pop\n      dup1\n      0x00\n      add\n      dup1\n      sload\n      tag_23\n      swap1\n      tag_24\n      jump\t// in\n    tag_23:\n      dup1\n      0x1f\n      add\n      0x20\n      dup1\n      swap2\n      div\n      mul\n      0x20\n      add\n      mload(0x40)\n      swap1\n      dup2\n      add\n      0x40\n      mstore\n      dup1\n      swap3\n      swap2\n      swap1\n      dup2\n      dup2\n      mstore\n      0x20\n      add\n      dup3\n      dup1\n      sload\n      tag_25\n      swap1\n      tag_24\n      jump\t// in\n    tag_25:\n      dup1\n      iszero\n      tag_26\n      jumpi\n      dup1\n      0x1f\n      lt\n      tag_27\n      jumpi\n      0x0100\n      dup1\n      dup4\n      sload\n      div\n      mul\n      dup4\n      mstore\n      swap2\n      0x20\n      add\n      swap2\n      jump(tag_26)\n    tag_27:\n      dup3\n      add\n      swap2\n      swap1\n      0x00\n      mstore\n      keccak256(0x00, 0x20)\n      swap1\n    tag_28:\n      dup2\n      sload\n      dup2\n      mstore\n      swap1\n      0x01\n      add\n      swap1\n      0x20\n      add\n      dup1\n      dup4\n      gt\n      tag_28\n      jumpi\n      dup3\n      swap1\n      sub\n      0x1f\n      and\n      dup3\n      add\n      swap2\n    tag_26:\n      pop\n      pop\n      pop\n      pop\n      pop\n      swap1\n      dup1\n      0x01\n      add\n      sload\n      swap1\n      pop\n      dup3\n      jump\t// out\n        /* \"Users/user/Desktop/git/solidity/interface.sol\":365:482  function addItemInfo(string memory _name, uint256 _price) external {... */\n    tag_15:\n        /* \"Users/user/Desktop/git/solidity/interface.sol\":442:450  itemList */\n      0x00\n        /* \"Users/user/Desktop/git/solidity/interface.sol\":456:474  Item(_name,_price) */\n      mload(0x40)\n      dup1\n      0x40\n      add\n      0x40\n      mstore\n      dup1\n        /* \"Users/user/Desktop/git/solidity/interface.sol\":461:466  _name */\n      dup5\n        /* \"Users/user/Desktop/git/solidity/interface.sol\":456:474  Item(_name,_price) */\n      dup2\n      mstore\n      0x20\n      add\n        /* \"Users/user/Desktop/git/solidity/interface.sol\":467:473  _price */\n      dup4\n        /* \"Users/user/Desktop/git/solidity/interface.sol\":456:474  Item(_name,_price) */\n      dup2\n      mstore\n      pop\n        /* \"Users/user/Desktop/git/solidity/interface.sol\":442:475  itemList.push(Item(_name,_price)) */\n      swap1\n      dup1\n      0x01\n      dup2\n      sload\n      add\n      dup1\n      dup3\n      sstore\n      dup1\n      swap2\n      pop\n      pop\n      0x01\n      swap1\n      sub\n      swap1\n      0x00\n      mstore\n      keccak256(0x00, 0x20)\n      swap1\n      0x02\n      mul\n      add\n      0x00\n      swap1\n      swap2\n      swap1\n      swap2\n      swap1\n      swap2\n      pop\n      0x00\n      dup3\n      add\n      mload\n      dup2\n      0x00\n      add\n      swap1\n      dup2\n      tag_31\n      swap2\n      swap1\n      tag_32\n      jump\t// in\n    tag_31:\n      pop\n      0x20\n      dup3\n      add\n      mload\n      dup2\n      0x01\n      add\n      sstore\n      pop\n      pop\n        /* \"Users/user/Desktop/git/solidity/interface.sol\":365:482  function addItemInfo(string memory _name, uint256 _price) external {... */\n      pop\n      pop\n      jump\t// out\n        /* \"Users/user/Desktop/git/solidity/interface.sol\":488:600  function getItemInfo(uint256 _index) external view returns(Item memory) {... */\n    tag_18:\n        /* \"Users/user/Desktop/git/solidity/interface.sol\":547:558  Item memory */\n      tag_33\n      tag_34\n      jump\t// in\n    tag_33:\n        /* \"Users/user/Desktop/git/solidity/interface.sol\":577:585  itemList */\n      0x00\n        /* \"Users/user/Desktop/git/solidity/interface.sol\":586:592  _index */\n      dup3\n        /* \"Users/user/Desktop/git/solidity/interface.sol\":577:593  itemList[_index] */\n      dup2\n      sload\n      dup2\n      lt\n      tag_36\n      jumpi\n      tag_37\n      tag_38\n      jump\t// in\n    tag_37:\n    tag_36:\n      swap1\n      0x00\n      mstore\n      keccak256(0x00, 0x20)\n      swap1\n      0x02\n      mul\n      add\n        /* \"Users/user/Desktop/git/solidity/interface.sol\":570:593  return itemList[_index] */\n      mload(0x40)\n      dup1\n      0x40\n      add\n      0x40\n      mstore\n      swap1\n      dup2\n      0x00\n      dup3\n      add\n      dup1\n      sload\n      tag_40\n      swap1\n      tag_24\n      jump\t// in\n    tag_40:\n      dup1\n      0x1f\n      add\n      0x20\n      dup1\n      swap2\n      div\n      mul\n      0x20\n      add\n      mload(0x40)\n      swap1\n      dup2\n      add\n      0x40\n      mstore\n      dup1\n      swap3\n      swap2\n      swap1\n      dup2\n      dup2\n      mstore\n      0x20\n      add\n      dup3\n      dup1\n      sload\n      tag_41\n      swap1\n      tag_24\n      jump\t// in\n    tag_41:\n      dup1\n      iszero\n      tag_42\n      jumpi\n      dup1\n      0x1f\n      lt\n      tag_43\n      jumpi\n      0x0100\n      dup1\n      dup4\n      sload\n      div\n      mul\n      dup4\n      mstore\n      swap2\n      0x20\n      add\n      swap2\n      jump(tag_42)\n    tag_43:\n      dup3\n      add\n      swap2\n      swap1\n      0x00\n      mstore\n      keccak256(0x00, 0x20)\n      swap1\n    tag_44:\n      dup2\n      sload\n      dup2\n      mstore\n      swap1\n      0x01\n      add\n      swap1\n      0x20\n      add\n      dup1\n      dup4\n      gt\n      tag_44\n      jumpi\n      dup3\n      swap1\n      sub\n      0x1f\n      and\n      dup3\n      add\n      swap2\n    tag_42:\n      pop\n      pop\n      pop\n      pop\n      pop\n      dup2\n      mstore\n      0x20\n      add\n      0x01\n      dup3\n      add\n      sload\n      dup2\n      mstore\n      pop\n      pop\n      swap1\n      pop\n        /* \"Users/user/Desktop/git/solidity/interface.sol\":488:600  function getItemInfo(uint256 _index) external view returns(Item memory) {... */\n      swap2\n      swap1\n      pop\n      jump\t// out\n    tag_34:\n      mload(0x40)\n      dup1\n      0x40\n      add\n      0x40\n      mstore\n      dup1\n      0x60\n      dup2\n      mstore\n      0x20\n      add\n      0x00\n      dup2\n      mstore\n      pop\n      swap1\n      jump\t// out\n        /* \"#utility.yul\":7:82   */\n    tag_45:\n        /* \"#utility.yul\":40:46   */\n      0x00\n        /* \"#utility.yul\":73:75   */\n      0x40\n        /* \"#utility.yul\":67:76   */\n      mload\n        /* \"#utility.yul\":57:76   */\n      swap1\n      pop\n        /* \"#utility.yul\":7:82   */\n      swap1\n      jump\t// out\n        /* \"#utility.yul\":88:205   */\n    tag_46:\n        /* \"#utility.yul\":197:198   */\n      0x00\n        /* \"#utility.yul\":194:195   */\n      dup1\n        /* \"#utility.yul\":187:199   */\n      revert\n        /* \"#utility.yul\":211:328   */\n    tag_47:\n        /* \"#utility.yul\":320:321   */\n      0x00\n        /* \"#utility.yul\":317:318   */\n      dup1\n        /* \"#utility.yul\":310:322   */\n      revert\n        /* \"#utility.yul\":334:411   */\n    tag_48:\n        /* \"#utility.yul\":371:378   */\n      0x00\n        /* \"#utility.yul\":400:405   */\n      dup2\n        /* \"#utility.yul\":389:405   */\n      swap1\n      pop\n        /* \"#utility.yul\":334:411   */\n      swap2\n      swap1\n      pop\n      jump\t// out\n        /* \"#utility.yul\":417:539   */\n    tag_49:\n        /* \"#utility.yul\":490:514   */\n      tag_92\n        /* \"#utility.yul\":508:513   */\n      dup2\n        /* \"#utility.yul\":490:514   */\n      tag_48\n      jump\t// in\n    tag_92:\n        /* \"#utility.yul\":483:488   */\n      dup2\n        /* \"#utility.yul\":480:515   */\n      eq\n        /* \"#utility.yul\":470:533   */\n      tag_93\n      jumpi\n        /* \"#utility.yul\":529:530   */\n      0x00\n        /* \"#utility.yul\":526:527   */\n      dup1\n        /* \"#utility.yul\":519:531   */\n      revert\n        /* \"#utility.yul\":470:533   */\n    tag_93:\n        /* \"#utility.yul\":417:539   */\n      pop\n      jump\t// out\n        /* \"#utility.yul\":545:684   */\n    tag_50:\n        /* \"#utility.yul\":591:596   */\n      0x00\n        /* \"#utility.yul\":629:635   */\n      dup2\n        /* \"#utility.yul\":616:636   */\n      calldataload\n        /* \"#utility.yul\":607:636   */\n      swap1\n      pop\n        /* \"#utility.yul\":645:678   */\n      tag_95\n        /* \"#utility.yul\":672:677   */\n      dup2\n        /* \"#utility.yul\":645:678   */\n      tag_49\n      jump\t// in\n    tag_95:\n        /* \"#utility.yul\":545:684   */\n      swap3\n      swap2\n      pop\n      pop\n      jump\t// out\n        /* \"#utility.yul\":690:1019   */\n    tag_8:\n        /* \"#utility.yul\":749:755   */\n      0x00\n        /* \"#utility.yul\":798:800   */\n      0x20\n        /* \"#utility.yul\":786:795   */\n      dup3\n        /* \"#utility.yul\":777:784   */\n      dup5\n        /* \"#utility.yul\":773:796   */\n      sub\n        /* \"#utility.yul\":769:801   */\n      slt\n        /* \"#utility.yul\":766:885   */\n      iszero\n      tag_97\n      jumpi\n        /* \"#utility.yul\":804:883   */\n      tag_98\n      tag_46\n      jump\t// in\n    tag_98:\n        /* \"#utility.yul\":766:885   */\n    tag_97:\n        /* \"#utility.yul\":924:925   */\n      0x00\n        /* \"#utility.yul\":949:1002   */\n      tag_99\n        /* \"#utility.yul\":994:1001   */\n      dup5\n        /* \"#utility.yul\":985:991   */\n      dup3\n        /* \"#utility.yul\":974:983   */\n      dup6\n        /* \"#utility.yul\":970:992   */\n      add\n        /* \"#utility.yul\":949:1002   */\n      tag_50\n      jump\t// in\n    tag_99:\n        /* \"#utility.yul\":939:1002   */\n      swap2\n      pop\n        /* \"#utility.yul\":895:1012   */\n      pop\n        /* \"#utility.yul\":690:1019   */\n      swap3\n      swap2\n      pop\n      pop\n      jump\t// out\n        /* \"#utility.yul\":1025:1124   */\n    tag_51:\n        /* \"#utility.yul\":1077:1083   */\n      0x00\n        /* \"#utility.yul\":1111:1116   */\n      dup2\n        /* \"#utility.yul\":1105:1117   */\n      mload\n        /* \"#utility.yul\":1095:1117   */\n      swap1\n      pop\n        /* \"#utility.yul\":1025:1124   */\n      swap2\n      swap1\n      pop\n      jump\t// out\n        /* \"#utility.yul\":1130:1299   */\n    tag_52:\n        /* \"#utility.yul\":1214:1225   */\n      0x00\n        /* \"#utility.yul\":1248:1254   */\n      dup3\n        /* \"#utility.yul\":1243:1246   */\n      dup3\n        /* \"#utility.yul\":1236:1255   */\n      mstore\n        /* \"#utility.yul\":1288:1292   */\n      0x20\n        /* \"#utility.yul\":1283:1286   */\n      dup3\n        /* \"#utility.yul\":1279:1293   */\n      add\n        /* \"#utility.yul\":1264:1293   */\n      swap1\n      pop\n        /* \"#utility.yul\":1130:1299   */\n      swap3\n      swap2\n      pop\n      pop\n      jump\t// out\n        /* \"#utility.yul\":1305:1551   */\n    tag_53:\n        /* \"#utility.yul\":1386:1387   */\n      0x00\n        /* \"#utility.yul\":1396:1509   */\n    tag_103:\n        /* \"#utility.yul\":1410:1416   */\n      dup4\n        /* \"#utility.yul\":1407:1408   */\n      dup2\n        /* \"#utility.yul\":1404:1417   */\n      lt\n        /* \"#utility.yul\":1396:1509   */\n      iszero\n      tag_105\n      jumpi\n        /* \"#utility.yul\":1495:1496   */\n      dup1\n        /* \"#utility.yul\":1490:1493   */\n      dup3\n        /* \"#utility.yul\":1486:1497   */\n      add\n        /* \"#utility.yul\":1480:1498   */\n      mload\n        /* \"#utility.yul\":1476:1477   */\n      dup2\n        /* \"#utility.yul\":1471:1474   */\n      dup5\n        /* \"#utility.yul\":1467:1478   */\n      add\n        /* \"#utility.yul\":1460:1499   */\n      mstore\n        /* \"#utility.yul\":1432:1434   */\n      0x20\n        /* \"#utility.yul\":1429:1430   */\n      dup2\n        /* \"#utility.yul\":1425:1435   */\n      add\n        /* \"#utility.yul\":1420:1435   */\n      swap1\n      pop\n        /* \"#utility.yul\":1396:1509   */\n      jump(tag_103)\n    tag_105:\n        /* \"#utility.yul\":1543:1544   */\n      0x00\n        /* \"#utility.yul\":1534:1540   */\n      dup5\n        /* \"#utility.yul\":1529:1532   */\n      dup5\n        /* \"#utility.yul\":1525:1541   */\n      add\n        /* \"#utility.yul\":1518:1545   */\n      mstore\n        /* \"#utility.yul\":1367:1551   */\n      pop\n        /* \"#utility.yul\":1305:1551   */\n      pop\n      pop\n      pop\n      jump\t// out\n        /* \"#utility.yul\":1557:1659   */\n    tag_54:\n        /* \"#utility.yul\":1598:1604   */\n      0x00\n        /* \"#utility.yul\":1649:1651   */\n      0x1f\n        /* \"#utility.yul\":1645:1652   */\n      not\n        /* \"#utility.yul\":1640:1642   */\n      0x1f\n        /* \"#utility.yul\":1633:1638   */\n      dup4\n        /* \"#utility.yul\":1629:1643   */\n      add\n        /* \"#utility.yul\":1625:1653   */\n      and\n        /* \"#utility.yul\":1615:1653   */\n      swap1\n      pop\n        /* \"#utility.yul\":1557:1659   */\n      swap2\n      swap1\n      pop\n      jump\t// out\n        /* \"#utility.yul\":1665:2042   */\n    tag_55:\n        /* \"#utility.yul\":1753:1756   */\n      0x00\n        /* \"#utility.yul\":1781:1820   */\n      tag_108\n        /* \"#utility.yul\":1814:1819   */\n      dup3\n        /* \"#utility.yul\":1781:1820   */\n      tag_51\n      jump\t// in\n    tag_108:\n        /* \"#utility.yul\":1836:1907   */\n      tag_109\n        /* \"#utility.yul\":1900:1906   */\n      dup2\n        /* \"#utility.yul\":1895:1898   */\n      dup6\n        /* \"#utility.yul\":1836:1907   */\n      tag_52\n      jump\t// in\n    tag_109:\n        /* \"#utility.yul\":1829:1907   */\n      swap4\n      pop\n        /* \"#utility.yul\":1916:1981   */\n      tag_110\n        /* \"#utility.yul\":1974:1980   */\n      dup2\n        /* \"#utility.yul\":1969:1972   */\n      dup6\n        /* \"#utility.yul\":1962:1966   */\n      0x20\n        /* \"#utility.yul\":1955:1960   */\n      dup7\n        /* \"#utility.yul\":1951:1967   */\n      add\n        /* \"#utility.yul\":1916:1981   */\n      tag_53\n      jump\t// in\n    tag_110:\n        /* \"#utility.yul\":2006:2035   */\n      tag_111\n        /* \"#utility.yul\":2028:2034   */\n      dup2\n        /* \"#utility.yul\":2006:2035   */\n      tag_54\n      jump\t// in\n    tag_111:\n        /* \"#utility.yul\":2001:2004   */\n      dup5\n        /* \"#utility.yul\":1997:2036   */\n      add\n        /* \"#utility.yul\":1990:2036   */\n      swap2\n      pop\n        /* \"#utility.yul\":1757:2042   */\n      pop\n        /* \"#utility.yul\":1665:2042   */\n      swap3\n      swap2\n      pop\n      pop\n      jump\t// out\n        /* \"#utility.yul\":2048:2166   */\n    tag_56:\n        /* \"#utility.yul\":2135:2159   */\n      tag_113\n        /* \"#utility.yul\":2153:2158   */\n      dup2\n        /* \"#utility.yul\":2135:2159   */\n      tag_48\n      jump\t// in\n    tag_113:\n        /* \"#utility.yul\":2130:2133   */\n      dup3\n        /* \"#utility.yul\":2123:2160   */\n      mstore\n        /* \"#utility.yul\":2048:2166   */\n      pop\n      pop\n      jump\t// out\n        /* \"#utility.yul\":2172:2595   */\n    tag_11:\n        /* \"#utility.yul\":2313:2317   */\n      0x00\n        /* \"#utility.yul\":2351:2353   */\n      0x40\n        /* \"#utility.yul\":2340:2349   */\n      dup3\n        /* \"#utility.yul\":2336:2354   */\n      add\n        /* \"#utility.yul\":2328:2354   */\n      swap1\n      pop\n        /* \"#utility.yul\":2400:2409   */\n      dup2\n        /* \"#utility.yul\":2394:2398   */\n      dup2\n        /* \"#utility.yul\":2390:2410   */\n      sub\n        /* \"#utility.yul\":2386:2387   */\n      0x00\n        /* \"#utility.yul\":2375:2384   */\n      dup4\n        /* \"#utility.yul\":2371:2388   */\n      add\n        /* \"#utility.yul\":2364:2411   */\n      mstore\n        /* \"#utility.yul\":2428:2506   */\n      tag_115\n        /* \"#utility.yul\":2501:2505   */\n      dup2\n        /* \"#utility.yul\":2492:2498   */\n      dup6\n        /* \"#utility.yul\":2428:2506   */\n      tag_55\n      jump\t// in\n    tag_115:\n        /* \"#utility.yul\":2420:2506   */\n      swap1\n      pop\n        /* \"#utility.yul\":2516:2588   */\n      tag_116\n        /* \"#utility.yul\":2584:2586   */\n      0x20\n        /* \"#utility.yul\":2573:2582   */\n      dup4\n        /* \"#utility.yul\":2569:2587   */\n      add\n        /* \"#utility.yul\":2560:2566   */\n      dup5\n        /* \"#utility.yul\":2516:2588   */\n      tag_56\n      jump\t// in\n    tag_116:\n        /* \"#utility.yul\":2172:2595   */\n      swap4\n      swap3\n      pop\n      pop\n      pop\n      jump\t// out\n        /* \"#utility.yul\":2601:2718   */\n    tag_57:\n        /* \"#utility.yul\":2710:2711   */\n      0x00\n        /* \"#utility.yul\":2707:2708   */\n      dup1\n        /* \"#utility.yul\":2700:2712   */\n      revert\n        /* \"#utility.yul\":2724:2841   */\n    tag_58:\n        /* \"#utility.yul\":2833:2834   */\n      0x00\n        /* \"#utility.yul\":2830:2831   */\n      dup1\n        /* \"#utility.yul\":2823:2835   */\n      revert\n        /* \"#utility.yul\":2847:3027   */\n    tag_59:\n        /* \"#utility.yul\":2895:2972   */\n      0x4e487b7100000000000000000000000000000000000000000000000000000000\n        /* \"#utility.yul\":2892:2893   */\n      0x00\n        /* \"#utility.yul\":2885:2973   */\n      mstore\n        /* \"#utility.yul\":2992:2996   */\n      0x41\n        /* \"#utility.yul\":2989:2990   */\n      0x04\n        /* \"#utility.yul\":2982:2997   */\n      mstore\n        /* \"#utility.yul\":3016:3020   */\n      0x24\n        /* \"#utility.yul\":3013:3014   */\n      0x00\n        /* \"#utility.yul\":3006:3021   */\n      revert\n        /* \"#utility.yul\":3033:3314   */\n    tag_60:\n        /* \"#utility.yul\":3116:3143   */\n      tag_121\n        /* \"#utility.yul\":3138:3142   */\n      dup3\n        /* \"#utility.yul\":3116:3143   */\n      tag_54\n      jump\t// in\n    tag_121:\n        /* \"#utility.yul\":3108:3114   */\n      dup2\n        /* \"#utility.yul\":3104:3144   */\n      add\n        /* \"#utility.yul\":3246:3252   */\n      dup2\n        /* \"#utility.yul\":3234:3244   */\n      dup2\n        /* \"#utility.yul\":3231:3253   */\n      lt\n        /* \"#utility.yul\":3210:3228   */\n      0xffffffffffffffff\n        /* \"#utility.yul\":3198:3208   */\n      dup3\n        /* \"#utility.yul\":3195:3229   */\n      gt\n        /* \"#utility.yul\":3192:3254   */\n      or\n        /* \"#utility.yul\":3189:3277   */\n      iszero\n      tag_122\n      jumpi\n        /* \"#utility.yul\":3257:3275   */\n      tag_123\n      tag_59\n      jump\t// in\n    tag_123:\n        /* \"#utility.yul\":3189:3277   */\n    tag_122:\n        /* \"#utility.yul\":3297:3307   */\n      dup1\n        /* \"#utility.yul\":3293:3295   */\n      0x40\n        /* \"#utility.yul\":3286:3308   */\n      mstore\n        /* \"#utility.yul\":3076:3314   */\n      pop\n        /* \"#utility.yul\":3033:3314   */\n      pop\n      pop\n      jump\t// out\n        /* \"#utility.yul\":3320:3449   */\n    tag_61:\n        /* \"#utility.yul\":3354:3360   */\n      0x00\n        /* \"#utility.yul\":3381:3401   */\n      tag_125\n      tag_45\n      jump\t// in\n    tag_125:\n        /* \"#utility.yul\":3371:3401   */\n      swap1\n      pop\n        /* \"#utility.yul\":3410:3443   */\n      tag_126\n        /* \"#utility.yul\":3438:3442   */\n      dup3\n        /* \"#utility.yul\":3430:3436   */\n      dup3\n        /* \"#utility.yul\":3410:3443   */\n      tag_60\n      jump\t// in\n    tag_126:\n        /* \"#utility.yul\":3320:3449   */\n      swap2\n      swap1\n      pop\n      jump\t// out\n        /* \"#utility.yul\":3455:3763   */\n    tag_62:\n        /* \"#utility.yul\":3517:3521   */\n      0x00\n        /* \"#utility.yul\":3607:3625   */\n      0xffffffffffffffff\n        /* \"#utility.yul\":3599:3605   */\n      dup3\n        /* \"#utility.yul\":3596:3626   */\n      gt\n        /* \"#utility.yul\":3593:3649   */\n      iszero\n      tag_128\n      jumpi\n        /* \"#utility.yul\":3629:3647   */\n      tag_129\n      tag_59\n      jump\t// in\n    tag_129:\n        /* \"#utility.yul\":3593:3649   */\n    tag_128:\n        /* \"#utility.yul\":3667:3696   */\n      tag_130\n        /* \"#utility.yul\":3689:3695   */\n      dup3\n        /* \"#utility.yul\":3667:3696   */\n      tag_54\n      jump\t// in\n    tag_130:\n        /* \"#utility.yul\":3659:3696   */\n      swap1\n      pop\n        /* \"#utility.yul\":3751:3755   */\n      0x20\n        /* \"#utility.yul\":3745:3749   */\n      dup2\n        /* \"#utility.yul\":3741:3756   */\n      add\n        /* \"#utility.yul\":3733:3756   */\n      swap1\n      pop\n        /* \"#utility.yul\":3455:3763   */\n      swap2\n      swap1\n      pop\n      jump\t// out\n        /* \"#utility.yul\":3769:3915   */\n    tag_63:\n        /* \"#utility.yul\":3866:3872   */\n      dup3\n        /* \"#utility.yul\":3861:3864   */\n      dup2\n        /* \"#utility.yul\":3856:3859   */\n      dup4\n        /* \"#utility.yul\":3843:3873   */\n      calldatacopy\n        /* \"#utility.yul\":3907:3908   */\n      0x00\n        /* \"#utility.yul\":3898:3904   */\n      dup4\n        /* \"#utility.yul\":3893:3896   */\n      dup4\n        /* \"#utility.yul\":3889:3905   */\n      add\n        /* \"#utility.yul\":3882:3909   */\n      mstore\n        /* \"#utility.yul\":3769:3915   */\n      pop\n      pop\n      pop\n      jump\t// out\n        /* \"#utility.yul\":3921:4346   */\n    tag_64:\n        /* \"#utility.yul\":3999:4004   */\n      0x00\n        /* \"#utility.yul\":4024:4090   */\n      tag_133\n        /* \"#utility.yul\":4040:4089   */\n      tag_134\n        /* \"#utility.yul\":4082:4088   */\n      dup5\n        /* \"#utility.yul\":4040:4089   */\n      tag_62\n      jump\t// in\n    tag_134:\n        /* \"#utility.yul\":4024:4090   */\n      tag_61\n      jump\t// in\n    tag_133:\n        /* \"#utility.yul\":4015:4090   */\n      swap1\n      pop\n        /* \"#utility.yul\":4113:4119   */\n      dup3\n        /* \"#utility.yul\":4106:4111   */\n      dup2\n        /* \"#utility.yul\":4099:4120   */\n      mstore\n        /* \"#utility.yul\":4151:4155   */\n      0x20\n        /* \"#utility.yul\":4144:4149   */\n      dup2\n        /* \"#utility.yul\":4140:4156   */\n      add\n        /* \"#utility.yul\":4189:4192   */\n      dup5\n        /* \"#utility.yul\":4180:4186   */\n      dup5\n        /* \"#utility.yul\":4175:4178   */\n      dup5\n        /* \"#utility.yul\":4171:4187   */\n      add\n        /* \"#utility.yul\":4168:4193   */\n      gt\n        /* \"#utility.yul\":4165:4277   */\n      iszero\n      tag_135\n      jumpi\n        /* \"#utility.yul\":4196:4275   */\n      tag_136\n      tag_58\n      jump\t// in\n    tag_136:\n        /* \"#utility.yul\":4165:4277   */\n    tag_135:\n        /* \"#utility.yul\":4286:4340   */\n      tag_137\n        /* \"#utility.yul\":4333:4339   */\n      dup5\n        /* \"#utility.yul\":4328:4331   */\n      dup3\n        /* \"#utility.yul\":4323:4326   */\n      dup6\n        /* \"#utility.yul\":4286:4340   */\n      tag_63\n      jump\t// in\n    tag_137:\n        /* \"#utility.yul\":4005:4346   */\n      pop\n        /* \"#utility.yul\":3921:4346   */\n      swap4\n      swap3\n      pop\n      pop\n      pop\n      jump\t// out\n        /* \"#utility.yul\":4366:4706   */\n    tag_65:\n        /* \"#utility.yul\":4422:4427   */\n      0x00\n        /* \"#utility.yul\":4471:4474   */\n      dup3\n        /* \"#utility.yul\":4464:4468   */\n      0x1f\n        /* \"#utility.yul\":4456:4462   */\n      dup4\n        /* \"#utility.yul\":4452:4469   */\n      add\n        /* \"#utility.yul\":4448:4475   */\n      slt\n        /* \"#utility.yul\":4438:4560   */\n      tag_139\n      jumpi\n        /* \"#utility.yul\":4479:4558   */\n      tag_140\n      tag_57\n      jump\t// in\n    tag_140:\n        /* \"#utility.yul\":4438:4560   */\n    tag_139:\n        /* \"#utility.yul\":4596:4602   */\n      dup2\n        /* \"#utility.yul\":4583:4603   */\n      calldataload\n        /* \"#utility.yul\":4621:4700   */\n      tag_141\n        /* \"#utility.yul\":4696:4699   */\n      dup5\n        /* \"#utility.yul\":4688:4694   */\n      dup3\n        /* \"#utility.yul\":4681:4685   */\n      0x20\n        /* \"#utility.yul\":4673:4679   */\n      dup7\n        /* \"#utility.yul\":4669:4686   */\n      add\n        /* \"#utility.yul\":4621:4700   */\n      tag_64\n      jump\t// in\n    tag_141:\n        /* \"#utility.yul\":4612:4700   */\n      swap2\n      pop\n        /* \"#utility.yul\":4428:4706   */\n      pop\n        /* \"#utility.yul\":4366:4706   */\n      swap3\n      swap2\n      pop\n      pop\n      jump\t// out\n        /* \"#utility.yul\":4712:5366   */\n    tag_14:\n        /* \"#utility.yul\":4790:4796   */\n      0x00\n        /* \"#utility.yul\":4798:4804   */\n      dup1\n        /* \"#utility.yul\":4847:4849   */\n      0x40\n        /* \"#utility.yul\":4835:4844   */\n      dup4\n        /* \"#utility.yul\":4826:4833   */\n      dup6\n        /* \"#utility.yul\":4822:4845   */\n      sub\n        /* \"#utility.yul\":4818:4850   */\n      slt\n        /* \"#utility.yul\":4815:4934   */\n      iszero\n      tag_143\n      jumpi\n        /* \"#utility.yul\":4853:4932   */\n      tag_144\n      tag_46\n      jump\t// in\n    tag_144:\n        /* \"#utility.yul\":4815:4934   */\n    tag_143:\n        /* \"#utility.yul\":5001:5002   */\n      0x00\n        /* \"#utility.yul\":4990:4999   */\n      dup4\n        /* \"#utility.yul\":4986:5003   */\n      add\n        /* \"#utility.yul\":4973:5004   */\n      calldataload\n        /* \"#utility.yul\":5031:5049   */\n      0xffffffffffffffff\n        /* \"#utility.yul\":5023:5029   */\n      dup2\n        /* \"#utility.yul\":5020:5050   */\n      gt\n        /* \"#utility.yul\":5017:5134   */\n      iszero\n      tag_145\n      jumpi\n        /* \"#utility.yul\":5053:5132   */\n      tag_146\n      tag_47\n      jump\t// in\n    tag_146:\n        /* \"#utility.yul\":5017:5134   */\n    tag_145:\n        /* \"#utility.yul\":5158:5221   */\n      tag_147\n        /* \"#utility.yul\":5213:5220   */\n      dup6\n        /* \"#utility.yul\":5204:5210   */\n      dup3\n        /* \"#utility.yul\":5193:5202   */\n      dup7\n        /* \"#utility.yul\":5189:5211   */\n      add\n        /* \"#utility.yul\":5158:5221   */\n      tag_65\n      jump\t// in\n    tag_147:\n        /* \"#utility.yul\":5148:5221   */\n      swap3\n      pop\n        /* \"#utility.yul\":4944:5231   */\n      pop\n        /* \"#utility.yul\":5270:5272   */\n      0x20\n        /* \"#utility.yul\":5296:5349   */\n      tag_148\n        /* \"#utility.yul\":5341:5348   */\n      dup6\n        /* \"#utility.yul\":5332:5338   */\n      dup3\n        /* \"#utility.yul\":5321:5330   */\n      dup7\n        /* \"#utility.yul\":5317:5339   */\n      add\n        /* \"#utility.yul\":5296:5349   */\n      tag_50\n      jump\t// in\n    tag_148:\n        /* \"#utility.yul\":5286:5349   */\n      swap2\n      pop\n        /* \"#utility.yul\":5241:5359   */\n      pop\n        /* \"#utility.yul\":4712:5366   */\n      swap3\n      pop\n      swap3\n      swap1\n      pop\n      jump\t// out\n        /* \"#utility.yul\":5372:5531   */\n    tag_66:\n        /* \"#utility.yul\":5446:5457   */\n      0x00\n        /* \"#utility.yul\":5480:5486   */\n      dup3\n        /* \"#utility.yul\":5475:5478   */\n      dup3\n        /* \"#utility.yul\":5468:5487   */\n      mstore\n        /* \"#utility.yul\":5520:5524   */\n      0x20\n        /* \"#utility.yul\":5515:5518   */\n      dup3\n        /* \"#utility.yul\":5511:5525   */\n      add\n        /* \"#utility.yul\":5496:5525   */\n      swap1\n      pop\n        /* \"#utility.yul\":5372:5531   */\n      swap3\n      swap2\n      pop\n      pop\n      jump\t// out\n        /* \"#utility.yul\":5537:5894   */\n    tag_67:\n        /* \"#utility.yul\":5615:5618   */\n      0x00\n        /* \"#utility.yul\":5643:5682   */\n      tag_151\n        /* \"#utility.yul\":5676:5681   */\n      dup3\n        /* \"#utility.yul\":5643:5682   */\n      tag_51\n      jump\t// in\n    tag_151:\n        /* \"#utility.yul\":5698:5759   */\n      tag_152\n        /* \"#utility.yul\":5752:5758   */\n      dup2\n        /* \"#utility.yul\":5747:5750   */\n      dup6\n        /* \"#utility.yul\":5698:5759   */\n      tag_66\n      jump\t// in\n    tag_152:\n        /* \"#utility.yul\":5691:5759   */\n      swap4\n      pop\n        /* \"#utility.yul\":5768:5833   */\n      tag_153\n        /* \"#utility.yul\":5826:5832   */\n      dup2\n        /* \"#utility.yul\":5821:5824   */\n      dup6\n        /* \"#utility.yul\":5814:5818   */\n      0x20\n        /* \"#utility.yul\":5807:5812   */\n      dup7\n        /* \"#utility.yul\":5803:5819   */\n      add\n        /* \"#utility.yul\":5768:5833   */\n      tag_53\n      jump\t// in\n    tag_153:\n        /* \"#utility.yul\":5858:5887   */\n      tag_154\n        /* \"#utility.yul\":5880:5886   */\n      dup2\n        /* \"#utility.yul\":5858:5887   */\n      tag_54\n      jump\t// in\n    tag_154:\n        /* \"#utility.yul\":5853:5856   */\n      dup5\n        /* \"#utility.yul\":5849:5888   */\n      add\n        /* \"#utility.yul\":5842:5888   */\n      swap2\n      pop\n        /* \"#utility.yul\":5619:5894   */\n      pop\n        /* \"#utility.yul\":5537:5894   */\n      swap3\n      swap2\n      pop\n      pop\n      jump\t// out\n        /* \"#utility.yul\":5900:6008   */\n    tag_68:\n        /* \"#utility.yul\":5977:6001   */\n      tag_156\n        /* \"#utility.yul\":5995:6000   */\n      dup2\n        /* \"#utility.yul\":5977:6001   */\n      tag_48\n      jump\t// in\n    tag_156:\n        /* \"#utility.yul\":5972:5975   */\n      dup3\n        /* \"#utility.yul\":5965:6002   */\n      mstore\n        /* \"#utility.yul\":5900:6008   */\n      pop\n      pop\n      jump\t// out\n        /* \"#utility.yul\":6066:6661   */\n    tag_69:\n        /* \"#utility.yul\":6173:6176   */\n      0x00\n        /* \"#utility.yul\":6209:6213   */\n      0x40\n        /* \"#utility.yul\":6204:6207   */\n      dup4\n        /* \"#utility.yul\":6200:6214   */\n      add\n        /* \"#utility.yul\":6296:6300   */\n      0x00\n        /* \"#utility.yul\":6289:6294   */\n      dup4\n        /* \"#utility.yul\":6285:6301   */\n      add\n        /* \"#utility.yul\":6279:6302   */\n      mload\n        /* \"#utility.yul\":6349:6352   */\n      dup5\n        /* \"#utility.yul\":6343:6347   */\n      dup3\n        /* \"#utility.yul\":6339:6353   */\n      sub\n        /* \"#utility.yul\":6332:6336   */\n      0x00\n        /* \"#utility.yul\":6327:6330   */\n      dup7\n        /* \"#utility.yul\":6323:6337   */\n      add\n        /* \"#utility.yul\":6316:6354   */\n      mstore\n        /* \"#utility.yul\":6375:6448   */\n      tag_158\n        /* \"#utility.yul\":6443:6447   */\n      dup3\n        /* \"#utility.yul\":6429:6441   */\n      dup3\n        /* \"#utility.yul\":6375:6448   */\n      tag_67\n      jump\t// in\n    tag_158:\n        /* \"#utility.yul\":6367:6448   */\n      swap2\n      pop\n        /* \"#utility.yul\":6224:6459   */\n      pop\n        /* \"#utility.yul\":6542:6546   */\n      0x20\n        /* \"#utility.yul\":6535:6540   */\n      dup4\n        /* \"#utility.yul\":6531:6547   */\n      add\n        /* \"#utility.yul\":6525:6548   */\n      mload\n        /* \"#utility.yul\":6561:6624   */\n      tag_159\n        /* \"#utility.yul\":6618:6622   */\n      0x20\n        /* \"#utility.yul\":6613:6616   */\n      dup7\n        /* \"#utility.yul\":6609:6623   */\n      add\n        /* \"#utility.yul\":6595:6607   */\n      dup3\n        /* \"#utility.yul\":6561:6624   */\n      tag_68\n      jump\t// in\n    tag_159:\n        /* \"#utility.yul\":6469:6634   */\n      pop\n        /* \"#utility.yul\":6651:6655   */\n      dup1\n        /* \"#utility.yul\":6644:6655   */\n      swap2\n      pop\n        /* \"#utility.yul\":6178:6661   */\n      pop\n        /* \"#utility.yul\":6066:6661   */\n      swap3\n      swap2\n      pop\n      pop\n      jump\t// out\n        /* \"#utility.yul\":6667:7016   */\n    tag_20:\n        /* \"#utility.yul\":6798:6802   */\n      0x00\n        /* \"#utility.yul\":6836:6838   */\n      0x20\n        /* \"#utility.yul\":6825:6834   */\n      dup3\n        /* \"#utility.yul\":6821:6839   */\n      add\n        /* \"#utility.yul\":6813:6839   */\n      swap1\n      pop\n        /* \"#utility.yul\":6885:6894   */\n      dup2\n        /* \"#utility.yul\":6879:6883   */\n      dup2\n        /* \"#utility.yul\":6875:6895   */\n      sub\n        /* \"#utility.yul\":6871:6872   */\n      0x00\n        /* \"#utility.yul\":6860:6869   */\n      dup4\n        /* \"#utility.yul\":6856:6873   */\n      add\n        /* \"#utility.yul\":6849:6896   */\n      mstore\n        /* \"#utility.yul\":6913:7009   */\n      tag_161\n        /* \"#utility.yul\":7004:7008   */\n      dup2\n        /* \"#utility.yul\":6995:7001   */\n      dup5\n        /* \"#utility.yul\":6913:7009   */\n      tag_69\n      jump\t// in\n    tag_161:\n        /* \"#utility.yul\":6905:7009   */\n      swap1\n      pop\n        /* \"#utility.yul\":6667:7016   */\n      swap3\n      swap2\n      pop\n      pop\n      jump\t// out\n        /* \"#utility.yul\":7022:7202   */\n    tag_70:\n        /* \"#utility.yul\":7070:7147   */\n      0x4e487b7100000000000000000000000000000000000000000000000000000000\n        /* \"#utility.yul\":7067:7068   */\n      0x00\n        /* \"#utility.yul\":7060:7148   */\n      mstore\n        /* \"#utility.yul\":7167:7171   */\n      0x22\n        /* \"#utility.yul\":7164:7165   */\n      0x04\n        /* \"#utility.yul\":7157:7172   */\n      mstore\n        /* \"#utility.yul\":7191:7195   */\n      0x24\n        /* \"#utility.yul\":7188:7189   */\n      0x00\n        /* \"#utility.yul\":7181:7196   */\n      revert\n        /* \"#utility.yul\":7208:7528   */\n    tag_24:\n        /* \"#utility.yul\":7252:7258   */\n      0x00\n        /* \"#utility.yul\":7289:7290   */\n      0x02\n        /* \"#utility.yul\":7283:7287   */\n      dup3\n        /* \"#utility.yul\":7279:7291   */\n      div\n        /* \"#utility.yul\":7269:7291   */\n      swap1\n      pop\n        /* \"#utility.yul\":7336:7337   */\n      0x01\n        /* \"#utility.yul\":7330:7334   */\n      dup3\n        /* \"#utility.yul\":7326:7338   */\n      and\n        /* \"#utility.yul\":7357:7375   */\n      dup1\n        /* \"#utility.yul\":7347:7428   */\n      tag_164\n      jumpi\n        /* \"#utility.yul\":7413:7417   */\n      0x7f\n        /* \"#utility.yul\":7405:7411   */\n      dup3\n        /* \"#utility.yul\":7401:7418   */\n      and\n        /* \"#utility.yul\":7391:7418   */\n      swap2\n      pop\n        /* \"#utility.yul\":7347:7428   */\n    tag_164:\n        /* \"#utility.yul\":7475:7477   */\n      0x20\n        /* \"#utility.yul\":7467:7473   */\n      dup3\n        /* \"#utility.yul\":7464:7478   */\n      lt\n        /* \"#utility.yul\":7444:7462   */\n      dup2\n        /* \"#utility.yul\":7441:7479   */\n      sub\n        /* \"#utility.yul\":7438:7522   */\n      tag_165\n      jumpi\n        /* \"#utility.yul\":7494:7512   */\n      tag_166\n      tag_70\n      jump\t// in\n    tag_166:\n        /* \"#utility.yul\":7438:7522   */\n    tag_165:\n        /* \"#utility.yul\":7259:7528   */\n      pop\n        /* \"#utility.yul\":7208:7528   */\n      swap2\n      swap1\n      pop\n      jump\t// out\n        /* \"#utility.yul\":7534:7675   */\n    tag_71:\n        /* \"#utility.yul\":7583:7587   */\n      0x00\n        /* \"#utility.yul\":7606:7609   */\n      dup2\n        /* \"#utility.yul\":7598:7609   */\n      swap1\n      pop\n        /* \"#utility.yul\":7629:7632   */\n      dup2\n        /* \"#utility.yul\":7626:7627   */\n      0x00\n        /* \"#utility.yul\":7619:7633   */\n      mstore\n        /* \"#utility.yul\":7663:7667   */\n      0x20\n        /* \"#utility.yul\":7660:7661   */\n      0x00\n        /* \"#utility.yul\":7650:7668   */\n      keccak256\n        /* \"#utility.yul\":7642:7668   */\n      swap1\n      pop\n        /* \"#utility.yul\":7534:7675   */\n      swap2\n      swap1\n      pop\n      jump\t// out\n        /* \"#utility.yul\":7681:7774   */\n    tag_72:\n        /* \"#utility.yul\":7718:7724   */\n      0x00\n        /* \"#utility.yul\":7765:7767   */\n      0x20\n        /* \"#utility.yul\":7760:7762   */\n      0x1f\n        /* \"#utility.yul\":7753:7758   */\n      dup4\n        /* \"#utility.yul\":7749:7763   */\n      add\n        /* \"#utility.yul\":7745:7768   */\n      div\n        /* \"#utility.yul\":7735:7768   */\n      swap1\n      pop\n        /* \"#utility.yul\":7681:7774   */\n      swap2\n      swap1\n      pop\n      jump\t// out\n        /* \"#utility.yul\":7780:7887   */\n    tag_73:\n        /* \"#utility.yul\":7824:7832   */\n      0x00\n        /* \"#utility.yul\":7874:7879   */\n      dup3\n        /* \"#utility.yul\":7868:7872   */\n      dup3\n        /* \"#utility.yul\":7864:7880   */\n      shl\n        /* \"#utility.yul\":7843:7880   */\n      swap1\n      pop\n        /* \"#utility.yul\":7780:7887   */\n      swap3\n      swap2\n      pop\n      pop\n      jump\t// out\n        /* \"#utility.yul\":7893:8286   */\n    tag_74:\n        /* \"#utility.yul\":7962:7968   */\n      0x00\n        /* \"#utility.yul\":8012:8013   */\n      0x08\n        /* \"#utility.yul\":8000:8010   */\n      dup4\n        /* \"#utility.yul\":7996:8014   */\n      mul\n        /* \"#utility.yul\":8035:8132   */\n      tag_171\n        /* \"#utility.yul\":8065:8131   */\n      0xffffffffffffffffffffffffffffffffffffffffffffffffffffffffffffffff\n        /* \"#utility.yul\":8054:8063   */\n      dup3\n        /* \"#utility.yul\":8035:8132   */\n      tag_73\n      jump\t// in\n    tag_171:\n        /* \"#utility.yul\":8153:8192   */\n      tag_172\n        /* \"#utility.yul\":8183:8191   */\n      dup7\n        /* \"#utility.yul\":8172:8181   */\n      dup4\n        /* \"#utility.yul\":8153:8192   */\n      tag_73\n      jump\t// in\n    tag_172:\n        /* \"#utility.yul\":8141:8192   */\n      swap6\n      pop\n        /* \"#utility.yul\":8225:8229   */\n      dup1\n        /* \"#utility.yul\":8221:8230   */\n      not\n        /* \"#utility.yul\":8214:8219   */\n      dup5\n        /* \"#utility.yul\":8210:8231   */\n      and\n        /* \"#utility.yul\":8201:8231   */\n      swap4\n      pop\n        /* \"#utility.yul\":8274:8278   */\n      dup1\n        /* \"#utility.yul\":8264:8272   */\n      dup7\n        /* \"#utility.yul\":8260:8279   */\n      and\n        /* \"#utility.yul\":8253:8258   */\n      dup5\n        /* \"#utility.yul\":8250:8280   */\n      or\n        /* \"#utility.yul\":8240:8280   */\n      swap3\n      pop\n        /* \"#utility.yul\":7969:8286   */\n      pop\n      pop\n        /* \"#utility.yul\":7893:8286   */\n      swap4\n      swap3\n      pop\n      pop\n      pop\n      jump\t// out\n        /* \"#utility.yul\":8292:8352   */\n    tag_75:\n        /* \"#utility.yul\":8320:8323   */\n      0x00\n        /* \"#utility.yul\":8341:8346   */\n      dup2\n        /* \"#utility.yul\":8334:8346   */\n      swap1\n      pop\n        /* \"#utility.yul\":8292:8352   */\n      swap2\n      swap1\n      pop\n      jump\t// out\n        /* \"#utility.yul\":8358:8500   */\n    tag_76:\n        /* \"#utility.yul\":8408:8417   */\n      0x00\n        /* \"#utility.yul\":8441:8494   */\n      tag_175\n        /* \"#utility.yul\":8459:8493   */\n      tag_176\n        /* \"#utility.yul\":8468:8492   */\n      tag_177\n        /* \"#utility.yul\":8486:8491   */\n      dup5\n        /* \"#utility.yul\":8468:8492   */\n      tag_48\n      jump\t// in\n    tag_177:\n        /* \"#utility.yul\":8459:8493   */\n      tag_75\n      jump\t// in\n    tag_176:\n        /* \"#utility.yul\":8441:8494   */\n      tag_48\n      jump\t// in\n    tag_175:\n        /* \"#utility.yul\":8428:8494   */\n      swap1\n      pop\n        /* \"#utility.yul\":8358:8500   */\n      swap2\n      swap1\n      pop\n      jump\t// out\n        /* \"#utility.yul\":8506:8581   */\n    tag_77:\n        /* \"#utility.yul\":8549:8552   */\n      0x00\n        /* \"#utility.yul\":8570:8575   */\n      dup2\n        /* \"#utility.yul\":8563:8575   */\n      swap1\n      pop\n        /* \"#utility.yul\":8506:8581   */\n      swap2\n      swap1\n      pop\n      jump\t// out\n        /* \"#utility.yul\":8587:8856   */\n    tag_78:\n        /* \"#utility.yul\":8697:8736   */\n      tag_180\n        /* \"#utility.yul\":8728:8735   */\n      dup4\n        /* \"#utility.yul\":8697:8736   */\n      tag_76\n      jump\t// in\n    tag_180:\n        /* \"#utility.yul\":8758:8849   */\n      tag_181\n        /* \"#utility.yul\":8807:8848   */\n      tag_182\n        /* \"#utility.yul\":8831:8847   */\n      dup3\n        /* \"#utility.yul\":8807:8848   */\n      tag_77\n      jump\t// in\n    tag_182:\n        /* \"#utility.yul\":8799:8805   */\n      dup5\n        /* \"#utility.yul\":8792:8796   */\n      dup5\n        /* \"#utility.yul\":8786:8797   */\n      sload\n        /* \"#utility.yul\":8758:8849   */\n      tag_74\n      jump\t// in\n    tag_181:\n        /* \"#utility.yul\":8752:8756   */\n      dup3\n        /* \"#utility.yul\":8745:8850   */\n      sstore\n        /* \"#utility.yul\":8663:8856   */\n      pop\n        /* \"#utility.yul\":8587:8856   */\n      pop\n      pop\n      pop\n      jump\t// out\n        /* \"#utility.yul\":8862:8935   */\n    tag_79:\n        /* \"#utility.yul\":8907:8910   */\n      0x00\n        /* \"#utility.yul\":8862:8935   */\n      swap1\n      jump\t// out\n        /* \"#utility.yul\":8941:9130   */\n    tag_80:\n        /* \"#utility.yul\":9018:9050   */\n      tag_185\n      tag_79\n      jump\t// in\n    tag_185:\n        /* \"#utility.yul\":9059:9124   */\n      tag_186\n        /* \"#utility.yul\":9117:9123   */\n      dup2\n        /* \"#utility.yul\":9109:9115   */\n      dup5\n        /* \"#utility.yul\":9103:9107   */\n      dup5\n        /* \"#utility.yul\":9059:9124   */\n      tag_78\n      jump\t// in\n    tag_186:\n        /* \"#utility.yul\":8994:9130   */\n      pop\n        /* \"#utility.yul\":8941:9130   */\n      pop\n      pop\n      jump\t// out\n        /* \"#utility.yul\":9136:9322   */\n    tag_81:\n        /* \"#utility.yul\":9196:9316   */\n    tag_188:\n        /* \"#utility.yul\":9213:9216   */\n      dup2\n        /* \"#utility.yul\":9206:9211   */\n      dup2\n        /* \"#utility.yul\":9203:9217   */\n      lt\n        /* \"#utility.yul\":9196:9316   */\n      iszero\n      tag_190\n      jumpi\n        /* \"#utility.yul\":9267:9306   */\n      tag_191\n        /* \"#utility.yul\":9304:9305   */\n      0x00\n        /* \"#utility.yul\":9297:9302   */\n      dup3\n        /* \"#utility.yul\":9267:9306   */\n      tag_80\n      jump\t// in\n    tag_191:\n        /* \"#utility.yul\":9240:9241   */\n      0x01\n        /* \"#utility.yul\":9233:9238   */\n      dup2\n        /* \"#utility.yul\":9229:9242   */\n      add\n        /* \"#utility.yul\":9220:9242   */\n      swap1\n      pop\n        /* \"#utility.yul\":9196:9316   */\n      jump(tag_188)\n    tag_190:\n        /* \"#utility.yul\":9136:9322   */\n      pop\n      pop\n      jump\t// out\n        /* \"#utility.yul\":9328:9871   */\n    tag_82:\n        /* \"#utility.yul\":9429:9431   */\n      0x1f\n        /* \"#utility.yul\":9424:9427   */\n      dup3\n        /* \"#utility.yul\":9421:9432   */\n      gt\n        /* \"#utility.yul\":9418:9864   */\n      iszero\n      tag_193\n      jumpi\n        /* \"#utility.yul\":9463:9501   */\n      tag_194\n        /* \"#utility.yul\":9495:9500   */\n      dup2\n        /* \"#utility.yul\":9463:9501   */\n      tag_71\n      jump\t// in\n    tag_194:\n        /* \"#utility.yul\":9547:9576   */\n      tag_195\n        /* \"#utility.yul\":9565:9575   */\n      dup5\n        /* \"#utility.yul\":9547:9576   */\n      tag_72\n      jump\t// in\n    tag_195:\n        /* \"#utility.yul\":9537:9545   */\n      dup2\n        /* \"#utility.yul\":9533:9577   */\n      add\n        /* \"#utility.yul\":9730:9732   */\n      0x20\n        /* \"#utility.yul\":9718:9728   */\n      dup6\n        /* \"#utility.yul\":9715:9733   */\n      lt\n        /* \"#utility.yul\":9712:9761   */\n      iszero\n      tag_196\n      jumpi\n        /* \"#utility.yul\":9751:9759   */\n      dup2\n        /* \"#utility.yul\":9736:9759   */\n      swap1\n      pop\n        /* \"#utility.yul\":9712:9761   */\n    tag_196:\n        /* \"#utility.yul\":9774:9854   */\n      tag_197\n        /* \"#utility.yul\":9830:9852   */\n      tag_198\n        /* \"#utility.yul\":9848:9851   */\n      dup6\n        /* \"#utility.yul\":9830:9852   */\n      tag_72\n      jump\t// in\n    tag_198:\n        /* \"#utility.yul\":9820:9828   */\n      dup4\n        /* \"#utility.yul\":9816:9853   */\n      add\n        /* \"#utility.yul\":9803:9814   */\n      dup3\n        /* \"#utility.yul\":9774:9854   */\n      tag_81\n      jump\t// in\n    tag_197:\n        /* \"#utility.yul\":9433:9864   */\n      pop\n      pop\n        /* \"#utility.yul\":9418:9864   */\n    tag_193:\n        /* \"#utility.yul\":9328:9871   */\n      pop\n      pop\n      pop\n      jump\t// out\n        /* \"#utility.yul\":9877:9994   */\n    tag_83:\n        /* \"#utility.yul\":9931:9939   */\n      0x00\n        /* \"#utility.yul\":9981:9986   */\n      dup3\n        /* \"#utility.yul\":9975:9979   */\n      dup3\n        /* \"#utility.yul\":9971:9987   */\n      shr\n        /* \"#utility.yul\":9950:9987   */\n      swap1\n      pop\n        /* \"#utility.yul\":9877:9994   */\n      swap3\n      swap2\n      pop\n      pop\n      jump\t// out\n        /* \"#utility.yul\":10000:10169   */\n    tag_84:\n        /* \"#utility.yul\":10044:10050   */\n      0x00\n        /* \"#utility.yul\":10077:10128   */\n      tag_201\n        /* \"#utility.yul\":10125:10126   */\n      0x00\n        /* \"#utility.yul\":10121:10127   */\n      not\n        /* \"#utility.yul\":10113:10118   */\n      dup5\n        /* \"#utility.yul\":10110:10111   */\n      0x08\n        /* \"#utility.yul\":10106:10119   */\n      mul\n        /* \"#utility.yul\":10077:10128   */\n      tag_83\n      jump\t// in\n    tag_201:\n        /* \"#utility.yul\":10073:10129   */\n      not\n        /* \"#utility.yul\":10158:10162   */\n      dup1\n        /* \"#utility.yul\":10152:10156   */\n      dup4\n        /* \"#utility.yul\":10148:10163   */\n      and\n        /* \"#utility.yul\":10138:10163   */\n      swap2\n      pop\n        /* \"#utility.yul\":10051:10169   */\n      pop\n        /* \"#utility.yul\":10000:10169   */\n      swap3\n      swap2\n      pop\n      pop\n      jump\t// out\n        /* \"#utility.yul\":10174:10469   */\n    tag_85:\n        /* \"#utility.yul\":10250:10254   */\n      0x00\n        /* \"#utility.yul\":10396:10425   */\n      tag_203\n        /* \"#utility.yul\":10421:10424   */\n      dup4\n        /* \"#utility.yul\":10415:10419   */\n      dup4\n        /* \"#utility.yul\":10396:10425   */\n      tag_84\n      jump\t// in\n    tag_203:\n        /* \"#utility.yul\":10388:10425   */\n      swap2\n      pop\n        /* \"#utility.yul\":10458:10461   */\n      dup3\n        /* \"#utility.yul\":10455:10456   */\n      0x02\n        /* \"#utility.yul\":10451:10462   */\n      mul\n        /* \"#utility.yul\":10445:10449   */\n      dup3\n        /* \"#utility.yul\":10442:10463   */\n      or\n        /* \"#utility.yul\":10434:10463   */\n      swap1\n      pop\n        /* \"#utility.yul\":10174:10469   */\n      swap3\n      swap2\n      pop\n      pop\n      jump\t// out\n        /* \"#utility.yul\":10474:11869   */\n    tag_32:\n        /* \"#utility.yul\":10591:10628   */\n      tag_205\n        /* \"#utility.yul\":10624:10627   */\n      dup3\n        /* \"#utility.yul\":10591:10628   */\n      tag_51\n      jump\t// in\n    tag_205:\n        /* \"#utility.yul\":10693:10711   */\n      0xffffffffffffffff\n        /* \"#utility.yul\":10685:10691   */\n      dup2\n        /* \"#utility.yul\":10682:10712   */\n      gt\n        /* \"#utility.yul\":10679:10735   */\n      iszero\n      tag_206\n      jumpi\n        /* \"#utility.yul\":10715:10733   */\n      tag_207\n      tag_59\n      jump\t// in\n    tag_207:\n        /* \"#utility.yul\":10679:10735   */\n    tag_206:\n        /* \"#utility.yul\":10759:10797   */\n      tag_208\n        /* \"#utility.yul\":10791:10795   */\n      dup3\n        /* \"#utility.yul\":10785:10796   */\n      sload\n        /* \"#utility.yul\":10759:10797   */\n      tag_24\n      jump\t// in\n    tag_208:\n        /* \"#utility.yul\":10844:10911   */\n      tag_209\n        /* \"#utility.yul\":10904:10910   */\n      dup3\n        /* \"#utility.yul\":10896:10902   */\n      dup3\n        /* \"#utility.yul\":10890:10894   */\n      dup6\n        /* \"#utility.yul\":10844:10911   */\n      tag_82\n      jump\t// in\n    tag_209:\n        /* \"#utility.yul\":10938:10939   */\n      0x00\n        /* \"#utility.yul\":10962:10966   */\n      0x20\n        /* \"#utility.yul\":10949:10966   */\n      swap1\n      pop\n        /* \"#utility.yul\":10994:10996   */\n      0x1f\n        /* \"#utility.yul\":10986:10992   */\n      dup4\n        /* \"#utility.yul\":10983:10997   */\n      gt\n        /* \"#utility.yul\":11011:11012   */\n      0x01\n        /* \"#utility.yul\":11006:11624   */\n      dup2\n      eq\n      tag_211\n      jumpi\n        /* \"#utility.yul\":11668:11669   */\n      0x00\n        /* \"#utility.yul\":11685:11691   */\n      dup5\n        /* \"#utility.yul\":11682:11759   */\n      iszero\n      tag_212\n      jumpi\n        /* \"#utility.yul\":11734:11743   */\n      dup3\n        /* \"#utility.yul\":11729:11732   */\n      dup8\n        /* \"#utility.yul\":11725:11744   */\n      add\n        /* \"#utility.yul\":11719:11745   */\n      mload\n        /* \"#utility.yul\":11710:11745   */\n      swap1\n      pop\n        /* \"#utility.yul\":11682:11759   */\n    tag_212:\n        /* \"#utility.yul\":11785:11852   */\n      tag_213\n        /* \"#utility.yul\":11845:11851   */\n      dup6\n        /* \"#utility.yul\":11838:11843   */\n      dup3\n        /* \"#utility.yul\":11785:11852   */\n      tag_85\n      jump\t// in\n    tag_213:\n        /* \"#utility.yul\":11779:11783   */\n      dup7\n        /* \"#utility.yul\":11772:11853   */\n      sstore\n        /* \"#utility.yul\":11641:11863   */\n      pop\n        /* \"#utility.yul\":10976:11863   */\n      jump(tag_210)\n        /* \"#utility.yul\":11006:11624   */\n    tag_211:\n        /* \"#utility.yul\":11058:11062   */\n      0x1f\n        /* \"#utility.yul\":11054:11063   */\n      not\n        /* \"#utility.yul\":11046:11052   */\n      dup5\n        /* \"#utility.yul\":11042:11064   */\n      and\n        /* \"#utility.yul\":11092:11129   */\n      tag_214\n        /* \"#utility.yul\":11124:11128   */\n      dup7\n        /* \"#utility.yul\":11092:11129   */\n      tag_71\n      jump\t// in\n    tag_214:\n        /* \"#utility.yul\":11151:11152   */\n      0x00\n        /* \"#utility.yul\":11165:11373   */\n    tag_215:\n        /* \"#utility.yul\":11179:11186   */\n      dup3\n        /* \"#utility.yul\":11176:11177   */\n      dup2\n        /* \"#utility.yul\":11173:11187   */\n      lt\n        /* \"#utility.yul\":11165:11373   */\n      iszero\n      tag_217\n      jumpi\n        /* \"#utility.yul\":11258:11267   */\n      dup5\n        /* \"#utility.yul\":11253:11256   */\n      dup10\n        /* \"#utility.yul\":11249:11268   */\n      add\n        /* \"#utility.yul\":11243:11269   */\n      mload\n        /* \"#utility.yul\":11235:11241   */\n      dup3\n        /* \"#utility.yul\":11228:11270   */\n      sstore\n        /* \"#utility.yul\":11309:11310   */\n      0x01\n        /* \"#utility.yul\":11301:11307   */\n      dup3\n        /* \"#utility.yul\":11297:11311   */\n      add\n        /* \"#utility.yul\":11287:11311   */\n      swap2\n      pop\n        /* \"#utility.yul\":11356:11358   */\n      0x20\n        /* \"#utility.yul\":11345:11354   */\n      dup6\n        /* \"#utility.yul\":11341:11359   */\n      add\n        /* \"#utility.yul\":11328:11359   */\n      swap5\n      pop\n        /* \"#utility.yul\":11202:11206   */\n      0x20\n        /* \"#utility.yul\":11199:11200   */\n      dup2\n        /* \"#utility.yul\":11195:11207   */\n      add\n        /* \"#utility.yul\":11190:11207   */\n      swap1\n      pop\n        /* \"#utility.yul\":11165:11373   */\n      jump(tag_215)\n    tag_217:\n        /* \"#utility.yul\":11401:11407   */\n      dup7\n        /* \"#utility.yul\":11392:11399   */\n      dup4\n        /* \"#utility.yul\":11389:11408   */\n      lt\n        /* \"#utility.yul\":11386:11565   */\n      iszero\n      tag_218\n      jumpi\n        /* \"#utility.yul\":11459:11468   */\n      dup5\n        /* \"#utility.yul\":11454:11457   */\n      dup10\n        /* \"#utility.yul\":11450:11469   */\n      add\n        /* \"#utility.yul\":11444:11470   */\n      mload\n        /* \"#utility.yul\":11502:11550   */\n      tag_219\n        /* \"#utility.yul\":11544:11548   */\n      0x1f\n        /* \"#utility.yul\":11536:11542   */\n      dup10\n        /* \"#utility.yul\":11532:11549   */\n      and\n        /* \"#utility.yul\":11521:11530   */\n      dup3\n        /* \"#utility.yul\":11502:11550   */\n      tag_84\n      jump\t// in\n    tag_219:\n        /* \"#utility.yul\":11494:11500   */\n      dup4\n        /* \"#utility.yul\":11487:11551   */\n      sstore\n        /* \"#utility.yul\":11409:11565   */\n      pop\n        /* \"#utility.yul\":11386:11565   */\n    tag_218:\n        /* \"#utility.yul\":11611:11612   */\n      0x01\n        /* \"#utility.yul\":11607:11608   */\n      0x02\n        /* \"#utility.yul\":11599:11605   */\n      dup9\n        /* \"#utility.yul\":11595:11609   */\n      mul\n        /* \"#utility.yul\":11591:11613   */\n      add\n        /* \"#utility.yul\":11585:11589   */\n      dup9\n        /* \"#utility.yul\":11578:11614   */\n      sstore\n        /* \"#utility.yul\":11013:11624   */\n      pop\n      pop\n      pop\n        /* \"#utility.yul\":10976:11863   */\n    tag_210:\n      pop\n        /* \"#utility.yul\":10566:11869   */\n      pop\n      pop\n      pop\n        /* \"#utility.yul\":10474:11869   */\n      pop\n      pop\n      jump\t// out\n        /* \"#utility.yul\":11875:12055   */\n    tag_38:\n        /* \"#utility.yul\":11923:12000   */\n      0x4e487b7100000000000000000000000000000000000000000000000000000000\n        /* \"#utility.yul\":11920:11921   */\n      0x00\n        /* \"#utility.yul\":11913:12001   */\n      mstore\n        /* \"#utility.yul\":12020:12024   */\n      0x32\n        /* \"#utility.yul\":12017:12018   */\n      0x04\n        /* \"#utility.yul\":12010:12025   */\n      mstore\n        /* \"#utility.yul\":12044:12048   */\n      0x24\n        /* \"#utility.yul\":12041:12042   */\n      0x00\n        /* \"#utility.yul\":12034:12049   */\n      revert\n\n    auxdata: 0xa26469706673582212209266f15572b4dd93601cef7066240f6222160bf41e45632df5555cfaeaef3d6764736f6c63430008120033\n}\n",
				"bytecode": {
					"linkReferences": {},
					"object": "608060405234801561001057600080fd5b506109a9806100206000396000f3fe608060405234801561001057600080fd5b50600436106100415760003560e01c80633d4d3600146100465780637ba41e6f14610077578063de7fe3e714610093575b600080fd5b610060600480360381019061005b9190610321565b6100c3565b60405161006e9291906103ed565b60405180910390f35b610091600480360381019061008c9190610552565b61017f565b005b6100ad60048036038101906100a89190610321565b6101e5565b6040516100ba9190610644565b60405180910390f35b600081815481106100d357600080fd5b90600052602060002090600202016000915090508060000180546100f690610695565b80601f016020809104026020016040519081016040528092919081815260200182805461012290610695565b801561016f5780601f106101445761010080835404028352916020019161016f565b820191906000526020600020905b81548152906001019060200180831161015257829003601f168201915b5050505050908060010154905082565b6000604051806040016040528084815260200183815250908060018154018082558091505060019003906000526020600020906002020160009091909190915060008201518160000190816101d49190610872565b506020820151816001015550505050565b6101ed6102bd565b6000828154811061020157610200610944565b5b906000526020600020906002020160405180604001604052908160008201805461022a90610695565b80601f016020809104026020016040519081016040528092919081815260200182805461025690610695565b80156102a35780601f10610278576101008083540402835291602001916102a3565b820191906000526020600020905b81548152906001019060200180831161028657829003601f168201915b505050505081526020016001820154815250509050919050565b604051806040016040528060608152602001600081525090565b6000604051905090565b600080fd5b600080fd5b6000819050919050565b6102fe816102eb565b811461030957600080fd5b50565b60008135905061031b816102f5565b92915050565b600060208284031215610337576103366102e1565b5b60006103458482850161030c565b91505092915050565b600081519050919050565b600082825260208201905092915050565b60005b8381101561038857808201518184015260208101905061036d565b60008484015250505050565b6000601f19601f8301169050919050565b60006103b08261034e565b6103ba8185610359565b93506103ca81856020860161036a565b6103d381610394565b840191505092915050565b6103e7816102eb565b82525050565b6000604082019050818103600083015261040781856103a5565b905061041660208301846103de565b9392505050565b600080fd5b600080fd5b7f4e487b7100000000000000000000000000000000000000000000000000000000600052604160045260246000fd5b61045f82610394565b810181811067ffffffffffffffff8211171561047e5761047d610427565b5b80604052505050565b60006104916102d7565b905061049d8282610456565b919050565b600067ffffffffffffffff8211156104bd576104bc610427565b5b6104c682610394565b9050602081019050919050565b82818337600083830152505050565b60006104f56104f0846104a2565b610487565b90508281526020810184848401111561051157610510610422565b5b61051c8482856104d3565b509392505050565b600082601f8301126105395761053861041d565b5b81356105498482602086016104e2565b91505092915050565b60008060408385031215610569576105686102e1565b5b600083013567ffffffffffffffff811115610587576105866102e6565b5b61059385828601610524565b92505060206105a48582860161030c565b9150509250929050565b600082825260208201905092915050565b60006105ca8261034e565b6105d481856105ae565b93506105e481856020860161036a565b6105ed81610394565b840191505092915050565b610601816102eb565b82525050565b6000604083016000830151848203600086015261062482826105bf565b915050602083015161063960208601826105f8565b508091505092915050565b6000602082019050818103600083015261065e8184610607565b905092915050565b7f4e487b7100000000000000000000000000000000000000000000000000000000600052602260045260246000fd5b600060028204905060018216806106ad57607f821691505b6020821081036106c0576106bf610666565b5b50919050565b60008190508160005260206000209050919050565b60006020601f8301049050919050565b600082821b905092915050565b6000600883026107287fffffffffffffffffffffffffffffffffffffffffffffffffffffffffffffffff826106eb565b61073286836106eb565b95508019841693508086168417925050509392505050565b6000819050919050565b600061076f61076a610765846102eb565b61074a565b6102eb565b9050919050565b6000819050919050565b61078983610754565b61079d61079582610776565b8484546106f8565b825550505050565b600090565b6107b26107a5565b6107bd818484610780565b505050565b5b818110156107e1576107d66000826107aa565b6001810190506107c3565b5050565b601f821115610826576107f7816106c6565b610800846106db565b8101602085101561080f578190505b61082361081b856106db565b8301826107c2565b50505b505050565b600082821c905092915050565b60006108496000198460080261082b565b1980831691505092915050565b60006108628383610838565b9150826002028217905092915050565b61087b8261034e565b67ffffffffffffffff81111561089457610893610427565b5b61089e8254610695565b6108a98282856107e5565b600060209050601f8311600181146108dc57600084156108ca578287015190505b6108d48582610856565b86555061093c565b601f1984166108ea866106c6565b60005b82811015610912578489015182556001820191506020850194506020810190506108ed565b8683101561092f578489015161092b601f891682610838565b8355505b6001600288020188555050505b505050505050565b7f4e487b7100000000000000000000000000000000000000000000000000000000600052603260045260246000fdfea26469706673582212209266f15572b4dd93601cef7066240f6222160bf41e45632df5555cfaeaef3d6764736f6c63430008120033",
					"opcodes": "PUSH1 0x80 PUSH1 0x40 MSTORE CALLVALUE DUP1 ISZERO PUSH2 0x10 JUMPI PUSH1 0x0 DUP1 REVERT JUMPDEST POP PUSH2 0x9A9 DUP1 PUSH2 0x20 PUSH1 0x0 CODECOPY PUSH1 0x0 RETURN INVALID PUSH1 0x80 PUSH1 0x40 MSTORE CALLVALUE DUP1 ISZERO PUSH2 0x10 JUMPI PUSH1 0x0 DUP1 REVERT JUMPDEST POP PUSH1 0x4 CALLDATASIZE LT PUSH2 0x41 JUMPI PUSH1 0x0 CALLDATALOAD PUSH1 0xE0 SHR DUP1 PUSH4 0x3D4D3600 EQ PUSH2 0x46 JUMPI DUP1 PUSH4 0x7BA41E6F EQ PUSH2 0x77 JUMPI DUP1 PUSH4 0xDE7FE3E7 EQ PUSH2 0x93 JUMPI JUMPDEST PUSH1 0x0 DUP1 REVERT JUMPDEST PUSH2 0x60 PUSH1 0x4 DUP1 CALLDATASIZE SUB DUP2 ADD SWAP1 PUSH2 0x5B SWAP2 SWAP1 PUSH2 0x321 JUMP JUMPDEST PUSH2 0xC3 JUMP JUMPDEST PUSH1 0x40 MLOAD PUSH2 0x6E SWAP3 SWAP2 SWAP1 PUSH2 0x3ED JUMP JUMPDEST PUSH1 0x40 MLOAD DUP1 SWAP2 SUB SWAP1 RETURN JUMPDEST PUSH2 0x91 PUSH1 0x4 DUP1 CALLDATASIZE SUB DUP2 ADD SWAP1 PUSH2 0x8C SWAP2 SWAP1 PUSH2 0x552 JUMP JUMPDEST PUSH2 0x17F JUMP JUMPDEST STOP JUMPDEST PUSH2 0xAD PUSH1 0x4 DUP1 CALLDATASIZE SUB DUP2 ADD SWAP1 PUSH2 0xA8 SWAP2 SWAP1 PUSH2 0x321 JUMP JUMPDEST PUSH2 0x1E5 JUMP JUMPDEST PUSH1 0x40 MLOAD PUSH2 0xBA SWAP2 SWAP1 PUSH2 0x644 JUMP JUMPDEST PUSH1 0x40 MLOAD DUP1 SWAP2 SUB SWAP1 RETURN JUMPDEST PUSH1 0x0 DUP2 DUP2 SLOAD DUP2 LT PUSH2 0xD3 JUMPI PUSH1 0x0 DUP1 REVERT JUMPDEST SWAP1 PUSH1 0x0 MSTORE PUSH1 0x20 PUSH1 0x0 KECCAK256 SWAP1 PUSH1 0x2 MUL ADD PUSH1 0x0 SWAP2 POP SWAP1 POP DUP1 PUSH1 0x0 ADD DUP1 SLOAD PUSH2 0xF6 SWAP1 PUSH2 0x695 JUMP JUMPDEST DUP1 PUSH1 0x1F ADD PUSH1 0x20 DUP1 SWAP2 DIV MUL PUSH1 0x20 ADD PUSH1 0x40 MLOAD SWAP1 DUP2 ADD PUSH1 0x40 MSTORE DUP1 SWAP3 SWAP2 SWAP1 DUP2 DUP2 MSTORE PUSH1 0x20 ADD DUP3 DUP1 SLOAD PUSH2 0x122 SWAP1 PUSH2 0x695 JUMP JUMPDEST DUP1 ISZERO PUSH2 0x16F JUMPI DUP1 PUSH1 0x1F LT PUSH2 0x144 JUMPI PUSH2 0x100 DUP1 DUP4 SLOAD DIV MUL DUP4 MSTORE SWAP2 PUSH1 0x20 ADD SWAP2 PUSH2 0x16F JUMP JUMPDEST DUP3 ADD SWAP2 SWAP1 PUSH1 0x0 MSTORE PUSH1 0x20 PUSH1 0x0 KECCAK256 SWAP1 JUMPDEST DUP2 SLOAD DUP2 MSTORE SWAP1 PUSH1 0x1 ADD SWAP1 PUSH1 0x20 ADD DUP1 DUP4 GT PUSH2 0x152 JUMPI DUP3 SWAP1 SUB PUSH1 0x1F AND DUP3 ADD SWAP2 JUMPDEST POP POP POP POP POP SWAP1 DUP1 PUSH1 0x1 ADD SLOAD SWAP1 POP DUP3 JUMP JUMPDEST PUSH1 0x0 PUSH1 0x40 MLOAD DUP1 PUSH1 0x40 ADD PUSH1 0x40 MSTORE DUP1 DUP5 DUP2 MSTORE PUSH1 0x20 ADD DUP4 DUP2 MSTORE POP SWAP1 DUP1 PUSH1 0x1 DUP2 SLOAD ADD DUP1 DUP3 SSTORE DUP1 SWAP2 POP POP PUSH1 0x1 SWAP1 SUB SWAP1 PUSH1 0x0 MSTORE PUSH1 0x20 PUSH1 0x0 KECCAK256 SWAP1 PUSH1 0x2 MUL ADD PUSH1 0x0 SWAP1 SWAP2 SWAP1 SWAP2 SWAP1 SWAP2 POP PUSH1 0x0 DUP3 ADD MLOAD DUP2 PUSH1 0x0 ADD SWAP1 DUP2 PUSH2 0x1D4 SWAP2 SWAP1 PUSH2 0x872 JUMP JUMPDEST POP PUSH1 0x20 DUP3 ADD MLOAD DUP2 PUSH1 0x1 ADD SSTORE POP POP POP POP JUMP JUMPDEST PUSH2 0x1ED PUSH2 0x2BD JUMP JUMPDEST PUSH1 0x0 DUP3 DUP2 SLOAD DUP2 LT PUSH2 0x201 JUMPI PUSH2 0x200 PUSH2 0x944 JUMP JUMPDEST JUMPDEST SWAP1 PUSH1 0x0 MSTORE PUSH1 0x20 PUSH1 0x0 KECCAK256 SWAP1 PUSH1 0x2 MUL ADD PUSH1 0x40 MLOAD DUP1 PUSH1 0x40 ADD PUSH1 0x40 MSTORE SWAP1 DUP2 PUSH1 0x0 DUP3 ADD DUP1 SLOAD PUSH2 0x22A SWAP1 PUSH2 0x695 JUMP JUMPDEST DUP1 PUSH1 0x1F ADD PUSH1 0x20 DUP1 SWAP2 DIV MUL PUSH1 0x20 ADD PUSH1 0x40 MLOAD SWAP1 DUP2 ADD PUSH1 0x40 MSTORE DUP1 SWAP3 SWAP2 SWAP1 DUP2 DUP2 MSTORE PUSH1 0x20 ADD DUP3 DUP1 SLOAD PUSH2 0x256 SWAP1 PUSH2 0x695 JUMP JUMPDEST DUP1 ISZERO PUSH2 0x2A3 JUMPI DUP1 PUSH1 0x1F LT PUSH2 0x278 JUMPI PUSH2 0x100 DUP1 DUP4 SLOAD DIV MUL DUP4 MSTORE SWAP2 PUSH1 0x20 ADD SWAP2 PUSH2 0x2A3 JUMP JUMPDEST DUP3 ADD SWAP2 SWAP1 PUSH1 0x0 MSTORE PUSH1 0x20 PUSH1 0x0 KECCAK256 SWAP1 JUMPDEST DUP2 SLOAD DUP2 MSTORE SWAP1 PUSH1 0x1 ADD SWAP1 PUSH1 0x20 ADD DUP1 DUP4 GT PUSH2 0x286 JUMPI DUP3 SWAP1 SUB PUSH1 0x1F AND DUP3 ADD SWAP2 JUMPDEST POP POP POP POP POP DUP2 MSTORE PUSH1 0x20 ADD PUSH1 0x1 DUP3 ADD SLOAD DUP2 MSTORE POP POP SWAP1 POP SWAP2 SWAP1 POP JUMP JUMPDEST PUSH1 0x40 MLOAD DUP1 PUSH1 0x40 ADD PUSH1 0x40 MSTORE DUP1 PUSH1 0x60 DUP2 MSTORE PUSH1 0x20 ADD PUSH1 0x0 DUP2 MSTORE POP SWAP1 JUMP JUMPDEST PUSH1 0x0 PUSH1 0x40 MLOAD SWAP1 POP SWAP1 JUMP JUMPDEST PUSH1 0x0 DUP1 REVERT JUMPDEST PUSH1 0x0 DUP1 REVERT JUMPDEST PUSH1 0x0 DUP2 SWAP1 POP SWAP2 SWAP1 POP JUMP JUMPDEST PUSH2 0x2FE DUP2 PUSH2 0x2EB JUMP JUMPDEST DUP2 EQ PUSH2 0x309 JUMPI PUSH1 0x0 DUP1 REVERT JUMPDEST POP JUMP JUMPDEST PUSH1 0x0 DUP2 CALLDATALOAD SWAP1 POP PUSH2 0x31B DUP2 PUSH2 0x2F5 JUMP JUMPDEST SWAP3 SWAP2 POP POP JUMP JUMPDEST PUSH1 0x0 PUSH1 0x20 DUP3 DUP5 SUB SLT ISZERO PUSH2 0x337 JUMPI PUSH2 0x336 PUSH2 0x2E1 JUMP JUMPDEST JUMPDEST PUSH1 0x0 PUSH2 0x345 DUP5 DUP3 DUP6 ADD PUSH2 0x30C JUMP JUMPDEST SWAP2 POP POP SWAP3 SWAP2 POP POP JUMP JUMPDEST PUSH1 0x0 DUP2 MLOAD SWAP1 POP SWAP2 SWAP1 POP JUMP JUMPDEST PUSH1 0x0 DUP3 DUP3 MSTORE PUSH1 0x20 DUP3 ADD SWAP1 POP SWAP3 SWAP2 POP POP JUMP JUMPDEST PUSH1 0x0 JUMPDEST DUP4 DUP2 LT ISZERO PUSH2 0x388 JUMPI DUP1 DUP3 ADD MLOAD DUP2 DUP5 ADD MSTORE PUSH1 0x20 DUP2 ADD SWAP1 POP PUSH2 0x36D JUMP JUMPDEST PUSH1 0x0 DUP5 DUP5 ADD MSTORE POP POP POP POP JUMP JUMPDEST PUSH1 0x0 PUSH1 0x1F NOT PUSH1 0x1F DUP4 ADD AND SWAP1 POP SWAP2 SWAP1 POP JUMP JUMPDEST PUSH1 0x0 PUSH2 0x3B0 DUP3 PUSH2 0x34E JUMP JUMPDEST PUSH2 0x3BA DUP2 DUP6 PUSH2 0x359 JUMP JUMPDEST SWAP4 POP PUSH2 0x3CA DUP2 DUP6 PUSH1 0x20 DUP7 ADD PUSH2 0x36A JUMP JUMPDEST PUSH2 0x3D3 DUP2 PUSH2 0x394 JUMP JUMPDEST DUP5 ADD SWAP2 POP POP SWAP3 SWAP2 POP POP JUMP JUMPDEST PUSH2 0x3E7 DUP2 PUSH2 0x2EB JUMP JUMPDEST DUP3 MSTORE POP POP JUMP JUMPDEST PUSH1 0x0 PUSH1 0x40 DUP3 ADD SWAP1 POP DUP2 DUP2 SUB PUSH1 0x0 DUP4 ADD MSTORE PUSH2 0x407 DUP2 DUP6 PUSH2 0x3A5 JUMP JUMPDEST SWAP1 POP PUSH2 0x416 PUSH1 0x20 DUP4 ADD DUP5 PUSH2 0x3DE JUMP JUMPDEST SWAP4 SWAP3 POP POP POP JUMP JUMPDEST PUSH1 0x0 DUP1 REVERT JUMPDEST PUSH1 0x0 DUP1 REVERT JUMPDEST PUSH32 0x4E487B7100000000000000000000000000000000000000000000000000000000 PUSH1 0x0 MSTORE PUSH1 0x41 PUSH1 0x4 MSTORE PUSH1 0x24 PUSH1 0x0 REVERT JUMPDEST PUSH2 0x45F DUP3 PUSH2 0x394 JUMP JUMPDEST DUP2 ADD DUP2 DUP2 LT PUSH8 0xFFFFFFFFFFFFFFFF DUP3 GT OR ISZERO PUSH2 0x47E JUMPI PUSH2 0x47D PUSH2 0x427 JUMP JUMPDEST JUMPDEST DUP1 PUSH1 0x40 MSTORE POP POP POP JUMP JUMPDEST PUSH1 0x0 PUSH2 0x491 PUSH2 0x2D7 JUMP JUMPDEST SWAP1 POP PUSH2 0x49D DUP3 DUP3 PUSH2 0x456 JUMP JUMPDEST SWAP2 SWAP1 POP JUMP JUMPDEST PUSH1 0x0 PUSH8 0xFFFFFFFFFFFFFFFF DUP3 GT ISZERO PUSH2 0x4BD JUMPI PUSH2 0x4BC PUSH2 0x427 JUMP JUMPDEST JUMPDEST PUSH2 0x4C6 DUP3 PUSH2 0x394 JUMP JUMPDEST SWAP1 POP PUSH1 0x20 DUP2 ADD SWAP1 POP SWAP2 SWAP1 POP JUMP JUMPDEST DUP3 DUP2 DUP4 CALLDATACOPY PUSH1 0x0 DUP4 DUP4 ADD MSTORE POP POP POP JUMP JUMPDEST PUSH1 0x0 PUSH2 0x4F5 PUSH2 0x4F0 DUP5 PUSH2 0x4A2 JUMP JUMPDEST PUSH2 0x487 JUMP JUMPDEST SWAP1 POP DUP3 DUP2 MSTORE PUSH1 0x20 DUP2 ADD DUP5 DUP5 DUP5 ADD GT ISZERO PUSH2 0x511 JUMPI PUSH2 0x510 PUSH2 0x422 JUMP JUMPDEST JUMPDEST PUSH2 0x51C DUP5 DUP3 DUP6 PUSH2 0x4D3 JUMP JUMPDEST POP SWAP4 SWAP3 POP POP POP JUMP JUMPDEST PUSH1 0x0 DUP3 PUSH1 0x1F DUP4 ADD SLT PUSH2 0x539 JUMPI PUSH2 0x538 PUSH2 0x41D JUMP JUMPDEST JUMPDEST DUP2 CALLDATALOAD PUSH2 0x549 DUP5 DUP3 PUSH1 0x20 DUP7 ADD PUSH2 0x4E2 JUMP JUMPDEST SWAP2 POP POP SWAP3 SWAP2 POP POP JUMP JUMPDEST PUSH1 0x0 DUP1 PUSH1 0x40 DUP4 DUP6 SUB SLT ISZERO PUSH2 0x569 JUMPI PUSH2 0x568 PUSH2 0x2E1 JUMP JUMPDEST JUMPDEST PUSH1 0x0 DUP4 ADD CALLDATALOAD PUSH8 0xFFFFFFFFFFFFFFFF DUP2 GT ISZERO PUSH2 0x587 JUMPI PUSH2 0x586 PUSH2 0x2E6 JUMP JUMPDEST JUMPDEST PUSH2 0x593 DUP6 DUP3 DUP7 ADD PUSH2 0x524 JUMP JUMPDEST SWAP3 POP POP PUSH1 0x20 PUSH2 0x5A4 DUP6 DUP3 DUP7 ADD PUSH2 0x30C JUMP JUMPDEST SWAP2 POP POP SWAP3 POP SWAP3 SWAP1 POP JUMP JUMPDEST PUSH1 0x0 DUP3 DUP3 MSTORE PUSH1 0x20 DUP3 ADD SWAP1 POP SWAP3 SWAP2 POP POP JUMP JUMPDEST PUSH1 0x0 PUSH2 0x5CA DUP3 PUSH2 0x34E JUMP JUMPDEST PUSH2 0x5D4 DUP2 DUP6 PUSH2 0x5AE JUMP JUMPDEST SWAP4 POP PUSH2 0x5E4 DUP2 DUP6 PUSH1 0x20 DUP7 ADD PUSH2 0x36A JUMP JUMPDEST PUSH2 0x5ED DUP2 PUSH2 0x394 JUMP JUMPDEST DUP5 ADD SWAP2 POP POP SWAP3 SWAP2 POP POP JUMP JUMPDEST PUSH2 0x601 DUP2 PUSH2 0x2EB JUMP JUMPDEST DUP3 MSTORE POP POP JUMP JUMPDEST PUSH1 0x0 PUSH1 0x40 DUP4 ADD PUSH1 0x0 DUP4 ADD MLOAD DUP5 DUP3 SUB PUSH1 0x0 DUP7 ADD MSTORE PUSH2 0x624 DUP3 DUP3 PUSH2 0x5BF JUMP JUMPDEST SWAP2 POP POP PUSH1 0x20 DUP4 ADD MLOAD PUSH2 0x639 PUSH1 0x20 DUP7 ADD DUP3 PUSH2 0x5F8 JUMP JUMPDEST POP DUP1 SWAP2 POP POP SWAP3 SWAP2 POP POP JUMP JUMPDEST PUSH1 0x0 PUSH1 0x20 DUP3 ADD SWAP1 POP DUP2 DUP2 SUB PUSH1 0x0 DUP4 ADD MSTORE PUSH2 0x65E DUP2 DUP5 PUSH2 0x607 JUMP JUMPDEST SWAP1 POP SWAP3 SWAP2 POP POP JUMP JUMPDEST PUSH32 0x4E487B7100000000000000000000000000000000000000000000000000000000 PUSH1 0x0 MSTORE PUSH1 0x22 PUSH1 0x4 MSTORE PUSH1 0x24 PUSH1 0x0 REVERT JUMPDEST PUSH1 0x0 PUSH1 0x2 DUP3 DIV SWAP1 POP PUSH1 0x1 DUP3 AND DUP1 PUSH2 0x6AD JUMPI PUSH1 0x7F DUP3 AND SWAP2 POP JUMPDEST PUSH1 0x20 DUP3 LT DUP2 SUB PUSH2 0x6C0 JUMPI PUSH2 0x6BF PUSH2 0x666 JUMP JUMPDEST JUMPDEST POP SWAP2 SWAP1 POP JUMP JUMPDEST PUSH1 0x0 DUP2 SWAP1 POP DUP2 PUSH1 0x0 MSTORE PUSH1 0x20 PUSH1 0x0 KECCAK256 SWAP1 POP SWAP2 SWAP1 POP JUMP JUMPDEST PUSH1 0x0 PUSH1 0x20 PUSH1 0x1F DUP4 ADD DIV SWAP1 POP SWAP2 SWAP1 POP JUMP JUMPDEST PUSH1 0x0 DUP3 DUP3 SHL SWAP1 POP SWAP3 SWAP2 POP POP JUMP JUMPDEST PUSH1 0x0 PUSH1 0x8 DUP4 MUL PUSH2 0x728 PUSH32 0xFFFFFFFFFFFFFFFFFFFFFFFFFFFFFFFFFFFFFFFFFFFFFFFFFFFFFFFFFFFFFFFF DUP3 PUSH2 0x6EB JUMP JUMPDEST PUSH2 0x732 DUP7 DUP4 PUSH2 0x6EB JUMP JUMPDEST SWAP6 POP DUP1 NOT DUP5 AND SWAP4 POP DUP1 DUP7 AND DUP5 OR SWAP3 POP POP POP SWAP4 SWAP3 POP POP POP JUMP JUMPDEST PUSH1 0x0 DUP2 SWAP1 POP SWAP2 SWAP1 POP JUMP JUMPDEST PUSH1 0x0 PUSH2 0x76F PUSH2 0x76A PUSH2 0x765 DUP5 PUSH2 0x2EB JUMP JUMPDEST PUSH2 0x74A JUMP JUMPDEST PUSH2 0x2EB JUMP JUMPDEST SWAP1 POP SWAP2 SWAP1 POP JUMP JUMPDEST PUSH1 0x0 DUP2 SWAP1 POP SWAP2 SWAP1 POP JUMP JUMPDEST PUSH2 0x789 DUP4 PUSH2 0x754 JUMP JUMPDEST PUSH2 0x79D PUSH2 0x795 DUP3 PUSH2 0x776 JUMP JUMPDEST DUP5 DUP5 SLOAD PUSH2 0x6F8 JUMP JUMPDEST DUP3 SSTORE POP POP POP POP JUMP JUMPDEST PUSH1 0x0 SWAP1 JUMP JUMPDEST PUSH2 0x7B2 PUSH2 0x7A5 JUMP JUMPDEST PUSH2 0x7BD DUP2 DUP5 DUP5 PUSH2 0x780 JUMP JUMPDEST POP POP POP JUMP JUMPDEST JUMPDEST DUP2 DUP2 LT ISZERO PUSH2 0x7E1 JUMPI PUSH2 0x7D6 PUSH1 0x0 DUP3 PUSH2 0x7AA JUMP JUMPDEST PUSH1 0x1 DUP2 ADD SWAP1 POP PUSH2 0x7C3 JUMP JUMPDEST POP POP JUMP JUMPDEST PUSH1 0x1F DUP3 GT ISZERO PUSH2 0x826 JUMPI PUSH2 0x7F7 DUP2 PUSH2 0x6C6 JUMP JUMPDEST PUSH2 0x800 DUP5 PUSH2 0x6DB JUMP JUMPDEST DUP2 ADD PUSH1 0x20 DUP6 LT ISZERO PUSH2 0x80F JUMPI DUP2 SWAP1 POP JUMPDEST PUSH2 0x823 PUSH2 0x81B DUP6 PUSH2 0x6DB JUMP JUMPDEST DUP4 ADD DUP3 PUSH2 0x7C2 JUMP JUMPDEST POP POP JUMPDEST POP POP POP JUMP JUMPDEST PUSH1 0x0 DUP3 DUP3 SHR SWAP1 POP SWAP3 SWAP2 POP POP JUMP JUMPDEST PUSH1 0x0 PUSH2 0x849 PUSH1 0x0 NOT DUP5 PUSH1 0x8 MUL PUSH2 0x82B JUMP JUMPDEST NOT DUP1 DUP4 AND SWAP2 POP POP SWAP3 SWAP2 POP POP JUMP JUMPDEST PUSH1 0x0 PUSH2 0x862 DUP4 DUP4 PUSH2 0x838 JUMP JUMPDEST SWAP2 POP DUP3 PUSH1 0x2 MUL DUP3 OR SWAP1 POP SWAP3 SWAP2 POP POP JUMP JUMPDEST PUSH2 0x87B DUP3 PUSH2 0x34E JUMP JUMPDEST PUSH8 0xFFFFFFFFFFFFFFFF DUP2 GT ISZERO PUSH2 0x894 JUMPI PUSH2 0x893 PUSH2 0x427 JUMP JUMPDEST JUMPDEST PUSH2 0x89E DUP3 SLOAD PUSH2 0x695 JUMP JUMPDEST PUSH2 0x8A9 DUP3 DUP3 DUP6 PUSH2 0x7E5 JUMP JUMPDEST PUSH1 0x0 PUSH1 0x20 SWAP1 POP PUSH1 0x1F DUP4 GT PUSH1 0x1 DUP2 EQ PUSH2 0x8DC JUMPI PUSH1 0x0 DUP5 ISZERO PUSH2 0x8CA JUMPI DUP3 DUP8 ADD MLOAD SWAP1 POP JUMPDEST PUSH2 0x8D4 DUP6 DUP3 PUSH2 0x856 JUMP JUMPDEST DUP7 SSTORE POP PUSH2 0x93C JUMP JUMPDEST PUSH1 0x1F NOT DUP5 AND PUSH2 0x8EA DUP7 PUSH2 0x6C6 JUMP JUMPDEST PUSH1 0x0 JUMPDEST DUP3 DUP2 LT ISZERO PUSH2 0x912 JUMPI DUP5 DUP10 ADD MLOAD DUP3 SSTORE PUSH1 0x1 DUP3 ADD SWAP2 POP PUSH1 0x20 DUP6 ADD SWAP5 POP PUSH1 0x20 DUP2 ADD SWAP1 POP PUSH2 0x8ED JUMP JUMPDEST DUP7 DUP4 LT ISZERO PUSH2 0x92F JUMPI DUP5 DUP10 ADD MLOAD PUSH2 0x92B PUSH1 0x1F DUP10 AND DUP3 PUSH2 0x838 JUMP JUMPDEST DUP4 SSTORE POP JUMPDEST PUSH1 0x1 PUSH1 0x2 DUP9 MUL ADD DUP9 SSTORE POP POP POP JUMPDEST POP POP POP POP POP POP JUMP JUMPDEST PUSH32 0x4E487B7100000000000000000000000000000000000000000000000000000000 PUSH1 0x0 MSTORE PUSH1 0x32 PUSH1 0x4 MSTORE PUSH1 0x24 PUSH1 0x0 REVERT INVALID LOG2 PUSH5 0x6970667358 0x22 SLT KECCAK256 SWAP3 PUSH7 0xF15572B4DD9360 SHR 0xEF PUSH17 0x66240F6222160BF41E45632DF5555CFAEA 0xEF RETURNDATASIZE PUSH8 0x64736F6C63430008 SLT STOP CALLER "
				},
				"gasEstimates": {
					"creation": {
						"codeDepositCost": "494600",
						"executionCost": "530",
						"totalCost": "495130"
					},
					"external": {
						"addItemInfo(string,uint256)": "infinite",
						"getItemInfo(uint256)": "infinite",
						"itemList(uint256)": "infinite"
					}
				},
				"methodIdentifiers": {
					"addItemInfo(string,uint256)": "7ba41e6f",
					"getItemInfo(uint256)": "de7fe3e7",
					"itemList(uint256)": "3d4d3600"
				}
			},
			"storageLayout": {
				"storage": [
					{
						"astId": 28,
						"contract": "Users/user/Desktop/git/solidity/interface.sol:interfaceEx",
						"label": "itemList",
						"offset": 0,
						"slot": "0",
						"type": "t_array(t_struct(Item)6_storage)dyn_storage"
					}
				],
				"types": {
					"t_array(t_struct(Item)6_storage)dyn_storage": {
						"base": "t_struct(Item)6_storage",
						"encoding": "dynamic_array",
						"label": "struct ItemInfo.Item[]",
						"numberOfBytes": "32"
					},
					"t_string_storage": {
						"encoding": "bytes",
						"label": "string",
						"numberOfBytes": "32"
					},
					"t_struct(Item)6_storage": {
						"encoding": "inplace",
						"label": "struct ItemInfo.Item",
						"members": [
							{
								"astId": 3,
								"contract": "Users/user/Desktop/git/solidity/interface.sol:interfaceEx",
								"label": "name",
								"offset": 0,
								"slot": "0",
								"type": "t_string_storage"
							},
							{
								"astId": 5,
								"contract": "Users/user/Desktop/git/solidity/interface.sol:interfaceEx",
								"label": "price",
								"offset": 0,
								"slot": "1",
								"type": "t_uint256"
							}
						],
						"numberOfBytes": "64"
					},
					"t_uint256": {
						"encoding": "inplace",
						"label": "uint256",
						"numberOfBytes": "32"
					}
				}
			},
			"userdoc": {
				"kind": "user",
				"methods": {},
				"version": 1
			}
		}
	}
}