{
	"Users/user/Desktop/git/solidity/myErc20.sol": {
		"myErc20": {
			"abi": [
				{
					"inputs": [
						{
							"internalType": "string",
							"name": "_name",
							"type": "string"
						},
						{
							"internalType": "string",
							"name": "_symbol",
							"type": "string"
						},
						{
							"internalType": "uint256",
							"name": "_totalSupply",
							"type": "uint256"
						},
						{
							"internalType": "uint256",
							"name": "_decimal",
							"type": "uint256"
						}
					],
					"stateMutability": "nonpayable",
					"type": "constructor"
				},
				{
					"anonymous": false,
					"inputs": [
						{
							"indexed": false,
							"internalType": "address",
							"name": "_from",
							"type": "address"
						},
						{
							"indexed": false,
							"internalType": "address",
							"name": "_to",
							"type": "address"
						},
						{
							"indexed": false,
							"internalType": "uint256",
							"name": "_amount",
							"type": "uint256"
						}
					],
					"name": "_transfer",
					"type": "event"
				},
				{
					"inputs": [
						{
							"internalType": "address",
							"name": "_addr",
							"type": "address"
						}
					],
					"name": "getBalance",
					"outputs": [
						{
							"internalType": "uint256",
							"name": "",
							"type": "uint256"
						}
					],
					"stateMutability": "view",
					"type": "function"
				},
				{
					"inputs": [],
					"name": "getName",
					"outputs": [
						{
							"internalType": "string",
							"name": "",
							"type": "string"
						}
					],
					"stateMutability": "view",
					"type": "function"
				},
				{
					"inputs": [],
					"name": "getSymbol",
					"outputs": [
						{
							"internalType": "string",
							"name": "",
							"type": "string"
						}
					],
					"stateMutability": "view",
					"type": "function"
				},
				{
					"inputs": [],
					"name": "getTokenDecimal",
					"outputs": [
						{
							"internalType": "uint256",
							"name": "",
							"type": "uint256"
						}
					],
					"stateMutability": "view",
					"type": "function"
				},
				{
					"inputs": [],
					"name": "getTotalSupply",
					"outputs": [
						{
							"internalType": "uint256",
							"name": "",
							"type": "uint256"
						}
					],
					"stateMutability": "view",
					"type": "function"
				},
				{
					"inputs": [
						{
							"internalType": "address",
							"name": "_to",
							"type": "address"
						},
						{
							"internalType": "uint256",
							"name": "_amount",
							"type": "uint256"
						}
					],
					"name": "transfer",
					"outputs": [],
					"stateMutability": "nonpayable",
					"type": "function"
				}
			],
			"devdoc": {
				"kind": "dev",
				"methods": {},
				"version": 1
			},
			"evm": {
				"assembly": "    /* \"Users/user/Desktop/git/solidity/myErc20.sol\":59:1731  contract myErc20 {... */\n  mstore(0x40, 0x80)\n    /* \"Users/user/Desktop/git/solidity/myErc20.sol\":417:686  constructor(string memory _name, string memory _symbol, uint _totalSupply, uint _decimal) {... */\n  callvalue\n  dup1\n  iszero\n  tag_1\n  jumpi\n  0x00\n  dup1\n  revert\ntag_1:\n  pop\n  mload(0x40)\n  sub(codesize, bytecodeSize)\n  dup1\n  bytecodeSize\n  dup4\n  codecopy\n  dup2\n  dup2\n  add\n  0x40\n  mstore\n  dup2\n  add\n  swap1\n  tag_2\n  swap2\n  swap1\n  tag_3\n  jump\t// in\ntag_2:\n    /* \"Users/user/Desktop/git/solidity/myErc20.sol\":529:534  _name */\n  dup4\n    /* \"Users/user/Desktop/git/solidity/myErc20.sol\":517:526  tokenName */\n  0x00\n    /* \"Users/user/Desktop/git/solidity/myErc20.sol\":517:534  tokenName = _name */\n  swap1\n  dup2\n  tag_6\n  swap2\n  swap1\n  tag_7\n  jump\t// in\ntag_6:\n  pop\n    /* \"Users/user/Desktop/git/solidity/myErc20.sol\":558:565  _symbol */\n  dup3\n    /* \"Users/user/Desktop/git/solidity/myErc20.sol\":544:555  tokenSymbol */\n  0x01\n    /* \"Users/user/Desktop/git/solidity/myErc20.sol\":544:565  tokenSymbol = _symbol */\n  swap1\n  dup2\n  tag_8\n  swap2\n  swap1\n  tag_7\n  jump\t// in\ntag_8:\n  pop\n    /* \"Users/user/Desktop/git/solidity/myErc20.sol\":594:606  _totalSupply */\n  dup2\n    /* \"Users/user/Desktop/git/solidity/myErc20.sol\":575:591  tokenTotalSupply */\n  0x02\n    /* \"Users/user/Desktop/git/solidity/myErc20.sol\":575:606  tokenTotalSupply = _totalSupply */\n  dup2\n  swap1\n  sstore\n  pop\n    /* \"Users/user/Desktop/git/solidity/myErc20.sol\":631:639  _decimal */\n  dup1\n    /* \"Users/user/Desktop/git/solidity/myErc20.sol\":616:628  tokenDecimal */\n  0x03\n    /* \"Users/user/Desktop/git/solidity/myErc20.sol\":616:639  tokenDecimal = _decimal */\n  dup2\n  swap1\n  sstore\n  pop\n    /* \"Users/user/Desktop/git/solidity/myErc20.sol\":649:679  mint(msg.sender, _totalSupply) */\n  tag_9\n    /* \"Users/user/Desktop/git/solidity/myErc20.sol\":654:664  msg.sender */\n  caller\n    /* \"Users/user/Desktop/git/solidity/myErc20.sol\":666:678  _totalSupply */\n  dup4\n    /* \"Users/user/Desktop/git/solidity/myErc20.sol\":649:653  mint */\n  shl(0x20, tag_10)\n    /* \"Users/user/Desktop/git/solidity/myErc20.sol\":649:679  mint(msg.sender, _totalSupply) */\n  0x20\n  shr\n  jump\t// in\ntag_9:\n    /* \"Users/user/Desktop/git/solidity/myErc20.sol\":417:686  constructor(string memory _name, string memory _symbol, uint _totalSupply, uint _decimal) {... */\n  pop\n  pop\n  pop\n  pop\n    /* \"Users/user/Desktop/git/solidity/myErc20.sol\":59:1731  contract myErc20 {... */\n  jump(tag_11)\n    /* \"Users/user/Desktop/git/solidity/myErc20.sol\":1190:1441  function mint(address _addr, uint amount) internal virtual { //public접근이면 아무나 민팅 가능해서 토큰 막 생성 가능, virtual로 재구현 가능... */\ntag_10:\n    /* \"Users/user/Desktop/git/solidity/myErc20.sol\":1392:1398  amount */\n  dup1\n    /* \"Users/user/Desktop/git/solidity/myErc20.sol\":1364:1381  addressBalanceMap */\n  0x04\n    /* \"Users/user/Desktop/git/solidity/myErc20.sol\":1364:1388  addressBalanceMap[_addr] */\n  0x00\n    /* \"Users/user/Desktop/git/solidity/myErc20.sol\":1382:1387  _addr */\n  dup5\n    /* \"Users/user/Desktop/git/solidity/myErc20.sol\":1364:1388  addressBalanceMap[_addr] */\n  0xffffffffffffffffffffffffffffffffffffffff\n  and\n  0xffffffffffffffffffffffffffffffffffffffff\n  and\n  dup2\n  mstore\n  0x20\n  add\n  swap1\n  dup2\n  mstore\n  0x20\n  add\n  0x00\n  keccak256\n  0x00\n    /* \"Users/user/Desktop/git/solidity/myErc20.sol\":1364:1398  addressBalanceMap[_addr] += amount */\n  dup3\n  dup3\n  sload\n  tag_13\n  swap2\n  swap1\n  tag_14\n  jump\t// in\ntag_13:\n  swap3\n  pop\n  pop\n  dup2\n  swap1\n  sstore\n  pop\n    /* \"Users/user/Desktop/git/solidity/myErc20.sol\":1428:1434  amount */\n  dup1\n    /* \"Users/user/Desktop/git/solidity/myErc20.sol\":1408:1424  tokenTotalSupply */\n  0x02\n  0x00\n    /* \"Users/user/Desktop/git/solidity/myErc20.sol\":1408:1434  tokenTotalSupply += amount */\n  dup3\n  dup3\n  sload\n  tag_15\n  swap2\n  swap1\n  tag_14\n  jump\t// in\ntag_15:\n  swap3\n  pop\n  pop\n  dup2\n  swap1\n  sstore\n  pop\n    /* \"Users/user/Desktop/git/solidity/myErc20.sol\":1190:1441  function mint(address _addr, uint amount) internal virtual { //public접근이면 아무나 민팅 가능해서 토큰 막 생성 가능, virtual로 재구현 가능... */\n  pop\n  pop\n  jump\t// out\n    /* \"#utility.yul\":7:82   */\ntag_16:\n    /* \"#utility.yul\":40:46   */\n  0x00\n    /* \"#utility.yul\":73:75   */\n  0x40\n    /* \"#utility.yul\":67:76   */\n  mload\n    /* \"#utility.yul\":57:76   */\n  swap1\n  pop\n    /* \"#utility.yul\":7:82   */\n  swap1\n  jump\t// out\n    /* \"#utility.yul\":88:205   */\ntag_17:\n    /* \"#utility.yul\":197:198   */\n  0x00\n    /* \"#utility.yul\":194:195   */\n  dup1\n    /* \"#utility.yul\":187:199   */\n  revert\n    /* \"#utility.yul\":211:328   */\ntag_18:\n    /* \"#utility.yul\":320:321   */\n  0x00\n    /* \"#utility.yul\":317:318   */\n  dup1\n    /* \"#utility.yul\":310:322   */\n  revert\n    /* \"#utility.yul\":334:451   */\ntag_19:\n    /* \"#utility.yul\":443:444   */\n  0x00\n    /* \"#utility.yul\":440:441   */\n  dup1\n    /* \"#utility.yul\":433:445   */\n  revert\n    /* \"#utility.yul\":457:574   */\ntag_20:\n    /* \"#utility.yul\":566:567   */\n  0x00\n    /* \"#utility.yul\":563:564   */\n  dup1\n    /* \"#utility.yul\":556:568   */\n  revert\n    /* \"#utility.yul\":580:682   */\ntag_21:\n    /* \"#utility.yul\":621:627   */\n  0x00\n    /* \"#utility.yul\":672:674   */\n  0x1f\n    /* \"#utility.yul\":668:675   */\n  not\n    /* \"#utility.yul\":663:665   */\n  0x1f\n    /* \"#utility.yul\":656:661   */\n  dup4\n    /* \"#utility.yul\":652:666   */\n  add\n    /* \"#utility.yul\":648:676   */\n  and\n    /* \"#utility.yul\":638:676   */\n  swap1\n  pop\n    /* \"#utility.yul\":580:682   */\n  swap2\n  swap1\n  pop\n  jump\t// out\n    /* \"#utility.yul\":688:868   */\ntag_22:\n    /* \"#utility.yul\":736:813   */\n  0x4e487b7100000000000000000000000000000000000000000000000000000000\n    /* \"#utility.yul\":733:734   */\n  0x00\n    /* \"#utility.yul\":726:814   */\n  mstore\n    /* \"#utility.yul\":833:837   */\n  0x41\n    /* \"#utility.yul\":830:831   */\n  0x04\n    /* \"#utility.yul\":823:838   */\n  mstore\n    /* \"#utility.yul\":857:861   */\n  0x24\n    /* \"#utility.yul\":854:855   */\n  0x00\n    /* \"#utility.yul\":847:862   */\n  revert\n    /* \"#utility.yul\":874:1155   */\ntag_23:\n    /* \"#utility.yul\":957:984   */\n  tag_60\n    /* \"#utility.yul\":979:983   */\n  dup3\n    /* \"#utility.yul\":957:984   */\n  tag_21\n  jump\t// in\ntag_60:\n    /* \"#utility.yul\":949:955   */\n  dup2\n    /* \"#utility.yul\":945:985   */\n  add\n    /* \"#utility.yul\":1087:1093   */\n  dup2\n    /* \"#utility.yul\":1075:1085   */\n  dup2\n    /* \"#utility.yul\":1072:1094   */\n  lt\n    /* \"#utility.yul\":1051:1069   */\n  0xffffffffffffffff\n    /* \"#utility.yul\":1039:1049   */\n  dup3\n    /* \"#utility.yul\":1036:1070   */\n  gt\n    /* \"#utility.yul\":1033:1095   */\n  or\n    /* \"#utility.yul\":1030:1118   */\n  iszero\n  tag_61\n  jumpi\n    /* \"#utility.yul\":1098:1116   */\n  tag_62\n  tag_22\n  jump\t// in\ntag_62:\n    /* \"#utility.yul\":1030:1118   */\ntag_61:\n    /* \"#utility.yul\":1138:1148   */\n  dup1\n    /* \"#utility.yul\":1134:1136   */\n  0x40\n    /* \"#utility.yul\":1127:1149   */\n  mstore\n    /* \"#utility.yul\":917:1155   */\n  pop\n    /* \"#utility.yul\":874:1155   */\n  pop\n  pop\n  jump\t// out\n    /* \"#utility.yul\":1161:1290   */\ntag_24:\n    /* \"#utility.yul\":1195:1201   */\n  0x00\n    /* \"#utility.yul\":1222:1242   */\n  tag_64\n  tag_16\n  jump\t// in\ntag_64:\n    /* \"#utility.yul\":1212:1242   */\n  swap1\n  pop\n    /* \"#utility.yul\":1251:1284   */\n  tag_65\n    /* \"#utility.yul\":1279:1283   */\n  dup3\n    /* \"#utility.yul\":1271:1277   */\n  dup3\n    /* \"#utility.yul\":1251:1284   */\n  tag_23\n  jump\t// in\ntag_65:\n    /* \"#utility.yul\":1161:1290   */\n  swap2\n  swap1\n  pop\n  jump\t// out\n    /* \"#utility.yul\":1296:1604   */\ntag_25:\n    /* \"#utility.yul\":1358:1362   */\n  0x00\n    /* \"#utility.yul\":1448:1466   */\n  0xffffffffffffffff\n    /* \"#utility.yul\":1440:1446   */\n  dup3\n    /* \"#utility.yul\":1437:1467   */\n  gt\n    /* \"#utility.yul\":1434:1490   */\n  iszero\n  tag_67\n  jumpi\n    /* \"#utility.yul\":1470:1488   */\n  tag_68\n  tag_22\n  jump\t// in\ntag_68:\n    /* \"#utility.yul\":1434:1490   */\ntag_67:\n    /* \"#utility.yul\":1508:1537   */\n  tag_69\n    /* \"#utility.yul\":1530:1536   */\n  dup3\n    /* \"#utility.yul\":1508:1537   */\n  tag_21\n  jump\t// in\ntag_69:\n    /* \"#utility.yul\":1500:1537   */\n  swap1\n  pop\n    /* \"#utility.yul\":1592:1596   */\n  0x20\n    /* \"#utility.yul\":1586:1590   */\n  dup2\n    /* \"#utility.yul\":1582:1597   */\n  add\n    /* \"#utility.yul\":1574:1597   */\n  swap1\n  pop\n    /* \"#utility.yul\":1296:1604   */\n  swap2\n  swap1\n  pop\n  jump\t// out\n    /* \"#utility.yul\":1610:1856   */\ntag_26:\n    /* \"#utility.yul\":1691:1692   */\n  0x00\n    /* \"#utility.yul\":1701:1814   */\ntag_71:\n    /* \"#utility.yul\":1715:1721   */\n  dup4\n    /* \"#utility.yul\":1712:1713   */\n  dup2\n    /* \"#utility.yul\":1709:1722   */\n  lt\n    /* \"#utility.yul\":1701:1814   */\n  iszero\n  tag_73\n  jumpi\n    /* \"#utility.yul\":1800:1801   */\n  dup1\n    /* \"#utility.yul\":1795:1798   */\n  dup3\n    /* \"#utility.yul\":1791:1802   */\n  add\n    /* \"#utility.yul\":1785:1803   */\n  mload\n    /* \"#utility.yul\":1781:1782   */\n  dup2\n    /* \"#utility.yul\":1776:1779   */\n  dup5\n    /* \"#utility.yul\":1772:1783   */\n  add\n    /* \"#utility.yul\":1765:1804   */\n  mstore\n    /* \"#utility.yul\":1737:1739   */\n  0x20\n    /* \"#utility.yul\":1734:1735   */\n  dup2\n    /* \"#utility.yul\":1730:1740   */\n  add\n    /* \"#utility.yul\":1725:1740   */\n  swap1\n  pop\n    /* \"#utility.yul\":1701:1814   */\n  jump(tag_71)\ntag_73:\n    /* \"#utility.yul\":1848:1849   */\n  0x00\n    /* \"#utility.yul\":1839:1845   */\n  dup5\n    /* \"#utility.yul\":1834:1837   */\n  dup5\n    /* \"#utility.yul\":1830:1846   */\n  add\n    /* \"#utility.yul\":1823:1850   */\n  mstore\n    /* \"#utility.yul\":1672:1856   */\n  pop\n    /* \"#utility.yul\":1610:1856   */\n  pop\n  pop\n  pop\n  jump\t// out\n    /* \"#utility.yul\":1862:2296   */\ntag_27:\n    /* \"#utility.yul\":1951:1956   */\n  0x00\n    /* \"#utility.yul\":1976:2042   */\n  tag_75\n    /* \"#utility.yul\":1992:2041   */\n  tag_76\n    /* \"#utility.yul\":2034:2040   */\n  dup5\n    /* \"#utility.yul\":1992:2041   */\n  tag_25\n  jump\t// in\ntag_76:\n    /* \"#utility.yul\":1976:2042   */\n  tag_24\n  jump\t// in\ntag_75:\n    /* \"#utility.yul\":1967:2042   */\n  swap1\n  pop\n    /* \"#utility.yul\":2065:2071   */\n  dup3\n    /* \"#utility.yul\":2058:2063   */\n  dup2\n    /* \"#utility.yul\":2051:2072   */\n  mstore\n    /* \"#utility.yul\":2103:2107   */\n  0x20\n    /* \"#utility.yul\":2096:2101   */\n  dup2\n    /* \"#utility.yul\":2092:2108   */\n  add\n    /* \"#utility.yul\":2141:2144   */\n  dup5\n    /* \"#utility.yul\":2132:2138   */\n  dup5\n    /* \"#utility.yul\":2127:2130   */\n  dup5\n    /* \"#utility.yul\":2123:2139   */\n  add\n    /* \"#utility.yul\":2120:2145   */\n  gt\n    /* \"#utility.yul\":2117:2229   */\n  iszero\n  tag_77\n  jumpi\n    /* \"#utility.yul\":2148:2227   */\n  tag_78\n  tag_20\n  jump\t// in\ntag_78:\n    /* \"#utility.yul\":2117:2229   */\ntag_77:\n    /* \"#utility.yul\":2238:2290   */\n  tag_79\n    /* \"#utility.yul\":2283:2289   */\n  dup5\n    /* \"#utility.yul\":2278:2281   */\n  dup3\n    /* \"#utility.yul\":2273:2276   */\n  dup6\n    /* \"#utility.yul\":2238:2290   */\n  tag_26\n  jump\t// in\ntag_79:\n    /* \"#utility.yul\":1957:2296   */\n  pop\n    /* \"#utility.yul\":1862:2296   */\n  swap4\n  swap3\n  pop\n  pop\n  pop\n  jump\t// out\n    /* \"#utility.yul\":2316:2671   */\ntag_28:\n    /* \"#utility.yul\":2383:2388   */\n  0x00\n    /* \"#utility.yul\":2432:2435   */\n  dup3\n    /* \"#utility.yul\":2425:2429   */\n  0x1f\n    /* \"#utility.yul\":2417:2423   */\n  dup4\n    /* \"#utility.yul\":2413:2430   */\n  add\n    /* \"#utility.yul\":2409:2436   */\n  slt\n    /* \"#utility.yul\":2399:2521   */\n  tag_81\n  jumpi\n    /* \"#utility.yul\":2440:2519   */\n  tag_82\n  tag_19\n  jump\t// in\ntag_82:\n    /* \"#utility.yul\":2399:2521   */\ntag_81:\n    /* \"#utility.yul\":2550:2556   */\n  dup2\n    /* \"#utility.yul\":2544:2557   */\n  mload\n    /* \"#utility.yul\":2575:2665   */\n  tag_83\n    /* \"#utility.yul\":2661:2664   */\n  dup5\n    /* \"#utility.yul\":2653:2659   */\n  dup3\n    /* \"#utility.yul\":2646:2650   */\n  0x20\n    /* \"#utility.yul\":2638:2644   */\n  dup7\n    /* \"#utility.yul\":2634:2651   */\n  add\n    /* \"#utility.yul\":2575:2665   */\n  tag_27\n  jump\t// in\ntag_83:\n    /* \"#utility.yul\":2566:2665   */\n  swap2\n  pop\n    /* \"#utility.yul\":2389:2671   */\n  pop\n    /* \"#utility.yul\":2316:2671   */\n  swap3\n  swap2\n  pop\n  pop\n  jump\t// out\n    /* \"#utility.yul\":2677:2754   */\ntag_29:\n    /* \"#utility.yul\":2714:2721   */\n  0x00\n    /* \"#utility.yul\":2743:2748   */\n  dup2\n    /* \"#utility.yul\":2732:2748   */\n  swap1\n  pop\n    /* \"#utility.yul\":2677:2754   */\n  swap2\n  swap1\n  pop\n  jump\t// out\n    /* \"#utility.yul\":2760:2882   */\ntag_30:\n    /* \"#utility.yul\":2833:2857   */\n  tag_86\n    /* \"#utility.yul\":2851:2856   */\n  dup2\n    /* \"#utility.yul\":2833:2857   */\n  tag_29\n  jump\t// in\ntag_86:\n    /* \"#utility.yul\":2826:2831   */\n  dup2\n    /* \"#utility.yul\":2823:2858   */\n  eq\n    /* \"#utility.yul\":2813:2876   */\n  tag_87\n  jumpi\n    /* \"#utility.yul\":2872:2873   */\n  0x00\n    /* \"#utility.yul\":2869:2870   */\n  dup1\n    /* \"#utility.yul\":2862:2874   */\n  revert\n    /* \"#utility.yul\":2813:2876   */\ntag_87:\n    /* \"#utility.yul\":2760:2882   */\n  pop\n  jump\t// out\n    /* \"#utility.yul\":2888:3031   */\ntag_31:\n    /* \"#utility.yul\":2945:2950   */\n  0x00\n    /* \"#utility.yul\":2976:2982   */\n  dup2\n    /* \"#utility.yul\":2970:2983   */\n  mload\n    /* \"#utility.yul\":2961:2983   */\n  swap1\n  pop\n    /* \"#utility.yul\":2992:3025   */\n  tag_89\n    /* \"#utility.yul\":3019:3024   */\n  dup2\n    /* \"#utility.yul\":2992:3025   */\n  tag_30\n  jump\t// in\ntag_89:\n    /* \"#utility.yul\":2888:3031   */\n  swap3\n  swap2\n  pop\n  pop\n  jump\t// out\n    /* \"#utility.yul\":3037:4203   */\ntag_3:\n    /* \"#utility.yul\":3154:3160   */\n  0x00\n    /* \"#utility.yul\":3162:3168   */\n  dup1\n    /* \"#utility.yul\":3170:3176   */\n  0x00\n    /* \"#utility.yul\":3178:3184   */\n  dup1\n    /* \"#utility.yul\":3227:3230   */\n  0x80\n    /* \"#utility.yul\":3215:3224   */\n  dup6\n    /* \"#utility.yul\":3206:3213   */\n  dup8\n    /* \"#utility.yul\":3202:3225   */\n  sub\n    /* \"#utility.yul\":3198:3231   */\n  slt\n    /* \"#utility.yul\":3195:3315   */\n  iszero\n  tag_91\n  jumpi\n    /* \"#utility.yul\":3234:3313   */\n  tag_92\n  tag_17\n  jump\t// in\ntag_92:\n    /* \"#utility.yul\":3195:3315   */\ntag_91:\n    /* \"#utility.yul\":3375:3376   */\n  0x00\n    /* \"#utility.yul\":3364:3373   */\n  dup6\n    /* \"#utility.yul\":3360:3377   */\n  add\n    /* \"#utility.yul\":3354:3378   */\n  mload\n    /* \"#utility.yul\":3405:3423   */\n  0xffffffffffffffff\n    /* \"#utility.yul\":3397:3403   */\n  dup2\n    /* \"#utility.yul\":3394:3424   */\n  gt\n    /* \"#utility.yul\":3391:3508   */\n  iszero\n  tag_93\n  jumpi\n    /* \"#utility.yul\":3427:3506   */\n  tag_94\n  tag_18\n  jump\t// in\ntag_94:\n    /* \"#utility.yul\":3391:3508   */\ntag_93:\n    /* \"#utility.yul\":3532:3606   */\n  tag_95\n    /* \"#utility.yul\":3598:3605   */\n  dup8\n    /* \"#utility.yul\":3589:3595   */\n  dup3\n    /* \"#utility.yul\":3578:3587   */\n  dup9\n    /* \"#utility.yul\":3574:3596   */\n  add\n    /* \"#utility.yul\":3532:3606   */\n  tag_28\n  jump\t// in\ntag_95:\n    /* \"#utility.yul\":3522:3606   */\n  swap5\n  pop\n    /* \"#utility.yul\":3325:3616   */\n  pop\n    /* \"#utility.yul\":3676:3678   */\n  0x20\n    /* \"#utility.yul\":3665:3674   */\n  dup6\n    /* \"#utility.yul\":3661:3679   */\n  add\n    /* \"#utility.yul\":3655:3680   */\n  mload\n    /* \"#utility.yul\":3707:3725   */\n  0xffffffffffffffff\n    /* \"#utility.yul\":3699:3705   */\n  dup2\n    /* \"#utility.yul\":3696:3726   */\n  gt\n    /* \"#utility.yul\":3693:3810   */\n  iszero\n  tag_96\n  jumpi\n    /* \"#utility.yul\":3729:3808   */\n  tag_97\n  tag_18\n  jump\t// in\ntag_97:\n    /* \"#utility.yul\":3693:3810   */\ntag_96:\n    /* \"#utility.yul\":3834:3908   */\n  tag_98\n    /* \"#utility.yul\":3900:3907   */\n  dup8\n    /* \"#utility.yul\":3891:3897   */\n  dup3\n    /* \"#utility.yul\":3880:3889   */\n  dup9\n    /* \"#utility.yul\":3876:3898   */\n  add\n    /* \"#utility.yul\":3834:3908   */\n  tag_28\n  jump\t// in\ntag_98:\n    /* \"#utility.yul\":3824:3908   */\n  swap4\n  pop\n    /* \"#utility.yul\":3626:3918   */\n  pop\n    /* \"#utility.yul\":3957:3959   */\n  0x40\n    /* \"#utility.yul\":3983:4047   */\n  tag_99\n    /* \"#utility.yul\":4039:4046   */\n  dup8\n    /* \"#utility.yul\":4030:4036   */\n  dup3\n    /* \"#utility.yul\":4019:4028   */\n  dup9\n    /* \"#utility.yul\":4015:4037   */\n  add\n    /* \"#utility.yul\":3983:4047   */\n  tag_31\n  jump\t// in\ntag_99:\n    /* \"#utility.yul\":3973:4047   */\n  swap3\n  pop\n    /* \"#utility.yul\":3928:4057   */\n  pop\n    /* \"#utility.yul\":4096:4098   */\n  0x60\n    /* \"#utility.yul\":4122:4186   */\n  tag_100\n    /* \"#utility.yul\":4178:4185   */\n  dup8\n    /* \"#utility.yul\":4169:4175   */\n  dup3\n    /* \"#utility.yul\":4158:4167   */\n  dup9\n    /* \"#utility.yul\":4154:4176   */\n  add\n    /* \"#utility.yul\":4122:4186   */\n  tag_31\n  jump\t// in\ntag_100:\n    /* \"#utility.yul\":4112:4186   */\n  swap2\n  pop\n    /* \"#utility.yul\":4067:4196   */\n  pop\n    /* \"#utility.yul\":3037:4203   */\n  swap3\n  swap6\n  swap2\n  swap5\n  pop\n  swap3\n  pop\n  jump\t// out\n    /* \"#utility.yul\":4209:4308   */\ntag_32:\n    /* \"#utility.yul\":4261:4267   */\n  0x00\n    /* \"#utility.yul\":4295:4300   */\n  dup2\n    /* \"#utility.yul\":4289:4301   */\n  mload\n    /* \"#utility.yul\":4279:4301   */\n  swap1\n  pop\n    /* \"#utility.yul\":4209:4308   */\n  swap2\n  swap1\n  pop\n  jump\t// out\n    /* \"#utility.yul\":4314:4494   */\ntag_33:\n    /* \"#utility.yul\":4362:4439   */\n  0x4e487b7100000000000000000000000000000000000000000000000000000000\n    /* \"#utility.yul\":4359:4360   */\n  0x00\n    /* \"#utility.yul\":4352:4440   */\n  mstore\n    /* \"#utility.yul\":4459:4463   */\n  0x22\n    /* \"#utility.yul\":4456:4457   */\n  0x04\n    /* \"#utility.yul\":4449:4464   */\n  mstore\n    /* \"#utility.yul\":4483:4487   */\n  0x24\n    /* \"#utility.yul\":4480:4481   */\n  0x00\n    /* \"#utility.yul\":4473:4488   */\n  revert\n    /* \"#utility.yul\":4500:4820   */\ntag_34:\n    /* \"#utility.yul\":4544:4550   */\n  0x00\n    /* \"#utility.yul\":4581:4582   */\n  0x02\n    /* \"#utility.yul\":4575:4579   */\n  dup3\n    /* \"#utility.yul\":4571:4583   */\n  div\n    /* \"#utility.yul\":4561:4583   */\n  swap1\n  pop\n    /* \"#utility.yul\":4628:4629   */\n  0x01\n    /* \"#utility.yul\":4622:4626   */\n  dup3\n    /* \"#utility.yul\":4618:4630   */\n  and\n    /* \"#utility.yul\":4649:4667   */\n  dup1\n    /* \"#utility.yul\":4639:4720   */\n  tag_104\n  jumpi\n    /* \"#utility.yul\":4705:4709   */\n  0x7f\n    /* \"#utility.yul\":4697:4703   */\n  dup3\n    /* \"#utility.yul\":4693:4710   */\n  and\n    /* \"#utility.yul\":4683:4710   */\n  swap2\n  pop\n    /* \"#utility.yul\":4639:4720   */\ntag_104:\n    /* \"#utility.yul\":4767:4769   */\n  0x20\n    /* \"#utility.yul\":4759:4765   */\n  dup3\n    /* \"#utility.yul\":4756:4770   */\n  lt\n    /* \"#utility.yul\":4736:4754   */\n  dup2\n    /* \"#utility.yul\":4733:4771   */\n  sub\n    /* \"#utility.yul\":4730:4814   */\n  tag_105\n  jumpi\n    /* \"#utility.yul\":4786:4804   */\n  tag_106\n  tag_33\n  jump\t// in\ntag_106:\n    /* \"#utility.yul\":4730:4814   */\ntag_105:\n    /* \"#utility.yul\":4551:4820   */\n  pop\n    /* \"#utility.yul\":4500:4820   */\n  swap2\n  swap1\n  pop\n  jump\t// out\n    /* \"#utility.yul\":4826:4967   */\ntag_35:\n    /* \"#utility.yul\":4875:4879   */\n  0x00\n    /* \"#utility.yul\":4898:4901   */\n  dup2\n    /* \"#utility.yul\":4890:4901   */\n  swap1\n  pop\n    /* \"#utility.yul\":4921:4924   */\n  dup2\n    /* \"#utility.yul\":4918:4919   */\n  0x00\n    /* \"#utility.yul\":4911:4925   */\n  mstore\n    /* \"#utility.yul\":4955:4959   */\n  0x20\n    /* \"#utility.yul\":4952:4953   */\n  0x00\n    /* \"#utility.yul\":4942:4960   */\n  keccak256\n    /* \"#utility.yul\":4934:4960   */\n  swap1\n  pop\n    /* \"#utility.yul\":4826:4967   */\n  swap2\n  swap1\n  pop\n  jump\t// out\n    /* \"#utility.yul\":4973:5066   */\ntag_36:\n    /* \"#utility.yul\":5010:5016   */\n  0x00\n    /* \"#utility.yul\":5057:5059   */\n  0x20\n    /* \"#utility.yul\":5052:5054   */\n  0x1f\n    /* \"#utility.yul\":5045:5050   */\n  dup4\n    /* \"#utility.yul\":5041:5055   */\n  add\n    /* \"#utility.yul\":5037:5060   */\n  div\n    /* \"#utility.yul\":5027:5060   */\n  swap1\n  pop\n    /* \"#utility.yul\":4973:5066   */\n  swap2\n  swap1\n  pop\n  jump\t// out\n    /* \"#utility.yul\":5072:5179   */\ntag_37:\n    /* \"#utility.yul\":5116:5124   */\n  0x00\n    /* \"#utility.yul\":5166:5171   */\n  dup3\n    /* \"#utility.yul\":5160:5164   */\n  dup3\n    /* \"#utility.yul\":5156:5172   */\n  shl\n    /* \"#utility.yul\":5135:5172   */\n  swap1\n  pop\n    /* \"#utility.yul\":5072:5179   */\n  swap3\n  swap2\n  pop\n  pop\n  jump\t// out\n    /* \"#utility.yul\":5185:5578   */\ntag_38:\n    /* \"#utility.yul\":5254:5260   */\n  0x00\n    /* \"#utility.yul\":5304:5305   */\n  0x08\n    /* \"#utility.yul\":5292:5302   */\n  dup4\n    /* \"#utility.yul\":5288:5306   */\n  mul\n    /* \"#utility.yul\":5327:5424   */\n  tag_111\n    /* \"#utility.yul\":5357:5423   */\n  0xffffffffffffffffffffffffffffffffffffffffffffffffffffffffffffffff\n    /* \"#utility.yul\":5346:5355   */\n  dup3\n    /* \"#utility.yul\":5327:5424   */\n  tag_37\n  jump\t// in\ntag_111:\n    /* \"#utility.yul\":5445:5484   */\n  tag_112\n    /* \"#utility.yul\":5475:5483   */\n  dup7\n    /* \"#utility.yul\":5464:5473   */\n  dup4\n    /* \"#utility.yul\":5445:5484   */\n  tag_37\n  jump\t// in\ntag_112:\n    /* \"#utility.yul\":5433:5484   */\n  swap6\n  pop\n    /* \"#utility.yul\":5517:5521   */\n  dup1\n    /* \"#utility.yul\":5513:5522   */\n  not\n    /* \"#utility.yul\":5506:5511   */\n  dup5\n    /* \"#utility.yul\":5502:5523   */\n  and\n    /* \"#utility.yul\":5493:5523   */\n  swap4\n  pop\n    /* \"#utility.yul\":5566:5570   */\n  dup1\n    /* \"#utility.yul\":5556:5564   */\n  dup7\n    /* \"#utility.yul\":5552:5571   */\n  and\n    /* \"#utility.yul\":5545:5550   */\n  dup5\n    /* \"#utility.yul\":5542:5572   */\n  or\n    /* \"#utility.yul\":5532:5572   */\n  swap3\n  pop\n    /* \"#utility.yul\":5261:5578   */\n  pop\n  pop\n    /* \"#utility.yul\":5185:5578   */\n  swap4\n  swap3\n  pop\n  pop\n  pop\n  jump\t// out\n    /* \"#utility.yul\":5584:5644   */\ntag_39:\n    /* \"#utility.yul\":5612:5615   */\n  0x00\n    /* \"#utility.yul\":5633:5638   */\n  dup2\n    /* \"#utility.yul\":5626:5638   */\n  swap1\n  pop\n    /* \"#utility.yul\":5584:5644   */\n  swap2\n  swap1\n  pop\n  jump\t// out\n    /* \"#utility.yul\":5650:5792   */\ntag_40:\n    /* \"#utility.yul\":5700:5709   */\n  0x00\n    /* \"#utility.yul\":5733:5786   */\n  tag_115\n    /* \"#utility.yul\":5751:5785   */\n  tag_116\n    /* \"#utility.yul\":5760:5784   */\n  tag_117\n    /* \"#utility.yul\":5778:5783   */\n  dup5\n    /* \"#utility.yul\":5760:5784   */\n  tag_29\n  jump\t// in\ntag_117:\n    /* \"#utility.yul\":5751:5785   */\n  tag_39\n  jump\t// in\ntag_116:\n    /* \"#utility.yul\":5733:5786   */\n  tag_29\n  jump\t// in\ntag_115:\n    /* \"#utility.yul\":5720:5786   */\n  swap1\n  pop\n    /* \"#utility.yul\":5650:5792   */\n  swap2\n  swap1\n  pop\n  jump\t// out\n    /* \"#utility.yul\":5798:5873   */\ntag_41:\n    /* \"#utility.yul\":5841:5844   */\n  0x00\n    /* \"#utility.yul\":5862:5867   */\n  dup2\n    /* \"#utility.yul\":5855:5867   */\n  swap1\n  pop\n    /* \"#utility.yul\":5798:5873   */\n  swap2\n  swap1\n  pop\n  jump\t// out\n    /* \"#utility.yul\":5879:6148   */\ntag_42:\n    /* \"#utility.yul\":5989:6028   */\n  tag_120\n    /* \"#utility.yul\":6020:6027   */\n  dup4\n    /* \"#utility.yul\":5989:6028   */\n  tag_40\n  jump\t// in\ntag_120:\n    /* \"#utility.yul\":6050:6141   */\n  tag_121\n    /* \"#utility.yul\":6099:6140   */\n  tag_122\n    /* \"#utility.yul\":6123:6139   */\n  dup3\n    /* \"#utility.yul\":6099:6140   */\n  tag_41\n  jump\t// in\ntag_122:\n    /* \"#utility.yul\":6091:6097   */\n  dup5\n    /* \"#utility.yul\":6084:6088   */\n  dup5\n    /* \"#utility.yul\":6078:6089   */\n  sload\n    /* \"#utility.yul\":6050:6141   */\n  tag_38\n  jump\t// in\ntag_121:\n    /* \"#utility.yul\":6044:6048   */\n  dup3\n    /* \"#utility.yul\":6037:6142   */\n  sstore\n    /* \"#utility.yul\":5955:6148   */\n  pop\n    /* \"#utility.yul\":5879:6148   */\n  pop\n  pop\n  pop\n  jump\t// out\n    /* \"#utility.yul\":6154:6227   */\ntag_43:\n    /* \"#utility.yul\":6199:6202   */\n  0x00\n    /* \"#utility.yul\":6154:6227   */\n  swap1\n  jump\t// out\n    /* \"#utility.yul\":6233:6422   */\ntag_44:\n    /* \"#utility.yul\":6310:6342   */\n  tag_125\n  tag_43\n  jump\t// in\ntag_125:\n    /* \"#utility.yul\":6351:6416   */\n  tag_126\n    /* \"#utility.yul\":6409:6415   */\n  dup2\n    /* \"#utility.yul\":6401:6407   */\n  dup5\n    /* \"#utility.yul\":6395:6399   */\n  dup5\n    /* \"#utility.yul\":6351:6416   */\n  tag_42\n  jump\t// in\ntag_126:\n    /* \"#utility.yul\":6286:6422   */\n  pop\n    /* \"#utility.yul\":6233:6422   */\n  pop\n  pop\n  jump\t// out\n    /* \"#utility.yul\":6428:6614   */\ntag_45:\n    /* \"#utility.yul\":6488:6608   */\ntag_128:\n    /* \"#utility.yul\":6505:6508   */\n  dup2\n    /* \"#utility.yul\":6498:6503   */\n  dup2\n    /* \"#utility.yul\":6495:6509   */\n  lt\n    /* \"#utility.yul\":6488:6608   */\n  iszero\n  tag_130\n  jumpi\n    /* \"#utility.yul\":6559:6598   */\n  tag_131\n    /* \"#utility.yul\":6596:6597   */\n  0x00\n    /* \"#utility.yul\":6589:6594   */\n  dup3\n    /* \"#utility.yul\":6559:6598   */\n  tag_44\n  jump\t// in\ntag_131:\n    /* \"#utility.yul\":6532:6533   */\n  0x01\n    /* \"#utility.yul\":6525:6530   */\n  dup2\n    /* \"#utility.yul\":6521:6534   */\n  add\n    /* \"#utility.yul\":6512:6534   */\n  swap1\n  pop\n    /* \"#utility.yul\":6488:6608   */\n  jump(tag_128)\ntag_130:\n    /* \"#utility.yul\":6428:6614   */\n  pop\n  pop\n  jump\t// out\n    /* \"#utility.yul\":6620:7163   */\ntag_46:\n    /* \"#utility.yul\":6721:6723   */\n  0x1f\n    /* \"#utility.yul\":6716:6719   */\n  dup3\n    /* \"#utility.yul\":6713:6724   */\n  gt\n    /* \"#utility.yul\":6710:7156   */\n  iszero\n  tag_133\n  jumpi\n    /* \"#utility.yul\":6755:6793   */\n  tag_134\n    /* \"#utility.yul\":6787:6792   */\n  dup2\n    /* \"#utility.yul\":6755:6793   */\n  tag_35\n  jump\t// in\ntag_134:\n    /* \"#utility.yul\":6839:6868   */\n  tag_135\n    /* \"#utility.yul\":6857:6867   */\n  dup5\n    /* \"#utility.yul\":6839:6868   */\n  tag_36\n  jump\t// in\ntag_135:\n    /* \"#utility.yul\":6829:6837   */\n  dup2\n    /* \"#utility.yul\":6825:6869   */\n  add\n    /* \"#utility.yul\":7022:7024   */\n  0x20\n    /* \"#utility.yul\":7010:7020   */\n  dup6\n    /* \"#utility.yul\":7007:7025   */\n  lt\n    /* \"#utility.yul\":7004:7053   */\n  iszero\n  tag_136\n  jumpi\n    /* \"#utility.yul\":7043:7051   */\n  dup2\n    /* \"#utility.yul\":7028:7051   */\n  swap1\n  pop\n    /* \"#utility.yul\":7004:7053   */\ntag_136:\n    /* \"#utility.yul\":7066:7146   */\n  tag_137\n    /* \"#utility.yul\":7122:7144   */\n  tag_138\n    /* \"#utility.yul\":7140:7143   */\n  dup6\n    /* \"#utility.yul\":7122:7144   */\n  tag_36\n  jump\t// in\ntag_138:\n    /* \"#utility.yul\":7112:7120   */\n  dup4\n    /* \"#utility.yul\":7108:7145   */\n  add\n    /* \"#utility.yul\":7095:7106   */\n  dup3\n    /* \"#utility.yul\":7066:7146   */\n  tag_45\n  jump\t// in\ntag_137:\n    /* \"#utility.yul\":6725:7156   */\n  pop\n  pop\n    /* \"#utility.yul\":6710:7156   */\ntag_133:\n    /* \"#utility.yul\":6620:7163   */\n  pop\n  pop\n  pop\n  jump\t// out\n    /* \"#utility.yul\":7169:7286   */\ntag_47:\n    /* \"#utility.yul\":7223:7231   */\n  0x00\n    /* \"#utility.yul\":7273:7278   */\n  dup3\n    /* \"#utility.yul\":7267:7271   */\n  dup3\n    /* \"#utility.yul\":7263:7279   */\n  shr\n    /* \"#utility.yul\":7242:7279   */\n  swap1\n  pop\n    /* \"#utility.yul\":7169:7286   */\n  swap3\n  swap2\n  pop\n  pop\n  jump\t// out\n    /* \"#utility.yul\":7292:7461   */\ntag_48:\n    /* \"#utility.yul\":7336:7342   */\n  0x00\n    /* \"#utility.yul\":7369:7420   */\n  tag_141\n    /* \"#utility.yul\":7417:7418   */\n  0x00\n    /* \"#utility.yul\":7413:7419   */\n  not\n    /* \"#utility.yul\":7405:7410   */\n  dup5\n    /* \"#utility.yul\":7402:7403   */\n  0x08\n    /* \"#utility.yul\":7398:7411   */\n  mul\n    /* \"#utility.yul\":7369:7420   */\n  tag_47\n  jump\t// in\ntag_141:\n    /* \"#utility.yul\":7365:7421   */\n  not\n    /* \"#utility.yul\":7450:7454   */\n  dup1\n    /* \"#utility.yul\":7444:7448   */\n  dup4\n    /* \"#utility.yul\":7440:7455   */\n  and\n    /* \"#utility.yul\":7430:7455   */\n  swap2\n  pop\n    /* \"#utility.yul\":7343:7461   */\n  pop\n    /* \"#utility.yul\":7292:7461   */\n  swap3\n  swap2\n  pop\n  pop\n  jump\t// out\n    /* \"#utility.yul\":7466:7761   */\ntag_49:\n    /* \"#utility.yul\":7542:7546   */\n  0x00\n    /* \"#utility.yul\":7688:7717   */\n  tag_143\n    /* \"#utility.yul\":7713:7716   */\n  dup4\n    /* \"#utility.yul\":7707:7711   */\n  dup4\n    /* \"#utility.yul\":7688:7717   */\n  tag_48\n  jump\t// in\ntag_143:\n    /* \"#utility.yul\":7680:7717   */\n  swap2\n  pop\n    /* \"#utility.yul\":7750:7753   */\n  dup3\n    /* \"#utility.yul\":7747:7748   */\n  0x02\n    /* \"#utility.yul\":7743:7754   */\n  mul\n    /* \"#utility.yul\":7737:7741   */\n  dup3\n    /* \"#utility.yul\":7734:7755   */\n  or\n    /* \"#utility.yul\":7726:7755   */\n  swap1\n  pop\n    /* \"#utility.yul\":7466:7761   */\n  swap3\n  swap2\n  pop\n  pop\n  jump\t// out\n    /* \"#utility.yul\":7766:9161   */\ntag_7:\n    /* \"#utility.yul\":7883:7920   */\n  tag_145\n    /* \"#utility.yul\":7916:7919   */\n  dup3\n    /* \"#utility.yul\":7883:7920   */\n  tag_32\n  jump\t// in\ntag_145:\n    /* \"#utility.yul\":7985:8003   */\n  0xffffffffffffffff\n    /* \"#utility.yul\":7977:7983   */\n  dup2\n    /* \"#utility.yul\":7974:8004   */\n  gt\n    /* \"#utility.yul\":7971:8027   */\n  iszero\n  tag_146\n  jumpi\n    /* \"#utility.yul\":8007:8025   */\n  tag_147\n  tag_22\n  jump\t// in\ntag_147:\n    /* \"#utility.yul\":7971:8027   */\ntag_146:\n    /* \"#utility.yul\":8051:8089   */\n  tag_148\n    /* \"#utility.yul\":8083:8087   */\n  dup3\n    /* \"#utility.yul\":8077:8088   */\n  sload\n    /* \"#utility.yul\":8051:8089   */\n  tag_34\n  jump\t// in\ntag_148:\n    /* \"#utility.yul\":8136:8203   */\n  tag_149\n    /* \"#utility.yul\":8196:8202   */\n  dup3\n    /* \"#utility.yul\":8188:8194   */\n  dup3\n    /* \"#utility.yul\":8182:8186   */\n  dup6\n    /* \"#utility.yul\":8136:8203   */\n  tag_46\n  jump\t// in\ntag_149:\n    /* \"#utility.yul\":8230:8231   */\n  0x00\n    /* \"#utility.yul\":8254:8258   */\n  0x20\n    /* \"#utility.yul\":8241:8258   */\n  swap1\n  pop\n    /* \"#utility.yul\":8286:8288   */\n  0x1f\n    /* \"#utility.yul\":8278:8284   */\n  dup4\n    /* \"#utility.yul\":8275:8289   */\n  gt\n    /* \"#utility.yul\":8303:8304   */\n  0x01\n    /* \"#utility.yul\":8298:8916   */\n  dup2\n  eq\n  tag_151\n  jumpi\n    /* \"#utility.yul\":8960:8961   */\n  0x00\n    /* \"#utility.yul\":8977:8983   */\n  dup5\n    /* \"#utility.yul\":8974:9051   */\n  iszero\n  tag_152\n  jumpi\n    /* \"#utility.yul\":9026:9035   */\n  dup3\n    /* \"#utility.yul\":9021:9024   */\n  dup8\n    /* \"#utility.yul\":9017:9036   */\n  add\n    /* \"#utility.yul\":9011:9037   */\n  mload\n    /* \"#utility.yul\":9002:9037   */\n  swap1\n  pop\n    /* \"#utility.yul\":8974:9051   */\ntag_152:\n    /* \"#utility.yul\":9077:9144   */\n  tag_153\n    /* \"#utility.yul\":9137:9143   */\n  dup6\n    /* \"#utility.yul\":9130:9135   */\n  dup3\n    /* \"#utility.yul\":9077:9144   */\n  tag_49\n  jump\t// in\ntag_153:\n    /* \"#utility.yul\":9071:9075   */\n  dup7\n    /* \"#utility.yul\":9064:9145   */\n  sstore\n    /* \"#utility.yul\":8933:9155   */\n  pop\n    /* \"#utility.yul\":8268:9155   */\n  jump(tag_150)\n    /* \"#utility.yul\":8298:8916   */\ntag_151:\n    /* \"#utility.yul\":8350:8354   */\n  0x1f\n    /* \"#utility.yul\":8346:8355   */\n  not\n    /* \"#utility.yul\":8338:8344   */\n  dup5\n    /* \"#utility.yul\":8334:8356   */\n  and\n    /* \"#utility.yul\":8384:8421   */\n  tag_154\n    /* \"#utility.yul\":8416:8420   */\n  dup7\n    /* \"#utility.yul\":8384:8421   */\n  tag_35\n  jump\t// in\ntag_154:\n    /* \"#utility.yul\":8443:8444   */\n  0x00\n    /* \"#utility.yul\":8457:8665   */\ntag_155:\n    /* \"#utility.yul\":8471:8478   */\n  dup3\n    /* \"#utility.yul\":8468:8469   */\n  dup2\n    /* \"#utility.yul\":8465:8479   */\n  lt\n    /* \"#utility.yul\":8457:8665   */\n  iszero\n  tag_157\n  jumpi\n    /* \"#utility.yul\":8550:8559   */\n  dup5\n    /* \"#utility.yul\":8545:8548   */\n  dup10\n    /* \"#utility.yul\":8541:8560   */\n  add\n    /* \"#utility.yul\":8535:8561   */\n  mload\n    /* \"#utility.yul\":8527:8533   */\n  dup3\n    /* \"#utility.yul\":8520:8562   */\n  sstore\n    /* \"#utility.yul\":8601:8602   */\n  0x01\n    /* \"#utility.yul\":8593:8599   */\n  dup3\n    /* \"#utility.yul\":8589:8603   */\n  add\n    /* \"#utility.yul\":8579:8603   */\n  swap2\n  pop\n    /* \"#utility.yul\":8648:8650   */\n  0x20\n    /* \"#utility.yul\":8637:8646   */\n  dup6\n    /* \"#utility.yul\":8633:8651   */\n  add\n    /* \"#utility.yul\":8620:8651   */\n  swap5\n  pop\n    /* \"#utility.yul\":8494:8498   */\n  0x20\n    /* \"#utility.yul\":8491:8492   */\n  dup2\n    /* \"#utility.yul\":8487:8499   */\n  add\n    /* \"#utility.yul\":8482:8499   */\n  swap1\n  pop\n    /* \"#utility.yul\":8457:8665   */\n  jump(tag_155)\ntag_157:\n    /* \"#utility.yul\":8693:8699   */\n  dup7\n    /* \"#utility.yul\":8684:8691   */\n  dup4\n    /* \"#utility.yul\":8681:8700   */\n  lt\n    /* \"#utility.yul\":8678:8857   */\n  iszero\n  tag_158\n  jumpi\n    /* \"#utility.yul\":8751:8760   */\n  dup5\n    /* \"#utility.yul\":8746:8749   */\n  dup10\n    /* \"#utility.yul\":8742:8761   */\n  add\n    /* \"#utility.yul\":8736:8762   */\n  mload\n    /* \"#utility.yul\":8794:8842   */\n  tag_159\n    /* \"#utility.yul\":8836:8840   */\n  0x1f\n    /* \"#utility.yul\":8828:8834   */\n  dup10\n    /* \"#utility.yul\":8824:8841   */\n  and\n    /* \"#utility.yul\":8813:8822   */\n  dup3\n    /* \"#utility.yul\":8794:8842   */\n  tag_48\n  jump\t// in\ntag_159:\n    /* \"#utility.yul\":8786:8792   */\n  dup4\n    /* \"#utility.yul\":8779:8843   */\n  sstore\n    /* \"#utility.yul\":8701:8857   */\n  pop\n    /* \"#utility.yul\":8678:8857   */\ntag_158:\n    /* \"#utility.yul\":8903:8904   */\n  0x01\n    /* \"#utility.yul\":8899:8900   */\n  0x02\n    /* \"#utility.yul\":8891:8897   */\n  dup9\n    /* \"#utility.yul\":8887:8901   */\n  mul\n    /* \"#utility.yul\":8883:8905   */\n  add\n    /* \"#utility.yul\":8877:8881   */\n  dup9\n    /* \"#utility.yul\":8870:8906   */\n  sstore\n    /* \"#utility.yul\":8305:8916   */\n  pop\n  pop\n  pop\n    /* \"#utility.yul\":8268:9155   */\ntag_150:\n  pop\n    /* \"#utility.yul\":7858:9161   */\n  pop\n  pop\n  pop\n    /* \"#utility.yul\":7766:9161   */\n  pop\n  pop\n  jump\t// out\n    /* \"#utility.yul\":9167:9347   */\ntag_50:\n    /* \"#utility.yul\":9215:9292   */\n  0x4e487b7100000000000000000000000000000000000000000000000000000000\n    /* \"#utility.yul\":9212:9213   */\n  0x00\n    /* \"#utility.yul\":9205:9293   */\n  mstore\n    /* \"#utility.yul\":9312:9316   */\n  0x11\n    /* \"#utility.yul\":9309:9310   */\n  0x04\n    /* \"#utility.yul\":9302:9317   */\n  mstore\n    /* \"#utility.yul\":9336:9340   */\n  0x24\n    /* \"#utility.yul\":9333:9334   */\n  0x00\n    /* \"#utility.yul\":9326:9341   */\n  revert\n    /* \"#utility.yul\":9353:9544   */\ntag_14:\n    /* \"#utility.yul\":9393:9396   */\n  0x00\n    /* \"#utility.yul\":9412:9432   */\n  tag_162\n    /* \"#utility.yul\":9430:9431   */\n  dup3\n    /* \"#utility.yul\":9412:9432   */\n  tag_29\n  jump\t// in\ntag_162:\n    /* \"#utility.yul\":9407:9432   */\n  swap2\n  pop\n    /* \"#utility.yul\":9446:9466   */\n  tag_163\n    /* \"#utility.yul\":9464:9465   */\n  dup4\n    /* \"#utility.yul\":9446:9466   */\n  tag_29\n  jump\t// in\ntag_163:\n    /* \"#utility.yul\":9441:9466   */\n  swap3\n  pop\n    /* \"#utility.yul\":9489:9490   */\n  dup3\n    /* \"#utility.yul\":9486:9487   */\n  dup3\n    /* \"#utility.yul\":9482:9491   */\n  add\n    /* \"#utility.yul\":9475:9491   */\n  swap1\n  pop\n    /* \"#utility.yul\":9510:9513   */\n  dup1\n    /* \"#utility.yul\":9507:9508   */\n  dup3\n    /* \"#utility.yul\":9504:9514   */\n  gt\n    /* \"#utility.yul\":9501:9537   */\n  iszero\n  tag_164\n  jumpi\n    /* \"#utility.yul\":9517:9535   */\n  tag_165\n  tag_50\n  jump\t// in\ntag_165:\n    /* \"#utility.yul\":9501:9537   */\ntag_164:\n    /* \"#utility.yul\":9353:9544   */\n  swap3\n  swap2\n  pop\n  pop\n  jump\t// out\n    /* \"Users/user/Desktop/git/solidity/myErc20.sol\":59:1731  contract myErc20 {... */\ntag_11:\n  dataSize(sub_0)\n  dup1\n  dataOffset(sub_0)\n  0x00\n  codecopy\n  0x00\n  return\nstop\n\nsub_0: assembly {\n        /* \"Users/user/Desktop/git/solidity/myErc20.sol\":59:1731  contract myErc20 {... */\n      mstore(0x40, 0x80)\n      callvalue\n      dup1\n      iszero\n      tag_1\n      jumpi\n      0x00\n      dup1\n      revert\n    tag_1:\n      pop\n      jumpi(tag_2, lt(calldatasize, 0x04))\n      shr(0xe0, calldataload(0x00))\n      dup1\n      0x15070401\n      eq\n      tag_3\n      jumpi\n      dup1\n      0x17d7de7c\n      eq\n      tag_4\n      jumpi\n      dup1\n      0xa9059cbb\n      eq\n      tag_5\n      jumpi\n      dup1\n      0xbddb971b\n      eq\n      tag_6\n      jumpi\n      dup1\n      0xc4e41b22\n      eq\n      tag_7\n      jumpi\n      dup1\n      0xf8b2cb4f\n      eq\n      tag_8\n      jumpi\n    tag_2:\n      0x00\n      dup1\n      revert\n        /* \"Users/user/Desktop/git/solidity/myErc20.sol\":785:876  function getSymbol() public view returns(string memory) {... */\n    tag_3:\n      tag_9\n      tag_10\n      jump\t// in\n    tag_9:\n      mload(0x40)\n      tag_11\n      swap2\n      swap1\n      tag_12\n      jump\t// in\n    tag_11:\n      mload(0x40)\n      dup1\n      swap2\n      sub\n      swap1\n      return\n        /* \"Users/user/Desktop/git/solidity/myErc20.sol\":692:779  function getName() public view returns(string memory) {... */\n    tag_4:\n      tag_13\n      tag_14\n      jump\t// in\n    tag_13:\n      mload(0x40)\n      tag_15\n      swap2\n      swap1\n      tag_12\n      jump\t// in\n    tag_15:\n      mload(0x40)\n      dup1\n      swap2\n      sub\n      swap1\n      return\n        /* \"Users/user/Desktop/git/solidity/myErc20.sol\":1447:1729  function transfer(address _to, uint _amount) public {... */\n    tag_5:\n      tag_16\n      0x04\n      dup1\n      calldatasize\n      sub\n      dup2\n      add\n      swap1\n      tag_17\n      swap2\n      swap1\n      tag_18\n      jump\t// in\n    tag_17:\n      tag_19\n      jump\t// in\n    tag_16:\n      stop\n        /* \"Users/user/Desktop/git/solidity/myErc20.sol\":980:1069  function getTokenDecimal() public view returns(uint) {... */\n    tag_6:\n      tag_20\n      tag_21\n      jump\t// in\n    tag_20:\n      mload(0x40)\n      tag_22\n      swap2\n      swap1\n      tag_23\n      jump\t// in\n    tag_22:\n      mload(0x40)\n      dup1\n      swap2\n      sub\n      swap1\n      return\n        /* \"Users/user/Desktop/git/solidity/myErc20.sol\":882:974  function getTotalSupply() public view returns(uint) {... */\n    tag_7:\n      tag_24\n      tag_25\n      jump\t// in\n    tag_24:\n      mload(0x40)\n      tag_26\n      swap2\n      swap1\n      tag_23\n      jump\t// in\n    tag_26:\n      mload(0x40)\n      dup1\n      swap2\n      sub\n      swap1\n      return\n        /* \"Users/user/Desktop/git/solidity/myErc20.sol\":1075:1184  function getBalance(address _addr) public view returns(uint) {... */\n    tag_8:\n      tag_27\n      0x04\n      dup1\n      calldatasize\n      sub\n      dup2\n      add\n      swap1\n      tag_28\n      swap2\n      swap1\n      tag_29\n      jump\t// in\n    tag_28:\n      tag_30\n      jump\t// in\n    tag_27:\n      mload(0x40)\n      tag_31\n      swap2\n      swap1\n      tag_23\n      jump\t// in\n    tag_31:\n      mload(0x40)\n      dup1\n      swap2\n      sub\n      swap1\n      return\n        /* \"Users/user/Desktop/git/solidity/myErc20.sol\":785:876  function getSymbol() public view returns(string memory) {... */\n    tag_10:\n        /* \"Users/user/Desktop/git/solidity/myErc20.sol\":826:839  string memory */\n      0x60\n        /* \"Users/user/Desktop/git/solidity/myErc20.sol\":858:869  tokenSymbol */\n      0x01\n        /* \"Users/user/Desktop/git/solidity/myErc20.sol\":851:869  return tokenSymbol */\n      dup1\n      sload\n      tag_33\n      swap1\n      tag_34\n      jump\t// in\n    tag_33:\n      dup1\n      0x1f\n      add\n      0x20\n      dup1\n      swap2\n      div\n      mul\n      0x20\n      add\n      mload(0x40)\n      swap1\n      dup2\n      add\n      0x40\n      mstore\n      dup1\n      swap3\n      swap2\n      swap1\n      dup2\n      dup2\n      mstore\n      0x20\n      add\n      dup3\n      dup1\n      sload\n      tag_35\n      swap1\n      tag_34\n      jump\t// in\n    tag_35:\n      dup1\n      iszero\n      tag_36\n      jumpi\n      dup1\n      0x1f\n      lt\n      tag_37\n      jumpi\n      0x0100\n      dup1\n      dup4\n      sload\n      div\n      mul\n      dup4\n      mstore\n      swap2\n      0x20\n      add\n      swap2\n      jump(tag_36)\n    tag_37:\n      dup3\n      add\n      swap2\n      swap1\n      0x00\n      mstore\n      keccak256(0x00, 0x20)\n      swap1\n    tag_38:\n      dup2\n      sload\n      dup2\n      mstore\n      swap1\n      0x01\n      add\n      swap1\n      0x20\n      add\n      dup1\n      dup4\n      gt\n      tag_38\n      jumpi\n      dup3\n      swap1\n      sub\n      0x1f\n      and\n      dup3\n      add\n      swap2\n    tag_36:\n      pop\n      pop\n      pop\n      pop\n      pop\n      swap1\n      pop\n        /* \"Users/user/Desktop/git/solidity/myErc20.sol\":785:876  function getSymbol() public view returns(string memory) {... */\n      swap1\n      jump\t// out\n        /* \"Users/user/Desktop/git/solidity/myErc20.sol\":692:779  function getName() public view returns(string memory) {... */\n    tag_14:\n        /* \"Users/user/Desktop/git/solidity/myErc20.sol\":731:744  string memory */\n      0x60\n        /* \"Users/user/Desktop/git/solidity/myErc20.sol\":763:772  tokenName */\n      0x00\n        /* \"Users/user/Desktop/git/solidity/myErc20.sol\":756:772  return tokenName */\n      dup1\n      sload\n      tag_40\n      swap1\n      tag_34\n      jump\t// in\n    tag_40:\n      dup1\n      0x1f\n      add\n      0x20\n      dup1\n      swap2\n      div\n      mul\n      0x20\n      add\n      mload(0x40)\n      swap1\n      dup2\n      add\n      0x40\n      mstore\n      dup1\n      swap3\n      swap2\n      swap1\n      dup2\n      dup2\n      mstore\n      0x20\n      add\n      dup3\n      dup1\n      sload\n      tag_41\n      swap1\n      tag_34\n      jump\t// in\n    tag_41:\n      dup1\n      iszero\n      tag_42\n      jumpi\n      dup1\n      0x1f\n      lt\n      tag_43\n      jumpi\n      0x0100\n      dup1\n      dup4\n      sload\n      div\n      mul\n      dup4\n      mstore\n      swap2\n      0x20\n      add\n      swap2\n      jump(tag_42)\n    tag_43:\n      dup3\n      add\n      swap2\n      swap1\n      0x00\n      mstore\n      keccak256(0x00, 0x20)\n      swap1\n    tag_44:\n      dup2\n      sload\n      dup2\n      mstore\n      swap1\n      0x01\n      add\n      swap1\n      0x20\n      add\n      dup1\n      dup4\n      gt\n      tag_44\n      jumpi\n      dup3\n      swap1\n      sub\n      0x1f\n      and\n      dup3\n      add\n      swap2\n    tag_42:\n      pop\n      pop\n      pop\n      pop\n      pop\n      swap1\n      pop\n        /* \"Users/user/Desktop/git/solidity/myErc20.sol\":692:779  function getName() public view returns(string memory) {... */\n      swap1\n      jump\t// out\n        /* \"Users/user/Desktop/git/solidity/myErc20.sol\":1447:1729  function transfer(address _to, uint _amount) public {... */\n    tag_19:\n        /* \"Users/user/Desktop/git/solidity/myErc20.sol\":1550:1557  _amount */\n      dup1\n        /* \"Users/user/Desktop/git/solidity/myErc20.sol\":1517:1534  addressBalanceMap */\n      0x04\n        /* \"Users/user/Desktop/git/solidity/myErc20.sol\":1517:1546  addressBalanceMap[msg.sender] */\n      0x00\n        /* \"Users/user/Desktop/git/solidity/myErc20.sol\":1535:1545  msg.sender */\n      caller\n        /* \"Users/user/Desktop/git/solidity/myErc20.sol\":1517:1546  addressBalanceMap[msg.sender] */\n      0xffffffffffffffffffffffffffffffffffffffff\n      and\n      0xffffffffffffffffffffffffffffffffffffffff\n      and\n      dup2\n      mstore\n      0x20\n      add\n      swap1\n      dup2\n      mstore\n      0x20\n      add\n      0x00\n      keccak256\n      sload\n        /* \"Users/user/Desktop/git/solidity/myErc20.sol\":1517:1557  addressBalanceMap[msg.sender] >= _amount */\n      lt\n      iszero\n        /* \"Users/user/Desktop/git/solidity/myErc20.sol\":1509:1578  require(addressBalanceMap[msg.sender] >= _amount, \"Not enough token\") */\n      tag_46\n      jumpi\n      mload(0x40)\n      0x08c379a000000000000000000000000000000000000000000000000000000000\n      dup2\n      mstore\n      0x04\n      add\n      tag_47\n      swap1\n      tag_48\n      jump\t// in\n    tag_47:\n      mload(0x40)\n      dup1\n      swap2\n      sub\n      swap1\n      revert\n    tag_46:\n        /* \"Users/user/Desktop/git/solidity/myErc20.sol\":1621:1628  _amount */\n      dup1\n        /* \"Users/user/Desktop/git/solidity/myErc20.sol\":1588:1605  addressBalanceMap */\n      0x04\n        /* \"Users/user/Desktop/git/solidity/myErc20.sol\":1588:1617  addressBalanceMap[msg.sender] */\n      0x00\n        /* \"Users/user/Desktop/git/solidity/myErc20.sol\":1606:1616  msg.sender */\n      caller\n        /* \"Users/user/Desktop/git/solidity/myErc20.sol\":1588:1617  addressBalanceMap[msg.sender] */\n      0xffffffffffffffffffffffffffffffffffffffff\n      and\n      0xffffffffffffffffffffffffffffffffffffffff\n      and\n      dup2\n      mstore\n      0x20\n      add\n      swap1\n      dup2\n      mstore\n      0x20\n      add\n      0x00\n      keccak256\n      0x00\n        /* \"Users/user/Desktop/git/solidity/myErc20.sol\":1588:1628  addressBalanceMap[msg.sender] -= _amount */\n      dup3\n      dup3\n      sload\n      tag_49\n      swap2\n      swap1\n      tag_50\n      jump\t// in\n    tag_49:\n      swap3\n      pop\n      pop\n      dup2\n      swap1\n      sstore\n      pop\n        /* \"Users/user/Desktop/git/solidity/myErc20.sol\":1664:1671  _amount */\n      dup1\n        /* \"Users/user/Desktop/git/solidity/myErc20.sol\":1638:1655  addressBalanceMap */\n      0x04\n        /* \"Users/user/Desktop/git/solidity/myErc20.sol\":1638:1660  addressBalanceMap[_to] */\n      0x00\n        /* \"Users/user/Desktop/git/solidity/myErc20.sol\":1656:1659  _to */\n      dup5\n        /* \"Users/user/Desktop/git/solidity/myErc20.sol\":1638:1660  addressBalanceMap[_to] */\n      0xffffffffffffffffffffffffffffffffffffffff\n      and\n      0xffffffffffffffffffffffffffffffffffffffff\n      and\n      dup2\n      mstore\n      0x20\n      add\n      swap1\n      dup2\n      mstore\n      0x20\n      add\n      0x00\n      keccak256\n      0x00\n        /* \"Users/user/Desktop/git/solidity/myErc20.sol\":1638:1671  addressBalanceMap[_to] += _amount */\n      dup3\n      dup3\n      sload\n      tag_51\n      swap2\n      swap1\n      tag_52\n      jump\t// in\n    tag_51:\n      swap3\n      pop\n      pop\n      dup2\n      swap1\n      sstore\n      pop\n        /* \"Users/user/Desktop/git/solidity/myErc20.sol\":1687:1722  _transfer(msg.sender, _to, _amount) */\n      0x30e0789ed23094f42b5810cbdf4e48a0478aec0b37810e24e912443dd0032b3c\n        /* \"Users/user/Desktop/git/solidity/myErc20.sol\":1697:1707  msg.sender */\n      caller\n        /* \"Users/user/Desktop/git/solidity/myErc20.sol\":1709:1712  _to */\n      dup4\n        /* \"Users/user/Desktop/git/solidity/myErc20.sol\":1714:1721  _amount */\n      dup4\n        /* \"Users/user/Desktop/git/solidity/myErc20.sol\":1687:1722  _transfer(msg.sender, _to, _amount) */\n      mload(0x40)\n      tag_53\n      swap4\n      swap3\n      swap2\n      swap1\n      tag_54\n      jump\t// in\n    tag_53:\n      mload(0x40)\n      dup1\n      swap2\n      sub\n      swap1\n      log1\n        /* \"Users/user/Desktop/git/solidity/myErc20.sol\":1447:1729  function transfer(address _to, uint _amount) public {... */\n      pop\n      pop\n      jump\t// out\n        /* \"Users/user/Desktop/git/solidity/myErc20.sol\":980:1069  function getTokenDecimal() public view returns(uint) {... */\n    tag_21:\n        /* \"Users/user/Desktop/git/solidity/myErc20.sol\":1027:1031  uint */\n      0x00\n        /* \"Users/user/Desktop/git/solidity/myErc20.sol\":1050:1062  tokenDecimal */\n      sload(0x03)\n        /* \"Users/user/Desktop/git/solidity/myErc20.sol\":1043:1062  return tokenDecimal */\n      swap1\n      pop\n        /* \"Users/user/Desktop/git/solidity/myErc20.sol\":980:1069  function getTokenDecimal() public view returns(uint) {... */\n      swap1\n      jump\t// out\n        /* \"Users/user/Desktop/git/solidity/myErc20.sol\":882:974  function getTotalSupply() public view returns(uint) {... */\n    tag_25:\n        /* \"Users/user/Desktop/git/solidity/myErc20.sol\":928:932  uint */\n      0x00\n        /* \"Users/user/Desktop/git/solidity/myErc20.sol\":951:967  tokenTotalSupply */\n      sload(0x02)\n        /* \"Users/user/Desktop/git/solidity/myErc20.sol\":944:967  return tokenTotalSupply */\n      swap1\n      pop\n        /* \"Users/user/Desktop/git/solidity/myErc20.sol\":882:974  function getTotalSupply() public view returns(uint) {... */\n      swap1\n      jump\t// out\n        /* \"Users/user/Desktop/git/solidity/myErc20.sol\":1075:1184  function getBalance(address _addr) public view returns(uint) {... */\n    tag_30:\n        /* \"Users/user/Desktop/git/solidity/myErc20.sol\":1130:1134  uint */\n      0x00\n        /* \"Users/user/Desktop/git/solidity/myErc20.sol\":1153:1170  addressBalanceMap */\n      0x04\n        /* \"Users/user/Desktop/git/solidity/myErc20.sol\":1153:1177  addressBalanceMap[_addr] */\n      0x00\n        /* \"Users/user/Desktop/git/solidity/myErc20.sol\":1171:1176  _addr */\n      dup4\n        /* \"Users/user/Desktop/git/solidity/myErc20.sol\":1153:1177  addressBalanceMap[_addr] */\n      0xffffffffffffffffffffffffffffffffffffffff\n      and\n      0xffffffffffffffffffffffffffffffffffffffff\n      and\n      dup2\n      mstore\n      0x20\n      add\n      swap1\n      dup2\n      mstore\n      0x20\n      add\n      0x00\n      keccak256\n      sload\n        /* \"Users/user/Desktop/git/solidity/myErc20.sol\":1146:1177  return addressBalanceMap[_addr] */\n      swap1\n      pop\n        /* \"Users/user/Desktop/git/solidity/myErc20.sol\":1075:1184  function getBalance(address _addr) public view returns(uint) {... */\n      swap2\n      swap1\n      pop\n      jump\t// out\n        /* \"#utility.yul\":7:106   */\n    tag_58:\n        /* \"#utility.yul\":59:65   */\n      0x00\n        /* \"#utility.yul\":93:98   */\n      dup2\n        /* \"#utility.yul\":87:99   */\n      mload\n        /* \"#utility.yul\":77:99   */\n      swap1\n      pop\n        /* \"#utility.yul\":7:106   */\n      swap2\n      swap1\n      pop\n      jump\t// out\n        /* \"#utility.yul\":112:281   */\n    tag_59:\n        /* \"#utility.yul\":196:207   */\n      0x00\n        /* \"#utility.yul\":230:236   */\n      dup3\n        /* \"#utility.yul\":225:228   */\n      dup3\n        /* \"#utility.yul\":218:237   */\n      mstore\n        /* \"#utility.yul\":270:274   */\n      0x20\n        /* \"#utility.yul\":265:268   */\n      dup3\n        /* \"#utility.yul\":261:275   */\n      add\n        /* \"#utility.yul\":246:275   */\n      swap1\n      pop\n        /* \"#utility.yul\":112:281   */\n      swap3\n      swap2\n      pop\n      pop\n      jump\t// out\n        /* \"#utility.yul\":287:533   */\n    tag_60:\n        /* \"#utility.yul\":368:369   */\n      0x00\n        /* \"#utility.yul\":378:491   */\n    tag_83:\n        /* \"#utility.yul\":392:398   */\n      dup4\n        /* \"#utility.yul\":389:390   */\n      dup2\n        /* \"#utility.yul\":386:399   */\n      lt\n        /* \"#utility.yul\":378:491   */\n      iszero\n      tag_85\n      jumpi\n        /* \"#utility.yul\":477:478   */\n      dup1\n        /* \"#utility.yul\":472:475   */\n      dup3\n        /* \"#utility.yul\":468:479   */\n      add\n        /* \"#utility.yul\":462:480   */\n      mload\n        /* \"#utility.yul\":458:459   */\n      dup2\n        /* \"#utility.yul\":453:456   */\n      dup5\n        /* \"#utility.yul\":449:460   */\n      add\n        /* \"#utility.yul\":442:481   */\n      mstore\n        /* \"#utility.yul\":414:416   */\n      0x20\n        /* \"#utility.yul\":411:412   */\n      dup2\n        /* \"#utility.yul\":407:417   */\n      add\n        /* \"#utility.yul\":402:417   */\n      swap1\n      pop\n        /* \"#utility.yul\":378:491   */\n      jump(tag_83)\n    tag_85:\n        /* \"#utility.yul\":525:526   */\n      0x00\n        /* \"#utility.yul\":516:522   */\n      dup5\n        /* \"#utility.yul\":511:514   */\n      dup5\n        /* \"#utility.yul\":507:523   */\n      add\n        /* \"#utility.yul\":500:527   */\n      mstore\n        /* \"#utility.yul\":349:533   */\n      pop\n        /* \"#utility.yul\":287:533   */\n      pop\n      pop\n      pop\n      jump\t// out\n        /* \"#utility.yul\":539:641   */\n    tag_61:\n        /* \"#utility.yul\":580:586   */\n      0x00\n        /* \"#utility.yul\":631:633   */\n      0x1f\n        /* \"#utility.yul\":627:634   */\n      not\n        /* \"#utility.yul\":622:624   */\n      0x1f\n        /* \"#utility.yul\":615:620   */\n      dup4\n        /* \"#utility.yul\":611:625   */\n      add\n        /* \"#utility.yul\":607:635   */\n      and\n        /* \"#utility.yul\":597:635   */\n      swap1\n      pop\n        /* \"#utility.yul\":539:641   */\n      swap2\n      swap1\n      pop\n      jump\t// out\n        /* \"#utility.yul\":647:1024   */\n    tag_62:\n        /* \"#utility.yul\":735:738   */\n      0x00\n        /* \"#utility.yul\":763:802   */\n      tag_88\n        /* \"#utility.yul\":796:801   */\n      dup3\n        /* \"#utility.yul\":763:802   */\n      tag_58\n      jump\t// in\n    tag_88:\n        /* \"#utility.yul\":818:889   */\n      tag_89\n        /* \"#utility.yul\":882:888   */\n      dup2\n        /* \"#utility.yul\":877:880   */\n      dup6\n        /* \"#utility.yul\":818:889   */\n      tag_59\n      jump\t// in\n    tag_89:\n        /* \"#utility.yul\":811:889   */\n      swap4\n      pop\n        /* \"#utility.yul\":898:963   */\n      tag_90\n        /* \"#utility.yul\":956:962   */\n      dup2\n        /* \"#utility.yul\":951:954   */\n      dup6\n        /* \"#utility.yul\":944:948   */\n      0x20\n        /* \"#utility.yul\":937:942   */\n      dup7\n        /* \"#utility.yul\":933:949   */\n      add\n        /* \"#utility.yul\":898:963   */\n      tag_60\n      jump\t// in\n    tag_90:\n        /* \"#utility.yul\":988:1017   */\n      tag_91\n        /* \"#utility.yul\":1010:1016   */\n      dup2\n        /* \"#utility.yul\":988:1017   */\n      tag_61\n      jump\t// in\n    tag_91:\n        /* \"#utility.yul\":983:986   */\n      dup5\n        /* \"#utility.yul\":979:1018   */\n      add\n        /* \"#utility.yul\":972:1018   */\n      swap2\n      pop\n        /* \"#utility.yul\":739:1024   */\n      pop\n        /* \"#utility.yul\":647:1024   */\n      swap3\n      swap2\n      pop\n      pop\n      jump\t// out\n        /* \"#utility.yul\":1030:1343   */\n    tag_12:\n        /* \"#utility.yul\":1143:1147   */\n      0x00\n        /* \"#utility.yul\":1181:1183   */\n      0x20\n        /* \"#utility.yul\":1170:1179   */\n      dup3\n        /* \"#utility.yul\":1166:1184   */\n      add\n        /* \"#utility.yul\":1158:1184   */\n      swap1\n      pop\n        /* \"#utility.yul\":1230:1239   */\n      dup2\n        /* \"#utility.yul\":1224:1228   */\n      dup2\n        /* \"#utility.yul\":1220:1240   */\n      sub\n        /* \"#utility.yul\":1216:1217   */\n      0x00\n        /* \"#utility.yul\":1205:1214   */\n      dup4\n        /* \"#utility.yul\":1201:1218   */\n      add\n        /* \"#utility.yul\":1194:1241   */\n      mstore\n        /* \"#utility.yul\":1258:1336   */\n      tag_93\n        /* \"#utility.yul\":1331:1335   */\n      dup2\n        /* \"#utility.yul\":1322:1328   */\n      dup5\n        /* \"#utility.yul\":1258:1336   */\n      tag_62\n      jump\t// in\n    tag_93:\n        /* \"#utility.yul\":1250:1336   */\n      swap1\n      pop\n        /* \"#utility.yul\":1030:1343   */\n      swap3\n      swap2\n      pop\n      pop\n      jump\t// out\n        /* \"#utility.yul\":1430:1547   */\n    tag_64:\n        /* \"#utility.yul\":1539:1540   */\n      0x00\n        /* \"#utility.yul\":1536:1537   */\n      dup1\n        /* \"#utility.yul\":1529:1541   */\n      revert\n        /* \"#utility.yul\":1676:1802   */\n    tag_66:\n        /* \"#utility.yul\":1713:1720   */\n      0x00\n        /* \"#utility.yul\":1753:1795   */\n      0xffffffffffffffffffffffffffffffffffffffff\n        /* \"#utility.yul\":1746:1751   */\n      dup3\n        /* \"#utility.yul\":1742:1796   */\n      and\n        /* \"#utility.yul\":1731:1796   */\n      swap1\n      pop\n        /* \"#utility.yul\":1676:1802   */\n      swap2\n      swap1\n      pop\n      jump\t// out\n        /* \"#utility.yul\":1808:1904   */\n    tag_67:\n        /* \"#utility.yul\":1845:1852   */\n      0x00\n        /* \"#utility.yul\":1874:1898   */\n      tag_99\n        /* \"#utility.yul\":1892:1897   */\n      dup3\n        /* \"#utility.yul\":1874:1898   */\n      tag_66\n      jump\t// in\n    tag_99:\n        /* \"#utility.yul\":1863:1898   */\n      swap1\n      pop\n        /* \"#utility.yul\":1808:1904   */\n      swap2\n      swap1\n      pop\n      jump\t// out\n        /* \"#utility.yul\":1910:2032   */\n    tag_68:\n        /* \"#utility.yul\":1983:2007   */\n      tag_101\n        /* \"#utility.yul\":2001:2006   */\n      dup2\n        /* \"#utility.yul\":1983:2007   */\n      tag_67\n      jump\t// in\n    tag_101:\n        /* \"#utility.yul\":1976:1981   */\n      dup2\n        /* \"#utility.yul\":1973:2008   */\n      eq\n        /* \"#utility.yul\":1963:2026   */\n      tag_102\n      jumpi\n        /* \"#utility.yul\":2022:2023   */\n      0x00\n        /* \"#utility.yul\":2019:2020   */\n      dup1\n        /* \"#utility.yul\":2012:2024   */\n      revert\n        /* \"#utility.yul\":1963:2026   */\n    tag_102:\n        /* \"#utility.yul\":1910:2032   */\n      pop\n      jump\t// out\n        /* \"#utility.yul\":2038:2177   */\n    tag_69:\n        /* \"#utility.yul\":2084:2089   */\n      0x00\n        /* \"#utility.yul\":2122:2128   */\n      dup2\n        /* \"#utility.yul\":2109:2129   */\n      calldataload\n        /* \"#utility.yul\":2100:2129   */\n      swap1\n      pop\n        /* \"#utility.yul\":2138:2171   */\n      tag_104\n        /* \"#utility.yul\":2165:2170   */\n      dup2\n        /* \"#utility.yul\":2138:2171   */\n      tag_68\n      jump\t// in\n    tag_104:\n        /* \"#utility.yul\":2038:2177   */\n      swap3\n      swap2\n      pop\n      pop\n      jump\t// out\n        /* \"#utility.yul\":2183:2260   */\n    tag_70:\n        /* \"#utility.yul\":2220:2227   */\n      0x00\n        /* \"#utility.yul\":2249:2254   */\n      dup2\n        /* \"#utility.yul\":2238:2254   */\n      swap1\n      pop\n        /* \"#utility.yul\":2183:2260   */\n      swap2\n      swap1\n      pop\n      jump\t// out\n        /* \"#utility.yul\":2266:2388   */\n    tag_71:\n        /* \"#utility.yul\":2339:2363   */\n      tag_107\n        /* \"#utility.yul\":2357:2362   */\n      dup2\n        /* \"#utility.yul\":2339:2363   */\n      tag_70\n      jump\t// in\n    tag_107:\n        /* \"#utility.yul\":2332:2337   */\n      dup2\n        /* \"#utility.yul\":2329:2364   */\n      eq\n        /* \"#utility.yul\":2319:2382   */\n      tag_108\n      jumpi\n        /* \"#utility.yul\":2378:2379   */\n      0x00\n        /* \"#utility.yul\":2375:2376   */\n      dup1\n        /* \"#utility.yul\":2368:2380   */\n      revert\n        /* \"#utility.yul\":2319:2382   */\n    tag_108:\n        /* \"#utility.yul\":2266:2388   */\n      pop\n      jump\t// out\n        /* \"#utility.yul\":2394:2533   */\n    tag_72:\n        /* \"#utility.yul\":2440:2445   */\n      0x00\n        /* \"#utility.yul\":2478:2484   */\n      dup2\n        /* \"#utility.yul\":2465:2485   */\n      calldataload\n        /* \"#utility.yul\":2456:2485   */\n      swap1\n      pop\n        /* \"#utility.yul\":2494:2527   */\n      tag_110\n        /* \"#utility.yul\":2521:2526   */\n      dup2\n        /* \"#utility.yul\":2494:2527   */\n      tag_71\n      jump\t// in\n    tag_110:\n        /* \"#utility.yul\":2394:2533   */\n      swap3\n      swap2\n      pop\n      pop\n      jump\t// out\n        /* \"#utility.yul\":2539:3013   */\n    tag_18:\n        /* \"#utility.yul\":2607:2613   */\n      0x00\n        /* \"#utility.yul\":2615:2621   */\n      dup1\n        /* \"#utility.yul\":2664:2666   */\n      0x40\n        /* \"#utility.yul\":2652:2661   */\n      dup4\n        /* \"#utility.yul\":2643:2650   */\n      dup6\n        /* \"#utility.yul\":2639:2662   */\n      sub\n        /* \"#utility.yul\":2635:2667   */\n      slt\n        /* \"#utility.yul\":2632:2751   */\n      iszero\n      tag_112\n      jumpi\n        /* \"#utility.yul\":2670:2749   */\n      tag_113\n      tag_64\n      jump\t// in\n    tag_113:\n        /* \"#utility.yul\":2632:2751   */\n    tag_112:\n        /* \"#utility.yul\":2790:2791   */\n      0x00\n        /* \"#utility.yul\":2815:2868   */\n      tag_114\n        /* \"#utility.yul\":2860:2867   */\n      dup6\n        /* \"#utility.yul\":2851:2857   */\n      dup3\n        /* \"#utility.yul\":2840:2849   */\n      dup7\n        /* \"#utility.yul\":2836:2858   */\n      add\n        /* \"#utility.yul\":2815:2868   */\n      tag_69\n      jump\t// in\n    tag_114:\n        /* \"#utility.yul\":2805:2868   */\n      swap3\n      pop\n        /* \"#utility.yul\":2761:2878   */\n      pop\n        /* \"#utility.yul\":2917:2919   */\n      0x20\n        /* \"#utility.yul\":2943:2996   */\n      tag_115\n        /* \"#utility.yul\":2988:2995   */\n      dup6\n        /* \"#utility.yul\":2979:2985   */\n      dup3\n        /* \"#utility.yul\":2968:2977   */\n      dup7\n        /* \"#utility.yul\":2964:2986   */\n      add\n        /* \"#utility.yul\":2943:2996   */\n      tag_72\n      jump\t// in\n    tag_115:\n        /* \"#utility.yul\":2933:2996   */\n      swap2\n      pop\n        /* \"#utility.yul\":2888:3006   */\n      pop\n        /* \"#utility.yul\":2539:3013   */\n      swap3\n      pop\n      swap3\n      swap1\n      pop\n      jump\t// out\n        /* \"#utility.yul\":3019:3137   */\n    tag_73:\n        /* \"#utility.yul\":3106:3130   */\n      tag_117\n        /* \"#utility.yul\":3124:3129   */\n      dup2\n        /* \"#utility.yul\":3106:3130   */\n      tag_70\n      jump\t// in\n    tag_117:\n        /* \"#utility.yul\":3101:3104   */\n      dup3\n        /* \"#utility.yul\":3094:3131   */\n      mstore\n        /* \"#utility.yul\":3019:3137   */\n      pop\n      pop\n      jump\t// out\n        /* \"#utility.yul\":3143:3365   */\n    tag_23:\n        /* \"#utility.yul\":3236:3240   */\n      0x00\n        /* \"#utility.yul\":3274:3276   */\n      0x20\n        /* \"#utility.yul\":3263:3272   */\n      dup3\n        /* \"#utility.yul\":3259:3277   */\n      add\n        /* \"#utility.yul\":3251:3277   */\n      swap1\n      pop\n        /* \"#utility.yul\":3287:3358   */\n      tag_119\n        /* \"#utility.yul\":3355:3356   */\n      0x00\n        /* \"#utility.yul\":3344:3353   */\n      dup4\n        /* \"#utility.yul\":3340:3357   */\n      add\n        /* \"#utility.yul\":3331:3337   */\n      dup5\n        /* \"#utility.yul\":3287:3358   */\n      tag_73\n      jump\t// in\n    tag_119:\n        /* \"#utility.yul\":3143:3365   */\n      swap3\n      swap2\n      pop\n      pop\n      jump\t// out\n        /* \"#utility.yul\":3371:3700   */\n    tag_29:\n        /* \"#utility.yul\":3430:3436   */\n      0x00\n        /* \"#utility.yul\":3479:3481   */\n      0x20\n        /* \"#utility.yul\":3467:3476   */\n      dup3\n        /* \"#utility.yul\":3458:3465   */\n      dup5\n        /* \"#utility.yul\":3454:3477   */\n      sub\n        /* \"#utility.yul\":3450:3482   */\n      slt\n        /* \"#utility.yul\":3447:3566   */\n      iszero\n      tag_121\n      jumpi\n        /* \"#utility.yul\":3485:3564   */\n      tag_122\n      tag_64\n      jump\t// in\n    tag_122:\n        /* \"#utility.yul\":3447:3566   */\n    tag_121:\n        /* \"#utility.yul\":3605:3606   */\n      0x00\n        /* \"#utility.yul\":3630:3683   */\n      tag_123\n        /* \"#utility.yul\":3675:3682   */\n      dup5\n        /* \"#utility.yul\":3666:3672   */\n      dup3\n        /* \"#utility.yul\":3655:3664   */\n      dup6\n        /* \"#utility.yul\":3651:3673   */\n      add\n        /* \"#utility.yul\":3630:3683   */\n      tag_69\n      jump\t// in\n    tag_123:\n        /* \"#utility.yul\":3620:3683   */\n      swap2\n      pop\n        /* \"#utility.yul\":3576:3693   */\n      pop\n        /* \"#utility.yul\":3371:3700   */\n      swap3\n      swap2\n      pop\n      pop\n      jump\t// out\n        /* \"#utility.yul\":3706:3886   */\n    tag_74:\n        /* \"#utility.yul\":3754:3831   */\n      0x4e487b7100000000000000000000000000000000000000000000000000000000\n        /* \"#utility.yul\":3751:3752   */\n      0x00\n        /* \"#utility.yul\":3744:3832   */\n      mstore\n        /* \"#utility.yul\":3851:3855   */\n      0x22\n        /* \"#utility.yul\":3848:3849   */\n      0x04\n        /* \"#utility.yul\":3841:3856   */\n      mstore\n        /* \"#utility.yul\":3875:3879   */\n      0x24\n        /* \"#utility.yul\":3872:3873   */\n      0x00\n        /* \"#utility.yul\":3865:3880   */\n      revert\n        /* \"#utility.yul\":3892:4212   */\n    tag_34:\n        /* \"#utility.yul\":3936:3942   */\n      0x00\n        /* \"#utility.yul\":3973:3974   */\n      0x02\n        /* \"#utility.yul\":3967:3971   */\n      dup3\n        /* \"#utility.yul\":3963:3975   */\n      div\n        /* \"#utility.yul\":3953:3975   */\n      swap1\n      pop\n        /* \"#utility.yul\":4020:4021   */\n      0x01\n        /* \"#utility.yul\":4014:4018   */\n      dup3\n        /* \"#utility.yul\":4010:4022   */\n      and\n        /* \"#utility.yul\":4041:4059   */\n      dup1\n        /* \"#utility.yul\":4031:4112   */\n      tag_126\n      jumpi\n        /* \"#utility.yul\":4097:4101   */\n      0x7f\n        /* \"#utility.yul\":4089:4095   */\n      dup3\n        /* \"#utility.yul\":4085:4102   */\n      and\n        /* \"#utility.yul\":4075:4102   */\n      swap2\n      pop\n        /* \"#utility.yul\":4031:4112   */\n    tag_126:\n        /* \"#utility.yul\":4159:4161   */\n      0x20\n        /* \"#utility.yul\":4151:4157   */\n      dup3\n        /* \"#utility.yul\":4148:4162   */\n      lt\n        /* \"#utility.yul\":4128:4146   */\n      dup2\n        /* \"#utility.yul\":4125:4163   */\n      sub\n        /* \"#utility.yul\":4122:4206   */\n      tag_127\n      jumpi\n        /* \"#utility.yul\":4178:4196   */\n      tag_128\n      tag_74\n      jump\t// in\n    tag_128:\n        /* \"#utility.yul\":4122:4206   */\n    tag_127:\n        /* \"#utility.yul\":3943:4212   */\n      pop\n        /* \"#utility.yul\":3892:4212   */\n      swap2\n      swap1\n      pop\n      jump\t// out\n        /* \"#utility.yul\":4218:4384   */\n    tag_75:\n        /* \"#utility.yul\":4358:4376   */\n      0x4e6f7420656e6f75676820746f6b656e00000000000000000000000000000000\n        /* \"#utility.yul\":4354:4355   */\n      0x00\n        /* \"#utility.yul\":4346:4352   */\n      dup3\n        /* \"#utility.yul\":4342:4356   */\n      add\n        /* \"#utility.yul\":4335:4377   */\n      mstore\n        /* \"#utility.yul\":4218:4384   */\n      pop\n      jump\t// out\n        /* \"#utility.yul\":4390:4756   */\n    tag_76:\n        /* \"#utility.yul\":4532:4535   */\n      0x00\n        /* \"#utility.yul\":4553:4620   */\n      tag_131\n        /* \"#utility.yul\":4617:4619   */\n      0x10\n        /* \"#utility.yul\":4612:4615   */\n      dup4\n        /* \"#utility.yul\":4553:4620   */\n      tag_59\n      jump\t// in\n    tag_131:\n        /* \"#utility.yul\":4546:4620   */\n      swap2\n      pop\n        /* \"#utility.yul\":4629:4722   */\n      tag_132\n        /* \"#utility.yul\":4718:4721   */\n      dup3\n        /* \"#utility.yul\":4629:4722   */\n      tag_75\n      jump\t// in\n    tag_132:\n        /* \"#utility.yul\":4747:4749   */\n      0x20\n        /* \"#utility.yul\":4742:4745   */\n      dup3\n        /* \"#utility.yul\":4738:4750   */\n      add\n        /* \"#utility.yul\":4731:4750   */\n      swap1\n      pop\n        /* \"#utility.yul\":4390:4756   */\n      swap2\n      swap1\n      pop\n      jump\t// out\n        /* \"#utility.yul\":4762:5181   */\n    tag_48:\n        /* \"#utility.yul\":4928:4932   */\n      0x00\n        /* \"#utility.yul\":4966:4968   */\n      0x20\n        /* \"#utility.yul\":4955:4964   */\n      dup3\n        /* \"#utility.yul\":4951:4969   */\n      add\n        /* \"#utility.yul\":4943:4969   */\n      swap1\n      pop\n        /* \"#utility.yul\":5015:5024   */\n      dup2\n        /* \"#utility.yul\":5009:5013   */\n      dup2\n        /* \"#utility.yul\":5005:5025   */\n      sub\n        /* \"#utility.yul\":5001:5002   */\n      0x00\n        /* \"#utility.yul\":4990:4999   */\n      dup4\n        /* \"#utility.yul\":4986:5003   */\n      add\n        /* \"#utility.yul\":4979:5026   */\n      mstore\n        /* \"#utility.yul\":5043:5174   */\n      tag_134\n        /* \"#utility.yul\":5169:5173   */\n      dup2\n        /* \"#utility.yul\":5043:5174   */\n      tag_76\n      jump\t// in\n    tag_134:\n        /* \"#utility.yul\":5035:5174   */\n      swap1\n      pop\n        /* \"#utility.yul\":4762:5181   */\n      swap2\n      swap1\n      pop\n      jump\t// out\n        /* \"#utility.yul\":5187:5367   */\n    tag_77:\n        /* \"#utility.yul\":5235:5312   */\n      0x4e487b7100000000000000000000000000000000000000000000000000000000\n        /* \"#utility.yul\":5232:5233   */\n      0x00\n        /* \"#utility.yul\":5225:5313   */\n      mstore\n        /* \"#utility.yul\":5332:5336   */\n      0x11\n        /* \"#utility.yul\":5329:5330   */\n      0x04\n        /* \"#utility.yul\":5322:5337   */\n      mstore\n        /* \"#utility.yul\":5356:5360   */\n      0x24\n        /* \"#utility.yul\":5353:5354   */\n      0x00\n        /* \"#utility.yul\":5346:5361   */\n      revert\n        /* \"#utility.yul\":5373:5567   */\n    tag_50:\n        /* \"#utility.yul\":5413:5417   */\n      0x00\n        /* \"#utility.yul\":5433:5453   */\n      tag_137\n        /* \"#utility.yul\":5451:5452   */\n      dup3\n        /* \"#utility.yul\":5433:5453   */\n      tag_70\n      jump\t// in\n    tag_137:\n        /* \"#utility.yul\":5428:5453   */\n      swap2\n      pop\n        /* \"#utility.yul\":5467:5487   */\n      tag_138\n        /* \"#utility.yul\":5485:5486   */\n      dup4\n        /* \"#utility.yul\":5467:5487   */\n      tag_70\n      jump\t// in\n    tag_138:\n        /* \"#utility.yul\":5462:5487   */\n      swap3\n      pop\n        /* \"#utility.yul\":5511:5512   */\n      dup3\n        /* \"#utility.yul\":5508:5509   */\n      dup3\n        /* \"#utility.yul\":5504:5513   */\n      sub\n        /* \"#utility.yul\":5496:5513   */\n      swap1\n      pop\n        /* \"#utility.yul\":5535:5536   */\n      dup2\n        /* \"#utility.yul\":5529:5533   */\n      dup2\n        /* \"#utility.yul\":5526:5537   */\n      gt\n        /* \"#utility.yul\":5523:5560   */\n      iszero\n      tag_139\n      jumpi\n        /* \"#utility.yul\":5540:5558   */\n      tag_140\n      tag_77\n      jump\t// in\n    tag_140:\n        /* \"#utility.yul\":5523:5560   */\n    tag_139:\n        /* \"#utility.yul\":5373:5567   */\n      swap3\n      swap2\n      pop\n      pop\n      jump\t// out\n        /* \"#utility.yul\":5573:5764   */\n    tag_52:\n        /* \"#utility.yul\":5613:5616   */\n      0x00\n        /* \"#utility.yul\":5632:5652   */\n      tag_142\n        /* \"#utility.yul\":5650:5651   */\n      dup3\n        /* \"#utility.yul\":5632:5652   */\n      tag_70\n      jump\t// in\n    tag_142:\n        /* \"#utility.yul\":5627:5652   */\n      swap2\n      pop\n        /* \"#utility.yul\":5666:5686   */\n      tag_143\n        /* \"#utility.yul\":5684:5685   */\n      dup4\n        /* \"#utility.yul\":5666:5686   */\n      tag_70\n      jump\t// in\n    tag_143:\n        /* \"#utility.yul\":5661:5686   */\n      swap3\n      pop\n        /* \"#utility.yul\":5709:5710   */\n      dup3\n        /* \"#utility.yul\":5706:5707   */\n      dup3\n        /* \"#utility.yul\":5702:5711   */\n      add\n        /* \"#utility.yul\":5695:5711   */\n      swap1\n      pop\n        /* \"#utility.yul\":5730:5733   */\n      dup1\n        /* \"#utility.yul\":5727:5728   */\n      dup3\n        /* \"#utility.yul\":5724:5734   */\n      gt\n        /* \"#utility.yul\":5721:5757   */\n      iszero\n      tag_144\n      jumpi\n        /* \"#utility.yul\":5737:5755   */\n      tag_145\n      tag_77\n      jump\t// in\n    tag_145:\n        /* \"#utility.yul\":5721:5757   */\n    tag_144:\n        /* \"#utility.yul\":5573:5764   */\n      swap3\n      swap2\n      pop\n      pop\n      jump\t// out\n        /* \"#utility.yul\":5770:5888   */\n    tag_78:\n        /* \"#utility.yul\":5857:5881   */\n      tag_147\n        /* \"#utility.yul\":5875:5880   */\n      dup2\n        /* \"#utility.yul\":5857:5881   */\n      tag_67\n      jump\t// in\n    tag_147:\n        /* \"#utility.yul\":5852:5855   */\n      dup3\n        /* \"#utility.yul\":5845:5882   */\n      mstore\n        /* \"#utility.yul\":5770:5888   */\n      pop\n      pop\n      jump\t// out\n        /* \"#utility.yul\":5894:6336   */\n    tag_54:\n        /* \"#utility.yul\":6043:6047   */\n      0x00\n        /* \"#utility.yul\":6081:6083   */\n      0x60\n        /* \"#utility.yul\":6070:6079   */\n      dup3\n        /* \"#utility.yul\":6066:6084   */\n      add\n        /* \"#utility.yul\":6058:6084   */\n      swap1\n      pop\n        /* \"#utility.yul\":6094:6165   */\n      tag_149\n        /* \"#utility.yul\":6162:6163   */\n      0x00\n        /* \"#utility.yul\":6151:6160   */\n      dup4\n        /* \"#utility.yul\":6147:6164   */\n      add\n        /* \"#utility.yul\":6138:6144   */\n      dup7\n        /* \"#utility.yul\":6094:6165   */\n      tag_78\n      jump\t// in\n    tag_149:\n        /* \"#utility.yul\":6175:6247   */\n      tag_150\n        /* \"#utility.yul\":6243:6245   */\n      0x20\n        /* \"#utility.yul\":6232:6241   */\n      dup4\n        /* \"#utility.yul\":6228:6246   */\n      add\n        /* \"#utility.yul\":6219:6225   */\n      dup6\n        /* \"#utility.yul\":6175:6247   */\n      tag_78\n      jump\t// in\n    tag_150:\n        /* \"#utility.yul\":6257:6329   */\n      tag_151\n        /* \"#utility.yul\":6325:6327   */\n      0x40\n        /* \"#utility.yul\":6314:6323   */\n      dup4\n        /* \"#utility.yul\":6310:6328   */\n      add\n        /* \"#utility.yul\":6301:6307   */\n      dup5\n        /* \"#utility.yul\":6257:6329   */\n      tag_73\n      jump\t// in\n    tag_151:\n        /* \"#utility.yul\":5894:6336   */\n      swap5\n      swap4\n      pop\n      pop\n      pop\n      pop\n      jump\t// out\n\n    auxdata: 0xa2646970667358221220638cb8be4abca654a9ef352a2e589ca4487b368e130e5f8de00d01bc6ebd353464736f6c63430008120033\n}\n",
				"bytecode": {
					"linkReferences": {},
					"object": "60806040523480156200001157600080fd5b5060405162000ef638038062000ef68339818101604052810190620000379190620002ca565b8360009081620000489190620005bb565b5082600190816200005a9190620005bb565b5081600281905550806003819055506200007b33836200008560201b60201c565b505050506200070c565b80600460008473ffffffffffffffffffffffffffffffffffffffff1673ffffffffffffffffffffffffffffffffffffffff1681526020019081526020016000206000828254620000d69190620006d1565b925050819055508060026000828254620000f19190620006d1565b925050819055505050565b6000604051905090565b600080fd5b600080fd5b600080fd5b600080fd5b6000601f19601f8301169050919050565b7f4e487b7100000000000000000000000000000000000000000000000000000000600052604160045260246000fd5b62000165826200011a565b810181811067ffffffffffffffff821117156200018757620001866200012b565b5b80604052505050565b60006200019c620000fc565b9050620001aa82826200015a565b919050565b600067ffffffffffffffff821115620001cd57620001cc6200012b565b5b620001d8826200011a565b9050602081019050919050565b60005b8381101562000205578082015181840152602081019050620001e8565b60008484015250505050565b6000620002286200022284620001af565b62000190565b90508281526020810184848401111562000247576200024662000115565b5b62000254848285620001e5565b509392505050565b600082601f83011262000274576200027362000110565b5b81516200028684826020860162000211565b91505092915050565b6000819050919050565b620002a4816200028f565b8114620002b057600080fd5b50565b600081519050620002c48162000299565b92915050565b60008060008060808587031215620002e757620002e662000106565b5b600085015167ffffffffffffffff8111156200030857620003076200010b565b5b62000316878288016200025c565b945050602085015167ffffffffffffffff8111156200033a57620003396200010b565b5b62000348878288016200025c565b93505060406200035b87828801620002b3565b92505060606200036e87828801620002b3565b91505092959194509250565b600081519050919050565b7f4e487b7100000000000000000000000000000000000000000000000000000000600052602260045260246000fd5b60006002820490506001821680620003cd57607f821691505b602082108103620003e357620003e262000385565b5b50919050565b60008190508160005260206000209050919050565b60006020601f8301049050919050565b600082821b905092915050565b6000600883026200044d7fffffffffffffffffffffffffffffffffffffffffffffffffffffffffffffffff826200040e565b6200045986836200040e565b95508019841693508086168417925050509392505050565b6000819050919050565b60006200049c6200049662000490846200028f565b62000471565b6200028f565b9050919050565b6000819050919050565b620004b8836200047b565b620004d0620004c782620004a3565b8484546200041b565b825550505050565b600090565b620004e7620004d8565b620004f4818484620004ad565b505050565b5b818110156200051c5762000510600082620004dd565b600181019050620004fa565b5050565b601f8211156200056b576200053581620003e9565b6200054084620003fe565b8101602085101562000550578190505b620005686200055f85620003fe565b830182620004f9565b50505b505050565b600082821c905092915050565b6000620005906000198460080262000570565b1980831691505092915050565b6000620005ab83836200057d565b9150826002028217905092915050565b620005c6826200037a565b67ffffffffffffffff811115620005e257620005e16200012b565b5b620005ee8254620003b4565b620005fb82828562000520565b600060209050601f8311600181146200063357600084156200061e578287015190505b6200062a85826200059d565b8655506200069a565b601f1984166200064386620003e9565b60005b828110156200066d5784890151825560018201915060208501945060208101905062000646565b868310156200068d578489015162000689601f8916826200057d565b8355505b6001600288020188555050505b505050505050565b7f4e487b7100000000000000000000000000000000000000000000000000000000600052601160045260246000fd5b6000620006de826200028f565b9150620006eb836200028f565b9250828201905080821115620007065762000705620006a2565b5b92915050565b6107da806200071c6000396000f3fe608060405234801561001057600080fd5b50600436106100625760003560e01c8063150704011461006757806317d7de7c14610085578063a9059cbb146100a3578063bddb971b146100bf578063c4e41b22146100dd578063f8b2cb4f146100fb575b600080fd5b61006f61012b565b60405161007c91906104a9565b60405180910390f35b61008d6101bd565b60405161009a91906104a9565b60405180910390f35b6100bd60048036038101906100b89190610564565b61024f565b005b6100c76103bc565b6040516100d491906105b3565b60405180910390f35b6100e56103c6565b6040516100f291906105b3565b60405180910390f35b610115600480360381019061011091906105ce565b6103d0565b60405161012291906105b3565b60405180910390f35b60606001805461013a9061062a565b80601f01602080910402602001604051908101604052809291908181526020018280546101669061062a565b80156101b35780601f10610188576101008083540402835291602001916101b3565b820191906000526020600020905b81548152906001019060200180831161019657829003601f168201915b5050505050905090565b6060600080546101cc9061062a565b80601f01602080910402602001604051908101604052809291908181526020018280546101f89061062a565b80156102455780601f1061021a57610100808354040283529160200191610245565b820191906000526020600020905b81548152906001019060200180831161022857829003601f168201915b5050505050905090565b80600460003373ffffffffffffffffffffffffffffffffffffffff1673ffffffffffffffffffffffffffffffffffffffff1681526020019081526020016000205410156102d1576040517f08c379a00000000000000000000000000000000000000000000000000000000081526004016102c8906106a7565b60405180910390fd5b80600460003373ffffffffffffffffffffffffffffffffffffffff1673ffffffffffffffffffffffffffffffffffffffff168152602001908152602001600020600082825461032091906106f6565b9250508190555080600460008473ffffffffffffffffffffffffffffffffffffffff1673ffffffffffffffffffffffffffffffffffffffff1681526020019081526020016000206000828254610376919061072a565b925050819055507f30e0789ed23094f42b5810cbdf4e48a0478aec0b37810e24e912443dd0032b3c3383836040516103b09392919061076d565b60405180910390a15050565b6000600354905090565b6000600254905090565b6000600460008373ffffffffffffffffffffffffffffffffffffffff1673ffffffffffffffffffffffffffffffffffffffff168152602001908152602001600020549050919050565b600081519050919050565b600082825260208201905092915050565b60005b83811015610453578082015181840152602081019050610438565b60008484015250505050565b6000601f19601f8301169050919050565b600061047b82610419565b6104858185610424565b9350610495818560208601610435565b61049e8161045f565b840191505092915050565b600060208201905081810360008301526104c38184610470565b905092915050565b600080fd5b600073ffffffffffffffffffffffffffffffffffffffff82169050919050565b60006104fb826104d0565b9050919050565b61050b816104f0565b811461051657600080fd5b50565b60008135905061052881610502565b92915050565b6000819050919050565b6105418161052e565b811461054c57600080fd5b50565b60008135905061055e81610538565b92915050565b6000806040838503121561057b5761057a6104cb565b5b600061058985828601610519565b925050602061059a8582860161054f565b9150509250929050565b6105ad8161052e565b82525050565b60006020820190506105c860008301846105a4565b92915050565b6000602082840312156105e4576105e36104cb565b5b60006105f284828501610519565b91505092915050565b7f4e487b7100000000000000000000000000000000000000000000000000000000600052602260045260246000fd5b6000600282049050600182168061064257607f821691505b602082108103610655576106546105fb565b5b50919050565b7f4e6f7420656e6f75676820746f6b656e00000000000000000000000000000000600082015250565b6000610691601083610424565b915061069c8261065b565b602082019050919050565b600060208201905081810360008301526106c081610684565b9050919050565b7f4e487b7100000000000000000000000000000000000000000000000000000000600052601160045260246000fd5b60006107018261052e565b915061070c8361052e565b9250828203905081811115610724576107236106c7565b5b92915050565b60006107358261052e565b91506107408361052e565b9250828201905080821115610758576107576106c7565b5b92915050565b610767816104f0565b82525050565b6000606082019050610782600083018661075e565b61078f602083018561075e565b61079c60408301846105a4565b94935050505056fea2646970667358221220638cb8be4abca654a9ef352a2e589ca4487b368e130e5f8de00d01bc6ebd353464736f6c63430008120033",
					"opcodes": "PUSH1 0x80 PUSH1 0x40 MSTORE CALLVALUE DUP1 ISZERO PUSH3 0x11 JUMPI PUSH1 0x0 DUP1 REVERT JUMPDEST POP PUSH1 0x40 MLOAD PUSH3 0xEF6 CODESIZE SUB DUP1 PUSH3 0xEF6 DUP4 CODECOPY DUP2 DUP2 ADD PUSH1 0x40 MSTORE DUP2 ADD SWAP1 PUSH3 0x37 SWAP2 SWAP1 PUSH3 0x2CA JUMP JUMPDEST DUP4 PUSH1 0x0 SWAP1 DUP2 PUSH3 0x48 SWAP2 SWAP1 PUSH3 0x5BB JUMP JUMPDEST POP DUP3 PUSH1 0x1 SWAP1 DUP2 PUSH3 0x5A SWAP2 SWAP1 PUSH3 0x5BB JUMP JUMPDEST POP DUP2 PUSH1 0x2 DUP2 SWAP1 SSTORE POP DUP1 PUSH1 0x3 DUP2 SWAP1 SSTORE POP PUSH3 0x7B CALLER DUP4 PUSH3 0x85 PUSH1 0x20 SHL PUSH1 0x20 SHR JUMP JUMPDEST POP POP POP POP PUSH3 0x70C JUMP JUMPDEST DUP1 PUSH1 0x4 PUSH1 0x0 DUP5 PUSH20 0xFFFFFFFFFFFFFFFFFFFFFFFFFFFFFFFFFFFFFFFF AND PUSH20 0xFFFFFFFFFFFFFFFFFFFFFFFFFFFFFFFFFFFFFFFF AND DUP2 MSTORE PUSH1 0x20 ADD SWAP1 DUP2 MSTORE PUSH1 0x20 ADD PUSH1 0x0 KECCAK256 PUSH1 0x0 DUP3 DUP3 SLOAD PUSH3 0xD6 SWAP2 SWAP1 PUSH3 0x6D1 JUMP JUMPDEST SWAP3 POP POP DUP2 SWAP1 SSTORE POP DUP1 PUSH1 0x2 PUSH1 0x0 DUP3 DUP3 SLOAD PUSH3 0xF1 SWAP2 SWAP1 PUSH3 0x6D1 JUMP JUMPDEST SWAP3 POP POP DUP2 SWAP1 SSTORE POP POP POP JUMP JUMPDEST PUSH1 0x0 PUSH1 0x40 MLOAD SWAP1 POP SWAP1 JUMP JUMPDEST PUSH1 0x0 DUP1 REVERT JUMPDEST PUSH1 0x0 DUP1 REVERT JUMPDEST PUSH1 0x0 DUP1 REVERT JUMPDEST PUSH1 0x0 DUP1 REVERT JUMPDEST PUSH1 0x0 PUSH1 0x1F NOT PUSH1 0x1F DUP4 ADD AND SWAP1 POP SWAP2 SWAP1 POP JUMP JUMPDEST PUSH32 0x4E487B7100000000000000000000000000000000000000000000000000000000 PUSH1 0x0 MSTORE PUSH1 0x41 PUSH1 0x4 MSTORE PUSH1 0x24 PUSH1 0x0 REVERT JUMPDEST PUSH3 0x165 DUP3 PUSH3 0x11A JUMP JUMPDEST DUP2 ADD DUP2 DUP2 LT PUSH8 0xFFFFFFFFFFFFFFFF DUP3 GT OR ISZERO PUSH3 0x187 JUMPI PUSH3 0x186 PUSH3 0x12B JUMP JUMPDEST JUMPDEST DUP1 PUSH1 0x40 MSTORE POP POP POP JUMP JUMPDEST PUSH1 0x0 PUSH3 0x19C PUSH3 0xFC JUMP JUMPDEST SWAP1 POP PUSH3 0x1AA DUP3 DUP3 PUSH3 0x15A JUMP JUMPDEST SWAP2 SWAP1 POP JUMP JUMPDEST PUSH1 0x0 PUSH8 0xFFFFFFFFFFFFFFFF DUP3 GT ISZERO PUSH3 0x1CD JUMPI PUSH3 0x1CC PUSH3 0x12B JUMP JUMPDEST JUMPDEST PUSH3 0x1D8 DUP3 PUSH3 0x11A JUMP JUMPDEST SWAP1 POP PUSH1 0x20 DUP2 ADD SWAP1 POP SWAP2 SWAP1 POP JUMP JUMPDEST PUSH1 0x0 JUMPDEST DUP4 DUP2 LT ISZERO PUSH3 0x205 JUMPI DUP1 DUP3 ADD MLOAD DUP2 DUP5 ADD MSTORE PUSH1 0x20 DUP2 ADD SWAP1 POP PUSH3 0x1E8 JUMP JUMPDEST PUSH1 0x0 DUP5 DUP5 ADD MSTORE POP POP POP POP JUMP JUMPDEST PUSH1 0x0 PUSH3 0x228 PUSH3 0x222 DUP5 PUSH3 0x1AF JUMP JUMPDEST PUSH3 0x190 JUMP JUMPDEST SWAP1 POP DUP3 DUP2 MSTORE PUSH1 0x20 DUP2 ADD DUP5 DUP5 DUP5 ADD GT ISZERO PUSH3 0x247 JUMPI PUSH3 0x246 PUSH3 0x115 JUMP JUMPDEST JUMPDEST PUSH3 0x254 DUP5 DUP3 DUP6 PUSH3 0x1E5 JUMP JUMPDEST POP SWAP4 SWAP3 POP POP POP JUMP JUMPDEST PUSH1 0x0 DUP3 PUSH1 0x1F DUP4 ADD SLT PUSH3 0x274 JUMPI PUSH3 0x273 PUSH3 0x110 JUMP JUMPDEST JUMPDEST DUP2 MLOAD PUSH3 0x286 DUP5 DUP3 PUSH1 0x20 DUP7 ADD PUSH3 0x211 JUMP JUMPDEST SWAP2 POP POP SWAP3 SWAP2 POP POP JUMP JUMPDEST PUSH1 0x0 DUP2 SWAP1 POP SWAP2 SWAP1 POP JUMP JUMPDEST PUSH3 0x2A4 DUP2 PUSH3 0x28F JUMP JUMPDEST DUP2 EQ PUSH3 0x2B0 JUMPI PUSH1 0x0 DUP1 REVERT JUMPDEST POP JUMP JUMPDEST PUSH1 0x0 DUP2 MLOAD SWAP1 POP PUSH3 0x2C4 DUP2 PUSH3 0x299 JUMP JUMPDEST SWAP3 SWAP2 POP POP JUMP JUMPDEST PUSH1 0x0 DUP1 PUSH1 0x0 DUP1 PUSH1 0x80 DUP6 DUP8 SUB SLT ISZERO PUSH3 0x2E7 JUMPI PUSH3 0x2E6 PUSH3 0x106 JUMP JUMPDEST JUMPDEST PUSH1 0x0 DUP6 ADD MLOAD PUSH8 0xFFFFFFFFFFFFFFFF DUP2 GT ISZERO PUSH3 0x308 JUMPI PUSH3 0x307 PUSH3 0x10B JUMP JUMPDEST JUMPDEST PUSH3 0x316 DUP8 DUP3 DUP9 ADD PUSH3 0x25C JUMP JUMPDEST SWAP5 POP POP PUSH1 0x20 DUP6 ADD MLOAD PUSH8 0xFFFFFFFFFFFFFFFF DUP2 GT ISZERO PUSH3 0x33A JUMPI PUSH3 0x339 PUSH3 0x10B JUMP JUMPDEST JUMPDEST PUSH3 0x348 DUP8 DUP3 DUP9 ADD PUSH3 0x25C JUMP JUMPDEST SWAP4 POP POP PUSH1 0x40 PUSH3 0x35B DUP8 DUP3 DUP9 ADD PUSH3 0x2B3 JUMP JUMPDEST SWAP3 POP POP PUSH1 0x60 PUSH3 0x36E DUP8 DUP3 DUP9 ADD PUSH3 0x2B3 JUMP JUMPDEST SWAP2 POP POP SWAP3 SWAP6 SWAP2 SWAP5 POP SWAP3 POP JUMP JUMPDEST PUSH1 0x0 DUP2 MLOAD SWAP1 POP SWAP2 SWAP1 POP JUMP JUMPDEST PUSH32 0x4E487B7100000000000000000000000000000000000000000000000000000000 PUSH1 0x0 MSTORE PUSH1 0x22 PUSH1 0x4 MSTORE PUSH1 0x24 PUSH1 0x0 REVERT JUMPDEST PUSH1 0x0 PUSH1 0x2 DUP3 DIV SWAP1 POP PUSH1 0x1 DUP3 AND DUP1 PUSH3 0x3CD JUMPI PUSH1 0x7F DUP3 AND SWAP2 POP JUMPDEST PUSH1 0x20 DUP3 LT DUP2 SUB PUSH3 0x3E3 JUMPI PUSH3 0x3E2 PUSH3 0x385 JUMP JUMPDEST JUMPDEST POP SWAP2 SWAP1 POP JUMP JUMPDEST PUSH1 0x0 DUP2 SWAP1 POP DUP2 PUSH1 0x0 MSTORE PUSH1 0x20 PUSH1 0x0 KECCAK256 SWAP1 POP SWAP2 SWAP1 POP JUMP JUMPDEST PUSH1 0x0 PUSH1 0x20 PUSH1 0x1F DUP4 ADD DIV SWAP1 POP SWAP2 SWAP1 POP JUMP JUMPDEST PUSH1 0x0 DUP3 DUP3 SHL SWAP1 POP SWAP3 SWAP2 POP POP JUMP JUMPDEST PUSH1 0x0 PUSH1 0x8 DUP4 MUL PUSH3 0x44D PUSH32 0xFFFFFFFFFFFFFFFFFFFFFFFFFFFFFFFFFFFFFFFFFFFFFFFFFFFFFFFFFFFFFFFF DUP3 PUSH3 0x40E JUMP JUMPDEST PUSH3 0x459 DUP7 DUP4 PUSH3 0x40E JUMP JUMPDEST SWAP6 POP DUP1 NOT DUP5 AND SWAP4 POP DUP1 DUP7 AND DUP5 OR SWAP3 POP POP POP SWAP4 SWAP3 POP POP POP JUMP JUMPDEST PUSH1 0x0 DUP2 SWAP1 POP SWAP2 SWAP1 POP JUMP JUMPDEST PUSH1 0x0 PUSH3 0x49C PUSH3 0x496 PUSH3 0x490 DUP5 PUSH3 0x28F JUMP JUMPDEST PUSH3 0x471 JUMP JUMPDEST PUSH3 0x28F JUMP JUMPDEST SWAP1 POP SWAP2 SWAP1 POP JUMP JUMPDEST PUSH1 0x0 DUP2 SWAP1 POP SWAP2 SWAP1 POP JUMP JUMPDEST PUSH3 0x4B8 DUP4 PUSH3 0x47B JUMP JUMPDEST PUSH3 0x4D0 PUSH3 0x4C7 DUP3 PUSH3 0x4A3 JUMP JUMPDEST DUP5 DUP5 SLOAD PUSH3 0x41B JUMP JUMPDEST DUP3 SSTORE POP POP POP POP JUMP JUMPDEST PUSH1 0x0 SWAP1 JUMP JUMPDEST PUSH3 0x4E7 PUSH3 0x4D8 JUMP JUMPDEST PUSH3 0x4F4 DUP2 DUP5 DUP5 PUSH3 0x4AD JUMP JUMPDEST POP POP POP JUMP JUMPDEST JUMPDEST DUP2 DUP2 LT ISZERO PUSH3 0x51C JUMPI PUSH3 0x510 PUSH1 0x0 DUP3 PUSH3 0x4DD JUMP JUMPDEST PUSH1 0x1 DUP2 ADD SWAP1 POP PUSH3 0x4FA JUMP JUMPDEST POP POP JUMP JUMPDEST PUSH1 0x1F DUP3 GT ISZERO PUSH3 0x56B JUMPI PUSH3 0x535 DUP2 PUSH3 0x3E9 JUMP JUMPDEST PUSH3 0x540 DUP5 PUSH3 0x3FE JUMP JUMPDEST DUP2 ADD PUSH1 0x20 DUP6 LT ISZERO PUSH3 0x550 JUMPI DUP2 SWAP1 POP JUMPDEST PUSH3 0x568 PUSH3 0x55F DUP6 PUSH3 0x3FE JUMP JUMPDEST DUP4 ADD DUP3 PUSH3 0x4F9 JUMP JUMPDEST POP POP JUMPDEST POP POP POP JUMP JUMPDEST PUSH1 0x0 DUP3 DUP3 SHR SWAP1 POP SWAP3 SWAP2 POP POP JUMP JUMPDEST PUSH1 0x0 PUSH3 0x590 PUSH1 0x0 NOT DUP5 PUSH1 0x8 MUL PUSH3 0x570 JUMP JUMPDEST NOT DUP1 DUP4 AND SWAP2 POP POP SWAP3 SWAP2 POP POP JUMP JUMPDEST PUSH1 0x0 PUSH3 0x5AB DUP4 DUP4 PUSH3 0x57D JUMP JUMPDEST SWAP2 POP DUP3 PUSH1 0x2 MUL DUP3 OR SWAP1 POP SWAP3 SWAP2 POP POP JUMP JUMPDEST PUSH3 0x5C6 DUP3 PUSH3 0x37A JUMP JUMPDEST PUSH8 0xFFFFFFFFFFFFFFFF DUP2 GT ISZERO PUSH3 0x5E2 JUMPI PUSH3 0x5E1 PUSH3 0x12B JUMP JUMPDEST JUMPDEST PUSH3 0x5EE DUP3 SLOAD PUSH3 0x3B4 JUMP JUMPDEST PUSH3 0x5FB DUP3 DUP3 DUP6 PUSH3 0x520 JUMP JUMPDEST PUSH1 0x0 PUSH1 0x20 SWAP1 POP PUSH1 0x1F DUP4 GT PUSH1 0x1 DUP2 EQ PUSH3 0x633 JUMPI PUSH1 0x0 DUP5 ISZERO PUSH3 0x61E JUMPI DUP3 DUP8 ADD MLOAD SWAP1 POP JUMPDEST PUSH3 0x62A DUP6 DUP3 PUSH3 0x59D JUMP JUMPDEST DUP7 SSTORE POP PUSH3 0x69A JUMP JUMPDEST PUSH1 0x1F NOT DUP5 AND PUSH3 0x643 DUP7 PUSH3 0x3E9 JUMP JUMPDEST PUSH1 0x0 JUMPDEST DUP3 DUP2 LT ISZERO PUSH3 0x66D JUMPI DUP5 DUP10 ADD MLOAD DUP3 SSTORE PUSH1 0x1 DUP3 ADD SWAP2 POP PUSH1 0x20 DUP6 ADD SWAP5 POP PUSH1 0x20 DUP2 ADD SWAP1 POP PUSH3 0x646 JUMP JUMPDEST DUP7 DUP4 LT ISZERO PUSH3 0x68D JUMPI DUP5 DUP10 ADD MLOAD PUSH3 0x689 PUSH1 0x1F DUP10 AND DUP3 PUSH3 0x57D JUMP JUMPDEST DUP4 SSTORE POP JUMPDEST PUSH1 0x1 PUSH1 0x2 DUP9 MUL ADD DUP9 SSTORE POP POP POP JUMPDEST POP POP POP POP POP POP JUMP JUMPDEST PUSH32 0x4E487B7100000000000000000000000000000000000000000000000000000000 PUSH1 0x0 MSTORE PUSH1 0x11 PUSH1 0x4 MSTORE PUSH1 0x24 PUSH1 0x0 REVERT JUMPDEST PUSH1 0x0 PUSH3 0x6DE DUP3 PUSH3 0x28F JUMP JUMPDEST SWAP2 POP PUSH3 0x6EB DUP4 PUSH3 0x28F JUMP JUMPDEST SWAP3 POP DUP3 DUP3 ADD SWAP1 POP DUP1 DUP3 GT ISZERO PUSH3 0x706 JUMPI PUSH3 0x705 PUSH3 0x6A2 JUMP JUMPDEST JUMPDEST SWAP3 SWAP2 POP POP JUMP JUMPDEST PUSH2 0x7DA DUP1 PUSH3 0x71C PUSH1 0x0 CODECOPY PUSH1 0x0 RETURN INVALID PUSH1 0x80 PUSH1 0x40 MSTORE CALLVALUE DUP1 ISZERO PUSH2 0x10 JUMPI PUSH1 0x0 DUP1 REVERT JUMPDEST POP PUSH1 0x4 CALLDATASIZE LT PUSH2 0x62 JUMPI PUSH1 0x0 CALLDATALOAD PUSH1 0xE0 SHR DUP1 PUSH4 0x15070401 EQ PUSH2 0x67 JUMPI DUP1 PUSH4 0x17D7DE7C EQ PUSH2 0x85 JUMPI DUP1 PUSH4 0xA9059CBB EQ PUSH2 0xA3 JUMPI DUP1 PUSH4 0xBDDB971B EQ PUSH2 0xBF JUMPI DUP1 PUSH4 0xC4E41B22 EQ PUSH2 0xDD JUMPI DUP1 PUSH4 0xF8B2CB4F EQ PUSH2 0xFB JUMPI JUMPDEST PUSH1 0x0 DUP1 REVERT JUMPDEST PUSH2 0x6F PUSH2 0x12B JUMP JUMPDEST PUSH1 0x40 MLOAD PUSH2 0x7C SWAP2 SWAP1 PUSH2 0x4A9 JUMP JUMPDEST PUSH1 0x40 MLOAD DUP1 SWAP2 SUB SWAP1 RETURN JUMPDEST PUSH2 0x8D PUSH2 0x1BD JUMP JUMPDEST PUSH1 0x40 MLOAD PUSH2 0x9A SWAP2 SWAP1 PUSH2 0x4A9 JUMP JUMPDEST PUSH1 0x40 MLOAD DUP1 SWAP2 SUB SWAP1 RETURN JUMPDEST PUSH2 0xBD PUSH1 0x4 DUP1 CALLDATASIZE SUB DUP2 ADD SWAP1 PUSH2 0xB8 SWAP2 SWAP1 PUSH2 0x564 JUMP JUMPDEST PUSH2 0x24F JUMP JUMPDEST STOP JUMPDEST PUSH2 0xC7 PUSH2 0x3BC JUMP JUMPDEST PUSH1 0x40 MLOAD PUSH2 0xD4 SWAP2 SWAP1 PUSH2 0x5B3 JUMP JUMPDEST PUSH1 0x40 MLOAD DUP1 SWAP2 SUB SWAP1 RETURN JUMPDEST PUSH2 0xE5 PUSH2 0x3C6 JUMP JUMPDEST PUSH1 0x40 MLOAD PUSH2 0xF2 SWAP2 SWAP1 PUSH2 0x5B3 JUMP JUMPDEST PUSH1 0x40 MLOAD DUP1 SWAP2 SUB SWAP1 RETURN JUMPDEST PUSH2 0x115 PUSH1 0x4 DUP1 CALLDATASIZE SUB DUP2 ADD SWAP1 PUSH2 0x110 SWAP2 SWAP1 PUSH2 0x5CE JUMP JUMPDEST PUSH2 0x3D0 JUMP JUMPDEST PUSH1 0x40 MLOAD PUSH2 0x122 SWAP2 SWAP1 PUSH2 0x5B3 JUMP JUMPDEST PUSH1 0x40 MLOAD DUP1 SWAP2 SUB SWAP1 RETURN JUMPDEST PUSH1 0x60 PUSH1 0x1 DUP1 SLOAD PUSH2 0x13A SWAP1 PUSH2 0x62A JUMP JUMPDEST DUP1 PUSH1 0x1F ADD PUSH1 0x20 DUP1 SWAP2 DIV MUL PUSH1 0x20 ADD PUSH1 0x40 MLOAD SWAP1 DUP2 ADD PUSH1 0x40 MSTORE DUP1 SWAP3 SWAP2 SWAP1 DUP2 DUP2 MSTORE PUSH1 0x20 ADD DUP3 DUP1 SLOAD PUSH2 0x166 SWAP1 PUSH2 0x62A JUMP JUMPDEST DUP1 ISZERO PUSH2 0x1B3 JUMPI DUP1 PUSH1 0x1F LT PUSH2 0x188 JUMPI PUSH2 0x100 DUP1 DUP4 SLOAD DIV MUL DUP4 MSTORE SWAP2 PUSH1 0x20 ADD SWAP2 PUSH2 0x1B3 JUMP JUMPDEST DUP3 ADD SWAP2 SWAP1 PUSH1 0x0 MSTORE PUSH1 0x20 PUSH1 0x0 KECCAK256 SWAP1 JUMPDEST DUP2 SLOAD DUP2 MSTORE SWAP1 PUSH1 0x1 ADD SWAP1 PUSH1 0x20 ADD DUP1 DUP4 GT PUSH2 0x196 JUMPI DUP3 SWAP1 SUB PUSH1 0x1F AND DUP3 ADD SWAP2 JUMPDEST POP POP POP POP POP SWAP1 POP SWAP1 JUMP JUMPDEST PUSH1 0x60 PUSH1 0x0 DUP1 SLOAD PUSH2 0x1CC SWAP1 PUSH2 0x62A JUMP JUMPDEST DUP1 PUSH1 0x1F ADD PUSH1 0x20 DUP1 SWAP2 DIV MUL PUSH1 0x20 ADD PUSH1 0x40 MLOAD SWAP1 DUP2 ADD PUSH1 0x40 MSTORE DUP1 SWAP3 SWAP2 SWAP1 DUP2 DUP2 MSTORE PUSH1 0x20 ADD DUP3 DUP1 SLOAD PUSH2 0x1F8 SWAP1 PUSH2 0x62A JUMP JUMPDEST DUP1 ISZERO PUSH2 0x245 JUMPI DUP1 PUSH1 0x1F LT PUSH2 0x21A JUMPI PUSH2 0x100 DUP1 DUP4 SLOAD DIV MUL DUP4 MSTORE SWAP2 PUSH1 0x20 ADD SWAP2 PUSH2 0x245 JUMP JUMPDEST DUP3 ADD SWAP2 SWAP1 PUSH1 0x0 MSTORE PUSH1 0x20 PUSH1 0x0 KECCAK256 SWAP1 JUMPDEST DUP2 SLOAD DUP2 MSTORE SWAP1 PUSH1 0x1 ADD SWAP1 PUSH1 0x20 ADD DUP1 DUP4 GT PUSH2 0x228 JUMPI DUP3 SWAP1 SUB PUSH1 0x1F AND DUP3 ADD SWAP2 JUMPDEST POP POP POP POP POP SWAP1 POP SWAP1 JUMP JUMPDEST DUP1 PUSH1 0x4 PUSH1 0x0 CALLER PUSH20 0xFFFFFFFFFFFFFFFFFFFFFFFFFFFFFFFFFFFFFFFF AND PUSH20 0xFFFFFFFFFFFFFFFFFFFFFFFFFFFFFFFFFFFFFFFF AND DUP2 MSTORE PUSH1 0x20 ADD SWAP1 DUP2 MSTORE PUSH1 0x20 ADD PUSH1 0x0 KECCAK256 SLOAD LT ISZERO PUSH2 0x2D1 JUMPI PUSH1 0x40 MLOAD PUSH32 0x8C379A000000000000000000000000000000000000000000000000000000000 DUP2 MSTORE PUSH1 0x4 ADD PUSH2 0x2C8 SWAP1 PUSH2 0x6A7 JUMP JUMPDEST PUSH1 0x40 MLOAD DUP1 SWAP2 SUB SWAP1 REVERT JUMPDEST DUP1 PUSH1 0x4 PUSH1 0x0 CALLER PUSH20 0xFFFFFFFFFFFFFFFFFFFFFFFFFFFFFFFFFFFFFFFF AND PUSH20 0xFFFFFFFFFFFFFFFFFFFFFFFFFFFFFFFFFFFFFFFF AND DUP2 MSTORE PUSH1 0x20 ADD SWAP1 DUP2 MSTORE PUSH1 0x20 ADD PUSH1 0x0 KECCAK256 PUSH1 0x0 DUP3 DUP3 SLOAD PUSH2 0x320 SWAP2 SWAP1 PUSH2 0x6F6 JUMP JUMPDEST SWAP3 POP POP DUP2 SWAP1 SSTORE POP DUP1 PUSH1 0x4 PUSH1 0x0 DUP5 PUSH20 0xFFFFFFFFFFFFFFFFFFFFFFFFFFFFFFFFFFFFFFFF AND PUSH20 0xFFFFFFFFFFFFFFFFFFFFFFFFFFFFFFFFFFFFFFFF AND DUP2 MSTORE PUSH1 0x20 ADD SWAP1 DUP2 MSTORE PUSH1 0x20 ADD PUSH1 0x0 KECCAK256 PUSH1 0x0 DUP3 DUP3 SLOAD PUSH2 0x376 SWAP2 SWAP1 PUSH2 0x72A JUMP JUMPDEST SWAP3 POP POP DUP2 SWAP1 SSTORE POP PUSH32 0x30E0789ED23094F42B5810CBDF4E48A0478AEC0B37810E24E912443DD0032B3C CALLER DUP4 DUP4 PUSH1 0x40 MLOAD PUSH2 0x3B0 SWAP4 SWAP3 SWAP2 SWAP1 PUSH2 0x76D JUMP JUMPDEST PUSH1 0x40 MLOAD DUP1 SWAP2 SUB SWAP1 LOG1 POP POP JUMP JUMPDEST PUSH1 0x0 PUSH1 0x3 SLOAD SWAP1 POP SWAP1 JUMP JUMPDEST PUSH1 0x0 PUSH1 0x2 SLOAD SWAP1 POP SWAP1 JUMP JUMPDEST PUSH1 0x0 PUSH1 0x4 PUSH1 0x0 DUP4 PUSH20 0xFFFFFFFFFFFFFFFFFFFFFFFFFFFFFFFFFFFFFFFF AND PUSH20 0xFFFFFFFFFFFFFFFFFFFFFFFFFFFFFFFFFFFFFFFF AND DUP2 MSTORE PUSH1 0x20 ADD SWAP1 DUP2 MSTORE PUSH1 0x20 ADD PUSH1 0x0 KECCAK256 SLOAD SWAP1 POP SWAP2 SWAP1 POP JUMP JUMPDEST PUSH1 0x0 DUP2 MLOAD SWAP1 POP SWAP2 SWAP1 POP JUMP JUMPDEST PUSH1 0x0 DUP3 DUP3 MSTORE PUSH1 0x20 DUP3 ADD SWAP1 POP SWAP3 SWAP2 POP POP JUMP JUMPDEST PUSH1 0x0 JUMPDEST DUP4 DUP2 LT ISZERO PUSH2 0x453 JUMPI DUP1 DUP3 ADD MLOAD DUP2 DUP5 ADD MSTORE PUSH1 0x20 DUP2 ADD SWAP1 POP PUSH2 0x438 JUMP JUMPDEST PUSH1 0x0 DUP5 DUP5 ADD MSTORE POP POP POP POP JUMP JUMPDEST PUSH1 0x0 PUSH1 0x1F NOT PUSH1 0x1F DUP4 ADD AND SWAP1 POP SWAP2 SWAP1 POP JUMP JUMPDEST PUSH1 0x0 PUSH2 0x47B DUP3 PUSH2 0x419 JUMP JUMPDEST PUSH2 0x485 DUP2 DUP6 PUSH2 0x424 JUMP JUMPDEST SWAP4 POP PUSH2 0x495 DUP2 DUP6 PUSH1 0x20 DUP7 ADD PUSH2 0x435 JUMP JUMPDEST PUSH2 0x49E DUP2 PUSH2 0x45F JUMP JUMPDEST DUP5 ADD SWAP2 POP POP SWAP3 SWAP2 POP POP JUMP JUMPDEST PUSH1 0x0 PUSH1 0x20 DUP3 ADD SWAP1 POP DUP2 DUP2 SUB PUSH1 0x0 DUP4 ADD MSTORE PUSH2 0x4C3 DUP2 DUP5 PUSH2 0x470 JUMP JUMPDEST SWAP1 POP SWAP3 SWAP2 POP POP JUMP JUMPDEST PUSH1 0x0 DUP1 REVERT JUMPDEST PUSH1 0x0 PUSH20 0xFFFFFFFFFFFFFFFFFFFFFFFFFFFFFFFFFFFFFFFF DUP3 AND SWAP1 POP SWAP2 SWAP1 POP JUMP JUMPDEST PUSH1 0x0 PUSH2 0x4FB DUP3 PUSH2 0x4D0 JUMP JUMPDEST SWAP1 POP SWAP2 SWAP1 POP JUMP JUMPDEST PUSH2 0x50B DUP2 PUSH2 0x4F0 JUMP JUMPDEST DUP2 EQ PUSH2 0x516 JUMPI PUSH1 0x0 DUP1 REVERT JUMPDEST POP JUMP JUMPDEST PUSH1 0x0 DUP2 CALLDATALOAD SWAP1 POP PUSH2 0x528 DUP2 PUSH2 0x502 JUMP JUMPDEST SWAP3 SWAP2 POP POP JUMP JUMPDEST PUSH1 0x0 DUP2 SWAP1 POP SWAP2 SWAP1 POP JUMP JUMPDEST PUSH2 0x541 DUP2 PUSH2 0x52E JUMP JUMPDEST DUP2 EQ PUSH2 0x54C JUMPI PUSH1 0x0 DUP1 REVERT JUMPDEST POP JUMP JUMPDEST PUSH1 0x0 DUP2 CALLDATALOAD SWAP1 POP PUSH2 0x55E DUP2 PUSH2 0x538 JUMP JUMPDEST SWAP3 SWAP2 POP POP JUMP JUMPDEST PUSH1 0x0 DUP1 PUSH1 0x40 DUP4 DUP6 SUB SLT ISZERO PUSH2 0x57B JUMPI PUSH2 0x57A PUSH2 0x4CB JUMP JUMPDEST JUMPDEST PUSH1 0x0 PUSH2 0x589 DUP6 DUP3 DUP7 ADD PUSH2 0x519 JUMP JUMPDEST SWAP3 POP POP PUSH1 0x20 PUSH2 0x59A DUP6 DUP3 DUP7 ADD PUSH2 0x54F JUMP JUMPDEST SWAP2 POP POP SWAP3 POP SWAP3 SWAP1 POP JUMP JUMPDEST PUSH2 0x5AD DUP2 PUSH2 0x52E JUMP JUMPDEST DUP3 MSTORE POP POP JUMP JUMPDEST PUSH1 0x0 PUSH1 0x20 DUP3 ADD SWAP1 POP PUSH2 0x5C8 PUSH1 0x0 DUP4 ADD DUP5 PUSH2 0x5A4 JUMP JUMPDEST SWAP3 SWAP2 POP POP JUMP JUMPDEST PUSH1 0x0 PUSH1 0x20 DUP3 DUP5 SUB SLT ISZERO PUSH2 0x5E4 JUMPI PUSH2 0x5E3 PUSH2 0x4CB JUMP JUMPDEST JUMPDEST PUSH1 0x0 PUSH2 0x5F2 DUP5 DUP3 DUP6 ADD PUSH2 0x519 JUMP JUMPDEST SWAP2 POP POP SWAP3 SWAP2 POP POP JUMP JUMPDEST PUSH32 0x4E487B7100000000000000000000000000000000000000000000000000000000 PUSH1 0x0 MSTORE PUSH1 0x22 PUSH1 0x4 MSTORE PUSH1 0x24 PUSH1 0x0 REVERT JUMPDEST PUSH1 0x0 PUSH1 0x2 DUP3 DIV SWAP1 POP PUSH1 0x1 DUP3 AND DUP1 PUSH2 0x642 JUMPI PUSH1 0x7F DUP3 AND SWAP2 POP JUMPDEST PUSH1 0x20 DUP3 LT DUP2 SUB PUSH2 0x655 JUMPI PUSH2 0x654 PUSH2 0x5FB JUMP JUMPDEST JUMPDEST POP SWAP2 SWAP1 POP JUMP JUMPDEST PUSH32 0x4E6F7420656E6F75676820746F6B656E00000000000000000000000000000000 PUSH1 0x0 DUP3 ADD MSTORE POP JUMP JUMPDEST PUSH1 0x0 PUSH2 0x691 PUSH1 0x10 DUP4 PUSH2 0x424 JUMP JUMPDEST SWAP2 POP PUSH2 0x69C DUP3 PUSH2 0x65B JUMP JUMPDEST PUSH1 0x20 DUP3 ADD SWAP1 POP SWAP2 SWAP1 POP JUMP JUMPDEST PUSH1 0x0 PUSH1 0x20 DUP3 ADD SWAP1 POP DUP2 DUP2 SUB PUSH1 0x0 DUP4 ADD MSTORE PUSH2 0x6C0 DUP2 PUSH2 0x684 JUMP JUMPDEST SWAP1 POP SWAP2 SWAP1 POP JUMP JUMPDEST PUSH32 0x4E487B7100000000000000000000000000000000000000000000000000000000 PUSH1 0x0 MSTORE PUSH1 0x11 PUSH1 0x4 MSTORE PUSH1 0x24 PUSH1 0x0 REVERT JUMPDEST PUSH1 0x0 PUSH2 0x701 DUP3 PUSH2 0x52E JUMP JUMPDEST SWAP2 POP PUSH2 0x70C DUP4 PUSH2 0x52E JUMP JUMPDEST SWAP3 POP DUP3 DUP3 SUB SWAP1 POP DUP2 DUP2 GT ISZERO PUSH2 0x724 JUMPI PUSH2 0x723 PUSH2 0x6C7 JUMP JUMPDEST JUMPDEST SWAP3 SWAP2 POP POP JUMP JUMPDEST PUSH1 0x0 PUSH2 0x735 DUP3 PUSH2 0x52E JUMP JUMPDEST SWAP2 POP PUSH2 0x740 DUP4 PUSH2 0x52E JUMP JUMPDEST SWAP3 POP DUP3 DUP3 ADD SWAP1 POP DUP1 DUP3 GT ISZERO PUSH2 0x758 JUMPI PUSH2 0x757 PUSH2 0x6C7 JUMP JUMPDEST JUMPDEST SWAP3 SWAP2 POP POP JUMP JUMPDEST PUSH2 0x767 DUP2 PUSH2 0x4F0 JUMP JUMPDEST DUP3 MSTORE POP POP JUMP JUMPDEST PUSH1 0x0 PUSH1 0x60 DUP3 ADD SWAP1 POP PUSH2 0x782 PUSH1 0x0 DUP4 ADD DUP7 PUSH2 0x75E JUMP JUMPDEST PUSH2 0x78F PUSH1 0x20 DUP4 ADD DUP6 PUSH2 0x75E JUMP JUMPDEST PUSH2 0x79C PUSH1 0x40 DUP4 ADD DUP5 PUSH2 0x5A4 JUMP JUMPDEST SWAP5 SWAP4 POP POP POP POP JUMP INVALID LOG2 PUSH5 0x6970667358 0x22 SLT KECCAK256 PUSH4 0x8CB8BE4A 0xBC 0xA6 SLOAD 0xA9 0xEF CALLDATALOAD 0x2A 0x2E PC SWAP13 LOG4 BASEFEE PUSH28 0x368E130E5F8DE00D01BC6EBD353464736F6C63430008120033000000 "
				},
				"gasEstimates": {
					"creation": {
						"codeDepositCost": "402000",
						"executionCost": "infinite",
						"totalCost": "infinite"
					},
					"external": {
						"getBalance(address)": "2929",
						"getName()": "infinite",
						"getSymbol()": "infinite",
						"getTokenDecimal()": "2481",
						"getTotalSupply()": "2503",
						"transfer(address,uint256)": "infinite"
					},
					"internal": {
						"mint(address,uint256)": "infinite"
					}
				},
				"methodIdentifiers": {
					"getBalance(address)": "f8b2cb4f",
					"getName()": "17d7de7c",
					"getSymbol()": "15070401",
					"getTokenDecimal()": "bddb971b",
					"getTotalSupply()": "c4e41b22",
					"transfer(address,uint256)": "a9059cbb"
				}
			},
			"storageLayout": {
				"storage": [
					{
						"astId": 11,
						"contract": "Users/user/Desktop/git/solidity/myErc20.sol:myErc20",
						"label": "tokenName",
						"offset": 0,
						"slot": "0",
						"type": "t_string_storage"
					},
					{
						"astId": 13,
						"contract": "Users/user/Desktop/git/solidity/myErc20.sol:myErc20",
						"label": "tokenSymbol",
						"offset": 0,
						"slot": "1",
						"type": "t_string_storage"
					},
					{
						"astId": 15,
						"contract": "Users/user/Desktop/git/solidity/myErc20.sol:myErc20",
						"label": "tokenTotalSupply",
						"offset": 0,
						"slot": "2",
						"type": "t_uint256"
					},
					{
						"astId": 17,
						"contract": "Users/user/Desktop/git/solidity/myErc20.sol:myErc20",
						"label": "tokenDecimal",
						"offset": 0,
						"slot": "3",
						"type": "t_uint256"
					},
					{
						"astId": 21,
						"contract": "Users/user/Desktop/git/solidity/myErc20.sol:myErc20",
						"label": "addressBalanceMap",
						"offset": 0,
						"slot": "4",
						"type": "t_mapping(t_address,t_uint256)"
					}
				],
				"types": {
					"t_address": {
						"encoding": "inplace",
						"label": "address",
						"numberOfBytes": "20"
					},
					"t_mapping(t_address,t_uint256)": {
						"encoding": "mapping",
						"key": "t_address",
						"label": "mapping(address => uint256)",
						"numberOfBytes": "32",
						"value": "t_uint256"
					},
					"t_string_storage": {
						"encoding": "bytes",
						"label": "string",
						"numberOfBytes": "32"
					},
					"t_uint256": {
						"encoding": "inplace",
						"label": "uint256",
						"numberOfBytes": "32"
					}
				}
			},
			"userdoc": {
				"kind": "user",
				"methods": {},
				"version": 1
			}
		}
	}
}