{
	"Users/user/Desktop/git/solidity/enum.sol": {
		"enumEx": {
			"abi": [
				{
					"inputs": [],
					"stateMutability": "nonpayable",
					"type": "constructor"
				},
				{
					"anonymous": false,
					"inputs": [
						{
							"indexed": false,
							"internalType": "enum enumEx.Light",
							"name": "_lightStatus",
							"type": "uint8"
						},
						{
							"indexed": false,
							"internalType": "uint256",
							"name": "_lightStatusInInt",
							"type": "uint256"
						}
					],
					"name": "currentStatus",
					"type": "event"
				},
				{
					"inputs": [],
					"name": "lightStatus",
					"outputs": [
						{
							"internalType": "enum enumEx.Light",
							"name": "",
							"type": "uint8"
						}
					],
					"stateMutability": "view",
					"type": "function"
				},
				{
					"inputs": [],
					"name": "turnOff",
					"outputs": [],
					"stateMutability": "nonpayable",
					"type": "function"
				},
				{
					"inputs": [],
					"name": "turnOn",
					"outputs": [],
					"stateMutability": "nonpayable",
					"type": "function"
				}
			],
			"devdoc": {
				"kind": "dev",
				"methods": {},
				"version": 1
			},
			"evm": {
				"assembly": "    /* \"Users/user/Desktop/git/solidity/enum.sol\":243:906  contract enumEx {... */\n  mstore(0x40, 0x80)\n    /* \"Users/user/Desktop/git/solidity/enum.sol\":368:426  constructor() {... */\n  callvalue\n  dup1\n  iszero\n  tag_1\n  jumpi\n  0x00\n  dup1\n  revert\ntag_1:\n  pop\n    /* \"Users/user/Desktop/git/solidity/enum.sol\":406:419  Light.TurnOff */\n  0x01\n    /* \"Users/user/Desktop/git/solidity/enum.sol\":392:403  lightStatus */\n  0x00\n  dup1\n    /* \"Users/user/Desktop/git/solidity/enum.sol\":392:419  lightStatus = Light.TurnOff */\n  0x0100\n  exp\n  dup2\n  sload\n  dup2\n  0xff\n  mul\n  not\n  and\n  swap1\n  dup4\n  0x02\n  dup2\n  gt\n  iszero\n  tag_4\n  jumpi\n  tag_5\n  tag_6\n  jump\t// in\ntag_5:\ntag_4:\n  mul\n  or\n  swap1\n  sstore\n  pop\n    /* \"Users/user/Desktop/git/solidity/enum.sol\":243:906  contract enumEx {... */\n  jump(tag_7)\n    /* \"#utility.yul\":7:187   */\ntag_6:\n    /* \"#utility.yul\":55:132   */\n  0x4e487b7100000000000000000000000000000000000000000000000000000000\n    /* \"#utility.yul\":52:53   */\n  0x00\n    /* \"#utility.yul\":45:133   */\n  mstore\n    /* \"#utility.yul\":152:156   */\n  0x21\n    /* \"#utility.yul\":149:150   */\n  0x04\n    /* \"#utility.yul\":142:157   */\n  mstore\n    /* \"#utility.yul\":176:180   */\n  0x24\n    /* \"#utility.yul\":173:174   */\n  0x00\n    /* \"#utility.yul\":166:181   */\n  revert\n    /* \"Users/user/Desktop/git/solidity/enum.sol\":243:906  contract enumEx {... */\ntag_7:\n  dataSize(sub_0)\n  dup1\n  dataOffset(sub_0)\n  0x00\n  codecopy\n  0x00\n  return\nstop\n\nsub_0: assembly {\n        /* \"Users/user/Desktop/git/solidity/enum.sol\":243:906  contract enumEx {... */\n      mstore(0x40, 0x80)\n      callvalue\n      dup1\n      iszero\n      tag_1\n      jumpi\n      0x00\n      dup1\n      revert\n    tag_1:\n      pop\n      jumpi(tag_2, lt(calldatasize, 0x04))\n      shr(0xe0, calldataload(0x00))\n      dup1\n      0xaf10c810\n      eq\n      tag_3\n      jumpi\n      dup1\n      0xba33ed7d\n      eq\n      tag_4\n      jumpi\n      dup1\n      0xdd6fde70\n      eq\n      tag_5\n      jumpi\n    tag_2:\n      0x00\n      dup1\n      revert\n        /* \"Users/user/Desktop/git/solidity/enum.sol\":708:904  function turnOff() public {... */\n    tag_3:\n      tag_6\n      tag_7\n      jump\t// in\n    tag_6:\n      stop\n        /* \"Users/user/Desktop/git/solidity/enum.sol\":502:698  function turnOn() public {... */\n    tag_4:\n      tag_8\n      tag_9\n      jump\t// in\n    tag_8:\n      stop\n        /* \"Users/user/Desktop/git/solidity/enum.sol\":337:361  Light public lightStatus */\n    tag_5:\n      tag_10\n      tag_11\n      jump\t// in\n    tag_10:\n      mload(0x40)\n      tag_12\n      swap2\n      swap1\n      tag_13\n      jump\t// in\n    tag_12:\n      mload(0x40)\n      dup1\n      swap2\n      sub\n      swap1\n      return\n        /* \"Users/user/Desktop/git/solidity/enum.sol\":708:904  function turnOff() public {... */\n    tag_7:\n        /* \"Users/user/Desktop/git/solidity/enum.sol\":767:779  Light.TurnOn */\n      0x00\n        /* \"Users/user/Desktop/git/solidity/enum.sol\":752:779  lightStatus == Light.TurnOn */\n      0x02\n      dup2\n      gt\n      iszero\n      tag_15\n      jumpi\n      tag_16\n      tag_17\n      jump\t// in\n    tag_16:\n    tag_15:\n        /* \"Users/user/Desktop/git/solidity/enum.sol\":752:763  lightStatus */\n      0x00\n      dup1\n      sload\n      swap1\n      0x0100\n      exp\n      swap1\n      div\n      0xff\n      and\n        /* \"Users/user/Desktop/git/solidity/enum.sol\":752:779  lightStatus == Light.TurnOn */\n      0x02\n      dup2\n      gt\n      iszero\n      tag_18\n      jumpi\n      tag_19\n      tag_17\n      jump\t// in\n    tag_19:\n    tag_18:\n      eq\n        /* \"Users/user/Desktop/git/solidity/enum.sol\":744:800  require(lightStatus == Light.TurnOn, \"Light must be on\") */\n      tag_20\n      jumpi\n      mload(0x40)\n      0x08c379a000000000000000000000000000000000000000000000000000000000\n      dup2\n      mstore\n      0x04\n      add\n      tag_21\n      swap1\n      tag_22\n      jump\t// in\n    tag_21:\n      mload(0x40)\n      dup1\n      swap2\n      sub\n      swap1\n      revert\n    tag_20:\n        /* \"Users/user/Desktop/git/solidity/enum.sol\":824:837  Light.TurnOff */\n      0x01\n        /* \"Users/user/Desktop/git/solidity/enum.sol\":810:821  lightStatus */\n      0x00\n      dup1\n        /* \"Users/user/Desktop/git/solidity/enum.sol\":810:837  lightStatus = Light.TurnOff */\n      0x0100\n      exp\n      dup2\n      sload\n      dup2\n      0xff\n      mul\n      not\n      and\n      swap1\n      dup4\n      0x02\n      dup2\n      gt\n      iszero\n      tag_23\n      jumpi\n      tag_24\n      tag_17\n      jump\t// in\n    tag_24:\n    tag_23:\n      mul\n      or\n      swap1\n      sstore\n      pop\n        /* \"Users/user/Desktop/git/solidity/enum.sol\":852:897  currentStatus(lightStatus, uint(lightStatus)) */\n      0xd4f06352cf92b5349e2fa82bb06f38ec4dc9405cbf59deeaafe7b07801fd9c49\n        /* \"Users/user/Desktop/git/solidity/enum.sol\":866:877  lightStatus */\n      0x00\n      dup1\n      sload\n      swap1\n      0x0100\n      exp\n      swap1\n      div\n      0xff\n      and\n        /* \"Users/user/Desktop/git/solidity/enum.sol\":884:895  lightStatus */\n      0x00\n      dup1\n      sload\n      swap1\n      0x0100\n      exp\n      swap1\n      div\n      0xff\n      and\n        /* \"Users/user/Desktop/git/solidity/enum.sol\":879:896  uint(lightStatus) */\n      0x02\n      dup2\n      gt\n      iszero\n      tag_25\n      jumpi\n      tag_26\n      tag_17\n      jump\t// in\n    tag_26:\n    tag_25:\n        /* \"Users/user/Desktop/git/solidity/enum.sol\":852:897  currentStatus(lightStatus, uint(lightStatus)) */\n      mload(0x40)\n      tag_27\n      swap3\n      swap2\n      swap1\n      tag_28\n      jump\t// in\n    tag_27:\n      mload(0x40)\n      dup1\n      swap2\n      sub\n      swap1\n      log1\n        /* \"Users/user/Desktop/git/solidity/enum.sol\":708:904  function turnOff() public {... */\n      jump\t// out\n        /* \"Users/user/Desktop/git/solidity/enum.sol\":502:698  function turnOn() public {... */\n    tag_9:\n        /* \"Users/user/Desktop/git/solidity/enum.sol\":560:573  Light.TurnOff */\n      0x01\n        /* \"Users/user/Desktop/git/solidity/enum.sol\":545:573  lightStatus == Light.TurnOff */\n      0x02\n      dup2\n      gt\n      iszero\n      tag_30\n      jumpi\n      tag_31\n      tag_17\n      jump\t// in\n    tag_31:\n    tag_30:\n        /* \"Users/user/Desktop/git/solidity/enum.sol\":545:556  lightStatus */\n      0x00\n      dup1\n      sload\n      swap1\n      0x0100\n      exp\n      swap1\n      div\n      0xff\n      and\n        /* \"Users/user/Desktop/git/solidity/enum.sol\":545:573  lightStatus == Light.TurnOff */\n      0x02\n      dup2\n      gt\n      iszero\n      tag_32\n      jumpi\n      tag_33\n      tag_17\n      jump\t// in\n    tag_33:\n    tag_32:\n      eq\n        /* \"Users/user/Desktop/git/solidity/enum.sol\":537:595  require(lightStatus == Light.TurnOff, \"Light must be off\") */\n      tag_34\n      jumpi\n      mload(0x40)\n      0x08c379a000000000000000000000000000000000000000000000000000000000\n      dup2\n      mstore\n      0x04\n      add\n      tag_35\n      swap1\n      tag_36\n      jump\t// in\n    tag_35:\n      mload(0x40)\n      dup1\n      swap2\n      sub\n      swap1\n      revert\n    tag_34:\n        /* \"Users/user/Desktop/git/solidity/enum.sol\":619:631  Light.TurnOn */\n      0x00\n        /* \"Users/user/Desktop/git/solidity/enum.sol\":605:616  lightStatus */\n      dup1\n      0x00\n        /* \"Users/user/Desktop/git/solidity/enum.sol\":605:631  lightStatus = Light.TurnOn */\n      0x0100\n      exp\n      dup2\n      sload\n      dup2\n      0xff\n      mul\n      not\n      and\n      swap1\n      dup4\n      0x02\n      dup2\n      gt\n      iszero\n      tag_37\n      jumpi\n      tag_38\n      tag_17\n      jump\t// in\n    tag_38:\n    tag_37:\n      mul\n      or\n      swap1\n      sstore\n      pop\n        /* \"Users/user/Desktop/git/solidity/enum.sol\":646:691  currentStatus(lightStatus, uint(lightStatus)) */\n      0xd4f06352cf92b5349e2fa82bb06f38ec4dc9405cbf59deeaafe7b07801fd9c49\n        /* \"Users/user/Desktop/git/solidity/enum.sol\":660:671  lightStatus */\n      0x00\n      dup1\n      sload\n      swap1\n      0x0100\n      exp\n      swap1\n      div\n      0xff\n      and\n        /* \"Users/user/Desktop/git/solidity/enum.sol\":678:689  lightStatus */\n      0x00\n      dup1\n      sload\n      swap1\n      0x0100\n      exp\n      swap1\n      div\n      0xff\n      and\n        /* \"Users/user/Desktop/git/solidity/enum.sol\":673:690  uint(lightStatus) */\n      0x02\n      dup2\n      gt\n      iszero\n      tag_39\n      jumpi\n      tag_40\n      tag_17\n      jump\t// in\n    tag_40:\n    tag_39:\n        /* \"Users/user/Desktop/git/solidity/enum.sol\":646:691  currentStatus(lightStatus, uint(lightStatus)) */\n      mload(0x40)\n      tag_41\n      swap3\n      swap2\n      swap1\n      tag_28\n      jump\t// in\n    tag_41:\n      mload(0x40)\n      dup1\n      swap2\n      sub\n      swap1\n      log1\n        /* \"Users/user/Desktop/git/solidity/enum.sol\":502:698  function turnOn() public {... */\n      jump\t// out\n        /* \"Users/user/Desktop/git/solidity/enum.sol\":337:361  Light public lightStatus */\n    tag_11:\n      0x00\n      dup1\n      sload\n      swap1\n      0x0100\n      exp\n      swap1\n      div\n      0xff\n      and\n      dup2\n      jump\t// out\n        /* \"#utility.yul\":7:187   */\n    tag_17:\n        /* \"#utility.yul\":55:132   */\n      0x4e487b7100000000000000000000000000000000000000000000000000000000\n        /* \"#utility.yul\":52:53   */\n      0x00\n        /* \"#utility.yul\":45:133   */\n      mstore\n        /* \"#utility.yul\":152:156   */\n      0x21\n        /* \"#utility.yul\":149:150   */\n      0x04\n        /* \"#utility.yul\":142:157   */\n      mstore\n        /* \"#utility.yul\":176:180   */\n      0x24\n        /* \"#utility.yul\":173:174   */\n      0x00\n        /* \"#utility.yul\":166:181   */\n      revert\n        /* \"#utility.yul\":193:305   */\n    tag_42:\n        /* \"#utility.yul\":273:274   */\n      0x03\n        /* \"#utility.yul\":266:271   */\n      dup2\n        /* \"#utility.yul\":263:275   */\n      lt\n        /* \"#utility.yul\":253:299   */\n      tag_56\n      jumpi\n        /* \"#utility.yul\":279:297   */\n      tag_57\n      tag_17\n      jump\t// in\n    tag_57:\n        /* \"#utility.yul\":253:299   */\n    tag_56:\n        /* \"#utility.yul\":193:305   */\n      pop\n      jump\t// out\n        /* \"#utility.yul\":311:436   */\n    tag_43:\n        /* \"#utility.yul\":355:362   */\n      0x00\n        /* \"#utility.yul\":384:389   */\n      dup2\n        /* \"#utility.yul\":373:389   */\n      swap1\n      pop\n        /* \"#utility.yul\":390:430   */\n      tag_59\n        /* \"#utility.yul\":424:429   */\n      dup3\n        /* \"#utility.yul\":390:430   */\n      tag_42\n      jump\t// in\n    tag_59:\n        /* \"#utility.yul\":311:436   */\n      swap2\n      swap1\n      pop\n      jump\t// out\n        /* \"#utility.yul\":442:567   */\n    tag_44:\n        /* \"#utility.yul\":497:506   */\n      0x00\n        /* \"#utility.yul\":530:561   */\n      tag_61\n        /* \"#utility.yul\":555:560   */\n      dup3\n        /* \"#utility.yul\":530:561   */\n      tag_43\n      jump\t// in\n    tag_61:\n        /* \"#utility.yul\":517:561   */\n      swap1\n      pop\n        /* \"#utility.yul\":442:567   */\n      swap2\n      swap1\n      pop\n      jump\t// out\n        /* \"#utility.yul\":573:714   */\n    tag_45:\n        /* \"#utility.yul\":665:707   */\n      tag_63\n        /* \"#utility.yul\":701:706   */\n      dup2\n        /* \"#utility.yul\":665:707   */\n      tag_44\n      jump\t// in\n    tag_63:\n        /* \"#utility.yul\":660:663   */\n      dup3\n        /* \"#utility.yul\":653:708   */\n      mstore\n        /* \"#utility.yul\":573:714   */\n      pop\n      pop\n      jump\t// out\n        /* \"#utility.yul\":720:952   */\n    tag_13:\n        /* \"#utility.yul\":818:822   */\n      0x00\n        /* \"#utility.yul\":856:858   */\n      0x20\n        /* \"#utility.yul\":845:854   */\n      dup3\n        /* \"#utility.yul\":841:859   */\n      add\n        /* \"#utility.yul\":833:859   */\n      swap1\n      pop\n        /* \"#utility.yul\":869:945   */\n      tag_65\n        /* \"#utility.yul\":942:943   */\n      0x00\n        /* \"#utility.yul\":931:940   */\n      dup4\n        /* \"#utility.yul\":927:944   */\n      add\n        /* \"#utility.yul\":918:924   */\n      dup5\n        /* \"#utility.yul\":869:945   */\n      tag_45\n      jump\t// in\n    tag_65:\n        /* \"#utility.yul\":720:952   */\n      swap3\n      swap2\n      pop\n      pop\n      jump\t// out\n        /* \"#utility.yul\":958:1127   */\n    tag_46:\n        /* \"#utility.yul\":1042:1053   */\n      0x00\n        /* \"#utility.yul\":1076:1082   */\n      dup3\n        /* \"#utility.yul\":1071:1074   */\n      dup3\n        /* \"#utility.yul\":1064:1083   */\n      mstore\n        /* \"#utility.yul\":1116:1120   */\n      0x20\n        /* \"#utility.yul\":1111:1114   */\n      dup3\n        /* \"#utility.yul\":1107:1121   */\n      add\n        /* \"#utility.yul\":1092:1121   */\n      swap1\n      pop\n        /* \"#utility.yul\":958:1127   */\n      swap3\n      swap2\n      pop\n      pop\n      jump\t// out\n        /* \"#utility.yul\":1133:1299   */\n    tag_47:\n        /* \"#utility.yul\":1273:1291   */\n      0x4c69676874206d757374206265206f6e00000000000000000000000000000000\n        /* \"#utility.yul\":1269:1270   */\n      0x00\n        /* \"#utility.yul\":1261:1267   */\n      dup3\n        /* \"#utility.yul\":1257:1271   */\n      add\n        /* \"#utility.yul\":1250:1292   */\n      mstore\n        /* \"#utility.yul\":1133:1299   */\n      pop\n      jump\t// out\n        /* \"#utility.yul\":1305:1671   */\n    tag_48:\n        /* \"#utility.yul\":1447:1450   */\n      0x00\n        /* \"#utility.yul\":1468:1535   */\n      tag_69\n        /* \"#utility.yul\":1532:1534   */\n      0x10\n        /* \"#utility.yul\":1527:1530   */\n      dup4\n        /* \"#utility.yul\":1468:1535   */\n      tag_46\n      jump\t// in\n    tag_69:\n        /* \"#utility.yul\":1461:1535   */\n      swap2\n      pop\n        /* \"#utility.yul\":1544:1637   */\n      tag_70\n        /* \"#utility.yul\":1633:1636   */\n      dup3\n        /* \"#utility.yul\":1544:1637   */\n      tag_47\n      jump\t// in\n    tag_70:\n        /* \"#utility.yul\":1662:1664   */\n      0x20\n        /* \"#utility.yul\":1657:1660   */\n      dup3\n        /* \"#utility.yul\":1653:1665   */\n      add\n        /* \"#utility.yul\":1646:1665   */\n      swap1\n      pop\n        /* \"#utility.yul\":1305:1671   */\n      swap2\n      swap1\n      pop\n      jump\t// out\n        /* \"#utility.yul\":1677:2096   */\n    tag_22:\n        /* \"#utility.yul\":1843:1847   */\n      0x00\n        /* \"#utility.yul\":1881:1883   */\n      0x20\n        /* \"#utility.yul\":1870:1879   */\n      dup3\n        /* \"#utility.yul\":1866:1884   */\n      add\n        /* \"#utility.yul\":1858:1884   */\n      swap1\n      pop\n        /* \"#utility.yul\":1930:1939   */\n      dup2\n        /* \"#utility.yul\":1924:1928   */\n      dup2\n        /* \"#utility.yul\":1920:1940   */\n      sub\n        /* \"#utility.yul\":1916:1917   */\n      0x00\n        /* \"#utility.yul\":1905:1914   */\n      dup4\n        /* \"#utility.yul\":1901:1918   */\n      add\n        /* \"#utility.yul\":1894:1941   */\n      mstore\n        /* \"#utility.yul\":1958:2089   */\n      tag_72\n        /* \"#utility.yul\":2084:2088   */\n      dup2\n        /* \"#utility.yul\":1958:2089   */\n      tag_48\n      jump\t// in\n    tag_72:\n        /* \"#utility.yul\":1950:2089   */\n      swap1\n      pop\n        /* \"#utility.yul\":1677:2096   */\n      swap2\n      swap1\n      pop\n      jump\t// out\n        /* \"#utility.yul\":2102:2179   */\n    tag_49:\n        /* \"#utility.yul\":2139:2146   */\n      0x00\n        /* \"#utility.yul\":2168:2173   */\n      dup2\n        /* \"#utility.yul\":2157:2173   */\n      swap1\n      pop\n        /* \"#utility.yul\":2102:2179   */\n      swap2\n      swap1\n      pop\n      jump\t// out\n        /* \"#utility.yul\":2185:2303   */\n    tag_50:\n        /* \"#utility.yul\":2272:2296   */\n      tag_75\n        /* \"#utility.yul\":2290:2295   */\n      dup2\n        /* \"#utility.yul\":2272:2296   */\n      tag_49\n      jump\t// in\n    tag_75:\n        /* \"#utility.yul\":2267:2270   */\n      dup3\n        /* \"#utility.yul\":2260:2297   */\n      mstore\n        /* \"#utility.yul\":2185:2303   */\n      pop\n      pop\n      jump\t// out\n        /* \"#utility.yul\":2309:2651   */\n    tag_28:\n        /* \"#utility.yul\":2435:2439   */\n      0x00\n        /* \"#utility.yul\":2473:2475   */\n      0x40\n        /* \"#utility.yul\":2462:2471   */\n      dup3\n        /* \"#utility.yul\":2458:2476   */\n      add\n        /* \"#utility.yul\":2450:2476   */\n      swap1\n      pop\n        /* \"#utility.yul\":2486:2562   */\n      tag_77\n        /* \"#utility.yul\":2559:2560   */\n      0x00\n        /* \"#utility.yul\":2548:2557   */\n      dup4\n        /* \"#utility.yul\":2544:2561   */\n      add\n        /* \"#utility.yul\":2535:2541   */\n      dup6\n        /* \"#utility.yul\":2486:2562   */\n      tag_45\n      jump\t// in\n    tag_77:\n        /* \"#utility.yul\":2572:2644   */\n      tag_78\n        /* \"#utility.yul\":2640:2642   */\n      0x20\n        /* \"#utility.yul\":2629:2638   */\n      dup4\n        /* \"#utility.yul\":2625:2643   */\n      add\n        /* \"#utility.yul\":2616:2622   */\n      dup5\n        /* \"#utility.yul\":2572:2644   */\n      tag_50\n      jump\t// in\n    tag_78:\n        /* \"#utility.yul\":2309:2651   */\n      swap4\n      swap3\n      pop\n      pop\n      pop\n      jump\t// out\n        /* \"#utility.yul\":2657:2824   */\n    tag_51:\n        /* \"#utility.yul\":2797:2816   */\n      0x4c69676874206d757374206265206f6666000000000000000000000000000000\n        /* \"#utility.yul\":2793:2794   */\n      0x00\n        /* \"#utility.yul\":2785:2791   */\n      dup3\n        /* \"#utility.yul\":2781:2795   */\n      add\n        /* \"#utility.yul\":2774:2817   */\n      mstore\n        /* \"#utility.yul\":2657:2824   */\n      pop\n      jump\t// out\n        /* \"#utility.yul\":2830:3196   */\n    tag_52:\n        /* \"#utility.yul\":2972:2975   */\n      0x00\n        /* \"#utility.yul\":2993:3060   */\n      tag_81\n        /* \"#utility.yul\":3057:3059   */\n      0x11\n        /* \"#utility.yul\":3052:3055   */\n      dup4\n        /* \"#utility.yul\":2993:3060   */\n      tag_46\n      jump\t// in\n    tag_81:\n        /* \"#utility.yul\":2986:3060   */\n      swap2\n      pop\n        /* \"#utility.yul\":3069:3162   */\n      tag_82\n        /* \"#utility.yul\":3158:3161   */\n      dup3\n        /* \"#utility.yul\":3069:3162   */\n      tag_51\n      jump\t// in\n    tag_82:\n        /* \"#utility.yul\":3187:3189   */\n      0x20\n        /* \"#utility.yul\":3182:3185   */\n      dup3\n        /* \"#utility.yul\":3178:3190   */\n      add\n        /* \"#utility.yul\":3171:3190   */\n      swap1\n      pop\n        /* \"#utility.yul\":2830:3196   */\n      swap2\n      swap1\n      pop\n      jump\t// out\n        /* \"#utility.yul\":3202:3621   */\n    tag_36:\n        /* \"#utility.yul\":3368:3372   */\n      0x00\n        /* \"#utility.yul\":3406:3408   */\n      0x20\n        /* \"#utility.yul\":3395:3404   */\n      dup3\n        /* \"#utility.yul\":3391:3409   */\n      add\n        /* \"#utility.yul\":3383:3409   */\n      swap1\n      pop\n        /* \"#utility.yul\":3455:3464   */\n      dup2\n        /* \"#utility.yul\":3449:3453   */\n      dup2\n        /* \"#utility.yul\":3445:3465   */\n      sub\n        /* \"#utility.yul\":3441:3442   */\n      0x00\n        /* \"#utility.yul\":3430:3439   */\n      dup4\n        /* \"#utility.yul\":3426:3443   */\n      add\n        /* \"#utility.yul\":3419:3466   */\n      mstore\n        /* \"#utility.yul\":3483:3614   */\n      tag_84\n        /* \"#utility.yul\":3609:3613   */\n      dup2\n        /* \"#utility.yul\":3483:3614   */\n      tag_52\n      jump\t// in\n    tag_84:\n        /* \"#utility.yul\":3475:3614   */\n      swap1\n      pop\n        /* \"#utility.yul\":3202:3621   */\n      swap2\n      swap1\n      pop\n      jump\t// out\n\n    auxdata: 0xa264697066735822122066561e4e236c2627f3eaef3f5af771a2b58fbb8c7ce83bc74280d839f6f3e2b964736f6c63430008120033\n}\n",
				"bytecode": {
					"linkReferences": {},
					"object": "608060405234801561001057600080fd5b5060016000806101000a81548160ff0219169083600281111561003657610035610040565b5b021790555061006f565b7f4e487b7100000000000000000000000000000000000000000000000000000000600052602160045260246000fd5b6104868061007e6000396000f3fe608060405234801561001057600080fd5b50600436106100415760003560e01c8063af10c81014610046578063ba33ed7d14610050578063dd6fde701461005a575b600080fd5b61004e610078565b005b61005861017d565b005b610062610282565b60405161006f919061030a565b60405180910390f35b6000600281111561008c5761008b610293565b5b60008054906101000a900460ff1660028111156100ac576100ab610293565b5b146100ec576040517f08c379a00000000000000000000000000000000000000000000000000000000081526004016100e390610382565b60405180910390fd5b60016000806101000a81548160ff0219169083600281111561011157610110610293565b5b02179055507fd4f06352cf92b5349e2fa82bb06f38ec4dc9405cbf59deeaafe7b07801fd9c4960008054906101000a900460ff1660008054906101000a900460ff16600281111561016557610164610293565b5b6040516101739291906103bb565b60405180910390a1565b6001600281111561019157610190610293565b5b60008054906101000a900460ff1660028111156101b1576101b0610293565b5b146101f1576040517f08c379a00000000000000000000000000000000000000000000000000000000081526004016101e890610430565b60405180910390fd5b60008060006101000a81548160ff0219169083600281111561021657610215610293565b5b02179055507fd4f06352cf92b5349e2fa82bb06f38ec4dc9405cbf59deeaafe7b07801fd9c4960008054906101000a900460ff1660008054906101000a900460ff16600281111561026a57610269610293565b5b6040516102789291906103bb565b60405180910390a1565b60008054906101000a900460ff1681565b7f4e487b7100000000000000000000000000000000000000000000000000000000600052602160045260246000fd5b600381106102d3576102d2610293565b5b50565b60008190506102e4826102c2565b919050565b60006102f4826102d6565b9050919050565b610304816102e9565b82525050565b600060208201905061031f60008301846102fb565b92915050565b600082825260208201905092915050565b7f4c69676874206d757374206265206f6e00000000000000000000000000000000600082015250565b600061036c601083610325565b915061037782610336565b602082019050919050565b6000602082019050818103600083015261039b8161035f565b9050919050565b6000819050919050565b6103b5816103a2565b82525050565b60006040820190506103d060008301856102fb565b6103dd60208301846103ac565b9392505050565b7f4c69676874206d757374206265206f6666000000000000000000000000000000600082015250565b600061041a601183610325565b9150610425826103e4565b602082019050919050565b600060208201905081810360008301526104498161040d565b905091905056fea264697066735822122066561e4e236c2627f3eaef3f5af771a2b58fbb8c7ce83bc74280d839f6f3e2b964736f6c63430008120033",
					"opcodes": "PUSH1 0x80 PUSH1 0x40 MSTORE CALLVALUE DUP1 ISZERO PUSH2 0x10 JUMPI PUSH1 0x0 DUP1 REVERT JUMPDEST POP PUSH1 0x1 PUSH1 0x0 DUP1 PUSH2 0x100 EXP DUP2 SLOAD DUP2 PUSH1 0xFF MUL NOT AND SWAP1 DUP4 PUSH1 0x2 DUP2 GT ISZERO PUSH2 0x36 JUMPI PUSH2 0x35 PUSH2 0x40 JUMP JUMPDEST JUMPDEST MUL OR SWAP1 SSTORE POP PUSH2 0x6F JUMP JUMPDEST PUSH32 0x4E487B7100000000000000000000000000000000000000000000000000000000 PUSH1 0x0 MSTORE PUSH1 0x21 PUSH1 0x4 MSTORE PUSH1 0x24 PUSH1 0x0 REVERT JUMPDEST PUSH2 0x486 DUP1 PUSH2 0x7E PUSH1 0x0 CODECOPY PUSH1 0x0 RETURN INVALID PUSH1 0x80 PUSH1 0x40 MSTORE CALLVALUE DUP1 ISZERO PUSH2 0x10 JUMPI PUSH1 0x0 DUP1 REVERT JUMPDEST POP PUSH1 0x4 CALLDATASIZE LT PUSH2 0x41 JUMPI PUSH1 0x0 CALLDATALOAD PUSH1 0xE0 SHR DUP1 PUSH4 0xAF10C810 EQ PUSH2 0x46 JUMPI DUP1 PUSH4 0xBA33ED7D EQ PUSH2 0x50 JUMPI DUP1 PUSH4 0xDD6FDE70 EQ PUSH2 0x5A JUMPI JUMPDEST PUSH1 0x0 DUP1 REVERT JUMPDEST PUSH2 0x4E PUSH2 0x78 JUMP JUMPDEST STOP JUMPDEST PUSH2 0x58 PUSH2 0x17D JUMP JUMPDEST STOP JUMPDEST PUSH2 0x62 PUSH2 0x282 JUMP JUMPDEST PUSH1 0x40 MLOAD PUSH2 0x6F SWAP2 SWAP1 PUSH2 0x30A JUMP JUMPDEST PUSH1 0x40 MLOAD DUP1 SWAP2 SUB SWAP1 RETURN JUMPDEST PUSH1 0x0 PUSH1 0x2 DUP2 GT ISZERO PUSH2 0x8C JUMPI PUSH2 0x8B PUSH2 0x293 JUMP JUMPDEST JUMPDEST PUSH1 0x0 DUP1 SLOAD SWAP1 PUSH2 0x100 EXP SWAP1 DIV PUSH1 0xFF AND PUSH1 0x2 DUP2 GT ISZERO PUSH2 0xAC JUMPI PUSH2 0xAB PUSH2 0x293 JUMP JUMPDEST JUMPDEST EQ PUSH2 0xEC JUMPI PUSH1 0x40 MLOAD PUSH32 0x8C379A000000000000000000000000000000000000000000000000000000000 DUP2 MSTORE PUSH1 0x4 ADD PUSH2 0xE3 SWAP1 PUSH2 0x382 JUMP JUMPDEST PUSH1 0x40 MLOAD DUP1 SWAP2 SUB SWAP1 REVERT JUMPDEST PUSH1 0x1 PUSH1 0x0 DUP1 PUSH2 0x100 EXP DUP2 SLOAD DUP2 PUSH1 0xFF MUL NOT AND SWAP1 DUP4 PUSH1 0x2 DUP2 GT ISZERO PUSH2 0x111 JUMPI PUSH2 0x110 PUSH2 0x293 JUMP JUMPDEST JUMPDEST MUL OR SWAP1 SSTORE POP PUSH32 0xD4F06352CF92B5349E2FA82BB06F38EC4DC9405CBF59DEEAAFE7B07801FD9C49 PUSH1 0x0 DUP1 SLOAD SWAP1 PUSH2 0x100 EXP SWAP1 DIV PUSH1 0xFF AND PUSH1 0x0 DUP1 SLOAD SWAP1 PUSH2 0x100 EXP SWAP1 DIV PUSH1 0xFF AND PUSH1 0x2 DUP2 GT ISZERO PUSH2 0x165 JUMPI PUSH2 0x164 PUSH2 0x293 JUMP JUMPDEST JUMPDEST PUSH1 0x40 MLOAD PUSH2 0x173 SWAP3 SWAP2 SWAP1 PUSH2 0x3BB JUMP JUMPDEST PUSH1 0x40 MLOAD DUP1 SWAP2 SUB SWAP1 LOG1 JUMP JUMPDEST PUSH1 0x1 PUSH1 0x2 DUP2 GT ISZERO PUSH2 0x191 JUMPI PUSH2 0x190 PUSH2 0x293 JUMP JUMPDEST JUMPDEST PUSH1 0x0 DUP1 SLOAD SWAP1 PUSH2 0x100 EXP SWAP1 DIV PUSH1 0xFF AND PUSH1 0x2 DUP2 GT ISZERO PUSH2 0x1B1 JUMPI PUSH2 0x1B0 PUSH2 0x293 JUMP JUMPDEST JUMPDEST EQ PUSH2 0x1F1 JUMPI PUSH1 0x40 MLOAD PUSH32 0x8C379A000000000000000000000000000000000000000000000000000000000 DUP2 MSTORE PUSH1 0x4 ADD PUSH2 0x1E8 SWAP1 PUSH2 0x430 JUMP JUMPDEST PUSH1 0x40 MLOAD DUP1 SWAP2 SUB SWAP1 REVERT JUMPDEST PUSH1 0x0 DUP1 PUSH1 0x0 PUSH2 0x100 EXP DUP2 SLOAD DUP2 PUSH1 0xFF MUL NOT AND SWAP1 DUP4 PUSH1 0x2 DUP2 GT ISZERO PUSH2 0x216 JUMPI PUSH2 0x215 PUSH2 0x293 JUMP JUMPDEST JUMPDEST MUL OR SWAP1 SSTORE POP PUSH32 0xD4F06352CF92B5349E2FA82BB06F38EC4DC9405CBF59DEEAAFE7B07801FD9C49 PUSH1 0x0 DUP1 SLOAD SWAP1 PUSH2 0x100 EXP SWAP1 DIV PUSH1 0xFF AND PUSH1 0x0 DUP1 SLOAD SWAP1 PUSH2 0x100 EXP SWAP1 DIV PUSH1 0xFF AND PUSH1 0x2 DUP2 GT ISZERO PUSH2 0x26A JUMPI PUSH2 0x269 PUSH2 0x293 JUMP JUMPDEST JUMPDEST PUSH1 0x40 MLOAD PUSH2 0x278 SWAP3 SWAP2 SWAP1 PUSH2 0x3BB JUMP JUMPDEST PUSH1 0x40 MLOAD DUP1 SWAP2 SUB SWAP1 LOG1 JUMP JUMPDEST PUSH1 0x0 DUP1 SLOAD SWAP1 PUSH2 0x100 EXP SWAP1 DIV PUSH1 0xFF AND DUP2 JUMP JUMPDEST PUSH32 0x4E487B7100000000000000000000000000000000000000000000000000000000 PUSH1 0x0 MSTORE PUSH1 0x21 PUSH1 0x4 MSTORE PUSH1 0x24 PUSH1 0x0 REVERT JUMPDEST PUSH1 0x3 DUP2 LT PUSH2 0x2D3 JUMPI PUSH2 0x2D2 PUSH2 0x293 JUMP JUMPDEST JUMPDEST POP JUMP JUMPDEST PUSH1 0x0 DUP2 SWAP1 POP PUSH2 0x2E4 DUP3 PUSH2 0x2C2 JUMP JUMPDEST SWAP2 SWAP1 POP JUMP JUMPDEST PUSH1 0x0 PUSH2 0x2F4 DUP3 PUSH2 0x2D6 JUMP JUMPDEST SWAP1 POP SWAP2 SWAP1 POP JUMP JUMPDEST PUSH2 0x304 DUP2 PUSH2 0x2E9 JUMP JUMPDEST DUP3 MSTORE POP POP JUMP JUMPDEST PUSH1 0x0 PUSH1 0x20 DUP3 ADD SWAP1 POP PUSH2 0x31F PUSH1 0x0 DUP4 ADD DUP5 PUSH2 0x2FB JUMP JUMPDEST SWAP3 SWAP2 POP POP JUMP JUMPDEST PUSH1 0x0 DUP3 DUP3 MSTORE PUSH1 0x20 DUP3 ADD SWAP1 POP SWAP3 SWAP2 POP POP JUMP JUMPDEST PUSH32 0x4C69676874206D757374206265206F6E00000000000000000000000000000000 PUSH1 0x0 DUP3 ADD MSTORE POP JUMP JUMPDEST PUSH1 0x0 PUSH2 0x36C PUSH1 0x10 DUP4 PUSH2 0x325 JUMP JUMPDEST SWAP2 POP PUSH2 0x377 DUP3 PUSH2 0x336 JUMP JUMPDEST PUSH1 0x20 DUP3 ADD SWAP1 POP SWAP2 SWAP1 POP JUMP JUMPDEST PUSH1 0x0 PUSH1 0x20 DUP3 ADD SWAP1 POP DUP2 DUP2 SUB PUSH1 0x0 DUP4 ADD MSTORE PUSH2 0x39B DUP2 PUSH2 0x35F JUMP JUMPDEST SWAP1 POP SWAP2 SWAP1 POP JUMP JUMPDEST PUSH1 0x0 DUP2 SWAP1 POP SWAP2 SWAP1 POP JUMP JUMPDEST PUSH2 0x3B5 DUP2 PUSH2 0x3A2 JUMP JUMPDEST DUP3 MSTORE POP POP JUMP JUMPDEST PUSH1 0x0 PUSH1 0x40 DUP3 ADD SWAP1 POP PUSH2 0x3D0 PUSH1 0x0 DUP4 ADD DUP6 PUSH2 0x2FB JUMP JUMPDEST PUSH2 0x3DD PUSH1 0x20 DUP4 ADD DUP5 PUSH2 0x3AC JUMP JUMPDEST SWAP4 SWAP3 POP POP POP JUMP JUMPDEST PUSH32 0x4C69676874206D757374206265206F6666000000000000000000000000000000 PUSH1 0x0 DUP3 ADD MSTORE POP JUMP JUMPDEST PUSH1 0x0 PUSH2 0x41A PUSH1 0x11 DUP4 PUSH2 0x325 JUMP JUMPDEST SWAP2 POP PUSH2 0x425 DUP3 PUSH2 0x3E4 JUMP JUMPDEST PUSH1 0x20 DUP3 ADD SWAP1 POP SWAP2 SWAP1 POP JUMP JUMPDEST PUSH1 0x0 PUSH1 0x20 DUP3 ADD SWAP1 POP DUP2 DUP2 SUB PUSH1 0x0 DUP4 ADD MSTORE PUSH2 0x449 DUP2 PUSH2 0x40D JUMP JUMPDEST SWAP1 POP SWAP2 SWAP1 POP JUMP INVALID LOG2 PUSH5 0x6970667358 0x22 SLT KECCAK256 PUSH7 0x561E4E236C2627 RETURN 0xEA 0xEF EXTCODEHASH GAS 0xF7 PUSH18 0xA2B58FBB8C7CE83BC74280D839F6F3E2B964 PUSH20 0x6F6C634300081200330000000000000000000000 "
				},
				"gasEstimates": {
					"creation": {
						"codeDepositCost": "231600",
						"executionCost": "24574",
						"totalCost": "256174"
					},
					"external": {
						"lightStatus()": "2579",
						"turnOff()": "32554",
						"turnOn()": "32576"
					}
				},
				"methodIdentifiers": {
					"lightStatus()": "dd6fde70",
					"turnOff()": "af10c810",
					"turnOn()": "ba33ed7d"
				}
			},
			"storageLayout": {
				"storage": [
					{
						"astId": 8,
						"contract": "Users/user/Desktop/git/solidity/enum.sol:enumEx",
						"label": "lightStatus",
						"offset": 0,
						"slot": "0",
						"type": "t_enum(Light)5"
					}
				],
				"types": {
					"t_enum(Light)5": {
						"encoding": "inplace",
						"label": "enum enumEx.Light",
						"numberOfBytes": "1"
					}
				}
			},
			"userdoc": {
				"kind": "user",
				"methods": {},
				"version": 1
			}
		}
	}
}