{
	"Users/user/Desktop/git/solidity/import.sol": {
		"importEx": {
			"abi": [
				{
					"inputs": [],
					"name": "a",
					"outputs": [
						{
							"internalType": "uint256",
							"name": "",
							"type": "uint256"
						}
					],
					"stateMutability": "view",
					"type": "function"
				},
				{
					"inputs": [
						{
							"internalType": "uint256",
							"name": "_num1",
							"type": "uint256"
						},
						{
							"internalType": "uint256",
							"name": "_num2",
							"type": "uint256"
						}
					],
					"name": "becomeOverflow",
					"outputs": [],
					"stateMutability": "nonpayable",
					"type": "function"
				},
				{
					"inputs": [],
					"name": "max",
					"outputs": [
						{
							"internalType": "uint256",
							"name": "",
							"type": "uint256"
						}
					],
					"stateMutability": "view",
					"type": "function"
				}
			],
			"devdoc": {
				"kind": "dev",
				"methods": {},
				"version": 1
			},
			"evm": {
				"assembly": "    /* \"Users/user/Desktop/git/solidity/import.sol\":278:479  contract importEx{... */\n  mstore(0x40, 0x80)\n    /* \"Users/user/Desktop/git/solidity/import.sol\":346:347  0 */\n  0x00\n    /* \"Users/user/Desktop/git/solidity/import.sol\":330:347  uint public a = 0 */\n  dup1\n  sstore\n    /* \"Users/user/Desktop/git/solidity/import.sol\":371:379  2**256-1 */\n  0xffffffffffffffffffffffffffffffffffffffffffffffffffffffffffffffff\n    /* \"Users/user/Desktop/git/solidity/import.sol\":353:379  uint public max = 2**256-1 */\n  0x01\n  sstore\n    /* \"Users/user/Desktop/git/solidity/import.sol\":278:479  contract importEx{... */\n  callvalue\n  dup1\n  iszero\n  tag_1\n  jumpi\n  0x00\n  dup1\n  revert\ntag_1:\n  pop\n  dataSize(sub_0)\n  dup1\n  dataOffset(sub_0)\n  0x00\n  codecopy\n  0x00\n  return\nstop\n\nsub_0: assembly {\n        /* \"Users/user/Desktop/git/solidity/import.sol\":278:479  contract importEx{... */\n      mstore(0x40, 0x80)\n      callvalue\n      dup1\n      iszero\n      tag_1\n      jumpi\n      0x00\n      dup1\n      revert\n    tag_1:\n      pop\n      jumpi(tag_2, lt(calldatasize, 0x04))\n      shr(0xe0, calldataload(0x00))\n      dup1\n      0x0dbe671f\n      eq\n      tag_3\n      jumpi\n      dup1\n      0x6ac5db19\n      eq\n      tag_4\n      jumpi\n      dup1\n      0xb11ff488\n      eq\n      tag_5\n      jumpi\n    tag_2:\n      0x00\n      dup1\n      revert\n        /* \"Users/user/Desktop/git/solidity/import.sol\":330:347  uint public a = 0 */\n    tag_3:\n      tag_6\n      tag_7\n      jump\t// in\n    tag_6:\n      mload(0x40)\n      dup1\n      dup3\n      dup2\n      mstore\n      0x20\n      add\n      swap2\n      pop\n      pop\n      mload(0x40)\n      dup1\n      swap2\n      sub\n      swap1\n      return\n        /* \"Users/user/Desktop/git/solidity/import.sol\":353:379  uint public max = 2**256-1 */\n    tag_4:\n      tag_8\n      tag_9\n      jump\t// in\n    tag_8:\n      mload(0x40)\n      dup1\n      dup3\n      dup2\n      mstore\n      0x20\n      add\n      swap2\n      pop\n      pop\n      mload(0x40)\n      dup1\n      swap2\n      sub\n      swap1\n      return\n        /* \"Users/user/Desktop/git/solidity/import.sol\":385:477  function becomeOverflow(uint _num1, uint _num2) public {... */\n    tag_5:\n      tag_10\n      0x04\n      dup1\n      calldatasize\n      sub\n      0x40\n      dup2\n      lt\n      iszero\n      tag_11\n      jumpi\n      0x00\n      dup1\n      revert\n    tag_11:\n      dup2\n      add\n      swap1\n      dup1\n      dup1\n      calldataload\n      swap1\n      0x20\n      add\n      swap1\n      swap3\n      swap2\n      swap1\n      dup1\n      calldataload\n      swap1\n      0x20\n      add\n      swap1\n      swap3\n      swap2\n      swap1\n      pop\n      pop\n      pop\n      tag_12\n      jump\t// in\n    tag_10:\n      stop\n        /* \"Users/user/Desktop/git/solidity/import.sol\":330:347  uint public a = 0 */\n    tag_7:\n      sload(0x00)\n      dup2\n      jump\t// out\n        /* \"Users/user/Desktop/git/solidity/import.sol\":353:379  uint public max = 2**256-1 */\n    tag_9:\n      sload(0x01)\n      dup2\n      jump\t// out\n        /* \"Users/user/Desktop/git/solidity/import.sol\":385:477  function becomeOverflow(uint _num1, uint _num2) public {... */\n    tag_12:\n        /* \"Users/user/Desktop/git/solidity/import.sol\":454:470  _num1.add(_num2) */\n      tag_14\n        /* \"Users/user/Desktop/git/solidity/import.sol\":464:469  _num2 */\n      dup2\n        /* \"Users/user/Desktop/git/solidity/import.sol\":454:459  _num1 */\n      dup4\n        /* \"Users/user/Desktop/git/solidity/import.sol\":454:463  _num1.add */\n      tag_15\n      swap1\n        /* \"Users/user/Desktop/git/solidity/import.sol\":454:470  _num1.add(_num2) */\n      swap2\n      swap1\n      0xffffffff\n      and\n      jump\t// in\n    tag_14:\n        /* \"Users/user/Desktop/git/solidity/import.sol\":450:451  a */\n      0x00\n        /* \"Users/user/Desktop/git/solidity/import.sol\":450:470  a = _num1.add(_num2) */\n      dup2\n      swap1\n      sstore\n      pop\n        /* \"Users/user/Desktop/git/solidity/import.sol\":385:477  function becomeOverflow(uint _num1, uint _num2) public {... */\n      pop\n      pop\n      jump\t// out\n        /* \"https://github.com/OpenZeppelin/openzeppelin-contracts/blob/docs-v3.x/contracts/math/SafeMath.sol\":2690:2865  function add(uint256 a, uint256 b) internal pure returns (uint256) {... */\n    tag_15:\n        /* \"https://github.com/OpenZeppelin/openzeppelin-contracts/blob/docs-v3.x/contracts/math/SafeMath.sol\":2748:2755  uint256 */\n      0x00\n        /* \"https://github.com/OpenZeppelin/openzeppelin-contracts/blob/docs-v3.x/contracts/math/SafeMath.sol\":2767:2776  uint256 c */\n      dup1\n        /* \"https://github.com/OpenZeppelin/openzeppelin-contracts/blob/docs-v3.x/contracts/math/SafeMath.sol\":2783:2784  b */\n      dup3\n        /* \"https://github.com/OpenZeppelin/openzeppelin-contracts/blob/docs-v3.x/contracts/math/SafeMath.sol\":2779:2780  a */\n      dup5\n        /* \"https://github.com/OpenZeppelin/openzeppelin-contracts/blob/docs-v3.x/contracts/math/SafeMath.sol\":2779:2784  a + b */\n      add\n        /* \"https://github.com/OpenZeppelin/openzeppelin-contracts/blob/docs-v3.x/contracts/math/SafeMath.sol\":2767:2784  uint256 c = a + b */\n      swap1\n      pop\n        /* \"https://github.com/OpenZeppelin/openzeppelin-contracts/blob/docs-v3.x/contracts/math/SafeMath.sol\":2807:2808  a */\n      dup4\n        /* \"https://github.com/OpenZeppelin/openzeppelin-contracts/blob/docs-v3.x/contracts/math/SafeMath.sol\":2802:2803  c */\n      dup2\n        /* \"https://github.com/OpenZeppelin/openzeppelin-contracts/blob/docs-v3.x/contracts/math/SafeMath.sol\":2802:2808  c >= a */\n      lt\n      iszero\n        /* \"https://github.com/OpenZeppelin/openzeppelin-contracts/blob/docs-v3.x/contracts/math/SafeMath.sol\":2794:2840  require(c >= a, \"SafeMath: addition overflow\") */\n      tag_17\n      jumpi\n      mload(0x40)\n      0x08c379a000000000000000000000000000000000000000000000000000000000\n      dup2\n      mstore\n      0x04\n      add\n      dup1\n      dup1\n      0x20\n      add\n      dup3\n      dup2\n      sub\n      dup3\n      mstore\n      0x1b\n      dup2\n      mstore\n      0x20\n      add\n      dup1\n      0x536166654d6174683a206164646974696f6e206f766572666c6f770000000000\n      dup2\n      mstore\n      pop\n      0x20\n      add\n      swap2\n      pop\n      pop\n      mload(0x40)\n      dup1\n      swap2\n      sub\n      swap1\n      revert\n    tag_17:\n        /* \"https://github.com/OpenZeppelin/openzeppelin-contracts/blob/docs-v3.x/contracts/math/SafeMath.sol\":2857:2858  c */\n      dup1\n        /* \"https://github.com/OpenZeppelin/openzeppelin-contracts/blob/docs-v3.x/contracts/math/SafeMath.sol\":2850:2858  return c */\n      swap2\n      pop\n      pop\n        /* \"https://github.com/OpenZeppelin/openzeppelin-contracts/blob/docs-v3.x/contracts/math/SafeMath.sol\":2690:2865  function add(uint256 a, uint256 b) internal pure returns (uint256) {... */\n      swap3\n      swap2\n      pop\n      pop\n      jump\t// out\n\n    auxdata: 0xa2646970667358221220c52960bf4184d80677e3412244071590f1c8a1d56f4e392582bd0ae405cf04ec64736f6c63430007060033\n}\n",
				"bytecode": {
					"linkReferences": {},
					"object": "6080604052600080557fffffffffffffffffffffffffffffffffffffffffffffffffffffffffffffffff60015534801561003857600080fd5b506101a1806100486000396000f3fe608060405234801561001057600080fd5b50600436106100415760003560e01c80630dbe671f146100465780636ac5db1914610064578063b11ff48814610082575b600080fd5b61004e6100ba565b6040518082815260200191505060405180910390f35b61006c6100c0565b6040518082815260200191505060405180910390f35b6100b86004803603604081101561009857600080fd5b8101908080359060200190929190803590602001909291905050506100c6565b005b60005481565b60015481565b6100d981836100e390919063ffffffff16565b6000819055505050565b600080828401905083811015610161576040517f08c379a000000000000000000000000000000000000000000000000000000000815260040180806020018281038252601b8152602001807f536166654d6174683a206164646974696f6e206f766572666c6f77000000000081525060200191505060405180910390fd5b809150509291505056fea2646970667358221220c52960bf4184d80677e3412244071590f1c8a1d56f4e392582bd0ae405cf04ec64736f6c63430007060033",
					"opcodes": "PUSH1 0x80 PUSH1 0x40 MSTORE PUSH1 0x0 DUP1 SSTORE PUSH32 0xFFFFFFFFFFFFFFFFFFFFFFFFFFFFFFFFFFFFFFFFFFFFFFFFFFFFFFFFFFFFFFFF PUSH1 0x1 SSTORE CALLVALUE DUP1 ISZERO PUSH2 0x38 JUMPI PUSH1 0x0 DUP1 REVERT JUMPDEST POP PUSH2 0x1A1 DUP1 PUSH2 0x48 PUSH1 0x0 CODECOPY PUSH1 0x0 RETURN INVALID PUSH1 0x80 PUSH1 0x40 MSTORE CALLVALUE DUP1 ISZERO PUSH2 0x10 JUMPI PUSH1 0x0 DUP1 REVERT JUMPDEST POP PUSH1 0x4 CALLDATASIZE LT PUSH2 0x41 JUMPI PUSH1 0x0 CALLDATALOAD PUSH1 0xE0 SHR DUP1 PUSH4 0xDBE671F EQ PUSH2 0x46 JUMPI DUP1 PUSH4 0x6AC5DB19 EQ PUSH2 0x64 JUMPI DUP1 PUSH4 0xB11FF488 EQ PUSH2 0x82 JUMPI JUMPDEST PUSH1 0x0 DUP1 REVERT JUMPDEST PUSH2 0x4E PUSH2 0xBA JUMP JUMPDEST PUSH1 0x40 MLOAD DUP1 DUP3 DUP2 MSTORE PUSH1 0x20 ADD SWAP2 POP POP PUSH1 0x40 MLOAD DUP1 SWAP2 SUB SWAP1 RETURN JUMPDEST PUSH2 0x6C PUSH2 0xC0 JUMP JUMPDEST PUSH1 0x40 MLOAD DUP1 DUP3 DUP2 MSTORE PUSH1 0x20 ADD SWAP2 POP POP PUSH1 0x40 MLOAD DUP1 SWAP2 SUB SWAP1 RETURN JUMPDEST PUSH2 0xB8 PUSH1 0x4 DUP1 CALLDATASIZE SUB PUSH1 0x40 DUP2 LT ISZERO PUSH2 0x98 JUMPI PUSH1 0x0 DUP1 REVERT JUMPDEST DUP2 ADD SWAP1 DUP1 DUP1 CALLDATALOAD SWAP1 PUSH1 0x20 ADD SWAP1 SWAP3 SWAP2 SWAP1 DUP1 CALLDATALOAD SWAP1 PUSH1 0x20 ADD SWAP1 SWAP3 SWAP2 SWAP1 POP POP POP PUSH2 0xC6 JUMP JUMPDEST STOP JUMPDEST PUSH1 0x0 SLOAD DUP2 JUMP JUMPDEST PUSH1 0x1 SLOAD DUP2 JUMP JUMPDEST PUSH2 0xD9 DUP2 DUP4 PUSH2 0xE3 SWAP1 SWAP2 SWAP1 PUSH4 0xFFFFFFFF AND JUMP JUMPDEST PUSH1 0x0 DUP2 SWAP1 SSTORE POP POP POP JUMP JUMPDEST PUSH1 0x0 DUP1 DUP3 DUP5 ADD SWAP1 POP DUP4 DUP2 LT ISZERO PUSH2 0x161 JUMPI PUSH1 0x40 MLOAD PUSH32 0x8C379A000000000000000000000000000000000000000000000000000000000 DUP2 MSTORE PUSH1 0x4 ADD DUP1 DUP1 PUSH1 0x20 ADD DUP3 DUP2 SUB DUP3 MSTORE PUSH1 0x1B DUP2 MSTORE PUSH1 0x20 ADD DUP1 PUSH32 0x536166654D6174683A206164646974696F6E206F766572666C6F770000000000 DUP2 MSTORE POP PUSH1 0x20 ADD SWAP2 POP POP PUSH1 0x40 MLOAD DUP1 SWAP2 SUB SWAP1 REVERT JUMPDEST DUP1 SWAP2 POP POP SWAP3 SWAP2 POP POP JUMP INVALID LOG2 PUSH5 0x6970667358 0x22 SLT KECCAK256 0xC5 0x29 PUSH1 0xBF COINBASE DUP5 0xD8 MOD PUSH24 0xE3412244071590F1C8A1D56F4E392582BD0AE405CF04EC64 PUSH20 0x6F6C634300070600330000000000000000000000 "
				},
				"gasEstimates": {
					"creation": {
						"codeDepositCost": "83400",
						"executionCost": "25147",
						"totalCost": "108547"
					},
					"external": {
						"a()": "983",
						"becomeOverflow(uint256,uint256)": "infinite",
						"max()": "1005"
					}
				},
				"methodIdentifiers": {
					"a()": "0dbe671f",
					"becomeOverflow(uint256,uint256)": "b11ff488",
					"max()": "6ac5db19"
				}
			},
			"storageLayout": {
				"storage": [
					{
						"astId": 8,
						"contract": "Users/user/Desktop/git/solidity/import.sol:importEx",
						"label": "a",
						"offset": 0,
						"slot": "0",
						"type": "t_uint256"
					},
					{
						"astId": 15,
						"contract": "Users/user/Desktop/git/solidity/import.sol:importEx",
						"label": "max",
						"offset": 0,
						"slot": "1",
						"type": "t_uint256"
					}
				],
				"types": {
					"t_uint256": {
						"encoding": "inplace",
						"label": "uint256",
						"numberOfBytes": "32"
					}
				}
			},
			"userdoc": {
				"kind": "user",
				"methods": {},
				"version": 1
			}
		}
	}
}