{
	"lecture/lecture/MappingAndArray.sol": {
		"MappingAndArray": {
			"abi": [
				{
					"inputs": [
						{
							"internalType": "uint256",
							"name": "",
							"type": "uint256"
						}
					],
					"name": "HumanArray",
					"outputs": [
						{
							"internalType": "string",
							"name": "name",
							"type": "string"
						},
						{
							"internalType": "uint256",
							"name": "age",
							"type": "uint256"
						}
					],
					"stateMutability": "view",
					"type": "function"
				},
				{
					"inputs": [
						{
							"internalType": "address",
							"name": "",
							"type": "address"
						}
					],
					"name": "a",
					"outputs": [
						{
							"internalType": "uint256",
							"name": "",
							"type": "uint256"
						}
					],
					"stateMutability": "view",
					"type": "function"
				},
				{
					"inputs": [
						{
							"internalType": "uint256",
							"name": "_value",
							"type": "uint256"
						}
					],
					"name": "addArray",
					"outputs": [],
					"stateMutability": "nonpayable",
					"type": "function"
				},
				{
					"inputs": [
						{
							"internalType": "address",
							"name": "_key",
							"type": "address"
						},
						{
							"internalType": "uint256",
							"name": "_value",
							"type": "uint256"
						}
					],
					"name": "addMapping",
					"outputs": [],
					"stateMutability": "nonpayable",
					"type": "function"
				},
				{
					"inputs": [
						{
							"internalType": "address",
							"name": "_key",
							"type": "address"
						},
						{
							"internalType": "uint256",
							"name": "_value",
							"type": "uint256"
						}
					],
					"name": "changeMapping",
					"outputs": [],
					"stateMutability": "nonpayable",
					"type": "function"
				},
				{
					"inputs": [
						{
							"internalType": "string",
							"name": "name",
							"type": "string"
						},
						{
							"internalType": "uint256",
							"name": "age",
							"type": "uint256"
						}
					],
					"name": "createHuman",
					"outputs": [
						{
							"components": [
								{
									"internalType": "string",
									"name": "name",
									"type": "string"
								},
								{
									"internalType": "uint256",
									"name": "age",
									"type": "uint256"
								}
							],
							"internalType": "struct MappingAndArray.Human",
							"name": "",
							"type": "tuple"
						}
					],
					"stateMutability": "nonpayable",
					"type": "function"
				},
				{
					"inputs": [
						{
							"internalType": "address",
							"name": "_key",
							"type": "address"
						}
					],
					"name": "deleteMapping",
					"outputs": [],
					"stateMutability": "nonpayable",
					"type": "function"
				},
				{
					"inputs": [
						{
							"internalType": "uint256",
							"name": "",
							"type": "uint256"
						}
					],
					"name": "exArray",
					"outputs": [
						{
							"internalType": "uint256",
							"name": "",
							"type": "uint256"
						}
					],
					"stateMutability": "view",
					"type": "function"
				},
				{
					"inputs": [
						{
							"internalType": "uint256",
							"name": "_index",
							"type": "uint256"
						}
					],
					"name": "getArray",
					"outputs": [
						{
							"internalType": "uint256",
							"name": "",
							"type": "uint256"
						}
					],
					"stateMutability": "view",
					"type": "function"
				},
				{
					"inputs": [
						{
							"internalType": "address",
							"name": "_key",
							"type": "address"
						}
					],
					"name": "getMapping",
					"outputs": [
						{
							"internalType": "uint256",
							"name": "",
							"type": "uint256"
						}
					],
					"stateMutability": "view",
					"type": "function"
				},
				{
					"inputs": [
						{
							"internalType": "uint256",
							"name": "",
							"type": "uint256"
						}
					],
					"name": "humanMapping",
					"outputs": [
						{
							"internalType": "string",
							"name": "name",
							"type": "string"
						},
						{
							"internalType": "uint256",
							"name": "age",
							"type": "uint256"
						}
					],
					"stateMutability": "view",
					"type": "function"
				}
			],
			"devdoc": {
				"kind": "dev",
				"methods": {},
				"version": 1
			},
			"evm": {
				"assembly": "    /* \"lecture/lecture/MappingAndArray.sol\":58:1742  contract MappingAndArray {... */\n  mstore(0x40, 0x80)\n    /* \"lecture/lecture/MappingAndArray.sol\":992:1026  uint256[] public exArray = [1,2,3] */\n  mload(0x40)\n  dup1\n  0x60\n  add\n  0x40\n  mstore\n  dup1\n    /* \"lecture/lecture/MappingAndArray.sol\":1020:1021  1 */\n  0x01\n    /* \"lecture/lecture/MappingAndArray.sol\":992:1026  uint256[] public exArray = [1,2,3] */\n  0xff\n  and\n  dup2\n  mstore\n  0x20\n  add\n    /* \"lecture/lecture/MappingAndArray.sol\":1022:1023  2 */\n  0x02\n    /* \"lecture/lecture/MappingAndArray.sol\":992:1026  uint256[] public exArray = [1,2,3] */\n  0xff\n  and\n  dup2\n  mstore\n  0x20\n  add\n    /* \"lecture/lecture/MappingAndArray.sol\":1024:1025  3 */\n  0x03\n    /* \"lecture/lecture/MappingAndArray.sol\":992:1026  uint256[] public exArray = [1,2,3] */\n  0xff\n  and\n  dup2\n  mstore\n  pop\n  0x01\n  swap1\n  0x03\n  tag_1\n  swap3\n  swap2\n  swap1\n  tag_2\n  jump\t// in\ntag_1:\n  pop\n    /* \"lecture/lecture/MappingAndArray.sol\":58:1742  contract MappingAndArray {... */\n  callvalue\n  dup1\n  iszero\n  tag_3\n  jumpi\n  0x00\n  dup1\n  revert\ntag_3:\n  pop\n  jump(tag_4)\ntag_2:\n  dup3\n  dup1\n  sload\n  dup3\n  dup3\n  sstore\n  swap1\n  0x00\n  mstore\n  keccak256(0x00, 0x20)\n  swap1\n  dup2\n  add\n  swap3\n  dup3\n  iszero\n  tag_5\n  jumpi\n  swap2\n  0x20\n  mul\n  dup3\n  add\ntag_6:\n  dup3\n  dup2\n  gt\n  iszero\n  tag_7\n  jumpi\n  dup3\n  mload\n  dup3\n  swap1\n  0xff\n  and\n  swap1\n  sstore\n  swap2\n  0x20\n  add\n  swap2\n  swap1\n  0x01\n  add\n  swap1\n  jump(tag_6)\ntag_7:\ntag_5:\n  pop\n  swap1\n  pop\n  tag_8\n  swap2\n  swap1\n  tag_9\n  jump\t// in\ntag_8:\n  pop\n  swap1\n  jump\t// out\ntag_9:\ntag_10:\n  dup1\n  dup3\n  gt\n  iszero\n  tag_11\n  jumpi\n  0x00\n  dup2\n  0x00\n  swap1\n  sstore\n  pop\n  0x01\n  add\n  jump(tag_10)\ntag_11:\n  pop\n  swap1\n  jump\t// out\ntag_4:\n  dataSize(sub_0)\n  dup1\n  dataOffset(sub_0)\n  0x00\n  codecopy\n  0x00\n  return\nstop\n\nsub_0: assembly {\n        /* \"lecture/lecture/MappingAndArray.sol\":58:1742  contract MappingAndArray {... */\n      mstore(0x40, 0x80)\n      callvalue\n      dup1\n      iszero\n      tag_1\n      jumpi\n      0x00\n      dup1\n      revert\n    tag_1:\n      pop\n      jumpi(tag_2, lt(calldatasize, 0x04))\n      shr(0xe0, calldataload(0x00))\n      dup1\n      0x7f879e20\n      gt\n      tag_14\n      jumpi\n      dup1\n      0x7f879e20\n      eq\n      tag_8\n      jumpi\n      dup1\n      0xaa0a9171\n      eq\n      tag_9\n      jumpi\n      dup1\n      0xab35ec63\n      eq\n      tag_10\n      jumpi\n      dup1\n      0xc68d81e0\n      eq\n      tag_11\n      jumpi\n      dup1\n      0xd6b497c5\n      eq\n      tag_12\n      jumpi\n      dup1\n      0xf3800b38\n      eq\n      tag_13\n      jumpi\n      jump(tag_2)\n    tag_14:\n      dup1\n      0x14a0bdb3\n      eq\n      tag_3\n      jumpi\n      dup1\n      0x1796fbcf\n      eq\n      tag_4\n      jumpi\n      dup1\n      0x49c5460f\n      eq\n      tag_5\n      jumpi\n      dup1\n      0x67f64554\n      eq\n      tag_6\n      jumpi\n      dup1\n      0x72233c5e\n      eq\n      tag_7\n      jumpi\n    tag_2:\n      0x00\n      dup1\n      revert\n        /* \"lecture/lecture/MappingAndArray.sol\":339:428  function addMapping(address _key, uint _value) public {... */\n    tag_3:\n      tag_15\n      0x04\n      dup1\n      calldatasize\n      sub\n      dup2\n      add\n      swap1\n      tag_16\n      swap2\n      swap1\n      tag_17\n      jump\t// in\n    tag_16:\n      tag_18\n      jump\t// in\n    tag_15:\n      stop\n        /* \"lecture/lecture/MappingAndArray.sol\":1543:1739  function createHuman(string memory name, uint age) public returns (Human memory) {... */\n    tag_4:\n      tag_19\n      0x04\n      dup1\n      calldatasize\n      sub\n      dup2\n      add\n      swap1\n      tag_20\n      swap2\n      swap1\n      tag_21\n      jump\t// in\n    tag_20:\n      tag_22\n      jump\t// in\n    tag_19:\n      mload(0x40)\n      tag_23\n      swap2\n      swap1\n      tag_24\n      jump\t// in\n    tag_23:\n      mload(0x40)\n      dup1\n      swap2\n      sub\n      swap1\n      return\n        /* \"lecture/lecture/MappingAndArray.sol\":1457:1502  mapping(uint256 => Human) public humanMapping */\n    tag_5:\n      tag_25\n      0x04\n      dup1\n      calldatasize\n      sub\n      dup2\n      add\n      swap1\n      tag_26\n      swap2\n      swap1\n      tag_27\n      jump\t// in\n    tag_26:\n      tag_28\n      jump\t// in\n    tag_25:\n      mload(0x40)\n      tag_29\n      swap3\n      swap2\n      swap1\n      tag_30\n      jump\t// in\n    tag_29:\n      mload(0x40)\n      dup1\n      swap2\n      sub\n      swap1\n      return\n        /* \"lecture/lecture/MappingAndArray.sol\":992:1026  uint256[] public exArray = [1,2,3] */\n    tag_6:\n      tag_31\n      0x04\n      dup1\n      calldatasize\n      sub\n      dup2\n      add\n      swap1\n      tag_32\n      swap2\n      swap1\n      tag_27\n      jump\t// in\n    tag_32:\n      tag_33\n      jump\t// in\n    tag_31:\n      mload(0x40)\n      tag_34\n      swap2\n      swap1\n      tag_35\n      jump\t// in\n    tag_34:\n      mload(0x40)\n      dup1\n      swap2\n      sub\n      swap1\n      return\n        /* \"lecture/lecture/MappingAndArray.sol\":436:529  function getMapping(address _key) public view returns(uint) {... */\n    tag_7:\n      tag_36\n      0x04\n      dup1\n      calldatasize\n      sub\n      dup2\n      add\n      swap1\n      tag_37\n      swap2\n      swap1\n      tag_38\n      jump\t// in\n    tag_37:\n      tag_39\n      jump\t// in\n    tag_36:\n      mload(0x40)\n      tag_40\n      swap2\n      swap1\n      tag_35\n      jump\t// in\n    tag_40:\n      mload(0x40)\n      dup1\n      swap2\n      sub\n      swap1\n      return\n        /* \"lecture/lecture/MappingAndArray.sol\":1509:1534  Human[] public HumanArray */\n    tag_8:\n      tag_41\n      0x04\n      dup1\n      calldatasize\n      sub\n      dup2\n      add\n      swap1\n      tag_42\n      swap2\n      swap1\n      tag_27\n      jump\t// in\n    tag_42:\n      tag_43\n      jump\t// in\n    tag_41:\n      mload(0x40)\n      tag_44\n      swap3\n      swap2\n      swap1\n      tag_30\n      jump\t// in\n    tag_44:\n      mload(0x40)\n      dup1\n      swap2\n      sub\n      swap1\n      return\n        /* \"lecture/lecture/MappingAndArray.sol\":1033:1110  function addArray(uint _value) public {... */\n    tag_9:\n      tag_45\n      0x04\n      dup1\n      calldatasize\n      sub\n      dup2\n      add\n      swap1\n      tag_46\n      swap2\n      swap1\n      tag_27\n      jump\t// in\n    tag_46:\n      tag_47\n      jump\t// in\n    tag_45:\n      stop\n        /* \"lecture/lecture/MappingAndArray.sol\":1118:1216  function getArray(uint _index) public view returns(uint) {... */\n    tag_10:\n      tag_48\n      0x04\n      dup1\n      calldatasize\n      sub\n      dup2\n      add\n      swap1\n      tag_49\n      swap2\n      swap1\n      tag_27\n      jump\t// in\n    tag_49:\n      tag_50\n      jump\t// in\n    tag_48:\n      mload(0x40)\n      tag_51\n      swap2\n      swap1\n      tag_35\n      jump\t// in\n    tag_51:\n      mload(0x40)\n      dup1\n      swap2\n      sub\n      swap1\n      return\n        /* \"lecture/lecture/MappingAndArray.sol\":297:330  mapping(address => uint) public a */\n    tag_11:\n      tag_52\n      0x04\n      dup1\n      calldatasize\n      sub\n      dup2\n      add\n      swap1\n      tag_53\n      swap2\n      swap1\n      tag_38\n      jump\t// in\n    tag_53:\n      tag_54\n      jump\t// in\n    tag_52:\n      mload(0x40)\n      tag_55\n      swap2\n      swap1\n      tag_35\n      jump\t// in\n    tag_55:\n      mload(0x40)\n      dup1\n      swap2\n      sub\n      swap1\n      return\n        /* \"lecture/lecture/MappingAndArray.sol\":642:734  function changeMapping(address _key, uint _value) public {... */\n    tag_12:\n      tag_56\n      0x04\n      dup1\n      calldatasize\n      sub\n      dup2\n      add\n      swap1\n      tag_57\n      swap2\n      swap1\n      tag_17\n      jump\t// in\n    tag_57:\n      tag_58\n      jump\t// in\n    tag_56:\n      stop\n        /* \"lecture/lecture/MappingAndArray.sol\":537:634  function deleteMapping(address _key) public {... */\n    tag_13:\n      tag_59\n      0x04\n      dup1\n      calldatasize\n      sub\n      dup2\n      add\n      swap1\n      tag_60\n      swap2\n      swap1\n      tag_38\n      jump\t// in\n    tag_60:\n      tag_61\n      jump\t// in\n    tag_59:\n      stop\n        /* \"lecture/lecture/MappingAndArray.sol\":339:428  function addMapping(address _key, uint _value) public {... */\n    tag_18:\n        /* \"lecture/lecture/MappingAndArray.sol\":414:420  _value */\n      dup1\n        /* \"lecture/lecture/MappingAndArray.sol\":404:405  a */\n      0x00\n        /* \"lecture/lecture/MappingAndArray.sol\":404:411  a[_key] */\n      dup1\n        /* \"lecture/lecture/MappingAndArray.sol\":406:410  _key */\n      dup5\n        /* \"lecture/lecture/MappingAndArray.sol\":404:411  a[_key] */\n      0xffffffffffffffffffffffffffffffffffffffff\n      and\n      0xffffffffffffffffffffffffffffffffffffffff\n      and\n      dup2\n      mstore\n      0x20\n      add\n      swap1\n      dup2\n      mstore\n      0x20\n      add\n      0x00\n      keccak256\n        /* \"lecture/lecture/MappingAndArray.sol\":404:420  a[_key] = _value */\n      dup2\n      swap1\n      sstore\n      pop\n        /* \"lecture/lecture/MappingAndArray.sol\":339:428  function addMapping(address _key, uint _value) public {... */\n      pop\n      pop\n      jump\t// out\n        /* \"lecture/lecture/MappingAndArray.sol\":1543:1739  function createHuman(string memory name, uint age) public returns (Human memory) {... */\n    tag_22:\n        /* \"lecture/lecture/MappingAndArray.sol\":1610:1622  Human memory */\n      tag_63\n      tag_64\n      jump\t// in\n    tag_63:\n        /* \"lecture/lecture/MappingAndArray.sol\":1635:1654  Human memory _human */\n      0x00\n        /* \"lecture/lecture/MappingAndArray.sol\":1657:1673  Human(name, age) */\n      mload(0x40)\n      dup1\n      0x40\n      add\n      0x40\n      mstore\n      dup1\n        /* \"lecture/lecture/MappingAndArray.sol\":1663:1667  name */\n      dup6\n        /* \"lecture/lecture/MappingAndArray.sol\":1657:1673  Human(name, age) */\n      dup2\n      mstore\n      0x20\n      add\n        /* \"lecture/lecture/MappingAndArray.sol\":1669:1672  age */\n      dup5\n        /* \"lecture/lecture/MappingAndArray.sol\":1657:1673  Human(name, age) */\n      dup2\n      mstore\n      pop\n        /* \"lecture/lecture/MappingAndArray.sol\":1635:1673  Human memory _human = Human(name, age) */\n      swap1\n      pop\n        /* \"lecture/lecture/MappingAndArray.sol\":1684:1694  HumanArray */\n      0x03\n        /* \"lecture/lecture/MappingAndArray.sol\":1700:1706  _human */\n      dup2\n        /* \"lecture/lecture/MappingAndArray.sol\":1684:1707  HumanArray.push(_human) */\n      swap1\n      dup1\n      0x01\n      dup2\n      sload\n      add\n      dup1\n      dup3\n      sstore\n      dup1\n      swap2\n      pop\n      pop\n      0x01\n      swap1\n      sub\n      swap1\n      0x00\n      mstore\n      keccak256(0x00, 0x20)\n      swap1\n      0x02\n      mul\n      add\n      0x00\n      swap1\n      swap2\n      swap1\n      swap2\n      swap1\n      swap2\n      pop\n      0x00\n      dup3\n      add\n      mload\n      dup2\n      0x00\n      add\n      swap1\n      dup2\n      tag_67\n      swap2\n      swap1\n      tag_68\n      jump\t// in\n    tag_67:\n      pop\n      0x20\n      dup3\n      add\n      mload\n      dup2\n      0x01\n      add\n      sstore\n      pop\n      pop\n        /* \"lecture/lecture/MappingAndArray.sol\":1725:1731  _human */\n      dup1\n        /* \"lecture/lecture/MappingAndArray.sol\":1718:1731  return _human */\n      swap2\n      pop\n      pop\n        /* \"lecture/lecture/MappingAndArray.sol\":1543:1739  function createHuman(string memory name, uint age) public returns (Human memory) {... */\n      swap3\n      swap2\n      pop\n      pop\n      jump\t// out\n        /* \"lecture/lecture/MappingAndArray.sol\":1457:1502  mapping(uint256 => Human) public humanMapping */\n    tag_28:\n      mstore(0x20, 0x02)\n      dup1\n      0x00\n      mstore\n      keccak256(0x00, 0x40)\n      0x00\n      swap2\n      pop\n      swap1\n      pop\n      dup1\n      0x00\n      add\n      dup1\n      sload\n      tag_69\n      swap1\n      tag_70\n      jump\t// in\n    tag_69:\n      dup1\n      0x1f\n      add\n      0x20\n      dup1\n      swap2\n      div\n      mul\n      0x20\n      add\n      mload(0x40)\n      swap1\n      dup2\n      add\n      0x40\n      mstore\n      dup1\n      swap3\n      swap2\n      swap1\n      dup2\n      dup2\n      mstore\n      0x20\n      add\n      dup3\n      dup1\n      sload\n      tag_71\n      swap1\n      tag_70\n      jump\t// in\n    tag_71:\n      dup1\n      iszero\n      tag_72\n      jumpi\n      dup1\n      0x1f\n      lt\n      tag_73\n      jumpi\n      0x0100\n      dup1\n      dup4\n      sload\n      div\n      mul\n      dup4\n      mstore\n      swap2\n      0x20\n      add\n      swap2\n      jump(tag_72)\n    tag_73:\n      dup3\n      add\n      swap2\n      swap1\n      0x00\n      mstore\n      keccak256(0x00, 0x20)\n      swap1\n    tag_74:\n      dup2\n      sload\n      dup2\n      mstore\n      swap1\n      0x01\n      add\n      swap1\n      0x20\n      add\n      dup1\n      dup4\n      gt\n      tag_74\n      jumpi\n      dup3\n      swap1\n      sub\n      0x1f\n      and\n      dup3\n      add\n      swap2\n    tag_72:\n      pop\n      pop\n      pop\n      pop\n      pop\n      swap1\n      dup1\n      0x01\n      add\n      sload\n      swap1\n      pop\n      dup3\n      jump\t// out\n        /* \"lecture/lecture/MappingAndArray.sol\":992:1026  uint256[] public exArray = [1,2,3] */\n    tag_33:\n      0x01\n      dup2\n      dup2\n      sload\n      dup2\n      lt\n      tag_75\n      jumpi\n      0x00\n      dup1\n      revert\n    tag_75:\n      swap1\n      0x00\n      mstore\n      keccak256(0x00, 0x20)\n      add\n      0x00\n      swap2\n      pop\n      swap1\n      pop\n      sload\n      dup2\n      jump\t// out\n        /* \"lecture/lecture/MappingAndArray.sol\":436:529  function getMapping(address _key) public view returns(uint) {... */\n    tag_39:\n        /* \"lecture/lecture/MappingAndArray.sol\":490:494  uint */\n      0x00\n        /* \"lecture/lecture/MappingAndArray.sol\":514:515  a */\n      dup1\n        /* \"lecture/lecture/MappingAndArray.sol\":514:521  a[_key] */\n      0x00\n        /* \"lecture/lecture/MappingAndArray.sol\":516:520  _key */\n      dup4\n        /* \"lecture/lecture/MappingAndArray.sol\":514:521  a[_key] */\n      0xffffffffffffffffffffffffffffffffffffffff\n      and\n      0xffffffffffffffffffffffffffffffffffffffff\n      and\n      dup2\n      mstore\n      0x20\n      add\n      swap1\n      dup2\n      mstore\n      0x20\n      add\n      0x00\n      keccak256\n      sload\n        /* \"lecture/lecture/MappingAndArray.sol\":507:521  return a[_key] */\n      swap1\n      pop\n        /* \"lecture/lecture/MappingAndArray.sol\":436:529  function getMapping(address _key) public view returns(uint) {... */\n      swap2\n      swap1\n      pop\n      jump\t// out\n        /* \"lecture/lecture/MappingAndArray.sol\":1509:1534  Human[] public HumanArray */\n    tag_43:\n      0x03\n      dup2\n      dup2\n      sload\n      dup2\n      lt\n      tag_78\n      jumpi\n      0x00\n      dup1\n      revert\n    tag_78:\n      swap1\n      0x00\n      mstore\n      keccak256(0x00, 0x20)\n      swap1\n      0x02\n      mul\n      add\n      0x00\n      swap2\n      pop\n      swap1\n      pop\n      dup1\n      0x00\n      add\n      dup1\n      sload\n      tag_80\n      swap1\n      tag_70\n      jump\t// in\n    tag_80:\n      dup1\n      0x1f\n      add\n      0x20\n      dup1\n      swap2\n      div\n      mul\n      0x20\n      add\n      mload(0x40)\n      swap1\n      dup2\n      add\n      0x40\n      mstore\n      dup1\n      swap3\n      swap2\n      swap1\n      dup2\n      dup2\n      mstore\n      0x20\n      add\n      dup3\n      dup1\n      sload\n      tag_81\n      swap1\n      tag_70\n      jump\t// in\n    tag_81:\n      dup1\n      iszero\n      tag_82\n      jumpi\n      dup1\n      0x1f\n      lt\n      tag_83\n      jumpi\n      0x0100\n      dup1\n      dup4\n      sload\n      div\n      mul\n      dup4\n      mstore\n      swap2\n      0x20\n      add\n      swap2\n      jump(tag_82)\n    tag_83:\n      dup3\n      add\n      swap2\n      swap1\n      0x00\n      mstore\n      keccak256(0x00, 0x20)\n      swap1\n    tag_84:\n      dup2\n      sload\n      dup2\n      mstore\n      swap1\n      0x01\n      add\n      swap1\n      0x20\n      add\n      dup1\n      dup4\n      gt\n      tag_84\n      jumpi\n      dup3\n      swap1\n      sub\n      0x1f\n      and\n      dup3\n      add\n      swap2\n    tag_82:\n      pop\n      pop\n      pop\n      pop\n      pop\n      swap1\n      dup1\n      0x01\n      add\n      sload\n      swap1\n      pop\n      dup3\n      jump\t// out\n        /* \"lecture/lecture/MappingAndArray.sol\":1033:1110  function addArray(uint _value) public {... */\n    tag_47:\n        /* \"lecture/lecture/MappingAndArray.sol\":1082:1089  exArray */\n      0x01\n        /* \"lecture/lecture/MappingAndArray.sol\":1095:1101  _value */\n      dup2\n        /* \"lecture/lecture/MappingAndArray.sol\":1082:1102  exArray.push(_value) */\n      swap1\n      dup1\n      0x01\n      dup2\n      sload\n      add\n      dup1\n      dup3\n      sstore\n      dup1\n      swap2\n      pop\n      pop\n      0x01\n      swap1\n      sub\n      swap1\n      0x00\n      mstore\n      keccak256(0x00, 0x20)\n      add\n      0x00\n      swap1\n      swap2\n      swap1\n      swap2\n      swap1\n      swap2\n      pop\n      sstore\n        /* \"lecture/lecture/MappingAndArray.sol\":1033:1110  function addArray(uint _value) public {... */\n      pop\n      jump\t// out\n        /* \"lecture/lecture/MappingAndArray.sol\":1118:1216  function getArray(uint _index) public view returns(uint) {... */\n    tag_50:\n        /* \"lecture/lecture/MappingAndArray.sol\":1169:1173  uint */\n      0x00\n        /* \"lecture/lecture/MappingAndArray.sol\":1193:1200  exArray */\n      0x01\n        /* \"lecture/lecture/MappingAndArray.sol\":1201:1207  _index */\n      dup3\n        /* \"lecture/lecture/MappingAndArray.sol\":1193:1208  exArray[_index] */\n      dup2\n      sload\n      dup2\n      lt\n      tag_88\n      jumpi\n      tag_89\n      tag_90\n      jump\t// in\n    tag_89:\n    tag_88:\n      swap1\n      0x00\n      mstore\n      keccak256(0x00, 0x20)\n      add\n      sload\n        /* \"lecture/lecture/MappingAndArray.sol\":1186:1208  return exArray[_index] */\n      swap1\n      pop\n        /* \"lecture/lecture/MappingAndArray.sol\":1118:1216  function getArray(uint _index) public view returns(uint) {... */\n      swap2\n      swap1\n      pop\n      jump\t// out\n        /* \"lecture/lecture/MappingAndArray.sol\":297:330  mapping(address => uint) public a */\n    tag_54:\n      mstore(0x20, 0x00)\n      dup1\n      0x00\n      mstore\n      keccak256(0x00, 0x40)\n      0x00\n      swap2\n      pop\n      swap1\n      pop\n      sload\n      dup2\n      jump\t// out\n        /* \"lecture/lecture/MappingAndArray.sol\":642:734  function changeMapping(address _key, uint _value) public {... */\n    tag_58:\n        /* \"lecture/lecture/MappingAndArray.sol\":720:726  _value */\n      dup1\n        /* \"lecture/lecture/MappingAndArray.sol\":710:711  a */\n      0x00\n        /* \"lecture/lecture/MappingAndArray.sol\":710:717  a[_key] */\n      dup1\n        /* \"lecture/lecture/MappingAndArray.sol\":712:716  _key */\n      dup5\n        /* \"lecture/lecture/MappingAndArray.sol\":710:717  a[_key] */\n      0xffffffffffffffffffffffffffffffffffffffff\n      and\n      0xffffffffffffffffffffffffffffffffffffffff\n      and\n      dup2\n      mstore\n      0x20\n      add\n      swap1\n      dup2\n      mstore\n      0x20\n      add\n      0x00\n      keccak256\n        /* \"lecture/lecture/MappingAndArray.sol\":710:726  a[_key] = _value */\n      dup2\n      swap1\n      sstore\n      pop\n        /* \"lecture/lecture/MappingAndArray.sol\":642:734  function changeMapping(address _key, uint _value) public {... */\n      pop\n      pop\n      jump\t// out\n        /* \"lecture/lecture/MappingAndArray.sol\":537:634  function deleteMapping(address _key) public {... */\n    tag_61:\n        /* \"lecture/lecture/MappingAndArray.sol\":599:600  a */\n      0x00\n        /* \"lecture/lecture/MappingAndArray.sol\":599:606  a[_key] */\n      dup1\n        /* \"lecture/lecture/MappingAndArray.sol\":601:605  _key */\n      dup3\n        /* \"lecture/lecture/MappingAndArray.sol\":599:606  a[_key] */\n      0xffffffffffffffffffffffffffffffffffffffff\n      and\n      0xffffffffffffffffffffffffffffffffffffffff\n      and\n      dup2\n      mstore\n      0x20\n      add\n      swap1\n      dup2\n      mstore\n      0x20\n      add\n      0x00\n      keccak256\n        /* \"lecture/lecture/MappingAndArray.sol\":592:607  delete(a[_key]) */\n      0x00\n      swap1\n      sstore\n        /* \"lecture/lecture/MappingAndArray.sol\":537:634  function deleteMapping(address _key) public {... */\n      pop\n      jump\t// out\n    tag_64:\n      mload(0x40)\n      dup1\n      0x40\n      add\n      0x40\n      mstore\n      dup1\n      0x60\n      dup2\n      mstore\n      0x20\n      add\n      0x00\n      dup2\n      mstore\n      pop\n      swap1\n      jump\t// out\n        /* \"#utility.yul\":7:82   */\n    tag_94:\n        /* \"#utility.yul\":40:46   */\n      0x00\n        /* \"#utility.yul\":73:75   */\n      0x40\n        /* \"#utility.yul\":67:76   */\n      mload\n        /* \"#utility.yul\":57:76   */\n      swap1\n      pop\n        /* \"#utility.yul\":7:82   */\n      swap1\n      jump\t// out\n        /* \"#utility.yul\":88:205   */\n    tag_95:\n        /* \"#utility.yul\":197:198   */\n      0x00\n        /* \"#utility.yul\":194:195   */\n      dup1\n        /* \"#utility.yul\":187:199   */\n      revert\n        /* \"#utility.yul\":211:328   */\n    tag_96:\n        /* \"#utility.yul\":320:321   */\n      0x00\n        /* \"#utility.yul\":317:318   */\n      dup1\n        /* \"#utility.yul\":310:322   */\n      revert\n        /* \"#utility.yul\":334:460   */\n    tag_97:\n        /* \"#utility.yul\":371:378   */\n      0x00\n        /* \"#utility.yul\":411:453   */\n      0xffffffffffffffffffffffffffffffffffffffff\n        /* \"#utility.yul\":404:409   */\n      dup3\n        /* \"#utility.yul\":400:454   */\n      and\n        /* \"#utility.yul\":389:454   */\n      swap1\n      pop\n        /* \"#utility.yul\":334:460   */\n      swap2\n      swap1\n      pop\n      jump\t// out\n        /* \"#utility.yul\":466:562   */\n    tag_98:\n        /* \"#utility.yul\":503:510   */\n      0x00\n        /* \"#utility.yul\":532:556   */\n      tag_145\n        /* \"#utility.yul\":550:555   */\n      dup3\n        /* \"#utility.yul\":532:556   */\n      tag_97\n      jump\t// in\n    tag_145:\n        /* \"#utility.yul\":521:556   */\n      swap1\n      pop\n        /* \"#utility.yul\":466:562   */\n      swap2\n      swap1\n      pop\n      jump\t// out\n        /* \"#utility.yul\":568:690   */\n    tag_99:\n        /* \"#utility.yul\":641:665   */\n      tag_147\n        /* \"#utility.yul\":659:664   */\n      dup2\n        /* \"#utility.yul\":641:665   */\n      tag_98\n      jump\t// in\n    tag_147:\n        /* \"#utility.yul\":634:639   */\n      dup2\n        /* \"#utility.yul\":631:666   */\n      eq\n        /* \"#utility.yul\":621:684   */\n      tag_148\n      jumpi\n        /* \"#utility.yul\":680:681   */\n      0x00\n        /* \"#utility.yul\":677:678   */\n      dup1\n        /* \"#utility.yul\":670:682   */\n      revert\n        /* \"#utility.yul\":621:684   */\n    tag_148:\n        /* \"#utility.yul\":568:690   */\n      pop\n      jump\t// out\n        /* \"#utility.yul\":696:835   */\n    tag_100:\n        /* \"#utility.yul\":742:747   */\n      0x00\n        /* \"#utility.yul\":780:786   */\n      dup2\n        /* \"#utility.yul\":767:787   */\n      calldataload\n        /* \"#utility.yul\":758:787   */\n      swap1\n      pop\n        /* \"#utility.yul\":796:829   */\n      tag_150\n        /* \"#utility.yul\":823:828   */\n      dup2\n        /* \"#utility.yul\":796:829   */\n      tag_99\n      jump\t// in\n    tag_150:\n        /* \"#utility.yul\":696:835   */\n      swap3\n      swap2\n      pop\n      pop\n      jump\t// out\n        /* \"#utility.yul\":841:918   */\n    tag_101:\n        /* \"#utility.yul\":878:885   */\n      0x00\n        /* \"#utility.yul\":907:912   */\n      dup2\n        /* \"#utility.yul\":896:912   */\n      swap1\n      pop\n        /* \"#utility.yul\":841:918   */\n      swap2\n      swap1\n      pop\n      jump\t// out\n        /* \"#utility.yul\":924:1046   */\n    tag_102:\n        /* \"#utility.yul\":997:1021   */\n      tag_153\n        /* \"#utility.yul\":1015:1020   */\n      dup2\n        /* \"#utility.yul\":997:1021   */\n      tag_101\n      jump\t// in\n    tag_153:\n        /* \"#utility.yul\":990:995   */\n      dup2\n        /* \"#utility.yul\":987:1022   */\n      eq\n        /* \"#utility.yul\":977:1040   */\n      tag_154\n      jumpi\n        /* \"#utility.yul\":1036:1037   */\n      0x00\n        /* \"#utility.yul\":1033:1034   */\n      dup1\n        /* \"#utility.yul\":1026:1038   */\n      revert\n        /* \"#utility.yul\":977:1040   */\n    tag_154:\n        /* \"#utility.yul\":924:1046   */\n      pop\n      jump\t// out\n        /* \"#utility.yul\":1052:1191   */\n    tag_103:\n        /* \"#utility.yul\":1098:1103   */\n      0x00\n        /* \"#utility.yul\":1136:1142   */\n      dup2\n        /* \"#utility.yul\":1123:1143   */\n      calldataload\n        /* \"#utility.yul\":1114:1143   */\n      swap1\n      pop\n        /* \"#utility.yul\":1152:1185   */\n      tag_156\n        /* \"#utility.yul\":1179:1184   */\n      dup2\n        /* \"#utility.yul\":1152:1185   */\n      tag_102\n      jump\t// in\n    tag_156:\n        /* \"#utility.yul\":1052:1191   */\n      swap3\n      swap2\n      pop\n      pop\n      jump\t// out\n        /* \"#utility.yul\":1197:1671   */\n    tag_17:\n        /* \"#utility.yul\":1265:1271   */\n      0x00\n        /* \"#utility.yul\":1273:1279   */\n      dup1\n        /* \"#utility.yul\":1322:1324   */\n      0x40\n        /* \"#utility.yul\":1310:1319   */\n      dup4\n        /* \"#utility.yul\":1301:1308   */\n      dup6\n        /* \"#utility.yul\":1297:1320   */\n      sub\n        /* \"#utility.yul\":1293:1325   */\n      slt\n        /* \"#utility.yul\":1290:1409   */\n      iszero\n      tag_158\n      jumpi\n        /* \"#utility.yul\":1328:1407   */\n      tag_159\n      tag_95\n      jump\t// in\n    tag_159:\n        /* \"#utility.yul\":1290:1409   */\n    tag_158:\n        /* \"#utility.yul\":1448:1449   */\n      0x00\n        /* \"#utility.yul\":1473:1526   */\n      tag_160\n        /* \"#utility.yul\":1518:1525   */\n      dup6\n        /* \"#utility.yul\":1509:1515   */\n      dup3\n        /* \"#utility.yul\":1498:1507   */\n      dup7\n        /* \"#utility.yul\":1494:1516   */\n      add\n        /* \"#utility.yul\":1473:1526   */\n      tag_100\n      jump\t// in\n    tag_160:\n        /* \"#utility.yul\":1463:1526   */\n      swap3\n      pop\n        /* \"#utility.yul\":1419:1536   */\n      pop\n        /* \"#utility.yul\":1575:1577   */\n      0x20\n        /* \"#utility.yul\":1601:1654   */\n      tag_161\n        /* \"#utility.yul\":1646:1653   */\n      dup6\n        /* \"#utility.yul\":1637:1643   */\n      dup3\n        /* \"#utility.yul\":1626:1635   */\n      dup7\n        /* \"#utility.yul\":1622:1644   */\n      add\n        /* \"#utility.yul\":1601:1654   */\n      tag_103\n      jump\t// in\n    tag_161:\n        /* \"#utility.yul\":1591:1654   */\n      swap2\n      pop\n        /* \"#utility.yul\":1546:1664   */\n      pop\n        /* \"#utility.yul\":1197:1671   */\n      swap3\n      pop\n      swap3\n      swap1\n      pop\n      jump\t// out\n        /* \"#utility.yul\":1677:1794   */\n    tag_104:\n        /* \"#utility.yul\":1786:1787   */\n      0x00\n        /* \"#utility.yul\":1783:1784   */\n      dup1\n        /* \"#utility.yul\":1776:1788   */\n      revert\n        /* \"#utility.yul\":1800:1917   */\n    tag_105:\n        /* \"#utility.yul\":1909:1910   */\n      0x00\n        /* \"#utility.yul\":1906:1907   */\n      dup1\n        /* \"#utility.yul\":1899:1911   */\n      revert\n        /* \"#utility.yul\":1923:2025   */\n    tag_106:\n        /* \"#utility.yul\":1964:1970   */\n      0x00\n        /* \"#utility.yul\":2015:2017   */\n      0x1f\n        /* \"#utility.yul\":2011:2018   */\n      not\n        /* \"#utility.yul\":2006:2008   */\n      0x1f\n        /* \"#utility.yul\":1999:2004   */\n      dup4\n        /* \"#utility.yul\":1995:2009   */\n      add\n        /* \"#utility.yul\":1991:2019   */\n      and\n        /* \"#utility.yul\":1981:2019   */\n      swap1\n      pop\n        /* \"#utility.yul\":1923:2025   */\n      swap2\n      swap1\n      pop\n      jump\t// out\n        /* \"#utility.yul\":2031:2211   */\n    tag_107:\n        /* \"#utility.yul\":2079:2156   */\n      0x4e487b7100000000000000000000000000000000000000000000000000000000\n        /* \"#utility.yul\":2076:2077   */\n      0x00\n        /* \"#utility.yul\":2069:2157   */\n      mstore\n        /* \"#utility.yul\":2176:2180   */\n      0x41\n        /* \"#utility.yul\":2173:2174   */\n      0x04\n        /* \"#utility.yul\":2166:2181   */\n      mstore\n        /* \"#utility.yul\":2200:2204   */\n      0x24\n        /* \"#utility.yul\":2197:2198   */\n      0x00\n        /* \"#utility.yul\":2190:2205   */\n      revert\n        /* \"#utility.yul\":2217:2498   */\n    tag_108:\n        /* \"#utility.yul\":2300:2327   */\n      tag_167\n        /* \"#utility.yul\":2322:2326   */\n      dup3\n        /* \"#utility.yul\":2300:2327   */\n      tag_106\n      jump\t// in\n    tag_167:\n        /* \"#utility.yul\":2292:2298   */\n      dup2\n        /* \"#utility.yul\":2288:2328   */\n      add\n        /* \"#utility.yul\":2430:2436   */\n      dup2\n        /* \"#utility.yul\":2418:2428   */\n      dup2\n        /* \"#utility.yul\":2415:2437   */\n      lt\n        /* \"#utility.yul\":2394:2412   */\n      0xffffffffffffffff\n        /* \"#utility.yul\":2382:2392   */\n      dup3\n        /* \"#utility.yul\":2379:2413   */\n      gt\n        /* \"#utility.yul\":2376:2438   */\n      or\n        /* \"#utility.yul\":2373:2461   */\n      iszero\n      tag_168\n      jumpi\n        /* \"#utility.yul\":2441:2459   */\n      tag_169\n      tag_107\n      jump\t// in\n    tag_169:\n        /* \"#utility.yul\":2373:2461   */\n    tag_168:\n        /* \"#utility.yul\":2481:2491   */\n      dup1\n        /* \"#utility.yul\":2477:2479   */\n      0x40\n        /* \"#utility.yul\":2470:2492   */\n      mstore\n        /* \"#utility.yul\":2260:2498   */\n      pop\n        /* \"#utility.yul\":2217:2498   */\n      pop\n      pop\n      jump\t// out\n        /* \"#utility.yul\":2504:2633   */\n    tag_109:\n        /* \"#utility.yul\":2538:2544   */\n      0x00\n        /* \"#utility.yul\":2565:2585   */\n      tag_171\n      tag_94\n      jump\t// in\n    tag_171:\n        /* \"#utility.yul\":2555:2585   */\n      swap1\n      pop\n        /* \"#utility.yul\":2594:2627   */\n      tag_172\n        /* \"#utility.yul\":2622:2626   */\n      dup3\n        /* \"#utility.yul\":2614:2620   */\n      dup3\n        /* \"#utility.yul\":2594:2627   */\n      tag_108\n      jump\t// in\n    tag_172:\n        /* \"#utility.yul\":2504:2633   */\n      swap2\n      swap1\n      pop\n      jump\t// out\n        /* \"#utility.yul\":2639:2947   */\n    tag_110:\n        /* \"#utility.yul\":2701:2705   */\n      0x00\n        /* \"#utility.yul\":2791:2809   */\n      0xffffffffffffffff\n        /* \"#utility.yul\":2783:2789   */\n      dup3\n        /* \"#utility.yul\":2780:2810   */\n      gt\n        /* \"#utility.yul\":2777:2833   */\n      iszero\n      tag_174\n      jumpi\n        /* \"#utility.yul\":2813:2831   */\n      tag_175\n      tag_107\n      jump\t// in\n    tag_175:\n        /* \"#utility.yul\":2777:2833   */\n    tag_174:\n        /* \"#utility.yul\":2851:2880   */\n      tag_176\n        /* \"#utility.yul\":2873:2879   */\n      dup3\n        /* \"#utility.yul\":2851:2880   */\n      tag_106\n      jump\t// in\n    tag_176:\n        /* \"#utility.yul\":2843:2880   */\n      swap1\n      pop\n        /* \"#utility.yul\":2935:2939   */\n      0x20\n        /* \"#utility.yul\":2929:2933   */\n      dup2\n        /* \"#utility.yul\":2925:2940   */\n      add\n        /* \"#utility.yul\":2917:2940   */\n      swap1\n      pop\n        /* \"#utility.yul\":2639:2947   */\n      swap2\n      swap1\n      pop\n      jump\t// out\n        /* \"#utility.yul\":2953:3099   */\n    tag_111:\n        /* \"#utility.yul\":3050:3056   */\n      dup3\n        /* \"#utility.yul\":3045:3048   */\n      dup2\n        /* \"#utility.yul\":3040:3043   */\n      dup4\n        /* \"#utility.yul\":3027:3057   */\n      calldatacopy\n        /* \"#utility.yul\":3091:3092   */\n      0x00\n        /* \"#utility.yul\":3082:3088   */\n      dup4\n        /* \"#utility.yul\":3077:3080   */\n      dup4\n        /* \"#utility.yul\":3073:3089   */\n      add\n        /* \"#utility.yul\":3066:3093   */\n      mstore\n        /* \"#utility.yul\":2953:3099   */\n      pop\n      pop\n      pop\n      jump\t// out\n        /* \"#utility.yul\":3105:3530   */\n    tag_112:\n        /* \"#utility.yul\":3183:3188   */\n      0x00\n        /* \"#utility.yul\":3208:3274   */\n      tag_179\n        /* \"#utility.yul\":3224:3273   */\n      tag_180\n        /* \"#utility.yul\":3266:3272   */\n      dup5\n        /* \"#utility.yul\":3224:3273   */\n      tag_110\n      jump\t// in\n    tag_180:\n        /* \"#utility.yul\":3208:3274   */\n      tag_109\n      jump\t// in\n    tag_179:\n        /* \"#utility.yul\":3199:3274   */\n      swap1\n      pop\n        /* \"#utility.yul\":3297:3303   */\n      dup3\n        /* \"#utility.yul\":3290:3295   */\n      dup2\n        /* \"#utility.yul\":3283:3304   */\n      mstore\n        /* \"#utility.yul\":3335:3339   */\n      0x20\n        /* \"#utility.yul\":3328:3333   */\n      dup2\n        /* \"#utility.yul\":3324:3340   */\n      add\n        /* \"#utility.yul\":3373:3376   */\n      dup5\n        /* \"#utility.yul\":3364:3370   */\n      dup5\n        /* \"#utility.yul\":3359:3362   */\n      dup5\n        /* \"#utility.yul\":3355:3371   */\n      add\n        /* \"#utility.yul\":3352:3377   */\n      gt\n        /* \"#utility.yul\":3349:3461   */\n      iszero\n      tag_181\n      jumpi\n        /* \"#utility.yul\":3380:3459   */\n      tag_182\n      tag_105\n      jump\t// in\n    tag_182:\n        /* \"#utility.yul\":3349:3461   */\n    tag_181:\n        /* \"#utility.yul\":3470:3524   */\n      tag_183\n        /* \"#utility.yul\":3517:3523   */\n      dup5\n        /* \"#utility.yul\":3512:3515   */\n      dup3\n        /* \"#utility.yul\":3507:3510   */\n      dup6\n        /* \"#utility.yul\":3470:3524   */\n      tag_111\n      jump\t// in\n    tag_183:\n        /* \"#utility.yul\":3189:3530   */\n      pop\n        /* \"#utility.yul\":3105:3530   */\n      swap4\n      swap3\n      pop\n      pop\n      pop\n      jump\t// out\n        /* \"#utility.yul\":3550:3890   */\n    tag_113:\n        /* \"#utility.yul\":3606:3611   */\n      0x00\n        /* \"#utility.yul\":3655:3658   */\n      dup3\n        /* \"#utility.yul\":3648:3652   */\n      0x1f\n        /* \"#utility.yul\":3640:3646   */\n      dup4\n        /* \"#utility.yul\":3636:3653   */\n      add\n        /* \"#utility.yul\":3632:3659   */\n      slt\n        /* \"#utility.yul\":3622:3744   */\n      tag_185\n      jumpi\n        /* \"#utility.yul\":3663:3742   */\n      tag_186\n      tag_104\n      jump\t// in\n    tag_186:\n        /* \"#utility.yul\":3622:3744   */\n    tag_185:\n        /* \"#utility.yul\":3780:3786   */\n      dup2\n        /* \"#utility.yul\":3767:3787   */\n      calldataload\n        /* \"#utility.yul\":3805:3884   */\n      tag_187\n        /* \"#utility.yul\":3880:3883   */\n      dup5\n        /* \"#utility.yul\":3872:3878   */\n      dup3\n        /* \"#utility.yul\":3865:3869   */\n      0x20\n        /* \"#utility.yul\":3857:3863   */\n      dup7\n        /* \"#utility.yul\":3853:3870   */\n      add\n        /* \"#utility.yul\":3805:3884   */\n      tag_112\n      jump\t// in\n    tag_187:\n        /* \"#utility.yul\":3796:3884   */\n      swap2\n      pop\n        /* \"#utility.yul\":3612:3890   */\n      pop\n        /* \"#utility.yul\":3550:3890   */\n      swap3\n      swap2\n      pop\n      pop\n      jump\t// out\n        /* \"#utility.yul\":3896:4550   */\n    tag_21:\n        /* \"#utility.yul\":3974:3980   */\n      0x00\n        /* \"#utility.yul\":3982:3988   */\n      dup1\n        /* \"#utility.yul\":4031:4033   */\n      0x40\n        /* \"#utility.yul\":4019:4028   */\n      dup4\n        /* \"#utility.yul\":4010:4017   */\n      dup6\n        /* \"#utility.yul\":4006:4029   */\n      sub\n        /* \"#utility.yul\":4002:4034   */\n      slt\n        /* \"#utility.yul\":3999:4118   */\n      iszero\n      tag_189\n      jumpi\n        /* \"#utility.yul\":4037:4116   */\n      tag_190\n      tag_95\n      jump\t// in\n    tag_190:\n        /* \"#utility.yul\":3999:4118   */\n    tag_189:\n        /* \"#utility.yul\":4185:4186   */\n      0x00\n        /* \"#utility.yul\":4174:4183   */\n      dup4\n        /* \"#utility.yul\":4170:4187   */\n      add\n        /* \"#utility.yul\":4157:4188   */\n      calldataload\n        /* \"#utility.yul\":4215:4233   */\n      0xffffffffffffffff\n        /* \"#utility.yul\":4207:4213   */\n      dup2\n        /* \"#utility.yul\":4204:4234   */\n      gt\n        /* \"#utility.yul\":4201:4318   */\n      iszero\n      tag_191\n      jumpi\n        /* \"#utility.yul\":4237:4316   */\n      tag_192\n      tag_96\n      jump\t// in\n    tag_192:\n        /* \"#utility.yul\":4201:4318   */\n    tag_191:\n        /* \"#utility.yul\":4342:4405   */\n      tag_193\n        /* \"#utility.yul\":4397:4404   */\n      dup6\n        /* \"#utility.yul\":4388:4394   */\n      dup3\n        /* \"#utility.yul\":4377:4386   */\n      dup7\n        /* \"#utility.yul\":4373:4395   */\n      add\n        /* \"#utility.yul\":4342:4405   */\n      tag_113\n      jump\t// in\n    tag_193:\n        /* \"#utility.yul\":4332:4405   */\n      swap3\n      pop\n        /* \"#utility.yul\":4128:4415   */\n      pop\n        /* \"#utility.yul\":4454:4456   */\n      0x20\n        /* \"#utility.yul\":4480:4533   */\n      tag_194\n        /* \"#utility.yul\":4525:4532   */\n      dup6\n        /* \"#utility.yul\":4516:4522   */\n      dup3\n        /* \"#utility.yul\":4505:4514   */\n      dup7\n        /* \"#utility.yul\":4501:4523   */\n      add\n        /* \"#utility.yul\":4480:4533   */\n      tag_103\n      jump\t// in\n    tag_194:\n        /* \"#utility.yul\":4470:4533   */\n      swap2\n      pop\n        /* \"#utility.yul\":4425:4543   */\n      pop\n        /* \"#utility.yul\":3896:4550   */\n      swap3\n      pop\n      swap3\n      swap1\n      pop\n      jump\t// out\n        /* \"#utility.yul\":4556:4655   */\n    tag_114:\n        /* \"#utility.yul\":4608:4614   */\n      0x00\n        /* \"#utility.yul\":4642:4647   */\n      dup2\n        /* \"#utility.yul\":4636:4648   */\n      mload\n        /* \"#utility.yul\":4626:4648   */\n      swap1\n      pop\n        /* \"#utility.yul\":4556:4655   */\n      swap2\n      swap1\n      pop\n      jump\t// out\n        /* \"#utility.yul\":4661:4820   */\n    tag_115:\n        /* \"#utility.yul\":4735:4746   */\n      0x00\n        /* \"#utility.yul\":4769:4775   */\n      dup3\n        /* \"#utility.yul\":4764:4767   */\n      dup3\n        /* \"#utility.yul\":4757:4776   */\n      mstore\n        /* \"#utility.yul\":4809:4813   */\n      0x20\n        /* \"#utility.yul\":4804:4807   */\n      dup3\n        /* \"#utility.yul\":4800:4814   */\n      add\n        /* \"#utility.yul\":4785:4814   */\n      swap1\n      pop\n        /* \"#utility.yul\":4661:4820   */\n      swap3\n      swap2\n      pop\n      pop\n      jump\t// out\n        /* \"#utility.yul\":4826:5072   */\n    tag_116:\n        /* \"#utility.yul\":4907:4908   */\n      0x00\n        /* \"#utility.yul\":4917:5030   */\n    tag_198:\n        /* \"#utility.yul\":4931:4937   */\n      dup4\n        /* \"#utility.yul\":4928:4929   */\n      dup2\n        /* \"#utility.yul\":4925:4938   */\n      lt\n        /* \"#utility.yul\":4917:5030   */\n      iszero\n      tag_200\n      jumpi\n        /* \"#utility.yul\":5016:5017   */\n      dup1\n        /* \"#utility.yul\":5011:5014   */\n      dup3\n        /* \"#utility.yul\":5007:5018   */\n      add\n        /* \"#utility.yul\":5001:5019   */\n      mload\n        /* \"#utility.yul\":4997:4998   */\n      dup2\n        /* \"#utility.yul\":4992:4995   */\n      dup5\n        /* \"#utility.yul\":4988:4999   */\n      add\n        /* \"#utility.yul\":4981:5020   */\n      mstore\n        /* \"#utility.yul\":4953:4955   */\n      0x20\n        /* \"#utility.yul\":4950:4951   */\n      dup2\n        /* \"#utility.yul\":4946:4956   */\n      add\n        /* \"#utility.yul\":4941:4956   */\n      swap1\n      pop\n        /* \"#utility.yul\":4917:5030   */\n      jump(tag_198)\n    tag_200:\n        /* \"#utility.yul\":5064:5065   */\n      0x00\n        /* \"#utility.yul\":5055:5061   */\n      dup5\n        /* \"#utility.yul\":5050:5053   */\n      dup5\n        /* \"#utility.yul\":5046:5062   */\n      add\n        /* \"#utility.yul\":5039:5066   */\n      mstore\n        /* \"#utility.yul\":4888:5072   */\n      pop\n        /* \"#utility.yul\":4826:5072   */\n      pop\n      pop\n      pop\n      jump\t// out\n        /* \"#utility.yul\":5078:5435   */\n    tag_117:\n        /* \"#utility.yul\":5156:5159   */\n      0x00\n        /* \"#utility.yul\":5184:5223   */\n      tag_202\n        /* \"#utility.yul\":5217:5222   */\n      dup3\n        /* \"#utility.yul\":5184:5223   */\n      tag_114\n      jump\t// in\n    tag_202:\n        /* \"#utility.yul\":5239:5300   */\n      tag_203\n        /* \"#utility.yul\":5293:5299   */\n      dup2\n        /* \"#utility.yul\":5288:5291   */\n      dup6\n        /* \"#utility.yul\":5239:5300   */\n      tag_115\n      jump\t// in\n    tag_203:\n        /* \"#utility.yul\":5232:5300   */\n      swap4\n      pop\n        /* \"#utility.yul\":5309:5374   */\n      tag_204\n        /* \"#utility.yul\":5367:5373   */\n      dup2\n        /* \"#utility.yul\":5362:5365   */\n      dup6\n        /* \"#utility.yul\":5355:5359   */\n      0x20\n        /* \"#utility.yul\":5348:5353   */\n      dup7\n        /* \"#utility.yul\":5344:5360   */\n      add\n        /* \"#utility.yul\":5309:5374   */\n      tag_116\n      jump\t// in\n    tag_204:\n        /* \"#utility.yul\":5399:5428   */\n      tag_205\n        /* \"#utility.yul\":5421:5427   */\n      dup2\n        /* \"#utility.yul\":5399:5428   */\n      tag_106\n      jump\t// in\n    tag_205:\n        /* \"#utility.yul\":5394:5397   */\n      dup5\n        /* \"#utility.yul\":5390:5429   */\n      add\n        /* \"#utility.yul\":5383:5429   */\n      swap2\n      pop\n        /* \"#utility.yul\":5160:5435   */\n      pop\n        /* \"#utility.yul\":5078:5435   */\n      swap3\n      swap2\n      pop\n      pop\n      jump\t// out\n        /* \"#utility.yul\":5441:5549   */\n    tag_118:\n        /* \"#utility.yul\":5518:5542   */\n      tag_207\n        /* \"#utility.yul\":5536:5541   */\n      dup2\n        /* \"#utility.yul\":5518:5542   */\n      tag_101\n      jump\t// in\n    tag_207:\n        /* \"#utility.yul\":5513:5516   */\n      dup3\n        /* \"#utility.yul\":5506:5543   */\n      mstore\n        /* \"#utility.yul\":5441:5549   */\n      pop\n      pop\n      jump\t// out\n        /* \"#utility.yul\":5623:6220   */\n    tag_119:\n        /* \"#utility.yul\":5734:5737   */\n      0x00\n        /* \"#utility.yul\":5770:5774   */\n      0x40\n        /* \"#utility.yul\":5765:5768   */\n      dup4\n        /* \"#utility.yul\":5761:5775   */\n      add\n        /* \"#utility.yul\":5857:5861   */\n      0x00\n        /* \"#utility.yul\":5850:5855   */\n      dup4\n        /* \"#utility.yul\":5846:5862   */\n      add\n        /* \"#utility.yul\":5840:5863   */\n      mload\n        /* \"#utility.yul\":5910:5913   */\n      dup5\n        /* \"#utility.yul\":5904:5908   */\n      dup3\n        /* \"#utility.yul\":5900:5914   */\n      sub\n        /* \"#utility.yul\":5893:5897   */\n      0x00\n        /* \"#utility.yul\":5888:5891   */\n      dup7\n        /* \"#utility.yul\":5884:5898   */\n      add\n        /* \"#utility.yul\":5877:5915   */\n      mstore\n        /* \"#utility.yul\":5936:6009   */\n      tag_209\n        /* \"#utility.yul\":6004:6008   */\n      dup3\n        /* \"#utility.yul\":5990:6002   */\n      dup3\n        /* \"#utility.yul\":5936:6009   */\n      tag_117\n      jump\t// in\n    tag_209:\n        /* \"#utility.yul\":5928:6009   */\n      swap2\n      pop\n        /* \"#utility.yul\":5785:6020   */\n      pop\n        /* \"#utility.yul\":6101:6105   */\n      0x20\n        /* \"#utility.yul\":6094:6099   */\n      dup4\n        /* \"#utility.yul\":6090:6106   */\n      add\n        /* \"#utility.yul\":6084:6107   */\n      mload\n        /* \"#utility.yul\":6120:6183   */\n      tag_210\n        /* \"#utility.yul\":6177:6181   */\n      0x20\n        /* \"#utility.yul\":6172:6175   */\n      dup7\n        /* \"#utility.yul\":6168:6182   */\n      add\n        /* \"#utility.yul\":6154:6166   */\n      dup3\n        /* \"#utility.yul\":6120:6183   */\n      tag_118\n      jump\t// in\n    tag_210:\n        /* \"#utility.yul\":6030:6193   */\n      pop\n        /* \"#utility.yul\":6210:6214   */\n      dup1\n        /* \"#utility.yul\":6203:6214   */\n      swap2\n      pop\n        /* \"#utility.yul\":5739:6220   */\n      pop\n        /* \"#utility.yul\":5623:6220   */\n      swap3\n      swap2\n      pop\n      pop\n      jump\t// out\n        /* \"#utility.yul\":6226:6583   */\n    tag_24:\n        /* \"#utility.yul\":6361:6365   */\n      0x00\n        /* \"#utility.yul\":6399:6401   */\n      0x20\n        /* \"#utility.yul\":6388:6397   */\n      dup3\n        /* \"#utility.yul\":6384:6402   */\n      add\n        /* \"#utility.yul\":6376:6402   */\n      swap1\n      pop\n        /* \"#utility.yul\":6448:6457   */\n      dup2\n        /* \"#utility.yul\":6442:6446   */\n      dup2\n        /* \"#utility.yul\":6438:6458   */\n      sub\n        /* \"#utility.yul\":6434:6435   */\n      0x00\n        /* \"#utility.yul\":6423:6432   */\n      dup4\n        /* \"#utility.yul\":6419:6436   */\n      add\n        /* \"#utility.yul\":6412:6459   */\n      mstore\n        /* \"#utility.yul\":6476:6576   */\n      tag_212\n        /* \"#utility.yul\":6571:6575   */\n      dup2\n        /* \"#utility.yul\":6562:6568   */\n      dup5\n        /* \"#utility.yul\":6476:6576   */\n      tag_119\n      jump\t// in\n    tag_212:\n        /* \"#utility.yul\":6468:6576   */\n      swap1\n      pop\n        /* \"#utility.yul\":6226:6583   */\n      swap3\n      swap2\n      pop\n      pop\n      jump\t// out\n        /* \"#utility.yul\":6589:6918   */\n    tag_27:\n        /* \"#utility.yul\":6648:6654   */\n      0x00\n        /* \"#utility.yul\":6697:6699   */\n      0x20\n        /* \"#utility.yul\":6685:6694   */\n      dup3\n        /* \"#utility.yul\":6676:6683   */\n      dup5\n        /* \"#utility.yul\":6672:6695   */\n      sub\n        /* \"#utility.yul\":6668:6700   */\n      slt\n        /* \"#utility.yul\":6665:6784   */\n      iszero\n      tag_214\n      jumpi\n        /* \"#utility.yul\":6703:6782   */\n      tag_215\n      tag_95\n      jump\t// in\n    tag_215:\n        /* \"#utility.yul\":6665:6784   */\n    tag_214:\n        /* \"#utility.yul\":6823:6824   */\n      0x00\n        /* \"#utility.yul\":6848:6901   */\n      tag_216\n        /* \"#utility.yul\":6893:6900   */\n      dup5\n        /* \"#utility.yul\":6884:6890   */\n      dup3\n        /* \"#utility.yul\":6873:6882   */\n      dup6\n        /* \"#utility.yul\":6869:6891   */\n      add\n        /* \"#utility.yul\":6848:6901   */\n      tag_103\n      jump\t// in\n    tag_216:\n        /* \"#utility.yul\":6838:6901   */\n      swap2\n      pop\n        /* \"#utility.yul\":6794:6911   */\n      pop\n        /* \"#utility.yul\":6589:6918   */\n      swap3\n      swap2\n      pop\n      pop\n      jump\t// out\n        /* \"#utility.yul\":6924:7093   */\n    tag_120:\n        /* \"#utility.yul\":7008:7019   */\n      0x00\n        /* \"#utility.yul\":7042:7048   */\n      dup3\n        /* \"#utility.yul\":7037:7040   */\n      dup3\n        /* \"#utility.yul\":7030:7049   */\n      mstore\n        /* \"#utility.yul\":7082:7086   */\n      0x20\n        /* \"#utility.yul\":7077:7080   */\n      dup3\n        /* \"#utility.yul\":7073:7087   */\n      add\n        /* \"#utility.yul\":7058:7087   */\n      swap1\n      pop\n        /* \"#utility.yul\":6924:7093   */\n      swap3\n      swap2\n      pop\n      pop\n      jump\t// out\n        /* \"#utility.yul\":7099:7476   */\n    tag_121:\n        /* \"#utility.yul\":7187:7190   */\n      0x00\n        /* \"#utility.yul\":7215:7254   */\n      tag_219\n        /* \"#utility.yul\":7248:7253   */\n      dup3\n        /* \"#utility.yul\":7215:7254   */\n      tag_114\n      jump\t// in\n    tag_219:\n        /* \"#utility.yul\":7270:7341   */\n      tag_220\n        /* \"#utility.yul\":7334:7340   */\n      dup2\n        /* \"#utility.yul\":7329:7332   */\n      dup6\n        /* \"#utility.yul\":7270:7341   */\n      tag_120\n      jump\t// in\n    tag_220:\n        /* \"#utility.yul\":7263:7341   */\n      swap4\n      pop\n        /* \"#utility.yul\":7350:7415   */\n      tag_221\n        /* \"#utility.yul\":7408:7414   */\n      dup2\n        /* \"#utility.yul\":7403:7406   */\n      dup6\n        /* \"#utility.yul\":7396:7400   */\n      0x20\n        /* \"#utility.yul\":7389:7394   */\n      dup7\n        /* \"#utility.yul\":7385:7401   */\n      add\n        /* \"#utility.yul\":7350:7415   */\n      tag_116\n      jump\t// in\n    tag_221:\n        /* \"#utility.yul\":7440:7469   */\n      tag_222\n        /* \"#utility.yul\":7462:7468   */\n      dup2\n        /* \"#utility.yul\":7440:7469   */\n      tag_106\n      jump\t// in\n    tag_222:\n        /* \"#utility.yul\":7435:7438   */\n      dup5\n        /* \"#utility.yul\":7431:7470   */\n      add\n        /* \"#utility.yul\":7424:7470   */\n      swap2\n      pop\n        /* \"#utility.yul\":7191:7476   */\n      pop\n        /* \"#utility.yul\":7099:7476   */\n      swap3\n      swap2\n      pop\n      pop\n      jump\t// out\n        /* \"#utility.yul\":7482:7600   */\n    tag_122:\n        /* \"#utility.yul\":7569:7593   */\n      tag_224\n        /* \"#utility.yul\":7587:7592   */\n      dup2\n        /* \"#utility.yul\":7569:7593   */\n      tag_101\n      jump\t// in\n    tag_224:\n        /* \"#utility.yul\":7564:7567   */\n      dup3\n        /* \"#utility.yul\":7557:7594   */\n      mstore\n        /* \"#utility.yul\":7482:7600   */\n      pop\n      pop\n      jump\t// out\n        /* \"#utility.yul\":7606:8029   */\n    tag_30:\n        /* \"#utility.yul\":7747:7751   */\n      0x00\n        /* \"#utility.yul\":7785:7787   */\n      0x40\n        /* \"#utility.yul\":7774:7783   */\n      dup3\n        /* \"#utility.yul\":7770:7788   */\n      add\n        /* \"#utility.yul\":7762:7788   */\n      swap1\n      pop\n        /* \"#utility.yul\":7834:7843   */\n      dup2\n        /* \"#utility.yul\":7828:7832   */\n      dup2\n        /* \"#utility.yul\":7824:7844   */\n      sub\n        /* \"#utility.yul\":7820:7821   */\n      0x00\n        /* \"#utility.yul\":7809:7818   */\n      dup4\n        /* \"#utility.yul\":7805:7822   */\n      add\n        /* \"#utility.yul\":7798:7845   */\n      mstore\n        /* \"#utility.yul\":7862:7940   */\n      tag_226\n        /* \"#utility.yul\":7935:7939   */\n      dup2\n        /* \"#utility.yul\":7926:7932   */\n      dup6\n        /* \"#utility.yul\":7862:7940   */\n      tag_121\n      jump\t// in\n    tag_226:\n        /* \"#utility.yul\":7854:7940   */\n      swap1\n      pop\n        /* \"#utility.yul\":7950:8022   */\n      tag_227\n        /* \"#utility.yul\":8018:8020   */\n      0x20\n        /* \"#utility.yul\":8007:8016   */\n      dup4\n        /* \"#utility.yul\":8003:8021   */\n      add\n        /* \"#utility.yul\":7994:8000   */\n      dup5\n        /* \"#utility.yul\":7950:8022   */\n      tag_122\n      jump\t// in\n    tag_227:\n        /* \"#utility.yul\":7606:8029   */\n      swap4\n      swap3\n      pop\n      pop\n      pop\n      jump\t// out\n        /* \"#utility.yul\":8035:8257   */\n    tag_35:\n        /* \"#utility.yul\":8128:8132   */\n      0x00\n        /* \"#utility.yul\":8166:8168   */\n      0x20\n        /* \"#utility.yul\":8155:8164   */\n      dup3\n        /* \"#utility.yul\":8151:8169   */\n      add\n        /* \"#utility.yul\":8143:8169   */\n      swap1\n      pop\n        /* \"#utility.yul\":8179:8250   */\n      tag_229\n        /* \"#utility.yul\":8247:8248   */\n      0x00\n        /* \"#utility.yul\":8236:8245   */\n      dup4\n        /* \"#utility.yul\":8232:8249   */\n      add\n        /* \"#utility.yul\":8223:8229   */\n      dup5\n        /* \"#utility.yul\":8179:8250   */\n      tag_122\n      jump\t// in\n    tag_229:\n        /* \"#utility.yul\":8035:8257   */\n      swap3\n      swap2\n      pop\n      pop\n      jump\t// out\n        /* \"#utility.yul\":8263:8592   */\n    tag_38:\n        /* \"#utility.yul\":8322:8328   */\n      0x00\n        /* \"#utility.yul\":8371:8373   */\n      0x20\n        /* \"#utility.yul\":8359:8368   */\n      dup3\n        /* \"#utility.yul\":8350:8357   */\n      dup5\n        /* \"#utility.yul\":8346:8369   */\n      sub\n        /* \"#utility.yul\":8342:8374   */\n      slt\n        /* \"#utility.yul\":8339:8458   */\n      iszero\n      tag_231\n      jumpi\n        /* \"#utility.yul\":8377:8456   */\n      tag_232\n      tag_95\n      jump\t// in\n    tag_232:\n        /* \"#utility.yul\":8339:8458   */\n    tag_231:\n        /* \"#utility.yul\":8497:8498   */\n      0x00\n        /* \"#utility.yul\":8522:8575   */\n      tag_233\n        /* \"#utility.yul\":8567:8574   */\n      dup5\n        /* \"#utility.yul\":8558:8564   */\n      dup3\n        /* \"#utility.yul\":8547:8556   */\n      dup6\n        /* \"#utility.yul\":8543:8565   */\n      add\n        /* \"#utility.yul\":8522:8575   */\n      tag_100\n      jump\t// in\n    tag_233:\n        /* \"#utility.yul\":8512:8575   */\n      swap2\n      pop\n        /* \"#utility.yul\":8468:8585   */\n      pop\n        /* \"#utility.yul\":8263:8592   */\n      swap3\n      swap2\n      pop\n      pop\n      jump\t// out\n        /* \"#utility.yul\":8598:8778   */\n    tag_123:\n        /* \"#utility.yul\":8646:8723   */\n      0x4e487b7100000000000000000000000000000000000000000000000000000000\n        /* \"#utility.yul\":8643:8644   */\n      0x00\n        /* \"#utility.yul\":8636:8724   */\n      mstore\n        /* \"#utility.yul\":8743:8747   */\n      0x22\n        /* \"#utility.yul\":8740:8741   */\n      0x04\n        /* \"#utility.yul\":8733:8748   */\n      mstore\n        /* \"#utility.yul\":8767:8771   */\n      0x24\n        /* \"#utility.yul\":8764:8765   */\n      0x00\n        /* \"#utility.yul\":8757:8772   */\n      revert\n        /* \"#utility.yul\":8784:9104   */\n    tag_70:\n        /* \"#utility.yul\":8828:8834   */\n      0x00\n        /* \"#utility.yul\":8865:8866   */\n      0x02\n        /* \"#utility.yul\":8859:8863   */\n      dup3\n        /* \"#utility.yul\":8855:8867   */\n      div\n        /* \"#utility.yul\":8845:8867   */\n      swap1\n      pop\n        /* \"#utility.yul\":8912:8913   */\n      0x01\n        /* \"#utility.yul\":8906:8910   */\n      dup3\n        /* \"#utility.yul\":8902:8914   */\n      and\n        /* \"#utility.yul\":8933:8951   */\n      dup1\n        /* \"#utility.yul\":8923:9004   */\n      tag_236\n      jumpi\n        /* \"#utility.yul\":8989:8993   */\n      0x7f\n        /* \"#utility.yul\":8981:8987   */\n      dup3\n        /* \"#utility.yul\":8977:8994   */\n      and\n        /* \"#utility.yul\":8967:8994   */\n      swap2\n      pop\n        /* \"#utility.yul\":8923:9004   */\n    tag_236:\n        /* \"#utility.yul\":9051:9053   */\n      0x20\n        /* \"#utility.yul\":9043:9049   */\n      dup3\n        /* \"#utility.yul\":9040:9054   */\n      lt\n        /* \"#utility.yul\":9020:9038   */\n      dup2\n        /* \"#utility.yul\":9017:9055   */\n      sub\n        /* \"#utility.yul\":9014:9098   */\n      tag_237\n      jumpi\n        /* \"#utility.yul\":9070:9088   */\n      tag_238\n      tag_123\n      jump\t// in\n    tag_238:\n        /* \"#utility.yul\":9014:9098   */\n    tag_237:\n        /* \"#utility.yul\":8835:9104   */\n      pop\n        /* \"#utility.yul\":8784:9104   */\n      swap2\n      swap1\n      pop\n      jump\t// out\n        /* \"#utility.yul\":9110:9251   */\n    tag_124:\n        /* \"#utility.yul\":9159:9163   */\n      0x00\n        /* \"#utility.yul\":9182:9185   */\n      dup2\n        /* \"#utility.yul\":9174:9185   */\n      swap1\n      pop\n        /* \"#utility.yul\":9205:9208   */\n      dup2\n        /* \"#utility.yul\":9202:9203   */\n      0x00\n        /* \"#utility.yul\":9195:9209   */\n      mstore\n        /* \"#utility.yul\":9239:9243   */\n      0x20\n        /* \"#utility.yul\":9236:9237   */\n      0x00\n        /* \"#utility.yul\":9226:9244   */\n      keccak256\n        /* \"#utility.yul\":9218:9244   */\n      swap1\n      pop\n        /* \"#utility.yul\":9110:9251   */\n      swap2\n      swap1\n      pop\n      jump\t// out\n        /* \"#utility.yul\":9257:9350   */\n    tag_125:\n        /* \"#utility.yul\":9294:9300   */\n      0x00\n        /* \"#utility.yul\":9341:9343   */\n      0x20\n        /* \"#utility.yul\":9336:9338   */\n      0x1f\n        /* \"#utility.yul\":9329:9334   */\n      dup4\n        /* \"#utility.yul\":9325:9339   */\n      add\n        /* \"#utility.yul\":9321:9344   */\n      div\n        /* \"#utility.yul\":9311:9344   */\n      swap1\n      pop\n        /* \"#utility.yul\":9257:9350   */\n      swap2\n      swap1\n      pop\n      jump\t// out\n        /* \"#utility.yul\":9356:9463   */\n    tag_126:\n        /* \"#utility.yul\":9400:9408   */\n      0x00\n        /* \"#utility.yul\":9450:9455   */\n      dup3\n        /* \"#utility.yul\":9444:9448   */\n      dup3\n        /* \"#utility.yul\":9440:9456   */\n      shl\n        /* \"#utility.yul\":9419:9456   */\n      swap1\n      pop\n        /* \"#utility.yul\":9356:9463   */\n      swap3\n      swap2\n      pop\n      pop\n      jump\t// out\n        /* \"#utility.yul\":9469:9862   */\n    tag_127:\n        /* \"#utility.yul\":9538:9544   */\n      0x00\n        /* \"#utility.yul\":9588:9589   */\n      0x08\n        /* \"#utility.yul\":9576:9586   */\n      dup4\n        /* \"#utility.yul\":9572:9590   */\n      mul\n        /* \"#utility.yul\":9611:9708   */\n      tag_243\n        /* \"#utility.yul\":9641:9707   */\n      0xffffffffffffffffffffffffffffffffffffffffffffffffffffffffffffffff\n        /* \"#utility.yul\":9630:9639   */\n      dup3\n        /* \"#utility.yul\":9611:9708   */\n      tag_126\n      jump\t// in\n    tag_243:\n        /* \"#utility.yul\":9729:9768   */\n      tag_244\n        /* \"#utility.yul\":9759:9767   */\n      dup7\n        /* \"#utility.yul\":9748:9757   */\n      dup4\n        /* \"#utility.yul\":9729:9768   */\n      tag_126\n      jump\t// in\n    tag_244:\n        /* \"#utility.yul\":9717:9768   */\n      swap6\n      pop\n        /* \"#utility.yul\":9801:9805   */\n      dup1\n        /* \"#utility.yul\":9797:9806   */\n      not\n        /* \"#utility.yul\":9790:9795   */\n      dup5\n        /* \"#utility.yul\":9786:9807   */\n      and\n        /* \"#utility.yul\":9777:9807   */\n      swap4\n      pop\n        /* \"#utility.yul\":9850:9854   */\n      dup1\n        /* \"#utility.yul\":9840:9848   */\n      dup7\n        /* \"#utility.yul\":9836:9855   */\n      and\n        /* \"#utility.yul\":9829:9834   */\n      dup5\n        /* \"#utility.yul\":9826:9856   */\n      or\n        /* \"#utility.yul\":9816:9856   */\n      swap3\n      pop\n        /* \"#utility.yul\":9545:9862   */\n      pop\n      pop\n        /* \"#utility.yul\":9469:9862   */\n      swap4\n      swap3\n      pop\n      pop\n      pop\n      jump\t// out\n        /* \"#utility.yul\":9868:9928   */\n    tag_128:\n        /* \"#utility.yul\":9896:9899   */\n      0x00\n        /* \"#utility.yul\":9917:9922   */\n      dup2\n        /* \"#utility.yul\":9910:9922   */\n      swap1\n      pop\n        /* \"#utility.yul\":9868:9928   */\n      swap2\n      swap1\n      pop\n      jump\t// out\n        /* \"#utility.yul\":9934:10076   */\n    tag_129:\n        /* \"#utility.yul\":9984:9993   */\n      0x00\n        /* \"#utility.yul\":10017:10070   */\n      tag_247\n        /* \"#utility.yul\":10035:10069   */\n      tag_248\n        /* \"#utility.yul\":10044:10068   */\n      tag_249\n        /* \"#utility.yul\":10062:10067   */\n      dup5\n        /* \"#utility.yul\":10044:10068   */\n      tag_101\n      jump\t// in\n    tag_249:\n        /* \"#utility.yul\":10035:10069   */\n      tag_128\n      jump\t// in\n    tag_248:\n        /* \"#utility.yul\":10017:10070   */\n      tag_101\n      jump\t// in\n    tag_247:\n        /* \"#utility.yul\":10004:10070   */\n      swap1\n      pop\n        /* \"#utility.yul\":9934:10076   */\n      swap2\n      swap1\n      pop\n      jump\t// out\n        /* \"#utility.yul\":10082:10157   */\n    tag_130:\n        /* \"#utility.yul\":10125:10128   */\n      0x00\n        /* \"#utility.yul\":10146:10151   */\n      dup2\n        /* \"#utility.yul\":10139:10151   */\n      swap1\n      pop\n        /* \"#utility.yul\":10082:10157   */\n      swap2\n      swap1\n      pop\n      jump\t// out\n        /* \"#utility.yul\":10163:10432   */\n    tag_131:\n        /* \"#utility.yul\":10273:10312   */\n      tag_252\n        /* \"#utility.yul\":10304:10311   */\n      dup4\n        /* \"#utility.yul\":10273:10312   */\n      tag_129\n      jump\t// in\n    tag_252:\n        /* \"#utility.yul\":10334:10425   */\n      tag_253\n        /* \"#utility.yul\":10383:10424   */\n      tag_254\n        /* \"#utility.yul\":10407:10423   */\n      dup3\n        /* \"#utility.yul\":10383:10424   */\n      tag_130\n      jump\t// in\n    tag_254:\n        /* \"#utility.yul\":10375:10381   */\n      dup5\n        /* \"#utility.yul\":10368:10372   */\n      dup5\n        /* \"#utility.yul\":10362:10373   */\n      sload\n        /* \"#utility.yul\":10334:10425   */\n      tag_127\n      jump\t// in\n    tag_253:\n        /* \"#utility.yul\":10328:10332   */\n      dup3\n        /* \"#utility.yul\":10321:10426   */\n      sstore\n        /* \"#utility.yul\":10239:10432   */\n      pop\n        /* \"#utility.yul\":10163:10432   */\n      pop\n      pop\n      pop\n      jump\t// out\n        /* \"#utility.yul\":10438:10511   */\n    tag_132:\n        /* \"#utility.yul\":10483:10486   */\n      0x00\n        /* \"#utility.yul\":10438:10511   */\n      swap1\n      jump\t// out\n        /* \"#utility.yul\":10517:10706   */\n    tag_133:\n        /* \"#utility.yul\":10594:10626   */\n      tag_257\n      tag_132\n      jump\t// in\n    tag_257:\n        /* \"#utility.yul\":10635:10700   */\n      tag_258\n        /* \"#utility.yul\":10693:10699   */\n      dup2\n        /* \"#utility.yul\":10685:10691   */\n      dup5\n        /* \"#utility.yul\":10679:10683   */\n      dup5\n        /* \"#utility.yul\":10635:10700   */\n      tag_131\n      jump\t// in\n    tag_258:\n        /* \"#utility.yul\":10570:10706   */\n      pop\n        /* \"#utility.yul\":10517:10706   */\n      pop\n      pop\n      jump\t// out\n        /* \"#utility.yul\":10712:10898   */\n    tag_134:\n        /* \"#utility.yul\":10772:10892   */\n    tag_260:\n        /* \"#utility.yul\":10789:10792   */\n      dup2\n        /* \"#utility.yul\":10782:10787   */\n      dup2\n        /* \"#utility.yul\":10779:10793   */\n      lt\n        /* \"#utility.yul\":10772:10892   */\n      iszero\n      tag_262\n      jumpi\n        /* \"#utility.yul\":10843:10882   */\n      tag_263\n        /* \"#utility.yul\":10880:10881   */\n      0x00\n        /* \"#utility.yul\":10873:10878   */\n      dup3\n        /* \"#utility.yul\":10843:10882   */\n      tag_133\n      jump\t// in\n    tag_263:\n        /* \"#utility.yul\":10816:10817   */\n      0x01\n        /* \"#utility.yul\":10809:10814   */\n      dup2\n        /* \"#utility.yul\":10805:10818   */\n      add\n        /* \"#utility.yul\":10796:10818   */\n      swap1\n      pop\n        /* \"#utility.yul\":10772:10892   */\n      jump(tag_260)\n    tag_262:\n        /* \"#utility.yul\":10712:10898   */\n      pop\n      pop\n      jump\t// out\n        /* \"#utility.yul\":10904:11447   */\n    tag_135:\n        /* \"#utility.yul\":11005:11007   */\n      0x1f\n        /* \"#utility.yul\":11000:11003   */\n      dup3\n        /* \"#utility.yul\":10997:11008   */\n      gt\n        /* \"#utility.yul\":10994:11440   */\n      iszero\n      tag_265\n      jumpi\n        /* \"#utility.yul\":11039:11077   */\n      tag_266\n        /* \"#utility.yul\":11071:11076   */\n      dup2\n        /* \"#utility.yul\":11039:11077   */\n      tag_124\n      jump\t// in\n    tag_266:\n        /* \"#utility.yul\":11123:11152   */\n      tag_267\n        /* \"#utility.yul\":11141:11151   */\n      dup5\n        /* \"#utility.yul\":11123:11152   */\n      tag_125\n      jump\t// in\n    tag_267:\n        /* \"#utility.yul\":11113:11121   */\n      dup2\n        /* \"#utility.yul\":11109:11153   */\n      add\n        /* \"#utility.yul\":11306:11308   */\n      0x20\n        /* \"#utility.yul\":11294:11304   */\n      dup6\n        /* \"#utility.yul\":11291:11309   */\n      lt\n        /* \"#utility.yul\":11288:11337   */\n      iszero\n      tag_268\n      jumpi\n        /* \"#utility.yul\":11327:11335   */\n      dup2\n        /* \"#utility.yul\":11312:11335   */\n      swap1\n      pop\n        /* \"#utility.yul\":11288:11337   */\n    tag_268:\n        /* \"#utility.yul\":11350:11430   */\n      tag_269\n        /* \"#utility.yul\":11406:11428   */\n      tag_270\n        /* \"#utility.yul\":11424:11427   */\n      dup6\n        /* \"#utility.yul\":11406:11428   */\n      tag_125\n      jump\t// in\n    tag_270:\n        /* \"#utility.yul\":11396:11404   */\n      dup4\n        /* \"#utility.yul\":11392:11429   */\n      add\n        /* \"#utility.yul\":11379:11390   */\n      dup3\n        /* \"#utility.yul\":11350:11430   */\n      tag_134\n      jump\t// in\n    tag_269:\n        /* \"#utility.yul\":11009:11440   */\n      pop\n      pop\n        /* \"#utility.yul\":10994:11440   */\n    tag_265:\n        /* \"#utility.yul\":10904:11447   */\n      pop\n      pop\n      pop\n      jump\t// out\n        /* \"#utility.yul\":11453:11570   */\n    tag_136:\n        /* \"#utility.yul\":11507:11515   */\n      0x00\n        /* \"#utility.yul\":11557:11562   */\n      dup3\n        /* \"#utility.yul\":11551:11555   */\n      dup3\n        /* \"#utility.yul\":11547:11563   */\n      shr\n        /* \"#utility.yul\":11526:11563   */\n      swap1\n      pop\n        /* \"#utility.yul\":11453:11570   */\n      swap3\n      swap2\n      pop\n      pop\n      jump\t// out\n        /* \"#utility.yul\":11576:11745   */\n    tag_137:\n        /* \"#utility.yul\":11620:11626   */\n      0x00\n        /* \"#utility.yul\":11653:11704   */\n      tag_273\n        /* \"#utility.yul\":11701:11702   */\n      0x00\n        /* \"#utility.yul\":11697:11703   */\n      not\n        /* \"#utility.yul\":11689:11694   */\n      dup5\n        /* \"#utility.yul\":11686:11687   */\n      0x08\n        /* \"#utility.yul\":11682:11695   */\n      mul\n        /* \"#utility.yul\":11653:11704   */\n      tag_136\n      jump\t// in\n    tag_273:\n        /* \"#utility.yul\":11649:11705   */\n      not\n        /* \"#utility.yul\":11734:11738   */\n      dup1\n        /* \"#utility.yul\":11728:11732   */\n      dup4\n        /* \"#utility.yul\":11724:11739   */\n      and\n        /* \"#utility.yul\":11714:11739   */\n      swap2\n      pop\n        /* \"#utility.yul\":11627:11745   */\n      pop\n        /* \"#utility.yul\":11576:11745   */\n      swap3\n      swap2\n      pop\n      pop\n      jump\t// out\n        /* \"#utility.yul\":11750:12045   */\n    tag_138:\n        /* \"#utility.yul\":11826:11830   */\n      0x00\n        /* \"#utility.yul\":11972:12001   */\n      tag_275\n        /* \"#utility.yul\":11997:12000   */\n      dup4\n        /* \"#utility.yul\":11991:11995   */\n      dup4\n        /* \"#utility.yul\":11972:12001   */\n      tag_137\n      jump\t// in\n    tag_275:\n        /* \"#utility.yul\":11964:12001   */\n      swap2\n      pop\n        /* \"#utility.yul\":12034:12037   */\n      dup3\n        /* \"#utility.yul\":12031:12032   */\n      0x02\n        /* \"#utility.yul\":12027:12038   */\n      mul\n        /* \"#utility.yul\":12021:12025   */\n      dup3\n        /* \"#utility.yul\":12018:12039   */\n      or\n        /* \"#utility.yul\":12010:12039   */\n      swap1\n      pop\n        /* \"#utility.yul\":11750:12045   */\n      swap3\n      swap2\n      pop\n      pop\n      jump\t// out\n        /* \"#utility.yul\":12050:13445   */\n    tag_68:\n        /* \"#utility.yul\":12167:12204   */\n      tag_277\n        /* \"#utility.yul\":12200:12203   */\n      dup3\n        /* \"#utility.yul\":12167:12204   */\n      tag_114\n      jump\t// in\n    tag_277:\n        /* \"#utility.yul\":12269:12287   */\n      0xffffffffffffffff\n        /* \"#utility.yul\":12261:12267   */\n      dup2\n        /* \"#utility.yul\":12258:12288   */\n      gt\n        /* \"#utility.yul\":12255:12311   */\n      iszero\n      tag_278\n      jumpi\n        /* \"#utility.yul\":12291:12309   */\n      tag_279\n      tag_107\n      jump\t// in\n    tag_279:\n        /* \"#utility.yul\":12255:12311   */\n    tag_278:\n        /* \"#utility.yul\":12335:12373   */\n      tag_280\n        /* \"#utility.yul\":12367:12371   */\n      dup3\n        /* \"#utility.yul\":12361:12372   */\n      sload\n        /* \"#utility.yul\":12335:12373   */\n      tag_70\n      jump\t// in\n    tag_280:\n        /* \"#utility.yul\":12420:12487   */\n      tag_281\n        /* \"#utility.yul\":12480:12486   */\n      dup3\n        /* \"#utility.yul\":12472:12478   */\n      dup3\n        /* \"#utility.yul\":12466:12470   */\n      dup6\n        /* \"#utility.yul\":12420:12487   */\n      tag_135\n      jump\t// in\n    tag_281:\n        /* \"#utility.yul\":12514:12515   */\n      0x00\n        /* \"#utility.yul\":12538:12542   */\n      0x20\n        /* \"#utility.yul\":12525:12542   */\n      swap1\n      pop\n        /* \"#utility.yul\":12570:12572   */\n      0x1f\n        /* \"#utility.yul\":12562:12568   */\n      dup4\n        /* \"#utility.yul\":12559:12573   */\n      gt\n        /* \"#utility.yul\":12587:12588   */\n      0x01\n        /* \"#utility.yul\":12582:13200   */\n      dup2\n      eq\n      tag_283\n      jumpi\n        /* \"#utility.yul\":13244:13245   */\n      0x00\n        /* \"#utility.yul\":13261:13267   */\n      dup5\n        /* \"#utility.yul\":13258:13335   */\n      iszero\n      tag_284\n      jumpi\n        /* \"#utility.yul\":13310:13319   */\n      dup3\n        /* \"#utility.yul\":13305:13308   */\n      dup8\n        /* \"#utility.yul\":13301:13320   */\n      add\n        /* \"#utility.yul\":13295:13321   */\n      mload\n        /* \"#utility.yul\":13286:13321   */\n      swap1\n      pop\n        /* \"#utility.yul\":13258:13335   */\n    tag_284:\n        /* \"#utility.yul\":13361:13428   */\n      tag_285\n        /* \"#utility.yul\":13421:13427   */\n      dup6\n        /* \"#utility.yul\":13414:13419   */\n      dup3\n        /* \"#utility.yul\":13361:13428   */\n      tag_138\n      jump\t// in\n    tag_285:\n        /* \"#utility.yul\":13355:13359   */\n      dup7\n        /* \"#utility.yul\":13348:13429   */\n      sstore\n        /* \"#utility.yul\":13217:13439   */\n      pop\n        /* \"#utility.yul\":12552:13439   */\n      jump(tag_282)\n        /* \"#utility.yul\":12582:13200   */\n    tag_283:\n        /* \"#utility.yul\":12634:12638   */\n      0x1f\n        /* \"#utility.yul\":12630:12639   */\n      not\n        /* \"#utility.yul\":12622:12628   */\n      dup5\n        /* \"#utility.yul\":12618:12640   */\n      and\n        /* \"#utility.yul\":12668:12705   */\n      tag_286\n        /* \"#utility.yul\":12700:12704   */\n      dup7\n        /* \"#utility.yul\":12668:12705   */\n      tag_124\n      jump\t// in\n    tag_286:\n        /* \"#utility.yul\":12727:12728   */\n      0x00\n        /* \"#utility.yul\":12741:12949   */\n    tag_287:\n        /* \"#utility.yul\":12755:12762   */\n      dup3\n        /* \"#utility.yul\":12752:12753   */\n      dup2\n        /* \"#utility.yul\":12749:12763   */\n      lt\n        /* \"#utility.yul\":12741:12949   */\n      iszero\n      tag_289\n      jumpi\n        /* \"#utility.yul\":12834:12843   */\n      dup5\n        /* \"#utility.yul\":12829:12832   */\n      dup10\n        /* \"#utility.yul\":12825:12844   */\n      add\n        /* \"#utility.yul\":12819:12845   */\n      mload\n        /* \"#utility.yul\":12811:12817   */\n      dup3\n        /* \"#utility.yul\":12804:12846   */\n      sstore\n        /* \"#utility.yul\":12885:12886   */\n      0x01\n        /* \"#utility.yul\":12877:12883   */\n      dup3\n        /* \"#utility.yul\":12873:12887   */\n      add\n        /* \"#utility.yul\":12863:12887   */\n      swap2\n      pop\n        /* \"#utility.yul\":12932:12934   */\n      0x20\n        /* \"#utility.yul\":12921:12930   */\n      dup6\n        /* \"#utility.yul\":12917:12935   */\n      add\n        /* \"#utility.yul\":12904:12935   */\n      swap5\n      pop\n        /* \"#utility.yul\":12778:12782   */\n      0x20\n        /* \"#utility.yul\":12775:12776   */\n      dup2\n        /* \"#utility.yul\":12771:12783   */\n      add\n        /* \"#utility.yul\":12766:12783   */\n      swap1\n      pop\n        /* \"#utility.yul\":12741:12949   */\n      jump(tag_287)\n    tag_289:\n        /* \"#utility.yul\":12977:12983   */\n      dup7\n        /* \"#utility.yul\":12968:12975   */\n      dup4\n        /* \"#utility.yul\":12965:12984   */\n      lt\n        /* \"#utility.yul\":12962:13141   */\n      iszero\n      tag_290\n      jumpi\n        /* \"#utility.yul\":13035:13044   */\n      dup5\n        /* \"#utility.yul\":13030:13033   */\n      dup10\n        /* \"#utility.yul\":13026:13045   */\n      add\n        /* \"#utility.yul\":13020:13046   */\n      mload\n        /* \"#utility.yul\":13078:13126   */\n      tag_291\n        /* \"#utility.yul\":13120:13124   */\n      0x1f\n        /* \"#utility.yul\":13112:13118   */\n      dup10\n        /* \"#utility.yul\":13108:13125   */\n      and\n        /* \"#utility.yul\":13097:13106   */\n      dup3\n        /* \"#utility.yul\":13078:13126   */\n      tag_137\n      jump\t// in\n    tag_291:\n        /* \"#utility.yul\":13070:13076   */\n      dup4\n        /* \"#utility.yul\":13063:13127   */\n      sstore\n        /* \"#utility.yul\":12985:13141   */\n      pop\n        /* \"#utility.yul\":12962:13141   */\n    tag_290:\n        /* \"#utility.yul\":13187:13188   */\n      0x01\n        /* \"#utility.yul\":13183:13184   */\n      0x02\n        /* \"#utility.yul\":13175:13181   */\n      dup9\n        /* \"#utility.yul\":13171:13185   */\n      mul\n        /* \"#utility.yul\":13167:13189   */\n      add\n        /* \"#utility.yul\":13161:13165   */\n      dup9\n        /* \"#utility.yul\":13154:13190   */\n      sstore\n        /* \"#utility.yul\":12589:13200   */\n      pop\n      pop\n      pop\n        /* \"#utility.yul\":12552:13439   */\n    tag_282:\n      pop\n        /* \"#utility.yul\":12142:13445   */\n      pop\n      pop\n      pop\n        /* \"#utility.yul\":12050:13445   */\n      pop\n      pop\n      jump\t// out\n        /* \"#utility.yul\":13451:13631   */\n    tag_90:\n        /* \"#utility.yul\":13499:13576   */\n      0x4e487b7100000000000000000000000000000000000000000000000000000000\n        /* \"#utility.yul\":13496:13497   */\n      0x00\n        /* \"#utility.yul\":13489:13577   */\n      mstore\n        /* \"#utility.yul\":13596:13600   */\n      0x32\n        /* \"#utility.yul\":13593:13594   */\n      0x04\n        /* \"#utility.yul\":13586:13601   */\n      mstore\n        /* \"#utility.yul\":13620:13624   */\n      0x24\n        /* \"#utility.yul\":13617:13618   */\n      0x00\n        /* \"#utility.yul\":13610:13625   */\n      revert\n\n    auxdata: 0xa2646970667358221220a71b698d767fc2a128630655eb903bad3c66794c522ede6fd1a86db26ecca27464736f6c63430008120033\n}\n",
				"bytecode": {
					"linkReferences": {},
					"object": "60806040526040518060600160405280600160ff168152602001600260ff168152602001600360ff16815250600190600361003b92919061004e565b5034801561004857600080fd5b506100bd565b82805482825590600052602060002090810192821561008f579160200282015b8281111561008e578251829060ff1690559160200191906001019061006e565b5b50905061009c91906100a0565b5090565b5b808211156100b95760008160009055506001016100a1565b5090565b610dce806100cc6000396000f3fe608060405234801561001057600080fd5b50600436106100a95760003560e01c80637f879e20116100715780637f879e201461018b578063aa0a9171146101bc578063ab35ec63146101d8578063c68d81e014610208578063d6b497c514610238578063f3800b3814610254576100a9565b806314a0bdb3146100ae5780631796fbcf146100ca57806349c5460f146100fa57806367f645541461012b57806372233c5e1461015b575b600080fd5b6100c860048036038101906100c391906106be565b610270565b005b6100e460048036038101906100df9190610844565b6102b7565b6040516100f1919061096b565b60405180910390f35b610114600480360381019061010f919061098d565b610330565b604051610122929190610a13565b60405180910390f35b6101456004803603810190610140919061098d565b6103dc565b6040516101529190610a43565b60405180910390f35b61017560048036038101906101709190610a5e565b610400565b6040516101829190610a43565b60405180910390f35b6101a560048036038101906101a0919061098d565b610448565b6040516101b3929190610a13565b60405180910390f35b6101d660048036038101906101d1919061098d565b610504565b005b6101f260048036038101906101ed919061098d565b610530565b6040516101ff9190610a43565b60405180910390f35b610222600480360381019061021d9190610a5e565b610558565b60405161022f9190610a43565b60405180910390f35b610252600480360381019061024d91906106be565b610570565b005b61026e60048036038101906102699190610a5e565b6105b7565b005b806000808473ffffffffffffffffffffffffffffffffffffffff1673ffffffffffffffffffffffffffffffffffffffff168152602001908152602001600020819055505050565b6102bf6105fc565b60006040518060400160405280858152602001848152509050600381908060018154018082558091505060019003906000526020600020906002020160009091909190915060008201518160000190816103199190610c97565b506020820151816001015550508091505092915050565b600260205280600052604060002060009150905080600001805461035390610aba565b80601f016020809104026020016040519081016040528092919081815260200182805461037f90610aba565b80156103cc5780601f106103a1576101008083540402835291602001916103cc565b820191906000526020600020905b8154815290600101906020018083116103af57829003601f168201915b5050505050908060010154905082565b600181815481106103ec57600080fd5b906000526020600020016000915090505481565b60008060008373ffffffffffffffffffffffffffffffffffffffff1673ffffffffffffffffffffffffffffffffffffffff168152602001908152602001600020549050919050565b6003818154811061045857600080fd5b906000526020600020906002020160009150905080600001805461047b90610aba565b80601f01602080910402602001604051908101604052809291908181526020018280546104a790610aba565b80156104f45780601f106104c9576101008083540402835291602001916104f4565b820191906000526020600020905b8154815290600101906020018083116104d757829003601f168201915b5050505050908060010154905082565b600181908060018154018082558091505060019003906000526020600020016000909190919091505550565b60006001828154811061054657610545610d69565b5b90600052602060002001549050919050565b60006020528060005260406000206000915090505481565b806000808473ffffffffffffffffffffffffffffffffffffffff1673ffffffffffffffffffffffffffffffffffffffff168152602001908152602001600020819055505050565b6000808273ffffffffffffffffffffffffffffffffffffffff1673ffffffffffffffffffffffffffffffffffffffff1681526020019081526020016000206000905550565b604051806040016040528060608152602001600081525090565b6000604051905090565b600080fd5b600080fd5b600073ffffffffffffffffffffffffffffffffffffffff82169050919050565b60006106558261062a565b9050919050565b6106658161064a565b811461067057600080fd5b50565b6000813590506106828161065c565b92915050565b6000819050919050565b61069b81610688565b81146106a657600080fd5b50565b6000813590506106b881610692565b92915050565b600080604083850312156106d5576106d4610620565b5b60006106e385828601610673565b92505060206106f4858286016106a9565b9150509250929050565b600080fd5b600080fd5b6000601f19601f8301169050919050565b7f4e487b7100000000000000000000000000000000000000000000000000000000600052604160045260246000fd5b61075182610708565b810181811067ffffffffffffffff821117156107705761076f610719565b5b80604052505050565b6000610783610616565b905061078f8282610748565b919050565b600067ffffffffffffffff8211156107af576107ae610719565b5b6107b882610708565b9050602081019050919050565b82818337600083830152505050565b60006107e76107e284610794565b610779565b90508281526020810184848401111561080357610802610703565b5b61080e8482856107c5565b509392505050565b600082601f83011261082b5761082a6106fe565b5b813561083b8482602086016107d4565b91505092915050565b6000806040838503121561085b5761085a610620565b5b600083013567ffffffffffffffff81111561087957610878610625565b5b61088585828601610816565b9250506020610896858286016106a9565b9150509250929050565b600081519050919050565b600082825260208201905092915050565b60005b838110156108da5780820151818401526020810190506108bf565b60008484015250505050565b60006108f1826108a0565b6108fb81856108ab565b935061090b8185602086016108bc565b61091481610708565b840191505092915050565b61092881610688565b82525050565b6000604083016000830151848203600086015261094b82826108e6565b9150506020830151610960602086018261091f565b508091505092915050565b60006020820190508181036000830152610985818461092e565b905092915050565b6000602082840312156109a3576109a2610620565b5b60006109b1848285016106a9565b91505092915050565b600082825260208201905092915050565b60006109d6826108a0565b6109e081856109ba565b93506109f08185602086016108bc565b6109f981610708565b840191505092915050565b610a0d81610688565b82525050565b60006040820190508181036000830152610a2d81856109cb565b9050610a3c6020830184610a04565b9392505050565b6000602082019050610a586000830184610a04565b92915050565b600060208284031215610a7457610a73610620565b5b6000610a8284828501610673565b91505092915050565b7f4e487b7100000000000000000000000000000000000000000000000000000000600052602260045260246000fd5b60006002820490506001821680610ad257607f821691505b602082108103610ae557610ae4610a8b565b5b50919050565b60008190508160005260206000209050919050565b60006020601f8301049050919050565b600082821b905092915050565b600060088302610b4d7fffffffffffffffffffffffffffffffffffffffffffffffffffffffffffffffff82610b10565b610b578683610b10565b95508019841693508086168417925050509392505050565b6000819050919050565b6000610b94610b8f610b8a84610688565b610b6f565b610688565b9050919050565b6000819050919050565b610bae83610b79565b610bc2610bba82610b9b565b848454610b1d565b825550505050565b600090565b610bd7610bca565b610be2818484610ba5565b505050565b5b81811015610c0657610bfb600082610bcf565b600181019050610be8565b5050565b601f821115610c4b57610c1c81610aeb565b610c2584610b00565b81016020851015610c34578190505b610c48610c4085610b00565b830182610be7565b50505b505050565b600082821c905092915050565b6000610c6e60001984600802610c50565b1980831691505092915050565b6000610c878383610c5d565b9150826002028217905092915050565b610ca0826108a0565b67ffffffffffffffff811115610cb957610cb8610719565b5b610cc38254610aba565b610cce828285610c0a565b600060209050601f831160018114610d015760008415610cef578287015190505b610cf98582610c7b565b865550610d61565b601f198416610d0f86610aeb565b60005b82811015610d3757848901518255600182019150602085019450602081019050610d12565b86831015610d545784890151610d50601f891682610c5d565b8355505b6001600288020188555050505b505050505050565b7f4e487b7100000000000000000000000000000000000000000000000000000000600052603260045260246000fdfea2646970667358221220a71b698d767fc2a128630655eb903bad3c66794c522ede6fd1a86db26ecca27464736f6c63430008120033",
					"opcodes": "PUSH1 0x80 PUSH1 0x40 MSTORE PUSH1 0x40 MLOAD DUP1 PUSH1 0x60 ADD PUSH1 0x40 MSTORE DUP1 PUSH1 0x1 PUSH1 0xFF AND DUP2 MSTORE PUSH1 0x20 ADD PUSH1 0x2 PUSH1 0xFF AND DUP2 MSTORE PUSH1 0x20 ADD PUSH1 0x3 PUSH1 0xFF AND DUP2 MSTORE POP PUSH1 0x1 SWAP1 PUSH1 0x3 PUSH2 0x3B SWAP3 SWAP2 SWAP1 PUSH2 0x4E JUMP JUMPDEST POP CALLVALUE DUP1 ISZERO PUSH2 0x48 JUMPI PUSH1 0x0 DUP1 REVERT JUMPDEST POP PUSH2 0xBD JUMP JUMPDEST DUP3 DUP1 SLOAD DUP3 DUP3 SSTORE SWAP1 PUSH1 0x0 MSTORE PUSH1 0x20 PUSH1 0x0 KECCAK256 SWAP1 DUP2 ADD SWAP3 DUP3 ISZERO PUSH2 0x8F JUMPI SWAP2 PUSH1 0x20 MUL DUP3 ADD JUMPDEST DUP3 DUP2 GT ISZERO PUSH2 0x8E JUMPI DUP3 MLOAD DUP3 SWAP1 PUSH1 0xFF AND SWAP1 SSTORE SWAP2 PUSH1 0x20 ADD SWAP2 SWAP1 PUSH1 0x1 ADD SWAP1 PUSH2 0x6E JUMP JUMPDEST JUMPDEST POP SWAP1 POP PUSH2 0x9C SWAP2 SWAP1 PUSH2 0xA0 JUMP JUMPDEST POP SWAP1 JUMP JUMPDEST JUMPDEST DUP1 DUP3 GT ISZERO PUSH2 0xB9 JUMPI PUSH1 0x0 DUP2 PUSH1 0x0 SWAP1 SSTORE POP PUSH1 0x1 ADD PUSH2 0xA1 JUMP JUMPDEST POP SWAP1 JUMP JUMPDEST PUSH2 0xDCE DUP1 PUSH2 0xCC PUSH1 0x0 CODECOPY PUSH1 0x0 RETURN INVALID PUSH1 0x80 PUSH1 0x40 MSTORE CALLVALUE DUP1 ISZERO PUSH2 0x10 JUMPI PUSH1 0x0 DUP1 REVERT JUMPDEST POP PUSH1 0x4 CALLDATASIZE LT PUSH2 0xA9 JUMPI PUSH1 0x0 CALLDATALOAD PUSH1 0xE0 SHR DUP1 PUSH4 0x7F879E20 GT PUSH2 0x71 JUMPI DUP1 PUSH4 0x7F879E20 EQ PUSH2 0x18B JUMPI DUP1 PUSH4 0xAA0A9171 EQ PUSH2 0x1BC JUMPI DUP1 PUSH4 0xAB35EC63 EQ PUSH2 0x1D8 JUMPI DUP1 PUSH4 0xC68D81E0 EQ PUSH2 0x208 JUMPI DUP1 PUSH4 0xD6B497C5 EQ PUSH2 0x238 JUMPI DUP1 PUSH4 0xF3800B38 EQ PUSH2 0x254 JUMPI PUSH2 0xA9 JUMP JUMPDEST DUP1 PUSH4 0x14A0BDB3 EQ PUSH2 0xAE JUMPI DUP1 PUSH4 0x1796FBCF EQ PUSH2 0xCA JUMPI DUP1 PUSH4 0x49C5460F EQ PUSH2 0xFA JUMPI DUP1 PUSH4 0x67F64554 EQ PUSH2 0x12B JUMPI DUP1 PUSH4 0x72233C5E EQ PUSH2 0x15B JUMPI JUMPDEST PUSH1 0x0 DUP1 REVERT JUMPDEST PUSH2 0xC8 PUSH1 0x4 DUP1 CALLDATASIZE SUB DUP2 ADD SWAP1 PUSH2 0xC3 SWAP2 SWAP1 PUSH2 0x6BE JUMP JUMPDEST PUSH2 0x270 JUMP JUMPDEST STOP JUMPDEST PUSH2 0xE4 PUSH1 0x4 DUP1 CALLDATASIZE SUB DUP2 ADD SWAP1 PUSH2 0xDF SWAP2 SWAP1 PUSH2 0x844 JUMP JUMPDEST PUSH2 0x2B7 JUMP JUMPDEST PUSH1 0x40 MLOAD PUSH2 0xF1 SWAP2 SWAP1 PUSH2 0x96B JUMP JUMPDEST PUSH1 0x40 MLOAD DUP1 SWAP2 SUB SWAP1 RETURN JUMPDEST PUSH2 0x114 PUSH1 0x4 DUP1 CALLDATASIZE SUB DUP2 ADD SWAP1 PUSH2 0x10F SWAP2 SWAP1 PUSH2 0x98D JUMP JUMPDEST PUSH2 0x330 JUMP JUMPDEST PUSH1 0x40 MLOAD PUSH2 0x122 SWAP3 SWAP2 SWAP1 PUSH2 0xA13 JUMP JUMPDEST PUSH1 0x40 MLOAD DUP1 SWAP2 SUB SWAP1 RETURN JUMPDEST PUSH2 0x145 PUSH1 0x4 DUP1 CALLDATASIZE SUB DUP2 ADD SWAP1 PUSH2 0x140 SWAP2 SWAP1 PUSH2 0x98D JUMP JUMPDEST PUSH2 0x3DC JUMP JUMPDEST PUSH1 0x40 MLOAD PUSH2 0x152 SWAP2 SWAP1 PUSH2 0xA43 JUMP JUMPDEST PUSH1 0x40 MLOAD DUP1 SWAP2 SUB SWAP1 RETURN JUMPDEST PUSH2 0x175 PUSH1 0x4 DUP1 CALLDATASIZE SUB DUP2 ADD SWAP1 PUSH2 0x170 SWAP2 SWAP1 PUSH2 0xA5E JUMP JUMPDEST PUSH2 0x400 JUMP JUMPDEST PUSH1 0x40 MLOAD PUSH2 0x182 SWAP2 SWAP1 PUSH2 0xA43 JUMP JUMPDEST PUSH1 0x40 MLOAD DUP1 SWAP2 SUB SWAP1 RETURN JUMPDEST PUSH2 0x1A5 PUSH1 0x4 DUP1 CALLDATASIZE SUB DUP2 ADD SWAP1 PUSH2 0x1A0 SWAP2 SWAP1 PUSH2 0x98D JUMP JUMPDEST PUSH2 0x448 JUMP JUMPDEST PUSH1 0x40 MLOAD PUSH2 0x1B3 SWAP3 SWAP2 SWAP1 PUSH2 0xA13 JUMP JUMPDEST PUSH1 0x40 MLOAD DUP1 SWAP2 SUB SWAP1 RETURN JUMPDEST PUSH2 0x1D6 PUSH1 0x4 DUP1 CALLDATASIZE SUB DUP2 ADD SWAP1 PUSH2 0x1D1 SWAP2 SWAP1 PUSH2 0x98D JUMP JUMPDEST PUSH2 0x504 JUMP JUMPDEST STOP JUMPDEST PUSH2 0x1F2 PUSH1 0x4 DUP1 CALLDATASIZE SUB DUP2 ADD SWAP1 PUSH2 0x1ED SWAP2 SWAP1 PUSH2 0x98D JUMP JUMPDEST PUSH2 0x530 JUMP JUMPDEST PUSH1 0x40 MLOAD PUSH2 0x1FF SWAP2 SWAP1 PUSH2 0xA43 JUMP JUMPDEST PUSH1 0x40 MLOAD DUP1 SWAP2 SUB SWAP1 RETURN JUMPDEST PUSH2 0x222 PUSH1 0x4 DUP1 CALLDATASIZE SUB DUP2 ADD SWAP1 PUSH2 0x21D SWAP2 SWAP1 PUSH2 0xA5E JUMP JUMPDEST PUSH2 0x558 JUMP JUMPDEST PUSH1 0x40 MLOAD PUSH2 0x22F SWAP2 SWAP1 PUSH2 0xA43 JUMP JUMPDEST PUSH1 0x40 MLOAD DUP1 SWAP2 SUB SWAP1 RETURN JUMPDEST PUSH2 0x252 PUSH1 0x4 DUP1 CALLDATASIZE SUB DUP2 ADD SWAP1 PUSH2 0x24D SWAP2 SWAP1 PUSH2 0x6BE JUMP JUMPDEST PUSH2 0x570 JUMP JUMPDEST STOP JUMPDEST PUSH2 0x26E PUSH1 0x4 DUP1 CALLDATASIZE SUB DUP2 ADD SWAP1 PUSH2 0x269 SWAP2 SWAP1 PUSH2 0xA5E JUMP JUMPDEST PUSH2 0x5B7 JUMP JUMPDEST STOP JUMPDEST DUP1 PUSH1 0x0 DUP1 DUP5 PUSH20 0xFFFFFFFFFFFFFFFFFFFFFFFFFFFFFFFFFFFFFFFF AND PUSH20 0xFFFFFFFFFFFFFFFFFFFFFFFFFFFFFFFFFFFFFFFF AND DUP2 MSTORE PUSH1 0x20 ADD SWAP1 DUP2 MSTORE PUSH1 0x20 ADD PUSH1 0x0 KECCAK256 DUP2 SWAP1 SSTORE POP POP POP JUMP JUMPDEST PUSH2 0x2BF PUSH2 0x5FC JUMP JUMPDEST PUSH1 0x0 PUSH1 0x40 MLOAD DUP1 PUSH1 0x40 ADD PUSH1 0x40 MSTORE DUP1 DUP6 DUP2 MSTORE PUSH1 0x20 ADD DUP5 DUP2 MSTORE POP SWAP1 POP PUSH1 0x3 DUP2 SWAP1 DUP1 PUSH1 0x1 DUP2 SLOAD ADD DUP1 DUP3 SSTORE DUP1 SWAP2 POP POP PUSH1 0x1 SWAP1 SUB SWAP1 PUSH1 0x0 MSTORE PUSH1 0x20 PUSH1 0x0 KECCAK256 SWAP1 PUSH1 0x2 MUL ADD PUSH1 0x0 SWAP1 SWAP2 SWAP1 SWAP2 SWAP1 SWAP2 POP PUSH1 0x0 DUP3 ADD MLOAD DUP2 PUSH1 0x0 ADD SWAP1 DUP2 PUSH2 0x319 SWAP2 SWAP1 PUSH2 0xC97 JUMP JUMPDEST POP PUSH1 0x20 DUP3 ADD MLOAD DUP2 PUSH1 0x1 ADD SSTORE POP POP DUP1 SWAP2 POP POP SWAP3 SWAP2 POP POP JUMP JUMPDEST PUSH1 0x2 PUSH1 0x20 MSTORE DUP1 PUSH1 0x0 MSTORE PUSH1 0x40 PUSH1 0x0 KECCAK256 PUSH1 0x0 SWAP2 POP SWAP1 POP DUP1 PUSH1 0x0 ADD DUP1 SLOAD PUSH2 0x353 SWAP1 PUSH2 0xABA JUMP JUMPDEST DUP1 PUSH1 0x1F ADD PUSH1 0x20 DUP1 SWAP2 DIV MUL PUSH1 0x20 ADD PUSH1 0x40 MLOAD SWAP1 DUP2 ADD PUSH1 0x40 MSTORE DUP1 SWAP3 SWAP2 SWAP1 DUP2 DUP2 MSTORE PUSH1 0x20 ADD DUP3 DUP1 SLOAD PUSH2 0x37F SWAP1 PUSH2 0xABA JUMP JUMPDEST DUP1 ISZERO PUSH2 0x3CC JUMPI DUP1 PUSH1 0x1F LT PUSH2 0x3A1 JUMPI PUSH2 0x100 DUP1 DUP4 SLOAD DIV MUL DUP4 MSTORE SWAP2 PUSH1 0x20 ADD SWAP2 PUSH2 0x3CC JUMP JUMPDEST DUP3 ADD SWAP2 SWAP1 PUSH1 0x0 MSTORE PUSH1 0x20 PUSH1 0x0 KECCAK256 SWAP1 JUMPDEST DUP2 SLOAD DUP2 MSTORE SWAP1 PUSH1 0x1 ADD SWAP1 PUSH1 0x20 ADD DUP1 DUP4 GT PUSH2 0x3AF JUMPI DUP3 SWAP1 SUB PUSH1 0x1F AND DUP3 ADD SWAP2 JUMPDEST POP POP POP POP POP SWAP1 DUP1 PUSH1 0x1 ADD SLOAD SWAP1 POP DUP3 JUMP JUMPDEST PUSH1 0x1 DUP2 DUP2 SLOAD DUP2 LT PUSH2 0x3EC JUMPI PUSH1 0x0 DUP1 REVERT JUMPDEST SWAP1 PUSH1 0x0 MSTORE PUSH1 0x20 PUSH1 0x0 KECCAK256 ADD PUSH1 0x0 SWAP2 POP SWAP1 POP SLOAD DUP2 JUMP JUMPDEST PUSH1 0x0 DUP1 PUSH1 0x0 DUP4 PUSH20 0xFFFFFFFFFFFFFFFFFFFFFFFFFFFFFFFFFFFFFFFF AND PUSH20 0xFFFFFFFFFFFFFFFFFFFFFFFFFFFFFFFFFFFFFFFF AND DUP2 MSTORE PUSH1 0x20 ADD SWAP1 DUP2 MSTORE PUSH1 0x20 ADD PUSH1 0x0 KECCAK256 SLOAD SWAP1 POP SWAP2 SWAP1 POP JUMP JUMPDEST PUSH1 0x3 DUP2 DUP2 SLOAD DUP2 LT PUSH2 0x458 JUMPI PUSH1 0x0 DUP1 REVERT JUMPDEST SWAP1 PUSH1 0x0 MSTORE PUSH1 0x20 PUSH1 0x0 KECCAK256 SWAP1 PUSH1 0x2 MUL ADD PUSH1 0x0 SWAP2 POP SWAP1 POP DUP1 PUSH1 0x0 ADD DUP1 SLOAD PUSH2 0x47B SWAP1 PUSH2 0xABA JUMP JUMPDEST DUP1 PUSH1 0x1F ADD PUSH1 0x20 DUP1 SWAP2 DIV MUL PUSH1 0x20 ADD PUSH1 0x40 MLOAD SWAP1 DUP2 ADD PUSH1 0x40 MSTORE DUP1 SWAP3 SWAP2 SWAP1 DUP2 DUP2 MSTORE PUSH1 0x20 ADD DUP3 DUP1 SLOAD PUSH2 0x4A7 SWAP1 PUSH2 0xABA JUMP JUMPDEST DUP1 ISZERO PUSH2 0x4F4 JUMPI DUP1 PUSH1 0x1F LT PUSH2 0x4C9 JUMPI PUSH2 0x100 DUP1 DUP4 SLOAD DIV MUL DUP4 MSTORE SWAP2 PUSH1 0x20 ADD SWAP2 PUSH2 0x4F4 JUMP JUMPDEST DUP3 ADD SWAP2 SWAP1 PUSH1 0x0 MSTORE PUSH1 0x20 PUSH1 0x0 KECCAK256 SWAP1 JUMPDEST DUP2 SLOAD DUP2 MSTORE SWAP1 PUSH1 0x1 ADD SWAP1 PUSH1 0x20 ADD DUP1 DUP4 GT PUSH2 0x4D7 JUMPI DUP3 SWAP1 SUB PUSH1 0x1F AND DUP3 ADD SWAP2 JUMPDEST POP POP POP POP POP SWAP1 DUP1 PUSH1 0x1 ADD SLOAD SWAP1 POP DUP3 JUMP JUMPDEST PUSH1 0x1 DUP2 SWAP1 DUP1 PUSH1 0x1 DUP2 SLOAD ADD DUP1 DUP3 SSTORE DUP1 SWAP2 POP POP PUSH1 0x1 SWAP1 SUB SWAP1 PUSH1 0x0 MSTORE PUSH1 0x20 PUSH1 0x0 KECCAK256 ADD PUSH1 0x0 SWAP1 SWAP2 SWAP1 SWAP2 SWAP1 SWAP2 POP SSTORE POP JUMP JUMPDEST PUSH1 0x0 PUSH1 0x1 DUP3 DUP2 SLOAD DUP2 LT PUSH2 0x546 JUMPI PUSH2 0x545 PUSH2 0xD69 JUMP JUMPDEST JUMPDEST SWAP1 PUSH1 0x0 MSTORE PUSH1 0x20 PUSH1 0x0 KECCAK256 ADD SLOAD SWAP1 POP SWAP2 SWAP1 POP JUMP JUMPDEST PUSH1 0x0 PUSH1 0x20 MSTORE DUP1 PUSH1 0x0 MSTORE PUSH1 0x40 PUSH1 0x0 KECCAK256 PUSH1 0x0 SWAP2 POP SWAP1 POP SLOAD DUP2 JUMP JUMPDEST DUP1 PUSH1 0x0 DUP1 DUP5 PUSH20 0xFFFFFFFFFFFFFFFFFFFFFFFFFFFFFFFFFFFFFFFF AND PUSH20 0xFFFFFFFFFFFFFFFFFFFFFFFFFFFFFFFFFFFFFFFF AND DUP2 MSTORE PUSH1 0x20 ADD SWAP1 DUP2 MSTORE PUSH1 0x20 ADD PUSH1 0x0 KECCAK256 DUP2 SWAP1 SSTORE POP POP POP JUMP JUMPDEST PUSH1 0x0 DUP1 DUP3 PUSH20 0xFFFFFFFFFFFFFFFFFFFFFFFFFFFFFFFFFFFFFFFF AND PUSH20 0xFFFFFFFFFFFFFFFFFFFFFFFFFFFFFFFFFFFFFFFF AND DUP2 MSTORE PUSH1 0x20 ADD SWAP1 DUP2 MSTORE PUSH1 0x20 ADD PUSH1 0x0 KECCAK256 PUSH1 0x0 SWAP1 SSTORE POP JUMP JUMPDEST PUSH1 0x40 MLOAD DUP1 PUSH1 0x40 ADD PUSH1 0x40 MSTORE DUP1 PUSH1 0x60 DUP2 MSTORE PUSH1 0x20 ADD PUSH1 0x0 DUP2 MSTORE POP SWAP1 JUMP JUMPDEST PUSH1 0x0 PUSH1 0x40 MLOAD SWAP1 POP SWAP1 JUMP JUMPDEST PUSH1 0x0 DUP1 REVERT JUMPDEST PUSH1 0x0 DUP1 REVERT JUMPDEST PUSH1 0x0 PUSH20 0xFFFFFFFFFFFFFFFFFFFFFFFFFFFFFFFFFFFFFFFF DUP3 AND SWAP1 POP SWAP2 SWAP1 POP JUMP JUMPDEST PUSH1 0x0 PUSH2 0x655 DUP3 PUSH2 0x62A JUMP JUMPDEST SWAP1 POP SWAP2 SWAP1 POP JUMP JUMPDEST PUSH2 0x665 DUP2 PUSH2 0x64A JUMP JUMPDEST DUP2 EQ PUSH2 0x670 JUMPI PUSH1 0x0 DUP1 REVERT JUMPDEST POP JUMP JUMPDEST PUSH1 0x0 DUP2 CALLDATALOAD SWAP1 POP PUSH2 0x682 DUP2 PUSH2 0x65C JUMP JUMPDEST SWAP3 SWAP2 POP POP JUMP JUMPDEST PUSH1 0x0 DUP2 SWAP1 POP SWAP2 SWAP1 POP JUMP JUMPDEST PUSH2 0x69B DUP2 PUSH2 0x688 JUMP JUMPDEST DUP2 EQ PUSH2 0x6A6 JUMPI PUSH1 0x0 DUP1 REVERT JUMPDEST POP JUMP JUMPDEST PUSH1 0x0 DUP2 CALLDATALOAD SWAP1 POP PUSH2 0x6B8 DUP2 PUSH2 0x692 JUMP JUMPDEST SWAP3 SWAP2 POP POP JUMP JUMPDEST PUSH1 0x0 DUP1 PUSH1 0x40 DUP4 DUP6 SUB SLT ISZERO PUSH2 0x6D5 JUMPI PUSH2 0x6D4 PUSH2 0x620 JUMP JUMPDEST JUMPDEST PUSH1 0x0 PUSH2 0x6E3 DUP6 DUP3 DUP7 ADD PUSH2 0x673 JUMP JUMPDEST SWAP3 POP POP PUSH1 0x20 PUSH2 0x6F4 DUP6 DUP3 DUP7 ADD PUSH2 0x6A9 JUMP JUMPDEST SWAP2 POP POP SWAP3 POP SWAP3 SWAP1 POP JUMP JUMPDEST PUSH1 0x0 DUP1 REVERT JUMPDEST PUSH1 0x0 DUP1 REVERT JUMPDEST PUSH1 0x0 PUSH1 0x1F NOT PUSH1 0x1F DUP4 ADD AND SWAP1 POP SWAP2 SWAP1 POP JUMP JUMPDEST PUSH32 0x4E487B7100000000000000000000000000000000000000000000000000000000 PUSH1 0x0 MSTORE PUSH1 0x41 PUSH1 0x4 MSTORE PUSH1 0x24 PUSH1 0x0 REVERT JUMPDEST PUSH2 0x751 DUP3 PUSH2 0x708 JUMP JUMPDEST DUP2 ADD DUP2 DUP2 LT PUSH8 0xFFFFFFFFFFFFFFFF DUP3 GT OR ISZERO PUSH2 0x770 JUMPI PUSH2 0x76F PUSH2 0x719 JUMP JUMPDEST JUMPDEST DUP1 PUSH1 0x40 MSTORE POP POP POP JUMP JUMPDEST PUSH1 0x0 PUSH2 0x783 PUSH2 0x616 JUMP JUMPDEST SWAP1 POP PUSH2 0x78F DUP3 DUP3 PUSH2 0x748 JUMP JUMPDEST SWAP2 SWAP1 POP JUMP JUMPDEST PUSH1 0x0 PUSH8 0xFFFFFFFFFFFFFFFF DUP3 GT ISZERO PUSH2 0x7AF JUMPI PUSH2 0x7AE PUSH2 0x719 JUMP JUMPDEST JUMPDEST PUSH2 0x7B8 DUP3 PUSH2 0x708 JUMP JUMPDEST SWAP1 POP PUSH1 0x20 DUP2 ADD SWAP1 POP SWAP2 SWAP1 POP JUMP JUMPDEST DUP3 DUP2 DUP4 CALLDATACOPY PUSH1 0x0 DUP4 DUP4 ADD MSTORE POP POP POP JUMP JUMPDEST PUSH1 0x0 PUSH2 0x7E7 PUSH2 0x7E2 DUP5 PUSH2 0x794 JUMP JUMPDEST PUSH2 0x779 JUMP JUMPDEST SWAP1 POP DUP3 DUP2 MSTORE PUSH1 0x20 DUP2 ADD DUP5 DUP5 DUP5 ADD GT ISZERO PUSH2 0x803 JUMPI PUSH2 0x802 PUSH2 0x703 JUMP JUMPDEST JUMPDEST PUSH2 0x80E DUP5 DUP3 DUP6 PUSH2 0x7C5 JUMP JUMPDEST POP SWAP4 SWAP3 POP POP POP JUMP JUMPDEST PUSH1 0x0 DUP3 PUSH1 0x1F DUP4 ADD SLT PUSH2 0x82B JUMPI PUSH2 0x82A PUSH2 0x6FE JUMP JUMPDEST JUMPDEST DUP2 CALLDATALOAD PUSH2 0x83B DUP5 DUP3 PUSH1 0x20 DUP7 ADD PUSH2 0x7D4 JUMP JUMPDEST SWAP2 POP POP SWAP3 SWAP2 POP POP JUMP JUMPDEST PUSH1 0x0 DUP1 PUSH1 0x40 DUP4 DUP6 SUB SLT ISZERO PUSH2 0x85B JUMPI PUSH2 0x85A PUSH2 0x620 JUMP JUMPDEST JUMPDEST PUSH1 0x0 DUP4 ADD CALLDATALOAD PUSH8 0xFFFFFFFFFFFFFFFF DUP2 GT ISZERO PUSH2 0x879 JUMPI PUSH2 0x878 PUSH2 0x625 JUMP JUMPDEST JUMPDEST PUSH2 0x885 DUP6 DUP3 DUP7 ADD PUSH2 0x816 JUMP JUMPDEST SWAP3 POP POP PUSH1 0x20 PUSH2 0x896 DUP6 DUP3 DUP7 ADD PUSH2 0x6A9 JUMP JUMPDEST SWAP2 POP POP SWAP3 POP SWAP3 SWAP1 POP JUMP JUMPDEST PUSH1 0x0 DUP2 MLOAD SWAP1 POP SWAP2 SWAP1 POP JUMP JUMPDEST PUSH1 0x0 DUP3 DUP3 MSTORE PUSH1 0x20 DUP3 ADD SWAP1 POP SWAP3 SWAP2 POP POP JUMP JUMPDEST PUSH1 0x0 JUMPDEST DUP4 DUP2 LT ISZERO PUSH2 0x8DA JUMPI DUP1 DUP3 ADD MLOAD DUP2 DUP5 ADD MSTORE PUSH1 0x20 DUP2 ADD SWAP1 POP PUSH2 0x8BF JUMP JUMPDEST PUSH1 0x0 DUP5 DUP5 ADD MSTORE POP POP POP POP JUMP JUMPDEST PUSH1 0x0 PUSH2 0x8F1 DUP3 PUSH2 0x8A0 JUMP JUMPDEST PUSH2 0x8FB DUP2 DUP6 PUSH2 0x8AB JUMP JUMPDEST SWAP4 POP PUSH2 0x90B DUP2 DUP6 PUSH1 0x20 DUP7 ADD PUSH2 0x8BC JUMP JUMPDEST PUSH2 0x914 DUP2 PUSH2 0x708 JUMP JUMPDEST DUP5 ADD SWAP2 POP POP SWAP3 SWAP2 POP POP JUMP JUMPDEST PUSH2 0x928 DUP2 PUSH2 0x688 JUMP JUMPDEST DUP3 MSTORE POP POP JUMP JUMPDEST PUSH1 0x0 PUSH1 0x40 DUP4 ADD PUSH1 0x0 DUP4 ADD MLOAD DUP5 DUP3 SUB PUSH1 0x0 DUP7 ADD MSTORE PUSH2 0x94B DUP3 DUP3 PUSH2 0x8E6 JUMP JUMPDEST SWAP2 POP POP PUSH1 0x20 DUP4 ADD MLOAD PUSH2 0x960 PUSH1 0x20 DUP7 ADD DUP3 PUSH2 0x91F JUMP JUMPDEST POP DUP1 SWAP2 POP POP SWAP3 SWAP2 POP POP JUMP JUMPDEST PUSH1 0x0 PUSH1 0x20 DUP3 ADD SWAP1 POP DUP2 DUP2 SUB PUSH1 0x0 DUP4 ADD MSTORE PUSH2 0x985 DUP2 DUP5 PUSH2 0x92E JUMP JUMPDEST SWAP1 POP SWAP3 SWAP2 POP POP JUMP JUMPDEST PUSH1 0x0 PUSH1 0x20 DUP3 DUP5 SUB SLT ISZERO PUSH2 0x9A3 JUMPI PUSH2 0x9A2 PUSH2 0x620 JUMP JUMPDEST JUMPDEST PUSH1 0x0 PUSH2 0x9B1 DUP5 DUP3 DUP6 ADD PUSH2 0x6A9 JUMP JUMPDEST SWAP2 POP POP SWAP3 SWAP2 POP POP JUMP JUMPDEST PUSH1 0x0 DUP3 DUP3 MSTORE PUSH1 0x20 DUP3 ADD SWAP1 POP SWAP3 SWAP2 POP POP JUMP JUMPDEST PUSH1 0x0 PUSH2 0x9D6 DUP3 PUSH2 0x8A0 JUMP JUMPDEST PUSH2 0x9E0 DUP2 DUP6 PUSH2 0x9BA JUMP JUMPDEST SWAP4 POP PUSH2 0x9F0 DUP2 DUP6 PUSH1 0x20 DUP7 ADD PUSH2 0x8BC JUMP JUMPDEST PUSH2 0x9F9 DUP2 PUSH2 0x708 JUMP JUMPDEST DUP5 ADD SWAP2 POP POP SWAP3 SWAP2 POP POP JUMP JUMPDEST PUSH2 0xA0D DUP2 PUSH2 0x688 JUMP JUMPDEST DUP3 MSTORE POP POP JUMP JUMPDEST PUSH1 0x0 PUSH1 0x40 DUP3 ADD SWAP1 POP DUP2 DUP2 SUB PUSH1 0x0 DUP4 ADD MSTORE PUSH2 0xA2D DUP2 DUP6 PUSH2 0x9CB JUMP JUMPDEST SWAP1 POP PUSH2 0xA3C PUSH1 0x20 DUP4 ADD DUP5 PUSH2 0xA04 JUMP JUMPDEST SWAP4 SWAP3 POP POP POP JUMP JUMPDEST PUSH1 0x0 PUSH1 0x20 DUP3 ADD SWAP1 POP PUSH2 0xA58 PUSH1 0x0 DUP4 ADD DUP5 PUSH2 0xA04 JUMP JUMPDEST SWAP3 SWAP2 POP POP JUMP JUMPDEST PUSH1 0x0 PUSH1 0x20 DUP3 DUP5 SUB SLT ISZERO PUSH2 0xA74 JUMPI PUSH2 0xA73 PUSH2 0x620 JUMP JUMPDEST JUMPDEST PUSH1 0x0 PUSH2 0xA82 DUP5 DUP3 DUP6 ADD PUSH2 0x673 JUMP JUMPDEST SWAP2 POP POP SWAP3 SWAP2 POP POP JUMP JUMPDEST PUSH32 0x4E487B7100000000000000000000000000000000000000000000000000000000 PUSH1 0x0 MSTORE PUSH1 0x22 PUSH1 0x4 MSTORE PUSH1 0x24 PUSH1 0x0 REVERT JUMPDEST PUSH1 0x0 PUSH1 0x2 DUP3 DIV SWAP1 POP PUSH1 0x1 DUP3 AND DUP1 PUSH2 0xAD2 JUMPI PUSH1 0x7F DUP3 AND SWAP2 POP JUMPDEST PUSH1 0x20 DUP3 LT DUP2 SUB PUSH2 0xAE5 JUMPI PUSH2 0xAE4 PUSH2 0xA8B JUMP JUMPDEST JUMPDEST POP SWAP2 SWAP1 POP JUMP JUMPDEST PUSH1 0x0 DUP2 SWAP1 POP DUP2 PUSH1 0x0 MSTORE PUSH1 0x20 PUSH1 0x0 KECCAK256 SWAP1 POP SWAP2 SWAP1 POP JUMP JUMPDEST PUSH1 0x0 PUSH1 0x20 PUSH1 0x1F DUP4 ADD DIV SWAP1 POP SWAP2 SWAP1 POP JUMP JUMPDEST PUSH1 0x0 DUP3 DUP3 SHL SWAP1 POP SWAP3 SWAP2 POP POP JUMP JUMPDEST PUSH1 0x0 PUSH1 0x8 DUP4 MUL PUSH2 0xB4D PUSH32 0xFFFFFFFFFFFFFFFFFFFFFFFFFFFFFFFFFFFFFFFFFFFFFFFFFFFFFFFFFFFFFFFF DUP3 PUSH2 0xB10 JUMP JUMPDEST PUSH2 0xB57 DUP7 DUP4 PUSH2 0xB10 JUMP JUMPDEST SWAP6 POP DUP1 NOT DUP5 AND SWAP4 POP DUP1 DUP7 AND DUP5 OR SWAP3 POP POP POP SWAP4 SWAP3 POP POP POP JUMP JUMPDEST PUSH1 0x0 DUP2 SWAP1 POP SWAP2 SWAP1 POP JUMP JUMPDEST PUSH1 0x0 PUSH2 0xB94 PUSH2 0xB8F PUSH2 0xB8A DUP5 PUSH2 0x688 JUMP JUMPDEST PUSH2 0xB6F JUMP JUMPDEST PUSH2 0x688 JUMP JUMPDEST SWAP1 POP SWAP2 SWAP1 POP JUMP JUMPDEST PUSH1 0x0 DUP2 SWAP1 POP SWAP2 SWAP1 POP JUMP JUMPDEST PUSH2 0xBAE DUP4 PUSH2 0xB79 JUMP JUMPDEST PUSH2 0xBC2 PUSH2 0xBBA DUP3 PUSH2 0xB9B JUMP JUMPDEST DUP5 DUP5 SLOAD PUSH2 0xB1D JUMP JUMPDEST DUP3 SSTORE POP POP POP POP JUMP JUMPDEST PUSH1 0x0 SWAP1 JUMP JUMPDEST PUSH2 0xBD7 PUSH2 0xBCA JUMP JUMPDEST PUSH2 0xBE2 DUP2 DUP5 DUP5 PUSH2 0xBA5 JUMP JUMPDEST POP POP POP JUMP JUMPDEST JUMPDEST DUP2 DUP2 LT ISZERO PUSH2 0xC06 JUMPI PUSH2 0xBFB PUSH1 0x0 DUP3 PUSH2 0xBCF JUMP JUMPDEST PUSH1 0x1 DUP2 ADD SWAP1 POP PUSH2 0xBE8 JUMP JUMPDEST POP POP JUMP JUMPDEST PUSH1 0x1F DUP3 GT ISZERO PUSH2 0xC4B JUMPI PUSH2 0xC1C DUP2 PUSH2 0xAEB JUMP JUMPDEST PUSH2 0xC25 DUP5 PUSH2 0xB00 JUMP JUMPDEST DUP2 ADD PUSH1 0x20 DUP6 LT ISZERO PUSH2 0xC34 JUMPI DUP2 SWAP1 POP JUMPDEST PUSH2 0xC48 PUSH2 0xC40 DUP6 PUSH2 0xB00 JUMP JUMPDEST DUP4 ADD DUP3 PUSH2 0xBE7 JUMP JUMPDEST POP POP JUMPDEST POP POP POP JUMP JUMPDEST PUSH1 0x0 DUP3 DUP3 SHR SWAP1 POP SWAP3 SWAP2 POP POP JUMP JUMPDEST PUSH1 0x0 PUSH2 0xC6E PUSH1 0x0 NOT DUP5 PUSH1 0x8 MUL PUSH2 0xC50 JUMP JUMPDEST NOT DUP1 DUP4 AND SWAP2 POP POP SWAP3 SWAP2 POP POP JUMP JUMPDEST PUSH1 0x0 PUSH2 0xC87 DUP4 DUP4 PUSH2 0xC5D JUMP JUMPDEST SWAP2 POP DUP3 PUSH1 0x2 MUL DUP3 OR SWAP1 POP SWAP3 SWAP2 POP POP JUMP JUMPDEST PUSH2 0xCA0 DUP3 PUSH2 0x8A0 JUMP JUMPDEST PUSH8 0xFFFFFFFFFFFFFFFF DUP2 GT ISZERO PUSH2 0xCB9 JUMPI PUSH2 0xCB8 PUSH2 0x719 JUMP JUMPDEST JUMPDEST PUSH2 0xCC3 DUP3 SLOAD PUSH2 0xABA JUMP JUMPDEST PUSH2 0xCCE DUP3 DUP3 DUP6 PUSH2 0xC0A JUMP JUMPDEST PUSH1 0x0 PUSH1 0x20 SWAP1 POP PUSH1 0x1F DUP4 GT PUSH1 0x1 DUP2 EQ PUSH2 0xD01 JUMPI PUSH1 0x0 DUP5 ISZERO PUSH2 0xCEF JUMPI DUP3 DUP8 ADD MLOAD SWAP1 POP JUMPDEST PUSH2 0xCF9 DUP6 DUP3 PUSH2 0xC7B JUMP JUMPDEST DUP7 SSTORE POP PUSH2 0xD61 JUMP JUMPDEST PUSH1 0x1F NOT DUP5 AND PUSH2 0xD0F DUP7 PUSH2 0xAEB JUMP JUMPDEST PUSH1 0x0 JUMPDEST DUP3 DUP2 LT ISZERO PUSH2 0xD37 JUMPI DUP5 DUP10 ADD MLOAD DUP3 SSTORE PUSH1 0x1 DUP3 ADD SWAP2 POP PUSH1 0x20 DUP6 ADD SWAP5 POP PUSH1 0x20 DUP2 ADD SWAP1 POP PUSH2 0xD12 JUMP JUMPDEST DUP7 DUP4 LT ISZERO PUSH2 0xD54 JUMPI DUP5 DUP10 ADD MLOAD PUSH2 0xD50 PUSH1 0x1F DUP10 AND DUP3 PUSH2 0xC5D JUMP JUMPDEST DUP4 SSTORE POP JUMPDEST PUSH1 0x1 PUSH1 0x2 DUP9 MUL ADD DUP9 SSTORE POP POP POP JUMPDEST POP POP POP POP POP POP JUMP JUMPDEST PUSH32 0x4E487B7100000000000000000000000000000000000000000000000000000000 PUSH1 0x0 MSTORE PUSH1 0x32 PUSH1 0x4 MSTORE PUSH1 0x24 PUSH1 0x0 REVERT INVALID LOG2 PUSH5 0x6970667358 0x22 SLT KECCAK256 0xA7 SHL PUSH10 0x8D767FC2A128630655EB SWAP1 EXTCODESIZE 0xAD EXTCODECOPY PUSH7 0x794C522EDE6FD1 0xA8 PUSH14 0xB26ECCA27464736F6C6343000812 STOP CALLER "
				},
				"gasEstimates": {
					"creation": {
						"codeDepositCost": "706800",
						"executionCost": "infinite",
						"totalCost": "infinite"
					},
					"external": {
						"HumanArray(uint256)": "infinite",
						"a(address)": "2880",
						"addArray(uint256)": "46851",
						"addMapping(address,uint256)": "22833",
						"changeMapping(address,uint256)": "22920",
						"createHuman(string,uint256)": "infinite",
						"deleteMapping(address)": "5664",
						"exArray(uint256)": "infinite",
						"getArray(uint256)": "infinite",
						"getMapping(address)": "2930",
						"humanMapping(uint256)": "infinite"
					}
				},
				"methodIdentifiers": {
					"HumanArray(uint256)": "7f879e20",
					"a(address)": "c68d81e0",
					"addArray(uint256)": "aa0a9171",
					"addMapping(address,uint256)": "14a0bdb3",
					"changeMapping(address,uint256)": "d6b497c5",
					"createHuman(string,uint256)": "1796fbcf",
					"deleteMapping(address)": "f3800b38",
					"exArray(uint256)": "67f64554",
					"getArray(uint256)": "ab35ec63",
					"getMapping(address)": "72233c5e",
					"humanMapping(uint256)": "49c5460f"
				}
			},
			"storageLayout": {
				"storage": [
					{
						"astId": 5,
						"contract": "lecture/lecture/MappingAndArray.sol:MappingAndArray",
						"label": "a",
						"offset": 0,
						"slot": "0",
						"type": "t_mapping(t_address,t_uint256)"
					},
					{
						"astId": 64,
						"contract": "lecture/lecture/MappingAndArray.sol:MappingAndArray",
						"label": "exArray",
						"offset": 0,
						"slot": "1",
						"type": "t_array(t_uint256)dyn_storage"
					},
					{
						"astId": 98,
						"contract": "lecture/lecture/MappingAndArray.sol:MappingAndArray",
						"label": "humanMapping",
						"offset": 0,
						"slot": "2",
						"type": "t_mapping(t_uint256,t_struct(Human)93_storage)"
					},
					{
						"astId": 102,
						"contract": "lecture/lecture/MappingAndArray.sol:MappingAndArray",
						"label": "HumanArray",
						"offset": 0,
						"slot": "3",
						"type": "t_array(t_struct(Human)93_storage)dyn_storage"
					}
				],
				"types": {
					"t_address": {
						"encoding": "inplace",
						"label": "address",
						"numberOfBytes": "20"
					},
					"t_array(t_struct(Human)93_storage)dyn_storage": {
						"base": "t_struct(Human)93_storage",
						"encoding": "dynamic_array",
						"label": "struct MappingAndArray.Human[]",
						"numberOfBytes": "32"
					},
					"t_array(t_uint256)dyn_storage": {
						"base": "t_uint256",
						"encoding": "dynamic_array",
						"label": "uint256[]",
						"numberOfBytes": "32"
					},
					"t_mapping(t_address,t_uint256)": {
						"encoding": "mapping",
						"key": "t_address",
						"label": "mapping(address => uint256)",
						"numberOfBytes": "32",
						"value": "t_uint256"
					},
					"t_mapping(t_uint256,t_struct(Human)93_storage)": {
						"encoding": "mapping",
						"key": "t_uint256",
						"label": "mapping(uint256 => struct MappingAndArray.Human)",
						"numberOfBytes": "32",
						"value": "t_struct(Human)93_storage"
					},
					"t_string_storage": {
						"encoding": "bytes",
						"label": "string",
						"numberOfBytes": "32"
					},
					"t_struct(Human)93_storage": {
						"encoding": "inplace",
						"label": "struct MappingAndArray.Human",
						"members": [
							{
								"astId": 90,
								"contract": "lecture/lecture/MappingAndArray.sol:MappingAndArray",
								"label": "name",
								"offset": 0,
								"slot": "0",
								"type": "t_string_storage"
							},
							{
								"astId": 92,
								"contract": "lecture/lecture/MappingAndArray.sol:MappingAndArray",
								"label": "age",
								"offset": 0,
								"slot": "1",
								"type": "t_uint256"
							}
						],
						"numberOfBytes": "64"
					},
					"t_uint256": {
						"encoding": "inplace",
						"label": "uint256",
						"numberOfBytes": "32"
					}
				}
			},
			"userdoc": {
				"kind": "user",
				"methods": {},
				"version": 1
			}
		}
	}
}