{
	"Users/user/Desktop/git/solidity/library.sol": {
		"libraryEx": {
			"abi": [
				{
					"inputs": [],
					"name": "a",
					"outputs": [
						{
							"internalType": "uint8",
							"name": "",
							"type": "uint8"
						}
					],
					"stateMutability": "view",
					"type": "function"
				},
				{
					"inputs": [
						{
							"internalType": "uint8",
							"name": "_num1",
							"type": "uint8"
						},
						{
							"internalType": "uint8",
							"name": "_num2",
							"type": "uint8"
						}
					],
					"name": "becomeOverflow",
					"outputs": [],
					"stateMutability": "nonpayable",
					"type": "function"
				}
			],
			"devdoc": {
				"kind": "dev",
				"methods": {},
				"version": 1
			},
			"evm": {
				"assembly": "    /* \"Users/user/Desktop/git/solidity/library.sol\":744:916  contract libraryEx {... */\n  mstore(0x40, 0x80)\n  callvalue\n  dup1\n  iszero\n  tag_1\n  jumpi\n  0x00\n  dup1\n  revert\ntag_1:\n  pop\n  dataSize(sub_0)\n  dup1\n  dataOffset(sub_0)\n  0x00\n  codecopy\n  0x00\n  return\nstop\n\nsub_0: assembly {\n        /* \"Users/user/Desktop/git/solidity/library.sol\":744:916  contract libraryEx {... */\n      mstore(0x40, 0x80)\n      callvalue\n      dup1\n      iszero\n      tag_1\n      jumpi\n      0x00\n      dup1\n      revert\n    tag_1:\n      pop\n      jumpi(tag_2, lt(calldatasize, 0x04))\n      shr(0xe0, calldataload(0x00))\n      dup1\n      0x0dbe671f\n      eq\n      tag_3\n      jumpi\n      dup1\n      0x5d2b6e03\n      eq\n      tag_4\n      jumpi\n    tag_2:\n      0x00\n      dup1\n      revert\n        /* \"Users/user/Desktop/git/solidity/library.sol\":799:813  uint8 public a */\n    tag_3:\n      tag_5\n      tag_6\n      jump\t// in\n    tag_5:\n      mload(0x40)\n      tag_7\n      swap2\n      swap1\n      tag_8\n      jump\t// in\n    tag_7:\n      mload(0x40)\n      dup1\n      swap2\n      sub\n      swap1\n      return\n        /* \"Users/user/Desktop/git/solidity/library.sol\":820:914  function becomeOverflow(uint8 _num1, uint8 _num2) public {... */\n    tag_4:\n      tag_9\n      0x04\n      dup1\n      calldatasize\n      sub\n      dup2\n      add\n      swap1\n      tag_10\n      swap2\n      swap1\n      tag_11\n      jump\t// in\n    tag_10:\n      tag_12\n      jump\t// in\n    tag_9:\n      stop\n        /* \"Users/user/Desktop/git/solidity/library.sol\":799:813  uint8 public a */\n    tag_6:\n      0x00\n      dup1\n      sload\n      swap1\n      0x0100\n      exp\n      swap1\n      div\n      0xff\n      and\n      dup2\n      jump\t// out\n        /* \"Users/user/Desktop/git/solidity/library.sol\":820:914  function becomeOverflow(uint8 _num1, uint8 _num2) public {... */\n    tag_12:\n        /* \"Users/user/Desktop/git/solidity/library.sol\":891:907  _num1.add(_num2) */\n      tag_14\n        /* \"Users/user/Desktop/git/solidity/library.sol\":901:906  _num2 */\n      dup2\n        /* \"Users/user/Desktop/git/solidity/library.sol\":891:896  _num1 */\n      dup4\n        /* \"Users/user/Desktop/git/solidity/library.sol\":891:900  _num1.add */\n      0xff\n      and\n      tag_15\n      swap1\n        /* \"Users/user/Desktop/git/solidity/library.sol\":891:907  _num1.add(_num2) */\n      swap2\n      swap1\n      0xffffffff\n      and\n      jump\t// in\n    tag_14:\n        /* \"Users/user/Desktop/git/solidity/library.sol\":887:888  a */\n      0x00\n      dup1\n        /* \"Users/user/Desktop/git/solidity/library.sol\":887:907  a = _num1.add(_num2) */\n      0x0100\n      exp\n      dup2\n      sload\n      dup2\n      0xff\n      mul\n      not\n      and\n      swap1\n      dup4\n      0xff\n      and\n      mul\n      or\n      swap1\n      sstore\n      pop\n        /* \"Users/user/Desktop/git/solidity/library.sol\":820:914  function becomeOverflow(uint8 _num1, uint8 _num2) public {... */\n      pop\n      pop\n      jump\t// out\n        /* \"Users/user/Desktop/git/solidity/library.sol\":535:740  function add(uint8 a, uint8 b) internal pure returns(uint8) {... */\n    tag_15:\n        /* \"Users/user/Desktop/git/solidity/library.sol\":588:593  uint8 */\n      0x00\n        /* \"Users/user/Desktop/git/solidity/library.sol\":620:621  a */\n      dup3\n        /* \"Users/user/Desktop/git/solidity/library.sol\":613:621  a+b >= a */\n      0xff\n      and\n        /* \"Users/user/Desktop/git/solidity/library.sol\":615:616  b */\n      dup3\n        /* \"Users/user/Desktop/git/solidity/library.sol\":613:614  a */\n      dup5\n        /* \"Users/user/Desktop/git/solidity/library.sol\":613:616  a+b */\n      tag_17\n      swap2\n      swap1\n      tag_18\n      jump\t// in\n    tag_17:\n        /* \"Users/user/Desktop/git/solidity/library.sol\":613:621  a+b >= a */\n      0xff\n      and\n      lt\n      iszero\n        /* \"Users/user/Desktop/git/solidity/library.sol\":605:653  require(a+b >= a, \"SafeMath: addition overflow\") */\n      tag_19\n      jumpi\n      mload(0x40)\n      0x08c379a000000000000000000000000000000000000000000000000000000000\n      dup2\n      mstore\n      0x04\n      add\n      tag_20\n      swap1\n      tag_21\n      jump\t// in\n    tag_20:\n      mload(0x40)\n      dup1\n      swap2\n      sub\n      swap1\n      revert\n    tag_19:\n        /* \"Users/user/Desktop/git/solidity/library.sol\":678:679  b */\n      dup2\n        /* \"Users/user/Desktop/git/solidity/library.sol\":671:679  a+b >= b */\n      0xff\n      and\n        /* \"Users/user/Desktop/git/solidity/library.sol\":673:674  b */\n      dup3\n        /* \"Users/user/Desktop/git/solidity/library.sol\":671:672  a */\n      dup5\n        /* \"Users/user/Desktop/git/solidity/library.sol\":671:674  a+b */\n      tag_22\n      swap2\n      swap1\n      tag_18\n      jump\t// in\n    tag_22:\n        /* \"Users/user/Desktop/git/solidity/library.sol\":671:679  a+b >= b */\n      0xff\n      and\n      lt\n      iszero\n        /* \"Users/user/Desktop/git/solidity/library.sol\":663:711  require(a+b >= b, \"SafeMath: addition overflow\") */\n      tag_23\n      jumpi\n      mload(0x40)\n      0x08c379a000000000000000000000000000000000000000000000000000000000\n      dup2\n      mstore\n      0x04\n      add\n      tag_24\n      swap1\n      tag_21\n      jump\t// in\n    tag_24:\n      mload(0x40)\n      dup1\n      swap2\n      sub\n      swap1\n      revert\n    tag_23:\n        /* \"Users/user/Desktop/git/solidity/library.sol\":732:733  b */\n      dup2\n        /* \"Users/user/Desktop/git/solidity/library.sol\":728:729  a */\n      dup4\n        /* \"Users/user/Desktop/git/solidity/library.sol\":728:733  a + b */\n      tag_25\n      swap2\n      swap1\n      tag_18\n      jump\t// in\n    tag_25:\n        /* \"Users/user/Desktop/git/solidity/library.sol\":721:733  return a + b */\n      swap1\n      pop\n        /* \"Users/user/Desktop/git/solidity/library.sol\":535:740  function add(uint8 a, uint8 b) internal pure returns(uint8) {... */\n      swap3\n      swap2\n      pop\n      pop\n      jump\t// out\n        /* \"#utility.yul\":7:93   */\n    tag_26:\n        /* \"#utility.yul\":42:49   */\n      0x00\n        /* \"#utility.yul\":82:86   */\n      0xff\n        /* \"#utility.yul\":75:80   */\n      dup3\n        /* \"#utility.yul\":71:87   */\n      and\n        /* \"#utility.yul\":60:87   */\n      swap1\n      pop\n        /* \"#utility.yul\":7:93   */\n      swap2\n      swap1\n      pop\n      jump\t// out\n        /* \"#utility.yul\":99:211   */\n    tag_27:\n        /* \"#utility.yul\":182:204   */\n      tag_40\n        /* \"#utility.yul\":198:203   */\n      dup2\n        /* \"#utility.yul\":182:204   */\n      tag_26\n      jump\t// in\n    tag_40:\n        /* \"#utility.yul\":177:180   */\n      dup3\n        /* \"#utility.yul\":170:205   */\n      mstore\n        /* \"#utility.yul\":99:211   */\n      pop\n      pop\n      jump\t// out\n        /* \"#utility.yul\":217:431   */\n    tag_8:\n        /* \"#utility.yul\":306:310   */\n      0x00\n        /* \"#utility.yul\":344:346   */\n      0x20\n        /* \"#utility.yul\":333:342   */\n      dup3\n        /* \"#utility.yul\":329:347   */\n      add\n        /* \"#utility.yul\":321:347   */\n      swap1\n      pop\n        /* \"#utility.yul\":357:424   */\n      tag_42\n        /* \"#utility.yul\":421:422   */\n      0x00\n        /* \"#utility.yul\":410:419   */\n      dup4\n        /* \"#utility.yul\":406:423   */\n      add\n        /* \"#utility.yul\":397:403   */\n      dup5\n        /* \"#utility.yul\":357:424   */\n      tag_27\n      jump\t// in\n    tag_42:\n        /* \"#utility.yul\":217:431   */\n      swap3\n      swap2\n      pop\n      pop\n      jump\t// out\n        /* \"#utility.yul\":518:635   */\n    tag_29:\n        /* \"#utility.yul\":627:628   */\n      0x00\n        /* \"#utility.yul\":624:625   */\n      dup1\n        /* \"#utility.yul\":617:629   */\n      revert\n        /* \"#utility.yul\":764:882   */\n    tag_31:\n        /* \"#utility.yul\":835:857   */\n      tag_47\n        /* \"#utility.yul\":851:856   */\n      dup2\n        /* \"#utility.yul\":835:857   */\n      tag_26\n      jump\t// in\n    tag_47:\n        /* \"#utility.yul\":828:833   */\n      dup2\n        /* \"#utility.yul\":825:858   */\n      eq\n        /* \"#utility.yul\":815:876   */\n      tag_48\n      jumpi\n        /* \"#utility.yul\":872:873   */\n      0x00\n        /* \"#utility.yul\":869:870   */\n      dup1\n        /* \"#utility.yul\":862:874   */\n      revert\n        /* \"#utility.yul\":815:876   */\n    tag_48:\n        /* \"#utility.yul\":764:882   */\n      pop\n      jump\t// out\n        /* \"#utility.yul\":888:1023   */\n    tag_32:\n        /* \"#utility.yul\":932:937   */\n      0x00\n        /* \"#utility.yul\":970:976   */\n      dup2\n        /* \"#utility.yul\":957:977   */\n      calldataload\n        /* \"#utility.yul\":948:977   */\n      swap1\n      pop\n        /* \"#utility.yul\":986:1017   */\n      tag_50\n        /* \"#utility.yul\":1011:1016   */\n      dup2\n        /* \"#utility.yul\":986:1017   */\n      tag_31\n      jump\t// in\n    tag_50:\n        /* \"#utility.yul\":888:1023   */\n      swap3\n      swap2\n      pop\n      pop\n      jump\t// out\n        /* \"#utility.yul\":1029:1495   */\n    tag_11:\n        /* \"#utility.yul\":1093:1099   */\n      0x00\n        /* \"#utility.yul\":1101:1107   */\n      dup1\n        /* \"#utility.yul\":1150:1152   */\n      0x40\n        /* \"#utility.yul\":1138:1147   */\n      dup4\n        /* \"#utility.yul\":1129:1136   */\n      dup6\n        /* \"#utility.yul\":1125:1148   */\n      sub\n        /* \"#utility.yul\":1121:1153   */\n      slt\n        /* \"#utility.yul\":1118:1237   */\n      iszero\n      tag_52\n      jumpi\n        /* \"#utility.yul\":1156:1235   */\n      tag_53\n      tag_29\n      jump\t// in\n    tag_53:\n        /* \"#utility.yul\":1118:1237   */\n    tag_52:\n        /* \"#utility.yul\":1276:1277   */\n      0x00\n        /* \"#utility.yul\":1301:1352   */\n      tag_54\n        /* \"#utility.yul\":1344:1351   */\n      dup6\n        /* \"#utility.yul\":1335:1341   */\n      dup3\n        /* \"#utility.yul\":1324:1333   */\n      dup7\n        /* \"#utility.yul\":1320:1342   */\n      add\n        /* \"#utility.yul\":1301:1352   */\n      tag_32\n      jump\t// in\n    tag_54:\n        /* \"#utility.yul\":1291:1352   */\n      swap3\n      pop\n        /* \"#utility.yul\":1247:1362   */\n      pop\n        /* \"#utility.yul\":1401:1403   */\n      0x20\n        /* \"#utility.yul\":1427:1478   */\n      tag_55\n        /* \"#utility.yul\":1470:1477   */\n      dup6\n        /* \"#utility.yul\":1461:1467   */\n      dup3\n        /* \"#utility.yul\":1450:1459   */\n      dup7\n        /* \"#utility.yul\":1446:1468   */\n      add\n        /* \"#utility.yul\":1427:1478   */\n      tag_32\n      jump\t// in\n    tag_55:\n        /* \"#utility.yul\":1417:1478   */\n      swap2\n      pop\n        /* \"#utility.yul\":1372:1488   */\n      pop\n        /* \"#utility.yul\":1029:1495   */\n      swap3\n      pop\n      swap3\n      swap1\n      pop\n      jump\t// out\n        /* \"#utility.yul\":1501:1681   */\n    tag_33:\n        /* \"#utility.yul\":1549:1626   */\n      0x4e487b7100000000000000000000000000000000000000000000000000000000\n        /* \"#utility.yul\":1546:1547   */\n      0x00\n        /* \"#utility.yul\":1539:1627   */\n      mstore\n        /* \"#utility.yul\":1646:1650   */\n      0x11\n        /* \"#utility.yul\":1643:1644   */\n      0x04\n        /* \"#utility.yul\":1636:1651   */\n      mstore\n        /* \"#utility.yul\":1670:1674   */\n      0x24\n        /* \"#utility.yul\":1667:1668   */\n      0x00\n        /* \"#utility.yul\":1660:1675   */\n      revert\n        /* \"#utility.yul\":1687:1875   */\n    tag_18:\n        /* \"#utility.yul\":1725:1728   */\n      0x00\n        /* \"#utility.yul\":1744:1762   */\n      tag_58\n        /* \"#utility.yul\":1760:1761   */\n      dup3\n        /* \"#utility.yul\":1744:1762   */\n      tag_26\n      jump\t// in\n    tag_58:\n        /* \"#utility.yul\":1739:1762   */\n      swap2\n      pop\n        /* \"#utility.yul\":1776:1794   */\n      tag_59\n        /* \"#utility.yul\":1792:1793   */\n      dup4\n        /* \"#utility.yul\":1776:1794   */\n      tag_26\n      jump\t// in\n    tag_59:\n        /* \"#utility.yul\":1771:1794   */\n      swap3\n      pop\n        /* \"#utility.yul\":1817:1818   */\n      dup3\n        /* \"#utility.yul\":1814:1815   */\n      dup3\n        /* \"#utility.yul\":1810:1819   */\n      add\n        /* \"#utility.yul\":1803:1819   */\n      swap1\n      pop\n        /* \"#utility.yul\":1840:1844   */\n      0xff\n        /* \"#utility.yul\":1835:1838   */\n      dup2\n        /* \"#utility.yul\":1832:1845   */\n      gt\n        /* \"#utility.yul\":1829:1868   */\n      iszero\n      tag_60\n      jumpi\n        /* \"#utility.yul\":1848:1866   */\n      tag_61\n      tag_33\n      jump\t// in\n    tag_61:\n        /* \"#utility.yul\":1829:1868   */\n    tag_60:\n        /* \"#utility.yul\":1687:1875   */\n      swap3\n      swap2\n      pop\n      pop\n      jump\t// out\n        /* \"#utility.yul\":1881:2050   */\n    tag_34:\n        /* \"#utility.yul\":1965:1976   */\n      0x00\n        /* \"#utility.yul\":1999:2005   */\n      dup3\n        /* \"#utility.yul\":1994:1997   */\n      dup3\n        /* \"#utility.yul\":1987:2006   */\n      mstore\n        /* \"#utility.yul\":2039:2043   */\n      0x20\n        /* \"#utility.yul\":2034:2037   */\n      dup3\n        /* \"#utility.yul\":2030:2044   */\n      add\n        /* \"#utility.yul\":2015:2044   */\n      swap1\n      pop\n        /* \"#utility.yul\":1881:2050   */\n      swap3\n      swap2\n      pop\n      pop\n      jump\t// out\n        /* \"#utility.yul\":2056:2233   */\n    tag_35:\n        /* \"#utility.yul\":2196:2225   */\n      0x536166654d6174683a206164646974696f6e206f766572666c6f770000000000\n        /* \"#utility.yul\":2192:2193   */\n      0x00\n        /* \"#utility.yul\":2184:2190   */\n      dup3\n        /* \"#utility.yul\":2180:2194   */\n      add\n        /* \"#utility.yul\":2173:2226   */\n      mstore\n        /* \"#utility.yul\":2056:2233   */\n      pop\n      jump\t// out\n        /* \"#utility.yul\":2239:2605   */\n    tag_36:\n        /* \"#utility.yul\":2381:2384   */\n      0x00\n        /* \"#utility.yul\":2402:2469   */\n      tag_65\n        /* \"#utility.yul\":2466:2468   */\n      0x1b\n        /* \"#utility.yul\":2461:2464   */\n      dup4\n        /* \"#utility.yul\":2402:2469   */\n      tag_34\n      jump\t// in\n    tag_65:\n        /* \"#utility.yul\":2395:2469   */\n      swap2\n      pop\n        /* \"#utility.yul\":2478:2571   */\n      tag_66\n        /* \"#utility.yul\":2567:2570   */\n      dup3\n        /* \"#utility.yul\":2478:2571   */\n      tag_35\n      jump\t// in\n    tag_66:\n        /* \"#utility.yul\":2596:2598   */\n      0x20\n        /* \"#utility.yul\":2591:2594   */\n      dup3\n        /* \"#utility.yul\":2587:2599   */\n      add\n        /* \"#utility.yul\":2580:2599   */\n      swap1\n      pop\n        /* \"#utility.yul\":2239:2605   */\n      swap2\n      swap1\n      pop\n      jump\t// out\n        /* \"#utility.yul\":2611:3030   */\n    tag_21:\n        /* \"#utility.yul\":2777:2781   */\n      0x00\n        /* \"#utility.yul\":2815:2817   */\n      0x20\n        /* \"#utility.yul\":2804:2813   */\n      dup3\n        /* \"#utility.yul\":2800:2818   */\n      add\n        /* \"#utility.yul\":2792:2818   */\n      swap1\n      pop\n        /* \"#utility.yul\":2864:2873   */\n      dup2\n        /* \"#utility.yul\":2858:2862   */\n      dup2\n        /* \"#utility.yul\":2854:2874   */\n      sub\n        /* \"#utility.yul\":2850:2851   */\n      0x00\n        /* \"#utility.yul\":2839:2848   */\n      dup4\n        /* \"#utility.yul\":2835:2852   */\n      add\n        /* \"#utility.yul\":2828:2875   */\n      mstore\n        /* \"#utility.yul\":2892:3023   */\n      tag_68\n        /* \"#utility.yul\":3018:3022   */\n      dup2\n        /* \"#utility.yul\":2892:3023   */\n      tag_36\n      jump\t// in\n    tag_68:\n        /* \"#utility.yul\":2884:3023   */\n      swap1\n      pop\n        /* \"#utility.yul\":2611:3030   */\n      swap2\n      swap1\n      pop\n      jump\t// out\n\n    auxdata: 0xa2646970667358221220660732a021cc93c68466c12fd7008dfb8813d91337e8c093ab21e4e0f3b0696964736f6c63430008120033\n}\n",
				"bytecode": {
					"linkReferences": {},
					"object": "608060405234801561001057600080fd5b50610336806100206000396000f3fe608060405234801561001057600080fd5b50600436106100365760003560e01c80630dbe671f1461003b5780635d2b6e0314610059575b600080fd5b610043610075565b6040516100509190610193565b60405180910390f35b610073600480360381019061006e91906101df565b610086565b005b60008054906101000a900460ff1681565b61009c818360ff166100b990919063ffffffff16565b6000806101000a81548160ff021916908360ff1602179055505050565b60008260ff1682846100cb919061024e565b60ff16101561010f576040517f08c379a0000000000000000000000000000000000000000000000000000000008152600401610106906102e0565b60405180910390fd5b8160ff16828461011f919061024e565b60ff161015610163576040517f08c379a000000000000000000000000000000000000000000000000000000000815260040161015a906102e0565b60405180910390fd5b818361016f919061024e565b905092915050565b600060ff82169050919050565b61018d81610177565b82525050565b60006020820190506101a86000830184610184565b92915050565b600080fd5b6101bc81610177565b81146101c757600080fd5b50565b6000813590506101d9816101b3565b92915050565b600080604083850312156101f6576101f56101ae565b5b6000610204858286016101ca565b9250506020610215858286016101ca565b9150509250929050565b7f4e487b7100000000000000000000000000000000000000000000000000000000600052601160045260246000fd5b600061025982610177565b915061026483610177565b9250828201905060ff81111561027d5761027c61021f565b5b92915050565b600082825260208201905092915050565b7f536166654d6174683a206164646974696f6e206f766572666c6f770000000000600082015250565b60006102ca601b83610283565b91506102d582610294565b602082019050919050565b600060208201905081810360008301526102f9816102bd565b905091905056fea2646970667358221220660732a021cc93c68466c12fd7008dfb8813d91337e8c093ab21e4e0f3b0696964736f6c63430008120033",
					"opcodes": "PUSH1 0x80 PUSH1 0x40 MSTORE CALLVALUE DUP1 ISZERO PUSH2 0x10 JUMPI PUSH1 0x0 DUP1 REVERT JUMPDEST POP PUSH2 0x336 DUP1 PUSH2 0x20 PUSH1 0x0 CODECOPY PUSH1 0x0 RETURN INVALID PUSH1 0x80 PUSH1 0x40 MSTORE CALLVALUE DUP1 ISZERO PUSH2 0x10 JUMPI PUSH1 0x0 DUP1 REVERT JUMPDEST POP PUSH1 0x4 CALLDATASIZE LT PUSH2 0x36 JUMPI PUSH1 0x0 CALLDATALOAD PUSH1 0xE0 SHR DUP1 PUSH4 0xDBE671F EQ PUSH2 0x3B JUMPI DUP1 PUSH4 0x5D2B6E03 EQ PUSH2 0x59 JUMPI JUMPDEST PUSH1 0x0 DUP1 REVERT JUMPDEST PUSH2 0x43 PUSH2 0x75 JUMP JUMPDEST PUSH1 0x40 MLOAD PUSH2 0x50 SWAP2 SWAP1 PUSH2 0x193 JUMP JUMPDEST PUSH1 0x40 MLOAD DUP1 SWAP2 SUB SWAP1 RETURN JUMPDEST PUSH2 0x73 PUSH1 0x4 DUP1 CALLDATASIZE SUB DUP2 ADD SWAP1 PUSH2 0x6E SWAP2 SWAP1 PUSH2 0x1DF JUMP JUMPDEST PUSH2 0x86 JUMP JUMPDEST STOP JUMPDEST PUSH1 0x0 DUP1 SLOAD SWAP1 PUSH2 0x100 EXP SWAP1 DIV PUSH1 0xFF AND DUP2 JUMP JUMPDEST PUSH2 0x9C DUP2 DUP4 PUSH1 0xFF AND PUSH2 0xB9 SWAP1 SWAP2 SWAP1 PUSH4 0xFFFFFFFF AND JUMP JUMPDEST PUSH1 0x0 DUP1 PUSH2 0x100 EXP DUP2 SLOAD DUP2 PUSH1 0xFF MUL NOT AND SWAP1 DUP4 PUSH1 0xFF AND MUL OR SWAP1 SSTORE POP POP POP JUMP JUMPDEST PUSH1 0x0 DUP3 PUSH1 0xFF AND DUP3 DUP5 PUSH2 0xCB SWAP2 SWAP1 PUSH2 0x24E JUMP JUMPDEST PUSH1 0xFF AND LT ISZERO PUSH2 0x10F JUMPI PUSH1 0x40 MLOAD PUSH32 0x8C379A000000000000000000000000000000000000000000000000000000000 DUP2 MSTORE PUSH1 0x4 ADD PUSH2 0x106 SWAP1 PUSH2 0x2E0 JUMP JUMPDEST PUSH1 0x40 MLOAD DUP1 SWAP2 SUB SWAP1 REVERT JUMPDEST DUP2 PUSH1 0xFF AND DUP3 DUP5 PUSH2 0x11F SWAP2 SWAP1 PUSH2 0x24E JUMP JUMPDEST PUSH1 0xFF AND LT ISZERO PUSH2 0x163 JUMPI PUSH1 0x40 MLOAD PUSH32 0x8C379A000000000000000000000000000000000000000000000000000000000 DUP2 MSTORE PUSH1 0x4 ADD PUSH2 0x15A SWAP1 PUSH2 0x2E0 JUMP JUMPDEST PUSH1 0x40 MLOAD DUP1 SWAP2 SUB SWAP1 REVERT JUMPDEST DUP2 DUP4 PUSH2 0x16F SWAP2 SWAP1 PUSH2 0x24E JUMP JUMPDEST SWAP1 POP SWAP3 SWAP2 POP POP JUMP JUMPDEST PUSH1 0x0 PUSH1 0xFF DUP3 AND SWAP1 POP SWAP2 SWAP1 POP JUMP JUMPDEST PUSH2 0x18D DUP2 PUSH2 0x177 JUMP JUMPDEST DUP3 MSTORE POP POP JUMP JUMPDEST PUSH1 0x0 PUSH1 0x20 DUP3 ADD SWAP1 POP PUSH2 0x1A8 PUSH1 0x0 DUP4 ADD DUP5 PUSH2 0x184 JUMP JUMPDEST SWAP3 SWAP2 POP POP JUMP JUMPDEST PUSH1 0x0 DUP1 REVERT JUMPDEST PUSH2 0x1BC DUP2 PUSH2 0x177 JUMP JUMPDEST DUP2 EQ PUSH2 0x1C7 JUMPI PUSH1 0x0 DUP1 REVERT JUMPDEST POP JUMP JUMPDEST PUSH1 0x0 DUP2 CALLDATALOAD SWAP1 POP PUSH2 0x1D9 DUP2 PUSH2 0x1B3 JUMP JUMPDEST SWAP3 SWAP2 POP POP JUMP JUMPDEST PUSH1 0x0 DUP1 PUSH1 0x40 DUP4 DUP6 SUB SLT ISZERO PUSH2 0x1F6 JUMPI PUSH2 0x1F5 PUSH2 0x1AE JUMP JUMPDEST JUMPDEST PUSH1 0x0 PUSH2 0x204 DUP6 DUP3 DUP7 ADD PUSH2 0x1CA JUMP JUMPDEST SWAP3 POP POP PUSH1 0x20 PUSH2 0x215 DUP6 DUP3 DUP7 ADD PUSH2 0x1CA JUMP JUMPDEST SWAP2 POP POP SWAP3 POP SWAP3 SWAP1 POP JUMP JUMPDEST PUSH32 0x4E487B7100000000000000000000000000000000000000000000000000000000 PUSH1 0x0 MSTORE PUSH1 0x11 PUSH1 0x4 MSTORE PUSH1 0x24 PUSH1 0x0 REVERT JUMPDEST PUSH1 0x0 PUSH2 0x259 DUP3 PUSH2 0x177 JUMP JUMPDEST SWAP2 POP PUSH2 0x264 DUP4 PUSH2 0x177 JUMP JUMPDEST SWAP3 POP DUP3 DUP3 ADD SWAP1 POP PUSH1 0xFF DUP2 GT ISZERO PUSH2 0x27D JUMPI PUSH2 0x27C PUSH2 0x21F JUMP JUMPDEST JUMPDEST SWAP3 SWAP2 POP POP JUMP JUMPDEST PUSH1 0x0 DUP3 DUP3 MSTORE PUSH1 0x20 DUP3 ADD SWAP1 POP SWAP3 SWAP2 POP POP JUMP JUMPDEST PUSH32 0x536166654D6174683A206164646974696F6E206F766572666C6F770000000000 PUSH1 0x0 DUP3 ADD MSTORE POP JUMP JUMPDEST PUSH1 0x0 PUSH2 0x2CA PUSH1 0x1B DUP4 PUSH2 0x283 JUMP JUMPDEST SWAP2 POP PUSH2 0x2D5 DUP3 PUSH2 0x294 JUMP JUMPDEST PUSH1 0x20 DUP3 ADD SWAP1 POP SWAP2 SWAP1 POP JUMP JUMPDEST PUSH1 0x0 PUSH1 0x20 DUP3 ADD SWAP1 POP DUP2 DUP2 SUB PUSH1 0x0 DUP4 ADD MSTORE PUSH2 0x2F9 DUP2 PUSH2 0x2BD JUMP JUMPDEST SWAP1 POP SWAP2 SWAP1 POP JUMP INVALID LOG2 PUSH5 0x6970667358 0x22 SLT KECCAK256 PUSH7 0x732A021CC93C6 DUP5 PUSH7 0xC12FD7008DFB88 SGT 0xD9 SGT CALLDATACOPY 0xE8 0xC0 SWAP4 0xAB 0x21 0xE4 0xE0 RETURN 0xB0 PUSH10 0x6964736F6C6343000812 STOP CALLER "
				},
				"gasEstimates": {
					"creation": {
						"codeDepositCost": "164400",
						"executionCost": "208",
						"totalCost": "164608"
					},
					"external": {
						"a()": "2446",
						"becomeOverflow(uint8,uint8)": "infinite"
					}
				},
				"methodIdentifiers": {
					"a()": "0dbe671f",
					"becomeOverflow(uint8,uint8)": "5d2b6e03"
				}
			},
			"storageLayout": {
				"storage": [
					{
						"astId": 39,
						"contract": "Users/user/Desktop/git/solidity/library.sol:libraryEx",
						"label": "a",
						"offset": 0,
						"slot": "0",
						"type": "t_uint8"
					}
				],
				"types": {
					"t_uint8": {
						"encoding": "inplace",
						"label": "uint8",
						"numberOfBytes": "1"
					}
				}
			},
			"userdoc": {
				"kind": "user",
				"methods": {},
				"version": 1
			}
		}
	}
}