{
	"lecture/lecture/sendTransferCall.sol": {
		"fallbackSafe": {
			"abi": [
				{
					"anonymous": false,
					"inputs": [
						{
							"indexed": false,
							"internalType": "string",
							"name": "_str",
							"type": "string"
						}
					],
					"name": "justFallBack",
					"type": "event"
				},
				{
					"anonymous": false,
					"inputs": [
						{
							"indexed": false,
							"internalType": "address",
							"name": "_from",
							"type": "address"
						},
						{
							"indexed": false,
							"internalType": "uint256",
							"name": "_amount",
							"type": "uint256"
						}
					],
					"name": "received",
					"type": "event"
				},
				{
					"stateMutability": "payable",
					"type": "fallback"
				},
				{
					"inputs": [],
					"name": "checkMyBalance",
					"outputs": [
						{
							"internalType": "uint256",
							"name": "",
							"type": "uint256"
						}
					],
					"stateMutability": "view",
					"type": "function"
				},
				{
					"stateMutability": "payable",
					"type": "receive"
				}
			],
			"devdoc": {
				"kind": "dev",
				"methods": {},
				"version": 1
			},
			"evm": {
				"assembly": "    /* \"lecture/lecture/sendTransferCall.sol\":3926:4324  contract fallbackSafe {... */\n  mstore(0x40, 0x80)\n  callvalue\n  dup1\n  iszero\n  tag_1\n  jumpi\n  0x00\n  dup1\n  revert\ntag_1:\n  pop\n  dataSize(sub_0)\n  dup1\n  dataOffset(sub_0)\n  0x00\n  codecopy\n  0x00\n  return\nstop\n\nsub_0: assembly {\n        /* \"lecture/lecture/sendTransferCall.sol\":3926:4324  contract fallbackSafe {... */\n      mstore(0x40, 0x80)\n      jumpi(tag_1, lt(calldatasize, 0x04))\n      shr(0xe0, calldataload(0x00))\n      dup1\n      0xb37d61f8\n      eq\n      tag_3\n      jumpi\n      jump(tag_2)\n    tag_1:\n      jumpi(tag_2, calldatasize)\n        /* \"lecture/lecture/sendTransferCall.sol\":4088:4119  received(msg.sender, msg.value) */\n      0xf11e547d796cc64acdf758e7cee90439494fd886a19159454aa61e473fdbafef\n        /* \"lecture/lecture/sendTransferCall.sol\":4097:4107  msg.sender */\n      caller\n        /* \"lecture/lecture/sendTransferCall.sol\":4109:4118  msg.value */\n      callvalue\n        /* \"lecture/lecture/sendTransferCall.sol\":4088:4119  received(msg.sender, msg.value) */\n      mload(0x40)\n      tag_6\n      swap3\n      swap2\n      swap1\n      tag_7\n      jump\t// in\n    tag_6:\n      mload(0x40)\n      dup1\n      swap2\n      sub\n      swap1\n      log1\n        /* \"lecture/lecture/sendTransferCall.sol\":3926:4324  contract fallbackSafe {... */\n      stop\n    tag_2:\n        /* \"lecture/lecture/sendTransferCall.sol\":4179:4206  justFallBack(\"No function\") */\n      0x7db680763acc8c8a22ab6e0378a38b5c49c0c251637de25444bcb2b973e2a756\n      mload(0x40)\n      tag_10\n      swap1\n      tag_11\n      jump\t// in\n    tag_10:\n      mload(0x40)\n      dup1\n      swap2\n      sub\n      swap1\n      log1\n        /* \"lecture/lecture/sendTransferCall.sol\":3926:4324  contract fallbackSafe {... */\n      stop\n        /* \"lecture/lecture/sendTransferCall.sol\":4222:4321  function checkMyBalance() public view returns(uint) {... */\n    tag_3:\n      callvalue\n      dup1\n      iszero\n      tag_12\n      jumpi\n      0x00\n      dup1\n      revert\n    tag_12:\n      pop\n      tag_13\n      tag_14\n      jump\t// in\n    tag_13:\n      mload(0x40)\n      tag_15\n      swap2\n      swap1\n      tag_16\n      jump\t// in\n    tag_15:\n      mload(0x40)\n      dup1\n      swap2\n      sub\n      swap1\n      return\n    tag_14:\n        /* \"lecture/lecture/sendTransferCall.sol\":4268:4272  uint */\n      0x00\n        /* \"lecture/lecture/sendTransferCall.sol\":4292:4313  address(this).balance */\n      selfbalance\n        /* \"lecture/lecture/sendTransferCall.sol\":4285:4313  return address(this).balance */\n      swap1\n      pop\n        /* \"lecture/lecture/sendTransferCall.sol\":4222:4321  function checkMyBalance() public view returns(uint) {... */\n      swap1\n      jump\t// out\n        /* \"#utility.yul\":7:133   */\n    tag_18:\n        /* \"#utility.yul\":44:51   */\n      0x00\n        /* \"#utility.yul\":84:126   */\n      0xffffffffffffffffffffffffffffffffffffffff\n        /* \"#utility.yul\":77:82   */\n      dup3\n        /* \"#utility.yul\":73:127   */\n      and\n        /* \"#utility.yul\":62:127   */\n      swap1\n      pop\n        /* \"#utility.yul\":7:133   */\n      swap2\n      swap1\n      pop\n      jump\t// out\n        /* \"#utility.yul\":139:235   */\n    tag_19:\n        /* \"#utility.yul\":176:183   */\n      0x00\n        /* \"#utility.yul\":205:229   */\n      tag_29\n        /* \"#utility.yul\":223:228   */\n      dup3\n        /* \"#utility.yul\":205:229   */\n      tag_18\n      jump\t// in\n    tag_29:\n        /* \"#utility.yul\":194:229   */\n      swap1\n      pop\n        /* \"#utility.yul\":139:235   */\n      swap2\n      swap1\n      pop\n      jump\t// out\n        /* \"#utility.yul\":241:359   */\n    tag_20:\n        /* \"#utility.yul\":328:352   */\n      tag_31\n        /* \"#utility.yul\":346:351   */\n      dup2\n        /* \"#utility.yul\":328:352   */\n      tag_19\n      jump\t// in\n    tag_31:\n        /* \"#utility.yul\":323:326   */\n      dup3\n        /* \"#utility.yul\":316:353   */\n      mstore\n        /* \"#utility.yul\":241:359   */\n      pop\n      pop\n      jump\t// out\n        /* \"#utility.yul\":365:442   */\n    tag_21:\n        /* \"#utility.yul\":402:409   */\n      0x00\n        /* \"#utility.yul\":431:436   */\n      dup2\n        /* \"#utility.yul\":420:436   */\n      swap1\n      pop\n        /* \"#utility.yul\":365:442   */\n      swap2\n      swap1\n      pop\n      jump\t// out\n        /* \"#utility.yul\":448:566   */\n    tag_22:\n        /* \"#utility.yul\":535:559   */\n      tag_34\n        /* \"#utility.yul\":553:558   */\n      dup2\n        /* \"#utility.yul\":535:559   */\n      tag_21\n      jump\t// in\n    tag_34:\n        /* \"#utility.yul\":530:533   */\n      dup3\n        /* \"#utility.yul\":523:560   */\n      mstore\n        /* \"#utility.yul\":448:566   */\n      pop\n      pop\n      jump\t// out\n        /* \"#utility.yul\":572:904   */\n    tag_7:\n        /* \"#utility.yul\":693:697   */\n      0x00\n        /* \"#utility.yul\":731:733   */\n      0x40\n        /* \"#utility.yul\":720:729   */\n      dup3\n        /* \"#utility.yul\":716:734   */\n      add\n        /* \"#utility.yul\":708:734   */\n      swap1\n      pop\n        /* \"#utility.yul\":744:815   */\n      tag_36\n        /* \"#utility.yul\":812:813   */\n      0x00\n        /* \"#utility.yul\":801:810   */\n      dup4\n        /* \"#utility.yul\":797:814   */\n      add\n        /* \"#utility.yul\":788:794   */\n      dup6\n        /* \"#utility.yul\":744:815   */\n      tag_20\n      jump\t// in\n    tag_36:\n        /* \"#utility.yul\":825:897   */\n      tag_37\n        /* \"#utility.yul\":893:895   */\n      0x20\n        /* \"#utility.yul\":882:891   */\n      dup4\n        /* \"#utility.yul\":878:896   */\n      add\n        /* \"#utility.yul\":869:875   */\n      dup5\n        /* \"#utility.yul\":825:897   */\n      tag_22\n      jump\t// in\n    tag_37:\n        /* \"#utility.yul\":572:904   */\n      swap4\n      swap3\n      pop\n      pop\n      pop\n      jump\t// out\n        /* \"#utility.yul\":910:1079   */\n    tag_23:\n        /* \"#utility.yul\":994:1005   */\n      0x00\n        /* \"#utility.yul\":1028:1034   */\n      dup3\n        /* \"#utility.yul\":1023:1026   */\n      dup3\n        /* \"#utility.yul\":1016:1035   */\n      mstore\n        /* \"#utility.yul\":1068:1072   */\n      0x20\n        /* \"#utility.yul\":1063:1066   */\n      dup3\n        /* \"#utility.yul\":1059:1073   */\n      add\n        /* \"#utility.yul\":1044:1073   */\n      swap1\n      pop\n        /* \"#utility.yul\":910:1079   */\n      swap3\n      swap2\n      pop\n      pop\n      jump\t// out\n        /* \"#utility.yul\":1085:1246   */\n    tag_24:\n        /* \"#utility.yul\":1225:1238   */\n      0x4e6f2066756e6374696f6e000000000000000000000000000000000000000000\n        /* \"#utility.yul\":1221:1222   */\n      0x00\n        /* \"#utility.yul\":1213:1219   */\n      dup3\n        /* \"#utility.yul\":1209:1223   */\n      add\n        /* \"#utility.yul\":1202:1239   */\n      mstore\n        /* \"#utility.yul\":1085:1246   */\n      pop\n      jump\t// out\n        /* \"#utility.yul\":1252:1618   */\n    tag_25:\n        /* \"#utility.yul\":1394:1397   */\n      0x00\n        /* \"#utility.yul\":1415:1482   */\n      tag_41\n        /* \"#utility.yul\":1479:1481   */\n      0x0b\n        /* \"#utility.yul\":1474:1477   */\n      dup4\n        /* \"#utility.yul\":1415:1482   */\n      tag_23\n      jump\t// in\n    tag_41:\n        /* \"#utility.yul\":1408:1482   */\n      swap2\n      pop\n        /* \"#utility.yul\":1491:1584   */\n      tag_42\n        /* \"#utility.yul\":1580:1583   */\n      dup3\n        /* \"#utility.yul\":1491:1584   */\n      tag_24\n      jump\t// in\n    tag_42:\n        /* \"#utility.yul\":1609:1611   */\n      0x20\n        /* \"#utility.yul\":1604:1607   */\n      dup3\n        /* \"#utility.yul\":1600:1612   */\n      add\n        /* \"#utility.yul\":1593:1612   */\n      swap1\n      pop\n        /* \"#utility.yul\":1252:1618   */\n      swap2\n      swap1\n      pop\n      jump\t// out\n        /* \"#utility.yul\":1624:2043   */\n    tag_11:\n        /* \"#utility.yul\":1790:1794   */\n      0x00\n        /* \"#utility.yul\":1828:1830   */\n      0x20\n        /* \"#utility.yul\":1817:1826   */\n      dup3\n        /* \"#utility.yul\":1813:1831   */\n      add\n        /* \"#utility.yul\":1805:1831   */\n      swap1\n      pop\n        /* \"#utility.yul\":1877:1886   */\n      dup2\n        /* \"#utility.yul\":1871:1875   */\n      dup2\n        /* \"#utility.yul\":1867:1887   */\n      sub\n        /* \"#utility.yul\":1863:1864   */\n      0x00\n        /* \"#utility.yul\":1852:1861   */\n      dup4\n        /* \"#utility.yul\":1848:1865   */\n      add\n        /* \"#utility.yul\":1841:1888   */\n      mstore\n        /* \"#utility.yul\":1905:2036   */\n      tag_44\n        /* \"#utility.yul\":2031:2035   */\n      dup2\n        /* \"#utility.yul\":1905:2036   */\n      tag_25\n      jump\t// in\n    tag_44:\n        /* \"#utility.yul\":1897:2036   */\n      swap1\n      pop\n        /* \"#utility.yul\":1624:2043   */\n      swap2\n      swap1\n      pop\n      jump\t// out\n        /* \"#utility.yul\":2049:2271   */\n    tag_16:\n        /* \"#utility.yul\":2142:2146   */\n      0x00\n        /* \"#utility.yul\":2180:2182   */\n      0x20\n        /* \"#utility.yul\":2169:2178   */\n      dup3\n        /* \"#utility.yul\":2165:2183   */\n      add\n        /* \"#utility.yul\":2157:2183   */\n      swap1\n      pop\n        /* \"#utility.yul\":2193:2264   */\n      tag_46\n        /* \"#utility.yul\":2261:2262   */\n      0x00\n        /* \"#utility.yul\":2250:2259   */\n      dup4\n        /* \"#utility.yul\":2246:2263   */\n      add\n        /* \"#utility.yul\":2237:2243   */\n      dup5\n        /* \"#utility.yul\":2193:2264   */\n      tag_22\n      jump\t// in\n    tag_46:\n        /* \"#utility.yul\":2049:2271   */\n      swap3\n      swap2\n      pop\n      pop\n      jump\t// out\n\n    auxdata: 0xa2646970667358221220a7af4b1dcb6d838cd737ad14d7e6dbe7f0c231813330ef72b630ae73a168bcc064736f6c63430008140033\n}\n",
				"bytecode": {
					"linkReferences": {},
					"object": "608060405234801561000f575f80fd5b5061020e8061001d5f395ff3fe608060405260043610610021575f3560e01c8063b37d61f81461009857610061565b36610061577ff11e547d796cc64acdf758e7cee90439494fd886a19159454aa61e473fdbafef3334604051610057929190610120565b60405180910390a1005b7f7db680763acc8c8a22ab6e0378a38b5c49c0c251637de25444bcb2b973e2a75660405161008e906101a1565b60405180910390a1005b3480156100a3575f80fd5b506100ac6100c2565b6040516100b991906101bf565b60405180910390f35b5f47905090565b5f73ffffffffffffffffffffffffffffffffffffffff82169050919050565b5f6100f2826100c9565b9050919050565b610102816100e8565b82525050565b5f819050919050565b61011a81610108565b82525050565b5f6040820190506101335f8301856100f9565b6101406020830184610111565b9392505050565b5f82825260208201905092915050565b7f4e6f2066756e6374696f6e0000000000000000000000000000000000000000005f82015250565b5f61018b600b83610147565b915061019682610157565b602082019050919050565b5f6020820190508181035f8301526101b88161017f565b9050919050565b5f6020820190506101d25f830184610111565b9291505056fea2646970667358221220a7af4b1dcb6d838cd737ad14d7e6dbe7f0c231813330ef72b630ae73a168bcc064736f6c63430008140033",
					"opcodes": "PUSH1 0x80 PUSH1 0x40 MSTORE CALLVALUE DUP1 ISZERO PUSH2 0xF JUMPI PUSH0 DUP1 REVERT JUMPDEST POP PUSH2 0x20E DUP1 PUSH2 0x1D PUSH0 CODECOPY PUSH0 RETURN INVALID PUSH1 0x80 PUSH1 0x40 MSTORE PUSH1 0x4 CALLDATASIZE LT PUSH2 0x21 JUMPI PUSH0 CALLDATALOAD PUSH1 0xE0 SHR DUP1 PUSH4 0xB37D61F8 EQ PUSH2 0x98 JUMPI PUSH2 0x61 JUMP JUMPDEST CALLDATASIZE PUSH2 0x61 JUMPI PUSH32 0xF11E547D796CC64ACDF758E7CEE90439494FD886A19159454AA61E473FDBAFEF CALLER CALLVALUE PUSH1 0x40 MLOAD PUSH2 0x57 SWAP3 SWAP2 SWAP1 PUSH2 0x120 JUMP JUMPDEST PUSH1 0x40 MLOAD DUP1 SWAP2 SUB SWAP1 LOG1 STOP JUMPDEST PUSH32 0x7DB680763ACC8C8A22AB6E0378A38B5C49C0C251637DE25444BCB2B973E2A756 PUSH1 0x40 MLOAD PUSH2 0x8E SWAP1 PUSH2 0x1A1 JUMP JUMPDEST PUSH1 0x40 MLOAD DUP1 SWAP2 SUB SWAP1 LOG1 STOP JUMPDEST CALLVALUE DUP1 ISZERO PUSH2 0xA3 JUMPI PUSH0 DUP1 REVERT JUMPDEST POP PUSH2 0xAC PUSH2 0xC2 JUMP JUMPDEST PUSH1 0x40 MLOAD PUSH2 0xB9 SWAP2 SWAP1 PUSH2 0x1BF JUMP JUMPDEST PUSH1 0x40 MLOAD DUP1 SWAP2 SUB SWAP1 RETURN JUMPDEST PUSH0 SELFBALANCE SWAP1 POP SWAP1 JUMP JUMPDEST PUSH0 PUSH20 0xFFFFFFFFFFFFFFFFFFFFFFFFFFFFFFFFFFFFFFFF DUP3 AND SWAP1 POP SWAP2 SWAP1 POP JUMP JUMPDEST PUSH0 PUSH2 0xF2 DUP3 PUSH2 0xC9 JUMP JUMPDEST SWAP1 POP SWAP2 SWAP1 POP JUMP JUMPDEST PUSH2 0x102 DUP2 PUSH2 0xE8 JUMP JUMPDEST DUP3 MSTORE POP POP JUMP JUMPDEST PUSH0 DUP2 SWAP1 POP SWAP2 SWAP1 POP JUMP JUMPDEST PUSH2 0x11A DUP2 PUSH2 0x108 JUMP JUMPDEST DUP3 MSTORE POP POP JUMP JUMPDEST PUSH0 PUSH1 0x40 DUP3 ADD SWAP1 POP PUSH2 0x133 PUSH0 DUP4 ADD DUP6 PUSH2 0xF9 JUMP JUMPDEST PUSH2 0x140 PUSH1 0x20 DUP4 ADD DUP5 PUSH2 0x111 JUMP JUMPDEST SWAP4 SWAP3 POP POP POP JUMP JUMPDEST PUSH0 DUP3 DUP3 MSTORE PUSH1 0x20 DUP3 ADD SWAP1 POP SWAP3 SWAP2 POP POP JUMP JUMPDEST PUSH32 0x4E6F2066756E6374696F6E000000000000000000000000000000000000000000 PUSH0 DUP3 ADD MSTORE POP JUMP JUMPDEST PUSH0 PUSH2 0x18B PUSH1 0xB DUP4 PUSH2 0x147 JUMP JUMPDEST SWAP2 POP PUSH2 0x196 DUP3 PUSH2 0x157 JUMP JUMPDEST PUSH1 0x20 DUP3 ADD SWAP1 POP SWAP2 SWAP1 POP JUMP JUMPDEST PUSH0 PUSH1 0x20 DUP3 ADD SWAP1 POP DUP2 DUP2 SUB PUSH0 DUP4 ADD MSTORE PUSH2 0x1B8 DUP2 PUSH2 0x17F JUMP JUMPDEST SWAP1 POP SWAP2 SWAP1 POP JUMP JUMPDEST PUSH0 PUSH1 0x20 DUP3 ADD SWAP1 POP PUSH2 0x1D2 PUSH0 DUP4 ADD DUP5 PUSH2 0x111 JUMP JUMPDEST SWAP3 SWAP2 POP POP JUMP INVALID LOG2 PUSH5 0x6970667358 0x22 SLT KECCAK256 0xA7 0xAF 0x4B SAR 0xCB PUSH14 0x838CD737AD14D7E6DBE7F0C23181 CALLER ADDRESS 0xEF PUSH19 0xB630AE73A168BCC064736F6C63430008140033 "
				},
				"gasEstimates": {
					"creation": {
						"codeDepositCost": "105200",
						"executionCost": "151",
						"totalCost": "105351"
					},
					"external": {
						"": "1881",
						"checkMyBalance()": "312"
					}
				},
				"methodIdentifiers": {
					"checkMyBalance()": "b37d61f8"
				}
			},
			"storageLayout": {
				"storage": [],
				"types": null
			},
			"userdoc": {
				"kind": "user",
				"methods": {},
				"version": 1
			}
		}
	}
}