{
	"data": {
		"bytecode": {
			"linkReferences": {},
			"object": "608060405234801561000f575f80fd5b5060405161029638038061029683398181016040528101906100319190610076565b80805f8190555050506100a1565b5f80fd5b5f819050919050565b61005581610043565b811461005f575f80fd5b50565b5f815190506100708161004c565b92915050565b5f6020828403121561008b5761008a61003f565b5b5f61009884828501610062565b91505092915050565b6101e8806100ae5f395ff3fe608060405234801561000f575f80fd5b506004361061003f575f3560e01c80634ddd108a146100435780636f31686714610061578063d0bc1a881461007d575b5f80fd5b61004b610099565b60405161005891906100e0565b60405180910390f35b61007b60048036038101906100769190610127565b61009e565b005b61009760048036038101906100929190610127565b6100b3565b005b5f5481565b600a816100ab919061017f565b5f8190555050565b805f546100c0919061017f565b5f8190555050565b5f819050919050565b6100da816100c8565b82525050565b5f6020820190506100f35f8301846100d1565b92915050565b5f80fd5b610106816100c8565b8114610110575f80fd5b50565b5f81359050610121816100fd565b92915050565b5f6020828403121561013c5761013b6100f9565b5b5f61014984828501610113565b91505092915050565b7f4e487b71000000000000000000000000000000000000000000000000000000005f52601160045260245ffd5b5f610189826100c8565b9150610194836100c8565b92508282019050808211156101ac576101ab610152565b5b9291505056fea26469706673582212205b2461b21628db32c84003d9ff33ed0487e34704ade695e0fbfa167a20b2c05f64736f6c63430008140033",
			"opcodes": "PUSH1 0x80 PUSH1 0x40 MSTORE CALLVALUE DUP1 ISZERO PUSH2 0xF JUMPI PUSH0 DUP1 REVERT JUMPDEST POP PUSH1 0x40 MLOAD PUSH2 0x296 CODESIZE SUB DUP1 PUSH2 0x296 DUP4 CODECOPY DUP2 DUP2 ADD PUSH1 0x40 MSTORE DUP2 ADD SWAP1 PUSH2 0x31 SWAP2 SWAP1 PUSH2 0x76 JUMP JUMPDEST DUP1 DUP1 PUSH0 DUP2 SWAP1 SSTORE POP POP POP PUSH2 0xA1 JUMP JUMPDEST PUSH0 DUP1 REVERT JUMPDEST PUSH0 DUP2 SWAP1 POP SWAP2 SWAP1 POP JUMP JUMPDEST PUSH2 0x55 DUP2 PUSH2 0x43 JUMP JUMPDEST DUP2 EQ PUSH2 0x5F JUMPI PUSH0 DUP1 REVERT JUMPDEST POP JUMP JUMPDEST PUSH0 DUP2 MLOAD SWAP1 POP PUSH2 0x70 DUP2 PUSH2 0x4C JUMP JUMPDEST SWAP3 SWAP2 POP POP JUMP JUMPDEST PUSH0 PUSH1 0x20 DUP3 DUP5 SUB SLT ISZERO PUSH2 0x8B JUMPI PUSH2 0x8A PUSH2 0x3F JUMP JUMPDEST JUMPDEST PUSH0 PUSH2 0x98 DUP5 DUP3 DUP6 ADD PUSH2 0x62 JUMP JUMPDEST SWAP2 POP POP SWAP3 SWAP2 POP POP JUMP JUMPDEST PUSH2 0x1E8 DUP1 PUSH2 0xAE PUSH0 CODECOPY PUSH0 RETURN INVALID PUSH1 0x80 PUSH1 0x40 MSTORE CALLVALUE DUP1 ISZERO PUSH2 0xF JUMPI PUSH0 DUP1 REVERT JUMPDEST POP PUSH1 0x4 CALLDATASIZE LT PUSH2 0x3F JUMPI PUSH0 CALLDATALOAD PUSH1 0xE0 SHR DUP1 PUSH4 0x4DDD108A EQ PUSH2 0x43 JUMPI DUP1 PUSH4 0x6F316867 EQ PUSH2 0x61 JUMPI DUP1 PUSH4 0xD0BC1A88 EQ PUSH2 0x7D JUMPI JUMPDEST PUSH0 DUP1 REVERT JUMPDEST PUSH2 0x4B PUSH2 0x99 JUMP JUMPDEST PUSH1 0x40 MLOAD PUSH2 0x58 SWAP2 SWAP1 PUSH2 0xE0 JUMP JUMPDEST PUSH1 0x40 MLOAD DUP1 SWAP2 SUB SWAP1 RETURN JUMPDEST PUSH2 0x7B PUSH1 0x4 DUP1 CALLDATASIZE SUB DUP2 ADD SWAP1 PUSH2 0x76 SWAP2 SWAP1 PUSH2 0x127 JUMP JUMPDEST PUSH2 0x9E JUMP JUMPDEST STOP JUMPDEST PUSH2 0x97 PUSH1 0x4 DUP1 CALLDATASIZE SUB DUP2 ADD SWAP1 PUSH2 0x92 SWAP2 SWAP1 PUSH2 0x127 JUMP JUMPDEST PUSH2 0xB3 JUMP JUMPDEST STOP JUMPDEST PUSH0 SLOAD DUP2 JUMP JUMPDEST PUSH1 0xA DUP2 PUSH2 0xAB SWAP2 SWAP1 PUSH2 0x17F JUMP JUMPDEST PUSH0 DUP2 SWAP1 SSTORE POP POP JUMP JUMPDEST DUP1 PUSH0 SLOAD PUSH2 0xC0 SWAP2 SWAP1 PUSH2 0x17F JUMP JUMPDEST PUSH0 DUP2 SWAP1 SSTORE POP POP JUMP JUMPDEST PUSH0 DUP2 SWAP1 POP SWAP2 SWAP1 POP JUMP JUMPDEST PUSH2 0xDA DUP2 PUSH2 0xC8 JUMP JUMPDEST DUP3 MSTORE POP POP JUMP JUMPDEST PUSH0 PUSH1 0x20 DUP3 ADD SWAP1 POP PUSH2 0xF3 PUSH0 DUP4 ADD DUP5 PUSH2 0xD1 JUMP JUMPDEST SWAP3 SWAP2 POP POP JUMP JUMPDEST PUSH0 DUP1 REVERT JUMPDEST PUSH2 0x106 DUP2 PUSH2 0xC8 JUMP JUMPDEST DUP2 EQ PUSH2 0x110 JUMPI PUSH0 DUP1 REVERT JUMPDEST POP JUMP JUMPDEST PUSH0 DUP2 CALLDATALOAD SWAP1 POP PUSH2 0x121 DUP2 PUSH2 0xFD JUMP JUMPDEST SWAP3 SWAP2 POP POP JUMP JUMPDEST PUSH0 PUSH1 0x20 DUP3 DUP5 SUB SLT ISZERO PUSH2 0x13C JUMPI PUSH2 0x13B PUSH2 0xF9 JUMP JUMPDEST JUMPDEST PUSH0 PUSH2 0x149 DUP5 DUP3 DUP6 ADD PUSH2 0x113 JUMP JUMPDEST SWAP2 POP POP SWAP3 SWAP2 POP POP JUMP JUMPDEST PUSH32 0x4E487B7100000000000000000000000000000000000000000000000000000000 PUSH0 MSTORE PUSH1 0x11 PUSH1 0x4 MSTORE PUSH1 0x24 PUSH0 REVERT JUMPDEST PUSH0 PUSH2 0x189 DUP3 PUSH2 0xC8 JUMP JUMPDEST SWAP2 POP PUSH2 0x194 DUP4 PUSH2 0xC8 JUMP JUMPDEST SWAP3 POP DUP3 DUP3 ADD SWAP1 POP DUP1 DUP3 GT ISZERO PUSH2 0x1AC JUMPI PUSH2 0x1AB PUSH2 0x152 JUMP JUMPDEST JUMPDEST SWAP3 SWAP2 POP POP JUMP INVALID LOG2 PUSH5 0x6970667358 0x22 SLT KECCAK256 JUMPDEST 0x24 PUSH2 0xB216 0x28 0xDB ORIGIN 0xC8 BLOCKHASH SUB 0xD9 SELFDESTRUCT CALLER 0xED DIV DUP8 0xE3 SELFBALANCE DIV 0xAD 0xE6 SWAP6 0xE0 0xFB STATICCALL AND PUSH27 0x20B2C05F64736F6C63430008140033000000000000000000000000 "
		},
		"gasEstimates": {
			"creation": {
				"codeDepositCost": "97600",
				"executionCost": "infinite",
				"totalCost": "infinite"
			},
			"external": {
				"addMoney(uint256)": "infinite",
				"changeMoney(uint256)": "infinite",
				"money()": "2402"
			}
		},
		"methodIdentifiers": {
			"addMoney(uint256)": "d0bc1a88",
			"changeMoney(uint256)": "6f316867",
			"money()": "4ddd108a"
		}
	},
	"abi": [
		{
			"inputs": [
				{
					"internalType": "uint256",
					"name": "_money",
					"type": "uint256"
				}
			],
			"stateMutability": "nonpayable",
			"type": "constructor"
		},
		{
			"inputs": [
				{
					"internalType": "uint256",
					"name": "_money",
					"type": "uint256"
				}
			],
			"name": "addMoney",
			"outputs": [],
			"stateMutability": "nonpayable",
			"type": "function"
		},
		{
			"inputs": [
				{
					"internalType": "uint256",
					"name": "_money",
					"type": "uint256"
				}
			],
			"name": "changeMoney",
			"outputs": [],
			"stateMutability": "nonpayable",
			"type": "function"
		},
		{
			"inputs": [],
			"name": "money",
			"outputs": [
				{
					"internalType": "uint256",
					"name": "",
					"type": "uint256"
				}
			],
			"stateMutability": "view",
			"type": "function"
		}
	]
}